{
  "_format": "hh-sol-artifact-1",
  "contractName": "Gashapon",
  "sourceName": "contracts/Gashapon.sol",
  "abi": [
    {
      "inputs": [
        {
          "internalType": "address",
          "name": "paymentToken_",
          "type": "address"
        },
        {
          "internalType": "uint256",
          "name": "price_",
          "type": "uint256"
        },
        {
          "internalType": "string",
          "name": "baseURI_",
          "type": "string"
        },
        {
          "internalType": "address",
          "name": "coordinator_",
          "type": "address"
        }
      ],
      "stateMutability": "nonpayable",
      "type": "constructor"
    },
    {
      "inputs": [
        {
          "internalType": "address",
          "name": "have",
          "type": "address"
        },
        {
          "internalType": "address",
          "name": "want",
          "type": "address"
        }
      ],
      "name": "OnlyCoordinatorCanFulfill",
      "type": "error"
    },
    {
      "inputs": [
        {
          "internalType": "address",
          "name": "have",
          "type": "address"
        },
        {
          "internalType": "address",
          "name": "owner",
          "type": "address"
        },
        {
          "internalType": "address",
          "name": "coordinator",
          "type": "address"
        }
      ],
      "name": "OnlyOwnerOrCoordinator",
      "type": "error"
    },
    {
      "inputs": [],
      "name": "ZeroAddress",
      "type": "error"
    },
    {
      "anonymous": false,
      "inputs": [
        {
          "indexed": true,
          "internalType": "address",
          "name": "owner",
          "type": "address"
        },
        {
          "indexed": true,
          "internalType": "address",
          "name": "approved",
          "type": "address"
        },
        {
          "indexed": true,
          "internalType": "uint256",
          "name": "tokenId",
          "type": "uint256"
        }
      ],
      "name": "Approval",
      "type": "event"
    },
    {
      "anonymous": false,
      "inputs": [
        {
          "indexed": true,
          "internalType": "address",
          "name": "owner",
          "type": "address"
        },
        {
          "indexed": true,
          "internalType": "address",
          "name": "operator",
          "type": "address"
        },
        {
          "indexed": false,
          "internalType": "bool",
          "name": "approved",
          "type": "bool"
        }
      ],
      "name": "ApprovalForAll",
      "type": "event"
    },
    {
      "anonymous": false,
      "inputs": [
        {
          "indexed": false,
          "internalType": "address",
          "name": "vrfCoordinator",
          "type": "address"
        }
      ],
      "name": "CoordinatorSet",
      "type": "event"
    },
    {
      "anonymous": false,
      "inputs": [
        {
          "indexed": true,
          "internalType": "address",
          "name": "from",
          "type": "address"
        },
        {
          "indexed": true,
          "internalType": "address",
          "name": "to",
          "type": "address"
        }
      ],
      "name": "OwnershipTransferRequested",
      "type": "event"
    },
    {
      "anonymous": false,
      "inputs": [
        {
          "indexed": true,
          "internalType": "address",
          "name": "from",
          "type": "address"
        },
        {
          "indexed": true,
          "internalType": "address",
          "name": "to",
          "type": "address"
        }
      ],
      "name": "OwnershipTransferred",
      "type": "event"
    },
    {
      "anonymous": false,
      "inputs": [
        {
          "indexed": true,
          "internalType": "address",
          "name": "from",
          "type": "address"
        },
        {
          "indexed": true,
          "internalType": "address",
          "name": "to",
          "type": "address"
        },
        {
          "indexed": true,
          "internalType": "uint256",
          "name": "tokenId",
          "type": "uint256"
        }
      ],
      "name": "Transfer",
      "type": "event"
    },
    {
      "inputs": [],
      "name": "COMMON_VARIANTS",
      "outputs": [
        {
          "internalType": "uint256",
          "name": "",
          "type": "uint256"
        }
      ],
      "stateMutability": "view",
      "type": "function"
    },
    {
      "inputs": [],
      "name": "COORDINATOR",
      "outputs": [
        {
          "internalType": "contract IVRFCoordinatorV2Plus",
          "name": "",
          "type": "address"
        }
      ],
      "stateMutability": "view",
      "type": "function"
    },
    {
      "inputs": [],
      "name": "LEGENDARY_OFFSET",
      "outputs": [
        {
          "internalType": "uint256",
          "name": "",
          "type": "uint256"
        }
      ],
      "stateMutability": "view",
      "type": "function"
    },
    {
      "inputs": [],
      "name": "MAX_COMMON_SUPPLY",
      "outputs": [
        {
          "internalType": "uint256",
          "name": "",
          "type": "uint256"
        }
      ],
      "stateMutability": "view",
      "type": "function"
    },
    {
      "inputs": [],
      "name": "acceptOwnership",
      "outputs": [],
      "stateMutability": "nonpayable",
      "type": "function"
    },
    {
      "inputs": [
        {
          "internalType": "address",
          "name": "to",
          "type": "address"
        },
        {
          "internalType": "uint256",
          "name": "tokenId",
          "type": "uint256"
        }
      ],
      "name": "approve",
      "outputs": [],
      "stateMutability": "nonpayable",
      "type": "function"
    },
    {
      "inputs": [
        {
          "internalType": "address",
          "name": "owner",
          "type": "address"
        }
      ],
      "name": "balanceOf",
      "outputs": [
        {
          "internalType": "uint256",
          "name": "",
          "type": "uint256"
        }
      ],
      "stateMutability": "view",
      "type": "function"
    },
    {
      "inputs": [
        {
          "internalType": "uint256[100]",
          "name": "tokens",
          "type": "uint256[100]"
        },
        {
          "internalType": "address",
          "name": "rewardsReceiver",
          "type": "address"
        },
        {
          "internalType": "bytes",
          "name": "",
          "type": "bytes"
        }
      ],
      "name": "burnCollection1",
      "outputs": [],
      "stateMutability": "nonpayable",
      "type": "function"
    },
    {
      "inputs": [
        {
          "internalType": "uint256[20]",
          "name": "tokens",
          "type": "uint256[20]"
        },
        {
          "internalType": "uint256",
          "name": "",
          "type": "uint256"
        },
        {
          "internalType": "address",
          "name": "rewardsReceiver",
          "type": "address"
        }
      ],
      "name": "burnCollection2",
      "outputs": [],
      "stateMutability": "nonpayable",
      "type": "function"
    },
    {
      "inputs": [],
      "name": "callbackGasLimit",
      "outputs": [
        {
          "internalType": "uint32",
          "name": "",
          "type": "uint32"
        }
      ],
      "stateMutability": "view",
      "type": "function"
    },
    {
      "inputs": [],
      "name": "commonMinted",
      "outputs": [
        {
          "internalType": "uint256",
          "name": "",
          "type": "uint256"
        }
      ],
      "stateMutability": "view",
      "type": "function"
    },
    {
      "inputs": [],
      "name": "count",
      "outputs": [
        {
          "internalType": "uint256",
          "name": "",
          "type": "uint256"
        }
      ],
      "stateMutability": "view",
      "type": "function"
    },
    {
      "inputs": [
        {
          "internalType": "uint256",
          "name": "tokenId",
          "type": "uint256"
        }
      ],
      "name": "getApproved",
      "outputs": [
        {
          "internalType": "address",
          "name": "",
          "type": "address"
        }
      ],
      "stateMutability": "view",
      "type": "function"
    },
    {
      "inputs": [
        {
          "internalType": "uint256",
          "name": "tokenId",
          "type": "uint256"
        }
      ],
      "name": "getVariant",
      "outputs": [
        {
          "internalType": "uint256",
          "name": "",
          "type": "uint256"
        }
      ],
      "stateMutability": "view",
      "type": "function"
    },
    {
      "inputs": [
        {
          "internalType": "address",
          "name": "owner",
          "type": "address"
        },
        {
          "internalType": "address",
          "name": "operator",
          "type": "address"
        }
      ],
      "name": "isApprovedForAll",
      "outputs": [
        {
          "internalType": "bool",
          "name": "",
          "type": "bool"
        }
      ],
      "stateMutability": "view",
      "type": "function"
    },
    {
      "inputs": [],
      "name": "jackpotMintPercent",
      "outputs": [
        {
          "internalType": "uint256",
          "name": "",
          "type": "uint256"
        }
      ],
      "stateMutability": "view",
      "type": "function"
    },
    {
      "inputs": [],
      "name": "keyHash",
      "outputs": [
        {
          "internalType": "bytes32",
          "name": "",
          "type": "bytes32"
        }
      ],
      "stateMutability": "view",
      "type": "function"
    },
    {
      "inputs": [
        {
          "internalType": "address",
          "name": "receiver",
          "type": "address"
        },
        {
          "internalType": "uint256",
          "name": "quantity",
          "type": "uint256"
        },
        {
          "internalType": "bytes",
          "name": "",
          "type": "bytes"
        }
      ],
      "name": "mint",
      "outputs": [],
      "stateMutability": "nonpayable",
      "type": "function"
    },
    {
      "inputs": [],
      "name": "name",
      "outputs": [
        {
          "internalType": "string",
          "name": "",
          "type": "string"
        }
      ],
      "stateMutability": "view",
      "type": "function"
    },
    {
      "inputs": [],
      "name": "numWords",
      "outputs": [
        {
          "internalType": "uint32",
          "name": "",
          "type": "uint32"
        }
      ],
      "stateMutability": "view",
      "type": "function"
    },
    {
      "inputs": [],
      "name": "owner",
      "outputs": [
        {
          "internalType": "address",
          "name": "",
          "type": "address"
        }
      ],
      "stateMutability": "view",
      "type": "function"
    },
    {
      "inputs": [
        {
          "internalType": "uint256",
          "name": "tokenId",
          "type": "uint256"
        }
      ],
      "name": "ownerOf",
      "outputs": [
        {
          "internalType": "address",
          "name": "",
          "type": "address"
        }
      ],
      "stateMutability": "view",
      "type": "function"
    },
    {
      "inputs": [],
      "name": "paymentToken",
      "outputs": [
        {
          "internalType": "contract IERC20",
          "name": "",
          "type": "address"
        }
      ],
      "stateMutability": "view",
      "type": "function"
    },
    {
      "inputs": [],
      "name": "price",
      "outputs": [
        {
          "internalType": "uint256",
          "name": "",
          "type": "uint256"
        }
      ],
      "stateMutability": "view",
      "type": "function"
    },
    {
      "inputs": [
        {
          "internalType": "uint256",
          "name": "requestId",
          "type": "uint256"
        },
        {
          "internalType": "uint256[]",
          "name": "randomWords",
          "type": "uint256[]"
        }
      ],
      "name": "rawFulfillRandomWords",
      "outputs": [],
      "stateMutability": "nonpayable",
      "type": "function"
    },
    {
      "inputs": [],
      "name": "requestConfirmations",
      "outputs": [
        {
          "internalType": "uint16",
          "name": "",
          "type": "uint16"
        }
      ],
      "stateMutability": "view",
      "type": "function"
    },
    {
      "inputs": [],
      "name": "s_vrfCoordinator",
      "outputs": [
        {
          "internalType": "contract IVRFCoordinatorV2Plus",
          "name": "",
          "type": "address"
        }
      ],
      "stateMutability": "view",
      "type": "function"
    },
    {
      "inputs": [
        {
          "internalType": "address",
          "name": "from",
          "type": "address"
        },
        {
          "internalType": "address",
          "name": "to",
          "type": "address"
        },
        {
          "internalType": "uint256",
          "name": "tokenId",
          "type": "uint256"
        }
      ],
      "name": "safeTransferFrom",
      "outputs": [],
      "stateMutability": "nonpayable",
      "type": "function"
    },
    {
      "inputs": [
        {
          "internalType": "address",
          "name": "from",
          "type": "address"
        },
        {
          "internalType": "address",
          "name": "to",
          "type": "address"
        },
        {
          "internalType": "uint256",
          "name": "tokenId",
          "type": "uint256"
        },
        {
          "internalType": "bytes",
          "name": "data",
          "type": "bytes"
        }
      ],
      "name": "safeTransferFrom",
      "outputs": [],
      "stateMutability": "nonpayable",
      "type": "function"
    },
    {
      "inputs": [
        {
          "internalType": "address",
          "name": "operator",
          "type": "address"
        },
        {
          "internalType": "bool",
          "name": "approved",
          "type": "bool"
        }
      ],
      "name": "setApprovalForAll",
      "outputs": [],
      "stateMutability": "nonpayable",
      "type": "function"
    },
    {
      "inputs": [
        {
          "internalType": "string",
          "name": "newBase",
          "type": "string"
        }
      ],
      "name": "setBaseURI",
      "outputs": [],
      "stateMutability": "nonpayable",
      "type": "function"
    },
    {
      "inputs": [
        {
          "internalType": "address",
          "name": "_vrfCoordinator",
          "type": "address"
        }
      ],
      "name": "setCoordinator",
      "outputs": [],
      "stateMutability": "nonpayable",
      "type": "function"
    },
    {
      "inputs": [
        {
          "internalType": "uint256",
          "name": "percent",
          "type": "uint256"
        }
      ],
      "name": "setJackpotMintPercent",
      "outputs": [],
      "stateMutability": "nonpayable",
      "type": "function"
    },
    {
      "inputs": [
        {
          "internalType": "uint256",
          "name": "newPrice",
          "type": "uint256"
        }
      ],
      "name": "setPrice",
      "outputs": [],
      "stateMutability": "nonpayable",
      "type": "function"
    },
    {
      "inputs": [
        {
          "internalType": "address",
          "name": "coordinator",
          "type": "address"
        },
        {
          "internalType": "bytes32",
          "name": "keyHash_",
          "type": "bytes32"
        },
        {
          "internalType": "uint256",
          "name": "subId",
          "type": "uint256"
        },
        {
          "internalType": "uint32",
          "name": "cbGasLimit",
          "type": "uint32"
        },
        {
          "internalType": "uint16",
          "name": "confs",
          "type": "uint16"
        }
      ],
      "name": "setVRFConfigV25",
      "outputs": [],
      "stateMutability": "nonpayable",
      "type": "function"
    },
    {
      "inputs": [],
      "name": "subscriptionId",
      "outputs": [
        {
          "internalType": "uint256",
          "name": "",
          "type": "uint256"
        }
      ],
      "stateMutability": "view",
      "type": "function"
    },
    {
      "inputs": [
        {
          "internalType": "bytes4",
          "name": "interfaceId",
          "type": "bytes4"
        }
      ],
      "name": "supportsInterface",
      "outputs": [
        {
          "internalType": "bool",
          "name": "",
          "type": "bool"
        }
      ],
      "stateMutability": "view",
      "type": "function"
    },
    {
      "inputs": [],
      "name": "symbol",
      "outputs": [
        {
          "internalType": "string",
          "name": "",
          "type": "string"
        }
      ],
      "stateMutability": "view",
      "type": "function"
    },
    {
      "inputs": [
        {
          "internalType": "uint256",
          "name": "tokenId",
          "type": "uint256"
        }
      ],
      "name": "tokenURI",
      "outputs": [
        {
          "internalType": "string",
          "name": "",
          "type": "string"
        }
      ],
      "stateMutability": "view",
      "type": "function"
    },
    {
      "inputs": [],
      "name": "totalSupply",
      "outputs": [
        {
          "internalType": "uint256",
          "name": "",
          "type": "uint256"
        }
      ],
      "stateMutability": "view",
      "type": "function"
    },
    {
      "inputs": [
        {
          "internalType": "address",
          "name": "from",
          "type": "address"
        },
        {
          "internalType": "address",
          "name": "to",
          "type": "address"
        },
        {
          "internalType": "uint256",
          "name": "tokenId",
          "type": "uint256"
        }
      ],
      "name": "transferFrom",
      "outputs": [],
      "stateMutability": "nonpayable",
      "type": "function"
    },
    {
      "inputs": [
        {
          "internalType": "address",
          "name": "to",
          "type": "address"
        }
      ],
      "name": "transferOwnership",
      "outputs": [],
      "stateMutability": "nonpayable",
      "type": "function"
    },
    {
      "inputs": [
        {
          "internalType": "address",
          "name": "to",
          "type": "address"
        }
      ],
      "name": "withdraw",
      "outputs": [],
      "stateMutability": "nonpayable",
      "type": "function"
    }
  ],
  "bytecode": "0x60a0604052603c600d556203d090601360006101000a81548163ffffffff021916908363ffffffff1602179055506003601360046101000a81548161ffff021916908361ffff1602179055506001601360066101000a81548163ffffffff021916908363ffffffff1602179055503480156200007a57600080fd5b506040516200652a3803806200652a8339818101604052810190620000a09190620006e1565b80338060006040518060400160405280600881526020017f4761736861706f6e0000000000000000000000000000000000000000000000008152506040518060400160405280600481526020017f47415348000000000000000000000000000000000000000000000000000000008152508160009081620001229190620009b3565b508060019081620001349190620009b3565b5050506001600681905550600073ffffffffffffffffffffffffffffffffffffffff168273ffffffffffffffffffffffffffffffffffffffff1603620001b1576040517f08c379a0000000000000000000000000000000000000000000000000000000008152600401620001a89062000afb565b60405180910390fd5b81600760006101000a81548173ffffffffffffffffffffffffffffffffffffffff021916908373ffffffffffffffffffffffffffffffffffffffff160217905550600073ffffffffffffffffffffffffffffffffffffffff168173ffffffffffffffffffffffffffffffffffffffff1614620002395762000238816200037d60201b60201c565b5b505050600073ffffffffffffffffffffffffffffffffffffffff168173ffffffffffffffffffffffffffffffffffffffff1603620002a3576040517fd92e233d00000000000000000000000000000000000000000000000000000000815260040160405180910390fd5b80600960006101000a81548173ffffffffffffffffffffffffffffffffffffffff021916908373ffffffffffffffffffffffffffffffffffffffff160217905550508373ffffffffffffffffffffffffffffffffffffffff1660808173ffffffffffffffffffffffffffffffffffffffff168152505082600a8190555081600f9081620003319190620009b3565b5080601060006101000a81548173ffffffffffffffffffffffffffffffffffffffff021916908373ffffffffffffffffffffffffffffffffffffffff1602179055505050505062000b8f565b3373ffffffffffffffffffffffffffffffffffffffff168173ffffffffffffffffffffffffffffffffffffffff1603620003ee576040517f08c379a0000000000000000000000000000000000000000000000000000000008152600401620003e59062000b6d565b60405180910390fd5b80600860006101000a81548173ffffffffffffffffffffffffffffffffffffffff021916908373ffffffffffffffffffffffffffffffffffffffff1602179055508073ffffffffffffffffffffffffffffffffffffffff16600760009054906101000a900473ffffffffffffffffffffffffffffffffffffffff1673ffffffffffffffffffffffffffffffffffffffff167fed8889f560326eb138920d842192f0eb3dd22b4f139c87a2c57538e05bae127860405160405180910390a350565b6000604051905090565b600080fd5b600080fd5b600073ffffffffffffffffffffffffffffffffffffffff82169050919050565b6000620004ef82620004c2565b9050919050565b6200050181620004e2565b81146200050d57600080fd5b50565b6000815190506200052181620004f6565b92915050565b6000819050919050565b6200053c8162000527565b81146200054857600080fd5b50565b6000815190506200055c8162000531565b92915050565b600080fd5b600080fd5b6000601f19601f8301169050919050565b7f4e487b7100000000000000000000000000000000000000000000000000000000600052604160045260246000fd5b620005b7826200056c565b810181811067ffffffffffffffff82111715620005d957620005d86200057d565b5b80604052505050565b6000620005ee620004ae565b9050620005fc8282620005ac565b919050565b600067ffffffffffffffff8211156200061f576200061e6200057d565b5b6200062a826200056c565b9050602081019050919050565b60005b83811015620006575780820151818401526020810190506200063a565b60008484015250505050565b60006200067a620006748462000601565b620005e2565b90508281526020810184848401111562000699576200069862000567565b5b620006a684828562000637565b509392505050565b600082601f830112620006c657620006c562000562565b5b8151620006d884826020860162000663565b91505092915050565b60008060008060808587031215620006fe57620006fd620004b8565b5b60006200070e8782880162000510565b945050602062000721878288016200054b565b935050604085015167ffffffffffffffff811115620007455762000744620004bd565b5b6200075387828801620006ae565b9250506060620007668782880162000510565b91505092959194509250565b600081519050919050565b7f4e487b7100000000000000000000000000000000000000000000000000000000600052602260045260246000fd5b60006002820490506001821680620007c557607f821691505b602082108103620007db57620007da6200077d565b5b50919050565b60008190508160005260206000209050919050565b60006020601f8301049050919050565b600082821b905092915050565b600060088302620008457fffffffffffffffffffffffffffffffffffffffffffffffffffffffffffffffff8262000806565b62000851868362000806565b95508019841693508086168417925050509392505050565b6000819050919050565b6000620008946200088e620008888462000527565b62000869565b62000527565b9050919050565b6000819050919050565b620008b08362000873565b620008c8620008bf826200089b565b84845462000813565b825550505050565b600090565b620008df620008d0565b620008ec818484620008a5565b505050565b5b81811015620009145762000908600082620008d5565b600181019050620008f2565b5050565b601f82111562000963576200092d81620007e1565b6200093884620007f6565b8101602085101562000948578190505b620009606200095785620007f6565b830182620008f1565b50505b505050565b600082821c905092915050565b6000620009886000198460080262000968565b1980831691505092915050565b6000620009a3838362000975565b9150826002028217905092915050565b620009be8262000772565b67ffffffffffffffff811115620009da57620009d96200057d565b5b620009e68254620007ac565b620009f382828562000918565b600060209050601f83116001811462000a2b576000841562000a16578287015190505b62000a22858262000995565b86555062000a92565b601f19841662000a3b86620007e1565b60005b8281101562000a655784890151825560018201915060208501945060208101905062000a3e565b8683101562000a85578489015162000a81601f89168262000975565b8355505b6001600288020188555050505b505050505050565b600082825260208201905092915050565b7f43616e6e6f7420736574206f776e657220746f207a65726f0000000000000000600082015250565b600062000ae360188362000a9a565b915062000af08262000aab565b602082019050919050565b6000602082019050818103600083015262000b168162000ad4565b9050919050565b7f43616e6e6f74207472616e7366657220746f2073656c66000000000000000000600082015250565b600062000b5560178362000a9a565b915062000b628262000b1d565b602082019050919050565b6000602082019050818103600083015262000b888162000b46565b9050919050565b60805161596a62000bc060003960008181610bf101528181610c6501528181610d010152611428015261596a6000f3fe608060405234801561001057600080fd5b50600436106102695760003560e01c806374e1ee4111610151578063a78f06b5116100c3578063e1b60f8911610087578063e1b60f8914610704578063e985e9c514610720578063f2f2ef2b14610750578063f2fde38b1461076c578063f5a618b014610788578063fc831051146107a657610269565b8063a78f06b514610660578063b05e97711461067e578063b0fb162f1461069a578063b88d4fde146106b8578063c87b56dd146106d457610269565b806391b7f5ed1161011557806391b7f5ed146105b257806394d008ef146105ce57806395d89b41146105ea5780639eccacf614610608578063a035b1fe14610626578063a22cb4651461064457610269565b806374e1ee411461052057806379ba5097146105505780637ccfd7fc1461055a5780638da5cb5b146105785780638ea981171461059657610269565b806324f74697116101ea57806351cff8d9116101ae57806351cff8d91461044c57806355f804b31461046857806361728f39146104845780636352211e146104a257806366435c06146104d257806370a08231146104f057610269565b806324f74697146103b85780632d90ed6d146103d65780633013ce29146103f45780633b2bcbf11461041257806342842e0e1461043057610269565b806309c1ba2e1161023157806309c1ba2e1461032657806318160ddd146103445780631ac39bfd146103625780631fe543e31461038057806323b872dd1461039c57610269565b806301ffc9a71461026e57806306661abd1461029e57806306fdde03146102bc578063081812fc146102da578063095ea7b31461030a575b600080fd5b610288600480360381019061028391906137c8565b6107c2565b6040516102959190613810565b60405180910390f35b6102a66108a4565b6040516102b39190613844565b60405180910390f35b6102c46108ae565b6040516102d191906138ef565b60405180910390f35b6102f460048036038101906102ef919061393d565b610940565b60405161030191906139ab565b60405180910390f35b610324600480360381019061031f91906139f2565b610986565b005b61032e610a9d565b60405161033b9190613844565b60405180910390f35b61034c610aa3565b6040516103599190613844565b60405180910390f35b61036a610aa9565b6040516103779190613844565b60405180910390f35b61039a60048036038101906103959190613a97565b610aae565b005b6103b660048036038101906103b19190613af7565b610b74565b005b6103c0610bd4565b6040516103cd9190613b69565b60405180910390f35b6103de610bea565b6040516103eb9190613844565b60405180910390f35b6103fc610bef565b6040516104099190613be3565b60405180910390f35b61041a610c13565b6040516104279190613c1f565b60405180910390f35b61044a60048036038101906104459190613af7565b610c39565b005b61046660048036038101906104619190613c3a565b610c59565b005b610482600480360381019061047d9190613cbd565b610de0565b005b61048c610dfe565b6040516104999190613d23565b60405180910390f35b6104bc60048036038101906104b7919061393d565b610e04565b6040516104c991906139ab565b60405180910390f35b6104da610e8a565b6040516104e79190613844565b60405180910390f35b61050a60048036038101906105059190613c3a565b610e90565b6040516105179190613844565b60405180910390f35b61053a6004803603810190610535919061393d565b610f47565b6040516105479190613844565b60405180910390f35b610558610fac565b005b610562611143565b60405161056f9190613b69565b60405180910390f35b610580611159565b60405161058d91906139ab565b60405180910390f35b6105b060048036038101906105ab9190613c3a565b611183565b005b6105cc60048036038101906105c7919061393d565b611364565b005b6105e860048036038101906105e39190613d94565b611376565b005b6105f2611729565b6040516105ff91906138ef565b60405180910390f35b6106106117bb565b60405161061d9190613c1f565b60405180910390f35b61062e6117e1565b60405161063b9190613844565b60405180910390f35b61065e60048036038101906106599190613e34565b6117e7565b005b6106686117fd565b6040516106759190613844565b60405180910390f35b61069860048036038101906106939190613f06565b611804565b005b6106a26118bc565b6040516106af9190613f90565b60405180910390f35b6106d260048036038101906106cd91906140db565b6118d0565b005b6106ee60048036038101906106e9919061393d565b611932565b6040516106fb91906138ef565b60405180910390f35b61071e60048036038101906107199190614180565b61199a565b005b61073a600480360381019061073591906141d6565b611a6f565b6040516107479190613810565b60405180910390f35b61076a60048036038101906107659190614238565b611b03565b005b61078660048036038101906107819190613c3a565b611b74565b005b610790611b88565b60405161079d9190613844565b60405180910390f35b6107c060048036038101906107bb919061393d565b611b8e565b005b60007f80ac58cd000000000000000000000000000000000000000000000000000000007bffffffffffffffffffffffffffffffffffffffffffffffffffffffff1916827bffffffffffffffffffffffffffffffffffffffffffffffffffffffff1916148061088d57507f5b5e139f000000000000000000000000000000000000000000000000000000007bffffffffffffffffffffffffffffffffffffffffffffffffffffffff1916827bffffffffffffffffffffffffffffffffffffffffffffffffffffffff1916145b8061089d575061089c82611be4565b5b9050919050565b6000600b54905090565b6060600080546108bd906142de565b80601f01602080910402602001604051908101604052809291908181526020018280546108e9906142de565b80156109365780601f1061090b57610100808354040283529160200191610936565b820191906000526020600020905b81548152906001019060200180831161091957829003601f168201915b5050505050905090565b600061094b82611c4e565b6004600083815260200190815260200160002060009054906101000a900473ffffffffffffffffffffffffffffffffffffffff169050919050565b600061099182610e04565b90508073ffffffffffffffffffffffffffffffffffffffff168373ffffffffffffffffffffffffffffffffffffffff1603610a01576040517f08c379a00000000000000000000000000000000000000000000000000000000081526004016109f890614381565b60405180910390fd5b8073ffffffffffffffffffffffffffffffffffffffff16610a20611c99565b73ffffffffffffffffffffffffffffffffffffffff161480610a4f5750610a4e81610a49611c99565b611a6f565b5b610a8e576040517f08c379a0000000000000000000000000000000000000000000000000000000008152600401610a8590614413565b60405180910390fd5b610a988383611ca1565b505050565b60125481565b600b5481565b601481565b600960009054906101000a900473ffffffffffffffffffffffffffffffffffffffff1673ffffffffffffffffffffffffffffffffffffffff163373ffffffffffffffffffffffffffffffffffffffff1614610b645733600960009054906101000a900473ffffffffffffffffffffffffffffffffffffffff166040517f1cf993f4000000000000000000000000000000000000000000000000000000008152600401610b5b929190614433565b60405180910390fd5b610b6f838383611d5a565b505050565b610b85610b7f611c99565b82611ecc565b610bc4576040517f08c379a0000000000000000000000000000000000000000000000000000000008152600401610bbb906144ce565b60405180910390fd5b610bcf838383611f61565b505050565b601360009054906101000a900463ffffffff1681565b601481565b7f000000000000000000000000000000000000000000000000000000000000000081565b601060009054906101000a900473ffffffffffffffffffffffffffffffffffffffff1681565b610c54838383604051806020016040528060008152506118d0565b505050565b610c6161225a565b60007f000000000000000000000000000000000000000000000000000000000000000073ffffffffffffffffffffffffffffffffffffffff166370a08231306040518263ffffffff1660e01b8152600401610cbc91906139ab565b602060405180830381865afa158015610cd9573d6000803e3d6000fd5b505050506040513d601f19601f82011682018060405250810190610cfd9190614503565b90507f000000000000000000000000000000000000000000000000000000000000000073ffffffffffffffffffffffffffffffffffffffff1663a9059cbb83836040518363ffffffff1660e01b8152600401610d5a929190614530565b6020604051808303816000875af1158015610d79573d6000803e3d6000fd5b505050506040513d601f19601f82011682018060405250810190610d9d919061456e565b610ddc576040517f08c379a0000000000000000000000000000000000000000000000000000000008152600401610dd3906145e7565b60405180910390fd5b5050565b610de861225a565b8181600f9182610df99291906147b4565b505050565b60115481565b600080610e10836122ec565b9050600073ffffffffffffffffffffffffffffffffffffffff168173ffffffffffffffffffffffffffffffffffffffff1603610e81576040517f08c379a0000000000000000000000000000000000000000000000000000000008152600401610e78906148d0565b60405180910390fd5b80915050919050565b600c5481565b60008073ffffffffffffffffffffffffffffffffffffffff168273ffffffffffffffffffffffffffffffffffffffff1603610f00576040517f08c379a0000000000000000000000000000000000000000000000000000000008152600401610ef790614962565b60405180910390fd5b600360008373ffffffffffffffffffffffffffffffffffffffff1673ffffffffffffffffffffffffffffffffffffffff168152602001908152602001600020549050919050565b6000610f5282612329565b610f91576040517f08c379a0000000000000000000000000000000000000000000000000000000008152600401610f88906149ce565b60405180910390fd5b600e6000838152602001908152602001600020549050919050565b600860009054906101000a900473ffffffffffffffffffffffffffffffffffffffff1673ffffffffffffffffffffffffffffffffffffffff163373ffffffffffffffffffffffffffffffffffffffff161461103c576040517f08c379a000000000000000000000000000000000000000000000000000000000815260040161103390614a3a565b60405180910390fd5b6000600760009054906101000a900473ffffffffffffffffffffffffffffffffffffffff16905033600760006101000a81548173ffffffffffffffffffffffffffffffffffffffff021916908373ffffffffffffffffffffffffffffffffffffffff1602179055506000600860006101000a81548173ffffffffffffffffffffffffffffffffffffffff021916908373ffffffffffffffffffffffffffffffffffffffff1602179055503373ffffffffffffffffffffffffffffffffffffffff168173ffffffffffffffffffffffffffffffffffffffff167f8be0079c531659141344cd1fd0a4f28419497f9722a3daafe3b4186f6b6457e060405160405180910390a350565b601360069054906101000a900463ffffffff1681565b6000600760009054906101000a900473ffffffffffffffffffffffffffffffffffffffff16905090565b61118b611159565b73ffffffffffffffffffffffffffffffffffffffff163373ffffffffffffffffffffffffffffffffffffffff16141580156112145750600960009054906101000a900473ffffffffffffffffffffffffffffffffffffffff1673ffffffffffffffffffffffffffffffffffffffff163373ffffffffffffffffffffffffffffffffffffffff1614155b156112835733611222611159565b600960009054906101000a900473ffffffffffffffffffffffffffffffffffffffff166040517f061db9c100000000000000000000000000000000000000000000000000000000815260040161127a93929190614a5a565b60405180910390fd5b600073ffffffffffffffffffffffffffffffffffffffff168173ffffffffffffffffffffffffffffffffffffffff16036112e9576040517fd92e233d00000000000000000000000000000000000000000000000000000000815260040160405180910390fd5b80600960006101000a81548173ffffffffffffffffffffffffffffffffffffffff021916908373ffffffffffffffffffffffffffffffffffffffff1602179055507fd1a6a14209a385a964d036e404cb5cfb71f4000cdb03c9366292430787261be68160405161135991906139ab565b60405180910390a150565b61136c61225a565b80600a8190555050565b61137e61236a565b600083116113c1576040517f08c379a00000000000000000000000000000000000000000000000000000000081526004016113b890614add565b60405180910390fd5b620186a083600c546113d39190614b2c565b1115611414576040517f08c379a000000000000000000000000000000000000000000000000000000000815260040161140b90614bac565b60405180910390fd5b600083600a546114249190614bcc565b90507f000000000000000000000000000000000000000000000000000000000000000073ffffffffffffffffffffffffffffffffffffffff166323b872dd3330846040518463ffffffff1660e01b815260040161148393929190614c0e565b6020604051808303816000875af11580156114a2573d6000803e3d6000fd5b505050506040513d601f19601f820116820180604052508101906114c6919061456e565b611505576040517f08c379a00000000000000000000000000000000000000000000000000000000081526004016114fc90614c91565b60405180910390fd5b60008073ffffffffffffffffffffffffffffffffffffffff16601060009054906101000a900473ffffffffffffffffffffffffffffffffffffffff1673ffffffffffffffffffffffffffffffffffffffff16141580156115685750600060125414155b801561157957506000801b60115414155b905080156116855760008567ffffffffffffffff81111561159d5761159c613fb0565b5b6040519080825280602002602001820160405280156115cb5781602001602082028036833780820191505090505b50905060005b86811015611649576000600b600081546115ea90614cb1565b91905081905590506115fc89826123b9565b6000600e6000838152602001908152602001600020819055508083838151811061162957611628614cf9565b5b60200260200101818152505050808061164190614cb1565b9150506115d1565b5060006116546123d7565b90508160146000838152602001908152602001600020908051906020019061167d9291906136ae565b505050611700565b60005b858110156116fe576000600b600081546116a190614cb1565b91905081905590506116b388826123b9565b60006116cf6001436116c59190614d28565b4060001c836125c0565b905080600e600084815260200190815260200160002081905550505080806116f690614cb1565b915050611688565b505b84600c60008282546117129190614b2c565b925050819055505050611723612613565b50505050565b606060018054611738906142de565b80601f0160208091040260200160405190810160405280929190818152602001828054611764906142de565b80156117b15780601f10611786576101008083540402835291602001916117b1565b820191906000526020600020905b81548152906001019060200180831161179457829003601f168201915b5050505050905090565b600960009054906101000a900473ffffffffffffffffffffffffffffffffffffffff1681565b600a5481565b6117f96117f2611c99565b838361261d565b5050565b620186a081565b61180c61225a565b84601060006101000a81548173ffffffffffffffffffffffffffffffffffffffff021916908373ffffffffffffffffffffffffffffffffffffffff160217905550836011819055508260128190555060008263ffffffff161461188b5781601360006101000a81548163ffffffff021916908363ffffffff1602179055505b60008161ffff16146118b55780601360046101000a81548161ffff021916908361ffff1602179055505b5050505050565b601360049054906101000a900461ffff1681565b6118e16118db611c99565b83611ecc565b611920576040517f08c379a0000000000000000000000000000000000000000000000000000000008152600401611917906144ce565b60405180910390fd5b61192c84848484612789565b50505050565b606061193d82611c4e565b60006119476127e5565b905060008151116119675760405180602001604052806000815250611992565b8061197184612877565b604051602001611982929190614d98565b6040516020818303038152906040525b915050919050565b6119a261236a565b600d54620186a06064600c546119b89190614bcc565b6119c29190614deb565b1015611a03576040517f08c379a00000000000000000000000000000000000000000000000000000000081526004016119fa90614e68565b60405180910390fd5b611a0e836001612945565b6000600b60008154611a1f90614cb1565b9190508190559050611a3182826123b9565b6001601480611a409190614b2c565b611a4a9190614b2c565b600e60008381526020019081526020016000208190555050611a6a612613565b505050565b6000600560008473ffffffffffffffffffffffffffffffffffffffff1673ffffffffffffffffffffffffffffffffffffffff16815260200190815260200160002060008373ffffffffffffffffffffffffffffffffffffffff1673ffffffffffffffffffffffffffffffffffffffff16815260200190815260200160002060009054906101000a900460ff16905092915050565b611b0b61236a565b611b16846000612b92565b6000600b60008154611b2790614cb1565b9190508190559050611b3984826123b9565b611b4285612dc9565b6014611b4e9190614b2c565b600e60008381526020019081526020016000208190555050611b6e612613565b50505050565b611b7c61225a565b611b8581612e19565b50565b600d5481565b611b9661225a565b6064811115611bda576040517f08c379a0000000000000000000000000000000000000000000000000000000008152600401611bd190614ed4565b60405180910390fd5b80600d8190555050565b60007f01ffc9a7000000000000000000000000000000000000000000000000000000007bffffffffffffffffffffffffffffffffffffffffffffffffffffffff1916827bffffffffffffffffffffffffffffffffffffffffffffffffffffffff1916149050919050565b611c5781612329565b611c96576040517f08c379a0000000000000000000000000000000000000000000000000000000008152600401611c8d906148d0565b60405180910390fd5b50565b600033905090565b816004600083815260200190815260200160002060006101000a81548173ffffffffffffffffffffffffffffffffffffffff021916908373ffffffffffffffffffffffffffffffffffffffff160217905550808273ffffffffffffffffffffffffffffffffffffffff16611d1483610e04565b73ffffffffffffffffffffffffffffffffffffffff167f8c5be1e5ebec7d5bd14f71427d1e84f3dd0314c0f7b2291e5b200ac8c7c3b92560405160405180910390a45050565b600082826000818110611d7057611d6f614cf9565b5b905060200201359050600060146000868152602001908152602001600020805480602002602001604051908101604052809291908181526020018280548015611dd857602002820191906000526020600020905b815481526020019060010190808311611dc4575b505050505090506000815111611e23576040517f08c379a0000000000000000000000000000000000000000000000000000000008152600401611e1a90614f40565b60405180910390fd5b601460008681526020019081526020016000206000611e4291906136fb565b60005b8151811015611ec4576000828281518110611e6357611e62614cf9565b5b602002602001015190506000600e60008381526020019081526020016000205403611eb0576000611e9485836125c0565b905080600e600084815260200190815260200160002081905550505b508080611ebc90614cb1565b915050611e45565b505050505050565b600080611ed883610e04565b90508073ffffffffffffffffffffffffffffffffffffffff168473ffffffffffffffffffffffffffffffffffffffff161480611f1a5750611f198185611a6f565b5b80611f5857508373ffffffffffffffffffffffffffffffffffffffff16611f4084610940565b73ffffffffffffffffffffffffffffffffffffffff16145b91505092915050565b8273ffffffffffffffffffffffffffffffffffffffff16611f8182610e04565b73ffffffffffffffffffffffffffffffffffffffff1614611fd7576040517f08c379a0000000000000000000000000000000000000000000000000000000008152600401611fce90614fd2565b60405180910390fd5b600073ffffffffffffffffffffffffffffffffffffffff168273ffffffffffffffffffffffffffffffffffffffff1603612046576040517f08c379a000000000000000000000000000000000000000000000000000000000815260040161203d90615064565b60405180910390fd5b6120538383836001612f47565b8273ffffffffffffffffffffffffffffffffffffffff1661207382610e04565b73ffffffffffffffffffffffffffffffffffffffff16146120c9576040517f08c379a00000000000000000000000000000000000000000000000000000000081526004016120c090614fd2565b60405180910390fd5b6004600082815260200190815260200160002060006101000a81549073ffffffffffffffffffffffffffffffffffffffff02191690556001600360008573ffffffffffffffffffffffffffffffffffffffff1673ffffffffffffffffffffffffffffffffffffffff168152602001908152602001600020600082825403925050819055506001600360008473ffffffffffffffffffffffffffffffffffffffff1673ffffffffffffffffffffffffffffffffffffffff16815260200190815260200160002060008282540192505081905550816002600083815260200190815260200160002060006101000a81548173ffffffffffffffffffffffffffffffffffffffff021916908373ffffffffffffffffffffffffffffffffffffffff160217905550808273ffffffffffffffffffffffffffffffffffffffff168473ffffffffffffffffffffffffffffffffffffffff167fddf252ad1be2c89b69c2b068fc378daa952ba7f163c4a11628f55a4df523b3ef60405160405180910390a46122558383836001612f4d565b505050565b600760009054906101000a900473ffffffffffffffffffffffffffffffffffffffff1673ffffffffffffffffffffffffffffffffffffffff163373ffffffffffffffffffffffffffffffffffffffff16146122ea576040517f08c379a00000000000000000000000000000000000000000000000000000000081526004016122e1906150d0565b60405180910390fd5b565b60006002600083815260200190815260200160002060009054906101000a900473ffffffffffffffffffffffffffffffffffffffff169050919050565b60008073ffffffffffffffffffffffffffffffffffffffff1661234b836122ec565b73ffffffffffffffffffffffffffffffffffffffff1614159050919050565b6002600654036123af576040517f08c379a00000000000000000000000000000000000000000000000000000000081526004016123a69061513c565b60405180910390fd5b6002600681905550565b6123d3828260405180602001604052806000815250612f53565b5050565b60008073ffffffffffffffffffffffffffffffffffffffff16601060009054906101000a900473ffffffffffffffffffffffffffffffffffffffff1673ffffffffffffffffffffffffffffffffffffffff161415801561243a5750600060125414155b801561244b57506000801b60115414155b61248a576040517f08c379a0000000000000000000000000000000000000000000000000000000008152600401612481906151a8565b60405180910390fd5b60006040518060c0016040528060115481526020016012548152602001601360049054906101000a900461ffff1661ffff168152602001601360009054906101000a900463ffffffff1663ffffffff168152602001601360069054906101000a900463ffffffff1663ffffffff168152602001612517604051806020016040528060001515815250612fae565b8152509050601060009054906101000a900473ffffffffffffffffffffffffffffffffffffffff1673ffffffffffffffffffffffffffffffffffffffff16639b1c385e826040518263ffffffff1660e01b815260040161257791906152e2565b6020604051808303816000875af1158015612596573d6000803e3d6000fd5b505050506040513d601f19601f820116820180604052508101906125ba9190614503565b91505090565b600080601484846040516020016125d8929190615325565b6040516020818303038152906040528051906020012060001c6125fb9190615351565b905060018161260a9190614b2c565b91505092915050565b6001600681905550565b8173ffffffffffffffffffffffffffffffffffffffff168373ffffffffffffffffffffffffffffffffffffffff160361268b576040517f08c379a0000000000000000000000000000000000000000000000000000000008152600401612682906153ce565b60405180910390fd5b80600560008573ffffffffffffffffffffffffffffffffffffffff1673ffffffffffffffffffffffffffffffffffffffff16815260200190815260200160002060008473ffffffffffffffffffffffffffffffffffffffff1673ffffffffffffffffffffffffffffffffffffffff16815260200190815260200160002060006101000a81548160ff0219169083151502179055508173ffffffffffffffffffffffffffffffffffffffff168373ffffffffffffffffffffffffffffffffffffffff167f17307eab39ab6107e8899845ad3d59bd9653f200f220920489ca2b5937696c318360405161277c9190613810565b60405180910390a3505050565b612794848484611f61565b6127a084848484613046565b6127df576040517f08c379a00000000000000000000000000000000000000000000000000000000081526004016127d690615460565b60405180910390fd5b50505050565b6060600f80546127f4906142de565b80601f0160208091040260200160405190810160405280929190818152602001828054612820906142de565b801561286d5780601f106128425761010080835404028352916020019161286d565b820191906000526020600020905b81548152906001019060200180831161285057829003601f168201915b5050505050905090565b606060006001612886846131cd565b01905060008167ffffffffffffffff8111156128a5576128a4613fb0565b5b6040519080825280601f01601f1916602001820160405280156128d75781602001600182028036833780820191505090505b509050600082602001820190505b60011561293a578080600190039150507f3031323334353637383961626364656600000000000000000000000000000000600a86061a8153600a858161292e5761292d614dbc565b5b049450600085036128e5575b819350505050919050565b600081905061295261371c565b60005b6014811015612ad057600061298086836014811061297657612975614cf9565b5b6020020135610e04565b90503373ffffffffffffffffffffffffffffffffffffffff168173ffffffffffffffffffffffffffffffffffffffff16146129f0576040517f08c379a00000000000000000000000000000000000000000000000000000000081526004016129e7906154cc565b60405180910390fd5b6000600e6000888560148110612a0957612a08614cf9565b5b60200201358152602001908152602001600020549050601481118015612a3b5750601480612a379190614b2c565b8111155b612a7a576040517f08c379a0000000000000000000000000000000000000000000000000000000008152600401612a7190615538565b60405180910390fd5b836001601483612a8a9190614d28565b612a949190614d28565b60148110612aa557612aa4614cf9565b5b602002018051809190612ab790614cb1565b8152505050508080612ac890614cb1565b915050612955565b5060005b6014811015612b4b576001828260148110612af257612af1614cf9565b5b60200201511015612b38576040517f08c379a0000000000000000000000000000000000000000000000000000000008152600401612b2f906155a4565b60405180910390fd5b8080612b4390614cb1565b915050612ad4565b5060005b6014811015612b8b57612b78858260148110612b6e57612b6d614cf9565b5b6020020135613320565b8080612b8390614cb1565b915050612b4f565b5050505050565b6000819050612b9f61371c565b60005b6064811015612d07576000612bcd868360648110612bc357612bc2614cf9565b5b6020020135610e04565b90503373ffffffffffffffffffffffffffffffffffffffff168173ffffffffffffffffffffffffffffffffffffffff1614612c3d576040517f08c379a0000000000000000000000000000000000000000000000000000000008152600401612c34906154cc565b60405180910390fd5b6000600e6000888560648110612c5657612c55614cf9565b5b6020020135815260200190815260200160002054905060018110158015612c7e575060148111155b612cbd576040517f08c379a0000000000000000000000000000000000000000000000000000000008152600401612cb490615610565b60405180910390fd5b83600182612ccb9190614d28565b60148110612cdc57612cdb614cf9565b5b602002018051809190612cee90614cb1565b8152505050508080612cff90614cb1565b915050612ba2565b5060005b6014811015612d82576005828260148110612d2957612d28614cf9565b5b60200201511015612d6f576040517f08c379a0000000000000000000000000000000000000000000000000000000008152600401612d669061567c565b60405180910390fd5b8080612d7a90614cb1565b915050612d0b565b5060005b6064811015612dc257612daf858260648110612da557612da4614cf9565b5b6020020135613320565b8080612dba90614cb1565b915050612d86565b5050505050565b60008082604051602001612ddd91906156b6565b604051602081830303815290604052805190602001209050600160148260001c612e079190615351565b612e119190614b2c565b915050919050565b3373ffffffffffffffffffffffffffffffffffffffff168173ffffffffffffffffffffffffffffffffffffffff1603612e87576040517f08c379a0000000000000000000000000000000000000000000000000000000008152600401612e7e9061571e565b60405180910390fd5b80600860006101000a81548173ffffffffffffffffffffffffffffffffffffffff021916908373ffffffffffffffffffffffffffffffffffffffff1602179055508073ffffffffffffffffffffffffffffffffffffffff16600760009054906101000a900473ffffffffffffffffffffffffffffffffffffffff1673ffffffffffffffffffffffffffffffffffffffff167fed8889f560326eb138920d842192f0eb3dd22b4f139c87a2c57538e05bae127860405160405180910390a350565b50505050565b50505050565b612f5d838361346e565b612f6a6000848484613046565b612fa9576040517f08c379a0000000000000000000000000000000000000000000000000000000008152600401612fa090615460565b60405180910390fd5b505050565b60607f92fd13387c7fe7befbc38d303d6468778fb9731bc4583f17d92989c6fcfdeaaa82604051602401612fe29190615769565b604051602081830303815290604052907bffffffffffffffffffffffffffffffffffffffffffffffffffffffff19166020820180517bffffffffffffffffffffffffffffffffffffffffffffffffffffffff83818316178352505050509050919050565b60006130678473ffffffffffffffffffffffffffffffffffffffff1661368b565b156131c0578373ffffffffffffffffffffffffffffffffffffffff1663150b7a02613090611c99565b8786866040518563ffffffff1660e01b81526004016130b294939291906157ce565b6020604051808303816000875af19250505080156130ee57506040513d601f19601f820116820180604052508101906130eb919061582f565b60015b613170573d806000811461311e576040519150601f19603f3d011682016040523d82523d6000602084013e613123565b606091505b506000815103613168576040517f08c379a000000000000000000000000000000000000000000000000000000000815260040161315f90615460565b60405180910390fd5b805181602001fd5b63150b7a0260e01b7bffffffffffffffffffffffffffffffffffffffffffffffffffffffff1916817bffffffffffffffffffffffffffffffffffffffffffffffffffffffff1916149150506131c5565b600190505b949350505050565b600080600090507a184f03e93ff9f4daa797ed6e38ed64bf6a1f010000000000000000831061322b577a184f03e93ff9f4daa797ed6e38ed64bf6a1f010000000000000000838161322157613220614dbc565b5b0492506040810190505b6d04ee2d6d415b85acef81000000008310613268576d04ee2d6d415b85acef8100000000838161325e5761325d614dbc565b5b0492506020810190505b662386f26fc10000831061329757662386f26fc10000838161328d5761328c614dbc565b5b0492506010810190505b6305f5e10083106132c0576305f5e10083816132b6576132b5614dbc565b5b0492506008810190505b61271083106132e55761271083816132db576132da614dbc565b5b0492506004810190505b6064831061330857606483816132fe576132fd614dbc565b5b0492506002810190505b600a8310613317576001810190505b80915050919050565b600061332b82610e04565b905061333b816000846001612f47565b61334482610e04565b90506004600083815260200190815260200160002060006101000a81549073ffffffffffffffffffffffffffffffffffffffff02191690556001600360008373ffffffffffffffffffffffffffffffffffffffff1673ffffffffffffffffffffffffffffffffffffffff168152602001908152602001600020600082825403925050819055506002600083815260200190815260200160002060006101000a81549073ffffffffffffffffffffffffffffffffffffffff021916905581600073ffffffffffffffffffffffffffffffffffffffff168273ffffffffffffffffffffffffffffffffffffffff167fddf252ad1be2c89b69c2b068fc378daa952ba7f163c4a11628f55a4df523b3ef60405160405180910390a461346a816000846001612f4d565b5050565b600073ffffffffffffffffffffffffffffffffffffffff168273ffffffffffffffffffffffffffffffffffffffff16036134dd576040517f08c379a00000000000000000000000000000000000000000000000000000000081526004016134d4906158a8565b60405180910390fd5b6134e681612329565b15613526576040517f08c379a000000000000000000000000000000000000000000000000000000000815260040161351d90615914565b60405180910390fd5b613534600083836001612f47565b61353d81612329565b1561357d576040517f08c379a000000000000000000000000000000000000000000000000000000000815260040161357490615914565b60405180910390fd5b6001600360008473ffffffffffffffffffffffffffffffffffffffff1673ffffffffffffffffffffffffffffffffffffffff16815260200190815260200160002060008282540192505081905550816002600083815260200190815260200160002060006101000a81548173ffffffffffffffffffffffffffffffffffffffff021916908373ffffffffffffffffffffffffffffffffffffffff160217905550808273ffffffffffffffffffffffffffffffffffffffff16600073ffffffffffffffffffffffffffffffffffffffff167fddf252ad1be2c89b69c2b068fc378daa952ba7f163c4a11628f55a4df523b3ef60405160405180910390a4613687600083836001612f4d565b5050565b6000808273ffffffffffffffffffffffffffffffffffffffff163b119050919050565b8280548282559060005260206000209081019282156136ea579160200282015b828111156136e95782518255916020019190600101906136ce565b5b5090506136f7919061373f565b5090565b5080546000825590600052602060002090810190613719919061373f565b50565b604051806102800160405280601490602082028036833780820191505090505090565b5b80821115613758576000816000905550600101613740565b5090565b6000604051905090565b600080fd5b600080fd5b60007fffffffff0000000000000000000000000000000000000000000000000000000082169050919050565b6137a581613770565b81146137b057600080fd5b50565b6000813590506137c28161379c565b92915050565b6000602082840312156137de576137dd613766565b5b60006137ec848285016137b3565b91505092915050565b60008115159050919050565b61380a816137f5565b82525050565b60006020820190506138256000830184613801565b92915050565b6000819050919050565b61383e8161382b565b82525050565b60006020820190506138596000830184613835565b92915050565b600081519050919050565b600082825260208201905092915050565b60005b8381101561389957808201518184015260208101905061387e565b60008484015250505050565b6000601f19601f8301169050919050565b60006138c18261385f565b6138cb818561386a565b93506138db81856020860161387b565b6138e4816138a5565b840191505092915050565b6000602082019050818103600083015261390981846138b6565b905092915050565b61391a8161382b565b811461392557600080fd5b50565b60008135905061393781613911565b92915050565b60006020828403121561395357613952613766565b5b600061396184828501613928565b91505092915050565b600073ffffffffffffffffffffffffffffffffffffffff82169050919050565b60006139958261396a565b9050919050565b6139a58161398a565b82525050565b60006020820190506139c0600083018461399c565b92915050565b6139cf8161398a565b81146139da57600080fd5b50565b6000813590506139ec816139c6565b92915050565b60008060408385031215613a0957613a08613766565b5b6000613a17858286016139dd565b9250506020613a2885828601613928565b9150509250929050565b600080fd5b600080fd5b600080fd5b60008083601f840112613a5757613a56613a32565b5b8235905067ffffffffffffffff811115613a7457613a73613a37565b5b602083019150836020820283011115613a9057613a8f613a3c565b5b9250929050565b600080600060408486031215613ab057613aaf613766565b5b6000613abe86828701613928565b935050602084013567ffffffffffffffff811115613adf57613ade61376b565b5b613aeb86828701613a41565b92509250509250925092565b600080600060608486031215613b1057613b0f613766565b5b6000613b1e868287016139dd565b9350506020613b2f868287016139dd565b9250506040613b4086828701613928565b9150509250925092565b600063ffffffff82169050919050565b613b6381613b4a565b82525050565b6000602082019050613b7e6000830184613b5a565b92915050565b6000819050919050565b6000613ba9613ba4613b9f8461396a565b613b84565b61396a565b9050919050565b6000613bbb82613b8e565b9050919050565b6000613bcd82613bb0565b9050919050565b613bdd81613bc2565b82525050565b6000602082019050613bf86000830184613bd4565b92915050565b6000613c0982613bb0565b9050919050565b613c1981613bfe565b82525050565b6000602082019050613c346000830184613c10565b92915050565b600060208284031215613c5057613c4f613766565b5b6000613c5e848285016139dd565b91505092915050565b60008083601f840112613c7d57613c7c613a32565b5b8235905067ffffffffffffffff811115613c9a57613c99613a37565b5b602083019150836001820283011115613cb657613cb5613a3c565b5b9250929050565b60008060208385031215613cd457613cd3613766565b5b600083013567ffffffffffffffff811115613cf257613cf161376b565b5b613cfe85828601613c67565b92509250509250929050565b6000819050919050565b613d1d81613d0a565b82525050565b6000602082019050613d386000830184613d14565b92915050565b60008083601f840112613d5457613d53613a32565b5b8235905067ffffffffffffffff811115613d7157613d70613a37565b5b602083019150836001820283011115613d8d57613d8c613a3c565b5b9250929050565b60008060008060608587031215613dae57613dad613766565b5b6000613dbc878288016139dd565b9450506020613dcd87828801613928565b935050604085013567ffffffffffffffff811115613dee57613ded61376b565b5b613dfa87828801613d3e565b925092505092959194509250565b613e11816137f5565b8114613e1c57600080fd5b50565b600081359050613e2e81613e08565b92915050565b60008060408385031215613e4b57613e4a613766565b5b6000613e59858286016139dd565b9250506020613e6a85828601613e1f565b9150509250929050565b613e7d81613d0a565b8114613e8857600080fd5b50565b600081359050613e9a81613e74565b92915050565b613ea981613b4a565b8114613eb457600080fd5b50565b600081359050613ec681613ea0565b92915050565b600061ffff82169050919050565b613ee381613ecc565b8114613eee57600080fd5b50565b600081359050613f0081613eda565b92915050565b600080600080600060a08688031215613f2257613f21613766565b5b6000613f30888289016139dd565b9550506020613f4188828901613e8b565b9450506040613f5288828901613928565b9350506060613f6388828901613eb7565b9250506080613f7488828901613ef1565b9150509295509295909350565b613f8a81613ecc565b82525050565b6000602082019050613fa56000830184613f81565b92915050565b600080fd5b7f4e487b7100000000000000000000000000000000000000000000000000000000600052604160045260246000fd5b613fe8826138a5565b810181811067ffffffffffffffff8211171561400757614006613fb0565b5b80604052505050565b600061401a61375c565b90506140268282613fdf565b919050565b600067ffffffffffffffff82111561404657614045613fb0565b5b61404f826138a5565b9050602081019050919050565b82818337600083830152505050565b600061407e6140798461402b565b614010565b90508281526020810184848401111561409a57614099613fab565b5b6140a584828561405c565b509392505050565b600082601f8301126140c2576140c1613a32565b5b81356140d284826020860161406b565b91505092915050565b600080600080608085870312156140f5576140f4613766565b5b6000614103878288016139dd565b9450506020614114878288016139dd565b935050604061412587828801613928565b925050606085013567ffffffffffffffff8111156141465761414561376b565b5b614152878288016140ad565b91505092959194509250565b60008190508260206014028201111561417a57614179613a3c565b5b92915050565b60008060006102c0848603121561419a57614199613766565b5b60006141a88682870161415e565b9350506102806141ba86828701613928565b9250506102a06141cc868287016139dd565b9150509250925092565b600080604083850312156141ed576141ec613766565b5b60006141fb858286016139dd565b925050602061420c858286016139dd565b9150509250929050565b60008190508260206064028201111561423257614231613a3c565b5b92915050565b600080600080610cc0858703121561425357614252613766565b5b600061426187828801614216565b945050610c80614273878288016139dd565b935050610ca085013567ffffffffffffffff8111156142955761429461376b565b5b6142a187828801613d3e565b925092505092959194509250565b7f4e487b7100000000000000000000000000000000000000000000000000000000600052602260045260246000fd5b600060028204905060018216806142f657607f821691505b602082108103614309576143086142af565b5b50919050565b7f4552433732313a20617070726f76616c20746f2063757272656e74206f776e6560008201527f7200000000000000000000000000000000000000000000000000000000000000602082015250565b600061436b60218361386a565b91506143768261430f565b604082019050919050565b6000602082019050818103600083015261439a8161435e565b9050919050565b7f4552433732313a20617070726f76652063616c6c6572206973206e6f7420746f60008201527f6b656e206f776e6572206f7220617070726f76656420666f7220616c6c000000602082015250565b60006143fd603d8361386a565b9150614408826143a1565b604082019050919050565b6000602082019050818103600083015261442c816143f0565b9050919050565b6000604082019050614448600083018561399c565b614455602083018461399c565b9392505050565b7f4552433732313a2063616c6c6572206973206e6f7420746f6b656e206f776e6560008201527f72206f7220617070726f76656400000000000000000000000000000000000000602082015250565b60006144b8602d8361386a565b91506144c38261445c565b604082019050919050565b600060208201905081810360008301526144e7816144ab565b9050919050565b6000815190506144fd81613911565b92915050565b60006020828403121561451957614518613766565b5b6000614527848285016144ee565b91505092915050565b6000604082019050614545600083018561399c565b6145526020830184613835565b9392505050565b60008151905061456881613e08565b92915050565b60006020828403121561458457614583613766565b5b600061459284828501614559565b91505092915050565b7f7800000000000000000000000000000000000000000000000000000000000000600082015250565b60006145d160018361386a565b91506145dc8261459b565b602082019050919050565b60006020820190508181036000830152614600816145c4565b9050919050565b600082905092915050565b60008190508160005260206000209050919050565b60006020601f8301049050919050565b600082821b905092915050565b6000600883026146747fffffffffffffffffffffffffffffffffffffffffffffffffffffffffffffffff82614637565b61467e8683614637565b95508019841693508086168417925050509392505050565b60006146b16146ac6146a78461382b565b613b84565b61382b565b9050919050565b6000819050919050565b6146cb83614696565b6146df6146d7826146b8565b848454614644565b825550505050565b600090565b6146f46146e7565b6146ff8184846146c2565b505050565b5b81811015614723576147186000826146ec565b600181019050614705565b5050565b601f8211156147685761473981614612565b61474284614627565b81016020851015614751578190505b61476561475d85614627565b830182614704565b50505b505050565b600082821c905092915050565b600061478b6000198460080261476d565b1980831691505092915050565b60006147a4838361477a565b9150826002028217905092915050565b6147be8383614607565b67ffffffffffffffff8111156147d7576147d6613fb0565b5b6147e182546142de565b6147ec828285614727565b6000601f83116001811461481b5760008415614809578287013590505b6148138582614798565b86555061487b565b601f19841661482986614612565b60005b828110156148515784890135825560018201915060208501945060208101905061482c565b8683101561486e578489013561486a601f89168261477a565b8355505b6001600288020188555050505b50505050505050565b7f4552433732313a20696e76616c696420746f6b656e2049440000000000000000600082015250565b60006148ba60188361386a565b91506148c582614884565b602082019050919050565b600060208201905081810360008301526148e9816148ad565b9050919050565b7f4552433732313a2061646472657373207a65726f206973206e6f74206120766160008201527f6c6964206f776e65720000000000000000000000000000000000000000000000602082015250565b600061494c60298361386a565b9150614957826148f0565b604082019050919050565b6000602082019050818103600083015261497b8161493f565b9050919050565b7f2165786973747300000000000000000000000000000000000000000000000000600082015250565b60006149b860078361386a565b91506149c382614982565b602082019050919050565b600060208201905081810360008301526149e7816149ab565b9050919050565b7f4d7573742062652070726f706f736564206f776e657200000000000000000000600082015250565b6000614a2460168361386a565b9150614a2f826149ee565b602082019050919050565b60006020820190508181036000830152614a5381614a17565b9050919050565b6000606082019050614a6f600083018661399c565b614a7c602083018561399c565b614a89604083018461399c565b949350505050565b7f7174790000000000000000000000000000000000000000000000000000000000600082015250565b6000614ac760038361386a565b9150614ad282614a91565b602082019050919050565b60006020820190508181036000830152614af681614aba565b9050919050565b7f4e487b7100000000000000000000000000000000000000000000000000000000600052601160045260246000fd5b6000614b378261382b565b9150614b428361382b565b9250828201905080821115614b5a57614b59614afd565b5b92915050565b7f6361700000000000000000000000000000000000000000000000000000000000600082015250565b6000614b9660038361386a565b9150614ba182614b60565b602082019050919050565b60006020820190508181036000830152614bc581614b89565b9050919050565b6000614bd78261382b565b9150614be28361382b565b9250828202614bf08161382b565b91508282048414831517614c0757614c06614afd565b5b5092915050565b6000606082019050614c23600083018661399c565b614c30602083018561399c565b614c3d6040830184613835565b949350505050565b7f7061790000000000000000000000000000000000000000000000000000000000600082015250565b6000614c7b60038361386a565b9150614c8682614c45565b602082019050919050565b60006020820190508181036000830152614caa81614c6e565b9050919050565b6000614cbc8261382b565b91507fffffffffffffffffffffffffffffffffffffffffffffffffffffffffffffffff8203614cee57614ced614afd565b5b600182019050919050565b7f4e487b7100000000000000000000000000000000000000000000000000000000600052603260045260246000fd5b6000614d338261382b565b9150614d3e8361382b565b9250828203905081811115614d5657614d55614afd565b5b92915050565b600081905092915050565b6000614d728261385f565b614d7c8185614d5c565b9350614d8c81856020860161387b565b80840191505092915050565b6000614da48285614d67565b9150614db08284614d67565b91508190509392505050565b7f4e487b7100000000000000000000000000000000000000000000000000000000600052601260045260246000fd5b6000614df68261382b565b9150614e018361382b565b925082614e1157614e10614dbc565b5b828204905092915050565b7f6761746500000000000000000000000000000000000000000000000000000000600082015250565b6000614e5260048361386a565b9150614e5d82614e1c565b602082019050919050565b60006020820190508181036000830152614e8181614e45565b9050919050565b7f7063740000000000000000000000000000000000000000000000000000000000600082015250565b6000614ebe60038361386a565b9150614ec982614e88565b602082019050919050565b60006020820190508181036000830152614eed81614eb1565b9050919050565b7f6e6f2d6964730000000000000000000000000000000000000000000000000000600082015250565b6000614f2a60068361386a565b9150614f3582614ef4565b602082019050919050565b60006020820190508181036000830152614f5981614f1d565b9050919050565b7f4552433732313a207472616e736665722066726f6d20696e636f72726563742060008201527f6f776e6572000000000000000000000000000000000000000000000000000000602082015250565b6000614fbc60258361386a565b9150614fc782614f60565b604082019050919050565b60006020820190508181036000830152614feb81614faf565b9050919050565b7f4552433732313a207472616e7366657220746f20746865207a65726f2061646460008201527f7265737300000000000000000000000000000000000000000000000000000000602082015250565b600061504e60248361386a565b915061505982614ff2565b604082019050919050565b6000602082019050818103600083015261507d81615041565b9050919050565b7f4f6e6c792063616c6c61626c65206279206f776e657200000000000000000000600082015250565b60006150ba60168361386a565b91506150c582615084565b602082019050919050565b600060208201905081810360008301526150e9816150ad565b9050919050565b7f5265656e7472616e637947756172643a207265656e7472616e742063616c6c00600082015250565b6000615126601f8361386a565b9150615131826150f0565b602082019050919050565b6000602082019050818103600083015261515581615119565b9050919050565b7f7672660000000000000000000000000000000000000000000000000000000000600082015250565b600061519260038361386a565b915061519d8261515c565b602082019050919050565b600060208201905081810360008301526151c181615185565b9050919050565b6151d181613d0a565b82525050565b6151e08161382b565b82525050565b6151ef81613ecc565b82525050565b6151fe81613b4a565b82525050565b600081519050919050565b600082825260208201905092915050565b600061522b82615204565b615235818561520f565b935061524581856020860161387b565b61524e816138a5565b840191505092915050565b600060c08301600083015161527160008601826151c8565b50602083015161528460208601826151d7565b50604083015161529760408601826151e6565b5060608301516152aa60608601826151f5565b5060808301516152bd60808601826151f5565b5060a083015184820360a08601526152d58282615220565b9150508091505092915050565b600060208201905081810360008301526152fc8184615259565b905092915050565b6000819050919050565b61531f61531a8261382b565b615304565b82525050565b6000615331828561530e565b602082019150615341828461530e565b6020820191508190509392505050565b600061535c8261382b565b91506153678361382b565b92508261537757615376614dbc565b5b828206905092915050565b7f4552433732313a20617070726f766520746f2063616c6c657200000000000000600082015250565b60006153b860198361386a565b91506153c382615382565b602082019050919050565b600060208201905081810360008301526153e7816153ab565b9050919050565b7f4552433732313a207472616e7366657220746f206e6f6e20455243373231526560008201527f63656976657220696d706c656d656e7465720000000000000000000000000000602082015250565b600061544a60328361386a565b9150615455826153ee565b604082019050919050565b600060208201905081810360008301526154798161543d565b9050919050565b7f6f776e6572000000000000000000000000000000000000000000000000000000600082015250565b60006154b660058361386a565b91506154c182615480565b602082019050919050565b600060208201905081810360008301526154e5816154a9565b9050919050565b7f6c6567656e646172790000000000000000000000000000000000000000000000600082015250565b600061552260098361386a565b915061552d826154ec565b602082019050919050565b6000602082019050818103600083015261555181615515565b9050919050565b7f6e65656431000000000000000000000000000000000000000000000000000000600082015250565b600061558e60058361386a565b915061559982615558565b602082019050919050565b600060208201905081810360008301526155bd81615581565b9050919050565b7f636f6d6d6f6e0000000000000000000000000000000000000000000000000000600082015250565b60006155fa60068361386a565b9150615605826155c4565b602082019050919050565b60006020820190508181036000830152615629816155ed565b9050919050565b7f6e65656435000000000000000000000000000000000000000000000000000000600082015250565b600061566660058361386a565b915061567182615630565b602082019050919050565b6000602082019050818103600083015261569581615659565b9050919050565b82818337505050565b6156b2610c80838361569c565b5050565b60006156c282846156a5565b610c808201915081905092915050565b7f43616e6e6f74207472616e7366657220746f2073656c66000000000000000000600082015250565b600061570860178361386a565b9150615713826156d2565b602082019050919050565b60006020820190508181036000830152615737816156fb565b9050919050565b615747816137f5565b82525050565b602082016000820151615763600085018261573e565b50505050565b600060208201905061577e600083018461574d565b92915050565b600082825260208201905092915050565b60006157a082615204565b6157aa8185615784565b93506157ba81856020860161387b565b6157c3816138a5565b840191505092915050565b60006080820190506157e3600083018761399c565b6157f0602083018661399c565b6157fd6040830185613835565b818103606083015261580f8184615795565b905095945050505050565b6000815190506158298161379c565b92915050565b60006020828403121561584557615844613766565b5b60006158538482850161581a565b91505092915050565b7f4552433732313a206d696e7420746f20746865207a65726f2061646472657373600082015250565b600061589260208361386a565b915061589d8261585c565b602082019050919050565b600060208201905081810360008301526158c181615885565b9050919050565b7f4552433732313a20746f6b656e20616c7265616479206d696e74656400000000600082015250565b60006158fe601c8361386a565b9150615909826158c8565b602082019050919050565b6000602082019050818103600083015261592d816158f1565b905091905056fea264697066735822122021146d0799e846ee10ec60888eab077fa0fe017bdbd991bb2193c04f2baf8de564736f6c63430008140033",
  "linkReferences": {},
  "deployedLinkReferences": {}
}