{"contracts/Gashapon.sol":{"Gashapon":{"abi":[{"inputs":[{"internalType":"address","name":"paymentToken_","type":"address"},{"internalType":"uint256","name":"price_","type":"uint256"},{"internalType":"string","name":"baseURI_","type":"string"},{"internalType":"address","name":"coordinator_","type":"address"}],"stateMutability":"nonpayable","type":"constructor"},{"inputs":[{"internalType":"address","name":"have","type":"address"},{"internalType":"address","name":"want","type":"address"}],"name":"OnlyCoordinatorCanFulfill","type":"error"},{"inputs":[{"internalType":"address","name":"have","type":"address"},{"internalType":"address","name":"owner","type":"address"},{"internalType":"address","name":"coordinator","type":"address"}],"name":"OnlyOwnerOrCoordinator","type":"error"},{"inputs":[],"name":"ZeroAddress","type":"error"},{"anonymous":false,"inputs":[{"indexed":true,"internalType":"address","name":"owner","type":"address"},{"indexed":true,"internalType":"address","name":"approved","type":"address"},{"indexed":true,"internalType":"uint256","name":"tokenId","type":"uint256"}],"name":"Approval","type":"event"},{"anonymous":false,"inputs":[{"indexed":true,"internalType":"address","name":"owner","type":"address"},{"indexed":true,"internalType":"address","name":"operator","type":"address"},{"indexed":false,"internalType":"bool","name":"approved","type":"bool"}],"name":"ApprovalForAll","type":"event"},{"anonymous":false,"inputs":[{"indexed":false,"internalType":"address","name":"vrfCoordinator","type":"address"}],"name":"CoordinatorSet","type":"event"},{"anonymous":false,"inputs":[{"indexed":true,"internalType":"address","name":"from","type":"address"},{"indexed":true,"internalType":"address","name":"to","type":"address"}],"name":"OwnershipTransferRequested","type":"event"},{"anonymous":false,"inputs":[{"indexed":true,"internalType":"address","name":"from","type":"address"},{"indexed":true,"internalType":"address","name":"to","type":"address"}],"name":"OwnershipTransferred","type":"event"},{"anonymous":false,"inputs":[{"indexed":true,"internalType":"address","name":"from","type":"address"},{"indexed":true,"internalType":"address","name":"to","type":"address"},{"indexed":true,"internalType":"uint256","name":"tokenId","type":"uint256"}],"name":"Transfer","type":"event"},{"inputs":[],"name":"COMMON_VARIANTS","outputs":[{"internalType":"uint256","name":"","type":"uint256"}],"stateMutability":"view","type":"function"},{"inputs":[],"name":"COORDINATOR","outputs":[{"internalType":"contract IVRFCoordinatorV2Plus","name":"","type":"address"}],"stateMutability":"view","type":"function"},{"inputs":[],"name":"LEGENDARY_OFFSET","outputs":[{"internalType":"uint256","name":"","type":"uint256"}],"stateMutability":"view","type":"function"},{"inputs":[],"name":"MAX_COMMON_SUPPLY","outputs":[{"internalType":"uint256","name":"","type":"uint256"}],"stateMutability":"view","type":"function"},{"inputs":[],"name":"acceptOwnership","outputs":[],"stateMutability":"nonpayable","type":"function"},{"inputs":[{"internalType":"address","name":"to","type":"address"},{"internalType":"uint256","name":"tokenId","type":"uint256"}],"name":"approve","outputs":[],"stateMutability":"nonpayable","type":"function"},{"inputs":[{"internalType":"address","name":"owner","type":"address"}],"name":"balanceOf","outputs":[{"internalType":"uint256","name":"","type":"uint256"}],"stateMutability":"view","type":"function"},{"inputs":[{"internalType":"uint256[100]","name":"tokens","type":"uint256[100]"},{"internalType":"address","name":"rewardsReceiver","type":"address"},{"internalType":"bytes","name":"","type":"bytes"}],"name":"burnCollection1","outputs":[],"stateMutability":"nonpayable","type":"function"},{"inputs":[{"internalType":"uint256[20]","name":"tokens","type":"uint256[20]"},{"internalType":"uint256","name":"","type":"uint256"},{"internalType":"address","name":"rewardsReceiver","type":"address"}],"name":"burnCollection2","outputs":[],"stateMutability":"nonpayable","type":"function"},{"inputs":[],"name":"callbackGasLimit","outputs":[{"internalType":"uint32","name":"","type":"uint32"}],"stateMutability":"view","type":"function"},{"inputs":[],"name":"commonMinted","outputs":[{"internalType":"uint256","name":"","type":"uint256"}],"stateMutability":"view","type":"function"},{"inputs":[],"name":"count","outputs":[{"internalType":"uint256","name":"","type":"uint256"}],"stateMutability":"view","type":"function"},{"inputs":[{"internalType":"uint256","name":"tokenId","type":"uint256"}],"name":"getApproved","outputs":[{"internalType":"address","name":"","type":"address"}],"stateMutability":"view","type":"function"},{"inputs":[{"internalType":"uint256","name":"tokenId","type":"uint256"}],"name":"getVariant","outputs":[{"internalType":"uint256","name":"","type":"uint256"}],"stateMutability":"view","type":"function"},{"inputs":[{"internalType":"address","name":"owner","type":"address"},{"internalType":"address","name":"operator","type":"address"}],"name":"isApprovedForAll","outputs":[{"internalType":"bool","name":"","type":"bool"}],"stateMutability":"view","type":"function"},{"inputs":[],"name":"jackpotMintPercent","outputs":[{"internalType":"uint256","name":"","type":"uint256"}],"stateMutability":"view","type":"function"},{"inputs":[],"name":"keyHash","outputs":[{"internalType":"bytes32","name":"","type":"bytes32"}],"stateMutability":"view","type":"function"},{"inputs":[{"internalType":"address","name":"receiver","type":"address"},{"internalType":"uint256","name":"quantity","type":"uint256"},{"internalType":"bytes","name":"","type":"bytes"}],"name":"mint","outputs":[],"stateMutability":"nonpayable","type":"function"},{"inputs":[],"name":"name","outputs":[{"internalType":"string","name":"","type":"string"}],"stateMutability":"view","type":"function"},{"inputs":[],"name":"numWords","outputs":[{"internalType":"uint32","name":"","type":"uint32"}],"stateMutability":"view","type":"function"},{"inputs":[],"name":"owner","outputs":[{"internalType":"address","name":"","type":"address"}],"stateMutability":"view","type":"function"},{"inputs":[{"internalType":"uint256","name":"tokenId","type":"uint256"}],"name":"ownerOf","outputs":[{"internalType":"address","name":"","type":"address"}],"stateMutability":"view","type":"function"},{"inputs":[],"name":"paymentToken","outputs":[{"internalType":"contract IERC20","name":"","type":"address"}],"stateMutability":"view","type":"function"},{"inputs":[],"name":"price","outputs":[{"internalType":"uint256","name":"","type":"uint256"}],"stateMutability":"view","type":"function"},{"inputs":[{"internalType":"uint256","name":"requestId","type":"uint256"},{"internalType":"uint256[]","name":"randomWords","type":"uint256[]"}],"name":"rawFulfillRandomWords","outputs":[],"stateMutability":"nonpayable","type":"function"},{"inputs":[],"name":"requestConfirmations","outputs":[{"internalType":"uint16","name":"","type":"uint16"}],"stateMutability":"view","type":"function"},{"inputs":[],"name":"s_vrfCoordinator","outputs":[{"internalType":"contract IVRFCoordinatorV2Plus","name":"","type":"address"}],"stateMutability":"view","type":"function"},{"inputs":[{"internalType":"address","name":"from","type":"address"},{"internalType":"address","name":"to","type":"address"},{"internalType":"uint256","name":"tokenId","type":"uint256"}],"name":"safeTransferFrom","outputs":[],"stateMutability":"nonpayable","type":"function"},{"inputs":[{"internalType":"address","name":"from","type":"address"},{"internalType":"address","name":"to","type":"address"},{"internalType":"uint256","name":"tokenId","type":"uint256"},{"internalType":"bytes","name":"data","type":"bytes"}],"name":"safeTransferFrom","outputs":[],"stateMutability":"nonpayable","type":"function"},{"inputs":[{"internalType":"address","name":"operator","type":"address"},{"internalType":"bool","name":"approved","type":"bool"}],"name":"setApprovalForAll","outputs":[],"stateMutability":"nonpayable","type":"function"},{"inputs":[{"internalType":"string","name":"newBase","type":"string"}],"name":"setBaseURI","outputs":[],"stateMutability":"nonpayable","type":"function"},{"inputs":[{"internalType":"address","name":"_vrfCoordinator","type":"address"}],"name":"setCoordinator","outputs":[],"stateMutability":"nonpayable","type":"function"},{"inputs":[{"internalType":"uint256","name":"percent","type":"uint256"}],"name":"setJackpotMintPercent","outputs":[],"stateMutability":"nonpayable","type":"function"},{"inputs":[{"internalType":"uint256","name":"newPrice","type":"uint256"}],"name":"setPrice","outputs":[],"stateMutability":"nonpayable","type":"function"},{"inputs":[{"internalType":"address","name":"coordinator","type":"address"},{"internalType":"bytes32","name":"keyHash_","type":"bytes32"},{"internalType":"uint256","name":"subId","type":"uint256"},{"internalType":"uint32","name":"cbGasLimit","type":"uint32"},{"internalType":"uint16","name":"confs","type":"uint16"}],"name":"setVRFConfigV25","outputs":[],"stateMutability":"nonpayable","type":"function"},{"inputs":[],"name":"subscriptionId","outputs":[{"internalType":"uint256","name":"","type":"uint256"}],"stateMutability":"view","type":"function"},{"inputs":[{"internalType":"bytes4","name":"interfaceId","type":"bytes4"}],"name":"supportsInterface","outputs":[{"internalType":"bool","name":"","type":"bool"}],"stateMutability":"view","type":"function"},{"inputs":[],"name":"symbol","outputs":[{"internalType":"string","name":"","type":"string"}],"stateMutability":"view","type":"function"},{"inputs":[{"internalType":"uint256","name":"tokenId","type":"uint256"}],"name":"tokenURI","outputs":[{"internalType":"string","name":"","type":"string"}],"stateMutability":"view","type":"function"},{"inputs":[],"name":"totalSupply","outputs":[{"internalType":"uint256","name":"","type":"uint256"}],"stateMutability":"view","type":"function"},{"inputs":[{"internalType":"address","name":"from","type":"address"},{"internalType":"address","name":"to","type":"address"},{"internalType":"uint256","name":"tokenId","type":"uint256"}],"name":"transferFrom","outputs":[],"stateMutability":"nonpayable","type":"function"},{"inputs":[{"internalType":"address","name":"to","type":"address"}],"name":"transferOwnership","outputs":[],"stateMutability":"nonpayable","type":"function"},{"inputs":[{"internalType":"address","name":"to","type":"address"}],"name":"withdraw","outputs":[],"stateMutability":"nonpayable","type":"function"}],"evm":{"bytecode":{"linkReferences":{},"object":"60a0604052603c600d556203d090601360006101000a81548163ffffffff021916908363ffffffff1602179055506003601360046101000a81548161ffff021916908361ffff1602179055506001601360066101000a81548163ffffffff021916908363ffffffff1602179055503480156200007a57600080fd5b506040516200652a3803806200652a8339818101604052810190620000a09190620006e1565b80338060006040518060400160405280600881526020017f4761736861706f6e0000000000000000000000000000000000000000000000008152506040518060400160405280600481526020017f47415348000000000000000000000000000000000000000000000000000000008152508160009081620001229190620009b3565b508060019081620001349190620009b3565b5050506001600681905550600073ffffffffffffffffffffffffffffffffffffffff168273ffffffffffffffffffffffffffffffffffffffff1603620001b1576040517f08c379a0000000000000000000000000000000000000000000000000000000008152600401620001a89062000afb565b60405180910390fd5b81600760006101000a81548173ffffffffffffffffffffffffffffffffffffffff021916908373ffffffffffffffffffffffffffffffffffffffff160217905550600073ffffffffffffffffffffffffffffffffffffffff168173ffffffffffffffffffffffffffffffffffffffff1614620002395762000238816200037d60201b60201c565b5b505050600073ffffffffffffffffffffffffffffffffffffffff168173ffffffffffffffffffffffffffffffffffffffff1603620002a3576040517fd92e233d00000000000000000000000000000000000000000000000000000000815260040160405180910390fd5b80600960006101000a81548173ffffffffffffffffffffffffffffffffffffffff021916908373ffffffffffffffffffffffffffffffffffffffff160217905550508373ffffffffffffffffffffffffffffffffffffffff1660808173ffffffffffffffffffffffffffffffffffffffff168152505082600a8190555081600f9081620003319190620009b3565b5080601060006101000a81548173ffffffffffffffffffffffffffffffffffffffff021916908373ffffffffffffffffffffffffffffffffffffffff1602179055505050505062000b8f565b3373ffffffffffffffffffffffffffffffffffffffff168173ffffffffffffffffffffffffffffffffffffffff1603620003ee576040517f08c379a0000000000000000000000000000000000000000000000000000000008152600401620003e59062000b6d565b60405180910390fd5b80600860006101000a81548173ffffffffffffffffffffffffffffffffffffffff021916908373ffffffffffffffffffffffffffffffffffffffff1602179055508073ffffffffffffffffffffffffffffffffffffffff16600760009054906101000a900473ffffffffffffffffffffffffffffffffffffffff1673ffffffffffffffffffffffffffffffffffffffff167fed8889f560326eb138920d842192f0eb3dd22b4f139c87a2c57538e05bae127860405160405180910390a350565b6000604051905090565b600080fd5b600080fd5b600073ffffffffffffffffffffffffffffffffffffffff82169050919050565b6000620004ef82620004c2565b9050919050565b6200050181620004e2565b81146200050d57600080fd5b50565b6000815190506200052181620004f6565b92915050565b6000819050919050565b6200053c8162000527565b81146200054857600080fd5b50565b6000815190506200055c8162000531565b92915050565b600080fd5b600080fd5b6000601f19601f8301169050919050565b7f4e487b7100000000000000000000000000000000000000000000000000000000600052604160045260246000fd5b620005b7826200056c565b810181811067ffffffffffffffff82111715620005d957620005d86200057d565b5b80604052505050565b6000620005ee620004ae565b9050620005fc8282620005ac565b919050565b600067ffffffffffffffff8211156200061f576200061e6200057d565b5b6200062a826200056c565b9050602081019050919050565b60005b83811015620006575780820151818401526020810190506200063a565b60008484015250505050565b60006200067a620006748462000601565b620005e2565b90508281526020810184848401111562000699576200069862000567565b5b620006a684828562000637565b509392505050565b600082601f830112620006c657620006c562000562565b5b8151620006d884826020860162000663565b91505092915050565b60008060008060808587031215620006fe57620006fd620004b8565b5b60006200070e8782880162000510565b945050602062000721878288016200054b565b935050604085015167ffffffffffffffff811115620007455762000744620004bd565b5b6200075387828801620006ae565b9250506060620007668782880162000510565b91505092959194509250565b600081519050919050565b7f4e487b7100000000000000000000000000000000000000000000000000000000600052602260045260246000fd5b60006002820490506001821680620007c557607f821691505b602082108103620007db57620007da6200077d565b5b50919050565b60008190508160005260206000209050919050565b60006020601f8301049050919050565b600082821b905092915050565b600060088302620008457fffffffffffffffffffffffffffffffffffffffffffffffffffffffffffffffff8262000806565b62000851868362000806565b95508019841693508086168417925050509392505050565b6000819050919050565b6000620008946200088e620008888462000527565b62000869565b62000527565b9050919050565b6000819050919050565b620008b08362000873565b620008c8620008bf826200089b565b84845462000813565b825550505050565b600090565b620008df620008d0565b620008ec818484620008a5565b505050565b5b81811015620009145762000908600082620008d5565b600181019050620008f2565b5050565b601f82111562000963576200092d81620007e1565b6200093884620007f6565b8101602085101562000948578190505b620009606200095785620007f6565b830182620008f1565b50505b505050565b600082821c905092915050565b6000620009886000198460080262000968565b1980831691505092915050565b6000620009a3838362000975565b9150826002028217905092915050565b620009be8262000772565b67ffffffffffffffff811115620009da57620009d96200057d565b5b620009e68254620007ac565b620009f382828562000918565b600060209050601f83116001811462000a2b576000841562000a16578287015190505b62000a22858262000995565b86555062000a92565b601f19841662000a3b86620007e1565b60005b8281101562000a655784890151825560018201915060208501945060208101905062000a3e565b8683101562000a85578489015162000a81601f89168262000975565b8355505b6001600288020188555050505b505050505050565b600082825260208201905092915050565b7f43616e6e6f7420736574206f776e657220746f207a65726f0000000000000000600082015250565b600062000ae360188362000a9a565b915062000af08262000aab565b602082019050919050565b6000602082019050818103600083015262000b168162000ad4565b9050919050565b7f43616e6e6f74207472616e7366657220746f2073656c66000000000000000000600082015250565b600062000b5560178362000a9a565b915062000b628262000b1d565b602082019050919050565b6000602082019050818103600083015262000b888162000b46565b9050919050565b60805161596a62000bc060003960008181610bf101528181610c6501528181610d010152611428015261596a6000f3fe608060405234801561001057600080fd5b50600436106102695760003560e01c806374e1ee4111610151578063a78f06b5116100c3578063e1b60f8911610087578063e1b60f8914610704578063e985e9c514610720578063f2f2ef2b14610750578063f2fde38b1461076c578063f5a618b014610788578063fc831051146107a657610269565b8063a78f06b514610660578063b05e97711461067e578063b0fb162f1461069a578063b88d4fde146106b8578063c87b56dd146106d457610269565b806391b7f5ed1161011557806391b7f5ed146105b257806394d008ef146105ce57806395d89b41146105ea5780639eccacf614610608578063a035b1fe14610626578063a22cb4651461064457610269565b806374e1ee411461052057806379ba5097146105505780637ccfd7fc1461055a5780638da5cb5b146105785780638ea981171461059657610269565b806324f74697116101ea57806351cff8d9116101ae57806351cff8d91461044c57806355f804b31461046857806361728f39146104845780636352211e146104a257806366435c06146104d257806370a08231146104f057610269565b806324f74697146103b85780632d90ed6d146103d65780633013ce29146103f45780633b2bcbf11461041257806342842e0e1461043057610269565b806309c1ba2e1161023157806309c1ba2e1461032657806318160ddd146103445780631ac39bfd146103625780631fe543e31461038057806323b872dd1461039c57610269565b806301ffc9a71461026e57806306661abd1461029e57806306fdde03146102bc578063081812fc146102da578063095ea7b31461030a575b600080fd5b610288600480360381019061028391906137c8565b6107c2565b6040516102959190613810565b60405180910390f35b6102a66108a4565b6040516102b39190613844565b60405180910390f35b6102c46108ae565b6040516102d191906138ef565b60405180910390f35b6102f460048036038101906102ef919061393d565b610940565b60405161030191906139ab565b60405180910390f35b610324600480360381019061031f91906139f2565b610986565b005b61032e610a9d565b60405161033b9190613844565b60405180910390f35b61034c610aa3565b6040516103599190613844565b60405180910390f35b61036a610aa9565b6040516103779190613844565b60405180910390f35b61039a60048036038101906103959190613a97565b610aae565b005b6103b660048036038101906103b19190613af7565b610b74565b005b6103c0610bd4565b6040516103cd9190613b69565b60405180910390f35b6103de610bea565b6040516103eb9190613844565b60405180910390f35b6103fc610bef565b6040516104099190613be3565b60405180910390f35b61041a610c13565b6040516104279190613c1f565b60405180910390f35b61044a60048036038101906104459190613af7565b610c39565b005b61046660048036038101906104619190613c3a565b610c59565b005b610482600480360381019061047d9190613cbd565b610de0565b005b61048c610dfe565b6040516104999190613d23565b60405180910390f35b6104bc60048036038101906104b7919061393d565b610e04565b6040516104c991906139ab565b60405180910390f35b6104da610e8a565b6040516104e79190613844565b60405180910390f35b61050a60048036038101906105059190613c3a565b610e90565b6040516105179190613844565b60405180910390f35b61053a6004803603810190610535919061393d565b610f47565b6040516105479190613844565b60405180910390f35b610558610fac565b005b610562611143565b60405161056f9190613b69565b60405180910390f35b610580611159565b60405161058d91906139ab565b60405180910390f35b6105b060048036038101906105ab9190613c3a565b611183565b005b6105cc60048036038101906105c7919061393d565b611364565b005b6105e860048036038101906105e39190613d94565b611376565b005b6105f2611729565b6040516105ff91906138ef565b60405180910390f35b6106106117bb565b60405161061d9190613c1f565b60405180910390f35b61062e6117e1565b60405161063b9190613844565b60405180910390f35b61065e60048036038101906106599190613e34565b6117e7565b005b6106686117fd565b6040516106759190613844565b60405180910390f35b61069860048036038101906106939190613f06565b611804565b005b6106a26118bc565b6040516106af9190613f90565b60405180910390f35b6106d260048036038101906106cd91906140db565b6118d0565b005b6106ee60048036038101906106e9919061393d565b611932565b6040516106fb91906138ef565b60405180910390f35b61071e60048036038101906107199190614180565b61199a565b005b61073a600480360381019061073591906141d6565b611a6f565b6040516107479190613810565b60405180910390f35b61076a60048036038101906107659190614238565b611b03565b005b61078660048036038101906107819190613c3a565b611b74565b005b610790611b88565b60405161079d9190613844565b60405180910390f35b6107c060048036038101906107bb919061393d565b611b8e565b005b60007f80ac58cd000000000000000000000000000000000000000000000000000000007bffffffffffffffffffffffffffffffffffffffffffffffffffffffff1916827bffffffffffffffffffffffffffffffffffffffffffffffffffffffff1916148061088d57507f5b5e139f000000000000000000000000000000000000000000000000000000007bffffffffffffffffffffffffffffffffffffffffffffffffffffffff1916827bffffffffffffffffffffffffffffffffffffffffffffffffffffffff1916145b8061089d575061089c82611be4565b5b9050919050565b6000600b54905090565b6060600080546108bd906142de565b80601f01602080910402602001604051908101604052809291908181526020018280546108e9906142de565b80156109365780601f1061090b57610100808354040283529160200191610936565b820191906000526020600020905b81548152906001019060200180831161091957829003601f168201915b5050505050905090565b600061094b82611c4e565b6004600083815260200190815260200160002060009054906101000a900473ffffffffffffffffffffffffffffffffffffffff169050919050565b600061099182610e04565b90508073ffffffffffffffffffffffffffffffffffffffff168373ffffffffffffffffffffffffffffffffffffffff1603610a01576040517f08c379a00000000000000000000000000000000000000000000000000000000081526004016109f890614381565b60405180910390fd5b8073ffffffffffffffffffffffffffffffffffffffff16610a20611c99565b73ffffffffffffffffffffffffffffffffffffffff161480610a4f5750610a4e81610a49611c99565b611a6f565b5b610a8e576040517f08c379a0000000000000000000000000000000000000000000000000000000008152600401610a8590614413565b60405180910390fd5b610a988383611ca1565b505050565b60125481565b600b5481565b601481565b600960009054906101000a900473ffffffffffffffffffffffffffffffffffffffff1673ffffffffffffffffffffffffffffffffffffffff163373ffffffffffffffffffffffffffffffffffffffff1614610b645733600960009054906101000a900473ffffffffffffffffffffffffffffffffffffffff166040517f1cf993f4000000000000000000000000000000000000000000000000000000008152600401610b5b929190614433565b60405180910390fd5b610b6f838383611d5a565b505050565b610b85610b7f611c99565b82611ecc565b610bc4576040517f08c379a0000000000000000000000000000000000000000000000000000000008152600401610bbb906144ce565b60405180910390fd5b610bcf838383611f61565b505050565b601360009054906101000a900463ffffffff1681565b601481565b7f000000000000000000000000000000000000000000000000000000000000000081565b601060009054906101000a900473ffffffffffffffffffffffffffffffffffffffff1681565b610c54838383604051806020016040528060008152506118d0565b505050565b610c6161225a565b60007f000000000000000000000000000000000000000000000000000000000000000073ffffffffffffffffffffffffffffffffffffffff166370a08231306040518263ffffffff1660e01b8152600401610cbc91906139ab565b602060405180830381865afa158015610cd9573d6000803e3d6000fd5b505050506040513d601f19601f82011682018060405250810190610cfd9190614503565b90507f000000000000000000000000000000000000000000000000000000000000000073ffffffffffffffffffffffffffffffffffffffff1663a9059cbb83836040518363ffffffff1660e01b8152600401610d5a929190614530565b6020604051808303816000875af1158015610d79573d6000803e3d6000fd5b505050506040513d601f19601f82011682018060405250810190610d9d919061456e565b610ddc576040517f08c379a0000000000000000000000000000000000000000000000000000000008152600401610dd3906145e7565b60405180910390fd5b5050565b610de861225a565b8181600f9182610df99291906147b4565b505050565b60115481565b600080610e10836122ec565b9050600073ffffffffffffffffffffffffffffffffffffffff168173ffffffffffffffffffffffffffffffffffffffff1603610e81576040517f08c379a0000000000000000000000000000000000000000000000000000000008152600401610e78906148d0565b60405180910390fd5b80915050919050565b600c5481565b60008073ffffffffffffffffffffffffffffffffffffffff168273ffffffffffffffffffffffffffffffffffffffff1603610f00576040517f08c379a0000000000000000000000000000000000000000000000000000000008152600401610ef790614962565b60405180910390fd5b600360008373ffffffffffffffffffffffffffffffffffffffff1673ffffffffffffffffffffffffffffffffffffffff168152602001908152602001600020549050919050565b6000610f5282612329565b610f91576040517f08c379a0000000000000000000000000000000000000000000000000000000008152600401610f88906149ce565b60405180910390fd5b600e6000838152602001908152602001600020549050919050565b600860009054906101000a900473ffffffffffffffffffffffffffffffffffffffff1673ffffffffffffffffffffffffffffffffffffffff163373ffffffffffffffffffffffffffffffffffffffff161461103c576040517f08c379a000000000000000000000000000000000000000000000000000000000815260040161103390614a3a565b60405180910390fd5b6000600760009054906101000a900473ffffffffffffffffffffffffffffffffffffffff16905033600760006101000a81548173ffffffffffffffffffffffffffffffffffffffff021916908373ffffffffffffffffffffffffffffffffffffffff1602179055506000600860006101000a81548173ffffffffffffffffffffffffffffffffffffffff021916908373ffffffffffffffffffffffffffffffffffffffff1602179055503373ffffffffffffffffffffffffffffffffffffffff168173ffffffffffffffffffffffffffffffffffffffff167f8be0079c531659141344cd1fd0a4f28419497f9722a3daafe3b4186f6b6457e060405160405180910390a350565b601360069054906101000a900463ffffffff1681565b6000600760009054906101000a900473ffffffffffffffffffffffffffffffffffffffff16905090565b61118b611159565b73ffffffffffffffffffffffffffffffffffffffff163373ffffffffffffffffffffffffffffffffffffffff16141580156112145750600960009054906101000a900473ffffffffffffffffffffffffffffffffffffffff1673ffffffffffffffffffffffffffffffffffffffff163373ffffffffffffffffffffffffffffffffffffffff1614155b156112835733611222611159565b600960009054906101000a900473ffffffffffffffffffffffffffffffffffffffff166040517f061db9c100000000000000000000000000000000000000000000000000000000815260040161127a93929190614a5a565b60405180910390fd5b600073ffffffffffffffffffffffffffffffffffffffff168173ffffffffffffffffffffffffffffffffffffffff16036112e9576040517fd92e233d00000000000000000000000000000000000000000000000000000000815260040160405180910390fd5b80600960006101000a81548173ffffffffffffffffffffffffffffffffffffffff021916908373ffffffffffffffffffffffffffffffffffffffff1602179055507fd1a6a14209a385a964d036e404cb5cfb71f4000cdb03c9366292430787261be68160405161135991906139ab565b60405180910390a150565b61136c61225a565b80600a8190555050565b61137e61236a565b600083116113c1576040517f08c379a00000000000000000000000000000000000000000000000000000000081526004016113b890614add565b60405180910390fd5b620186a083600c546113d39190614b2c565b1115611414576040517f08c379a000000000000000000000000000000000000000000000000000000000815260040161140b90614bac565b60405180910390fd5b600083600a546114249190614bcc565b90507f000000000000000000000000000000000000000000000000000000000000000073ffffffffffffffffffffffffffffffffffffffff166323b872dd3330846040518463ffffffff1660e01b815260040161148393929190614c0e565b6020604051808303816000875af11580156114a2573d6000803e3d6000fd5b505050506040513d601f19601f820116820180604052508101906114c6919061456e565b611505576040517f08c379a00000000000000000000000000000000000000000000000000000000081526004016114fc90614c91565b60405180910390fd5b60008073ffffffffffffffffffffffffffffffffffffffff16601060009054906101000a900473ffffffffffffffffffffffffffffffffffffffff1673ffffffffffffffffffffffffffffffffffffffff16141580156115685750600060125414155b801561157957506000801b60115414155b905080156116855760008567ffffffffffffffff81111561159d5761159c613fb0565b5b6040519080825280602002602001820160405280156115cb5781602001602082028036833780820191505090505b50905060005b86811015611649576000600b600081546115ea90614cb1565b91905081905590506115fc89826123b9565b6000600e6000838152602001908152602001600020819055508083838151811061162957611628614cf9565b5b60200260200101818152505050808061164190614cb1565b9150506115d1565b5060006116546123d7565b90508160146000838152602001908152602001600020908051906020019061167d9291906136ae565b505050611700565b60005b858110156116fe576000600b600081546116a190614cb1565b91905081905590506116b388826123b9565b60006116cf6001436116c59190614d28565b4060001c836125c0565b905080600e600084815260200190815260200160002081905550505080806116f690614cb1565b915050611688565b505b84600c60008282546117129190614b2c565b925050819055505050611723612613565b50505050565b606060018054611738906142de565b80601f0160208091040260200160405190810160405280929190818152602001828054611764906142de565b80156117b15780601f10611786576101008083540402835291602001916117b1565b820191906000526020600020905b81548152906001019060200180831161179457829003601f168201915b5050505050905090565b600960009054906101000a900473ffffffffffffffffffffffffffffffffffffffff1681565b600a5481565b6117f96117f2611c99565b838361261d565b5050565b620186a081565b61180c61225a565b84601060006101000a81548173ffffffffffffffffffffffffffffffffffffffff021916908373ffffffffffffffffffffffffffffffffffffffff160217905550836011819055508260128190555060008263ffffffff161461188b5781601360006101000a81548163ffffffff021916908363ffffffff1602179055505b60008161ffff16146118b55780601360046101000a81548161ffff021916908361ffff1602179055505b5050505050565b601360049054906101000a900461ffff1681565b6118e16118db611c99565b83611ecc565b611920576040517f08c379a0000000000000000000000000000000000000000000000000000000008152600401611917906144ce565b60405180910390fd5b61192c84848484612789565b50505050565b606061193d82611c4e565b60006119476127e5565b905060008151116119675760405180602001604052806000815250611992565b8061197184612877565b604051602001611982929190614d98565b6040516020818303038152906040525b915050919050565b6119a261236a565b600d54620186a06064600c546119b89190614bcc565b6119c29190614deb565b1015611a03576040517f08c379a00000000000000000000000000000000000000000000000000000000081526004016119fa90614e68565b60405180910390fd5b611a0e836001612945565b6000600b60008154611a1f90614cb1565b9190508190559050611a3182826123b9565b6001601480611a409190614b2c565b611a4a9190614b2c565b600e60008381526020019081526020016000208190555050611a6a612613565b505050565b6000600560008473ffffffffffffffffffffffffffffffffffffffff1673ffffffffffffffffffffffffffffffffffffffff16815260200190815260200160002060008373ffffffffffffffffffffffffffffffffffffffff1673ffffffffffffffffffffffffffffffffffffffff16815260200190815260200160002060009054906101000a900460ff16905092915050565b611b0b61236a565b611b16846000612b92565b6000600b60008154611b2790614cb1565b9190508190559050611b3984826123b9565b611b4285612dc9565b6014611b4e9190614b2c565b600e60008381526020019081526020016000208190555050611b6e612613565b50505050565b611b7c61225a565b611b8581612e19565b50565b600d5481565b611b9661225a565b6064811115611bda576040517f08c379a0000000000000000000000000000000000000000000000000000000008152600401611bd190614ed4565b60405180910390fd5b80600d8190555050565b60007f01ffc9a7000000000000000000000000000000000000000000000000000000007bffffffffffffffffffffffffffffffffffffffffffffffffffffffff1916827bffffffffffffffffffffffffffffffffffffffffffffffffffffffff1916149050919050565b611c5781612329565b611c96576040517f08c379a0000000000000000000000000000000000000000000000000000000008152600401611c8d906148d0565b60405180910390fd5b50565b600033905090565b816004600083815260200190815260200160002060006101000a81548173ffffffffffffffffffffffffffffffffffffffff021916908373ffffffffffffffffffffffffffffffffffffffff160217905550808273ffffffffffffffffffffffffffffffffffffffff16611d1483610e04565b73ffffffffffffffffffffffffffffffffffffffff167f8c5be1e5ebec7d5bd14f71427d1e84f3dd0314c0f7b2291e5b200ac8c7c3b92560405160405180910390a45050565b600082826000818110611d7057611d6f614cf9565b5b905060200201359050600060146000868152602001908152602001600020805480602002602001604051908101604052809291908181526020018280548015611dd857602002820191906000526020600020905b815481526020019060010190808311611dc4575b505050505090506000815111611e23576040517f08c379a0000000000000000000000000000000000000000000000000000000008152600401611e1a90614f40565b60405180910390fd5b601460008681526020019081526020016000206000611e4291906136fb565b60005b8151811015611ec4576000828281518110611e6357611e62614cf9565b5b602002602001015190506000600e60008381526020019081526020016000205403611eb0576000611e9485836125c0565b905080600e600084815260200190815260200160002081905550505b508080611ebc90614cb1565b915050611e45565b505050505050565b600080611ed883610e04565b90508073ffffffffffffffffffffffffffffffffffffffff168473ffffffffffffffffffffffffffffffffffffffff161480611f1a5750611f198185611a6f565b5b80611f5857508373ffffffffffffffffffffffffffffffffffffffff16611f4084610940565b73ffffffffffffffffffffffffffffffffffffffff16145b91505092915050565b8273ffffffffffffffffffffffffffffffffffffffff16611f8182610e04565b73ffffffffffffffffffffffffffffffffffffffff1614611fd7576040517f08c379a0000000000000000000000000000000000000000000000000000000008152600401611fce90614fd2565b60405180910390fd5b600073ffffffffffffffffffffffffffffffffffffffff168273ffffffffffffffffffffffffffffffffffffffff1603612046576040517f08c379a000000000000000000000000000000000000000000000000000000000815260040161203d90615064565b60405180910390fd5b6120538383836001612f47565b8273ffffffffffffffffffffffffffffffffffffffff1661207382610e04565b73ffffffffffffffffffffffffffffffffffffffff16146120c9576040517f08c379a00000000000000000000000000000000000000000000000000000000081526004016120c090614fd2565b60405180910390fd5b6004600082815260200190815260200160002060006101000a81549073ffffffffffffffffffffffffffffffffffffffff02191690556001600360008573ffffffffffffffffffffffffffffffffffffffff1673ffffffffffffffffffffffffffffffffffffffff168152602001908152602001600020600082825403925050819055506001600360008473ffffffffffffffffffffffffffffffffffffffff1673ffffffffffffffffffffffffffffffffffffffff16815260200190815260200160002060008282540192505081905550816002600083815260200190815260200160002060006101000a81548173ffffffffffffffffffffffffffffffffffffffff021916908373ffffffffffffffffffffffffffffffffffffffff160217905550808273ffffffffffffffffffffffffffffffffffffffff168473ffffffffffffffffffffffffffffffffffffffff167fddf252ad1be2c89b69c2b068fc378daa952ba7f163c4a11628f55a4df523b3ef60405160405180910390a46122558383836001612f4d565b505050565b600760009054906101000a900473ffffffffffffffffffffffffffffffffffffffff1673ffffffffffffffffffffffffffffffffffffffff163373ffffffffffffffffffffffffffffffffffffffff16146122ea576040517f08c379a00000000000000000000000000000000000000000000000000000000081526004016122e1906150d0565b60405180910390fd5b565b60006002600083815260200190815260200160002060009054906101000a900473ffffffffffffffffffffffffffffffffffffffff169050919050565b60008073ffffffffffffffffffffffffffffffffffffffff1661234b836122ec565b73ffffffffffffffffffffffffffffffffffffffff1614159050919050565b6002600654036123af576040517f08c379a00000000000000000000000000000000000000000000000000000000081526004016123a69061513c565b60405180910390fd5b6002600681905550565b6123d3828260405180602001604052806000815250612f53565b5050565b60008073ffffffffffffffffffffffffffffffffffffffff16601060009054906101000a900473ffffffffffffffffffffffffffffffffffffffff1673ffffffffffffffffffffffffffffffffffffffff161415801561243a5750600060125414155b801561244b57506000801b60115414155b61248a576040517f08c379a0000000000000000000000000000000000000000000000000000000008152600401612481906151a8565b60405180910390fd5b60006040518060c0016040528060115481526020016012548152602001601360049054906101000a900461ffff1661ffff168152602001601360009054906101000a900463ffffffff1663ffffffff168152602001601360069054906101000a900463ffffffff1663ffffffff168152602001612517604051806020016040528060001515815250612fae565b8152509050601060009054906101000a900473ffffffffffffffffffffffffffffffffffffffff1673ffffffffffffffffffffffffffffffffffffffff16639b1c385e826040518263ffffffff1660e01b815260040161257791906152e2565b6020604051808303816000875af1158015612596573d6000803e3d6000fd5b505050506040513d601f19601f820116820180604052508101906125ba9190614503565b91505090565b600080601484846040516020016125d8929190615325565b6040516020818303038152906040528051906020012060001c6125fb9190615351565b905060018161260a9190614b2c565b91505092915050565b6001600681905550565b8173ffffffffffffffffffffffffffffffffffffffff168373ffffffffffffffffffffffffffffffffffffffff160361268b576040517f08c379a0000000000000000000000000000000000000000000000000000000008152600401612682906153ce565b60405180910390fd5b80600560008573ffffffffffffffffffffffffffffffffffffffff1673ffffffffffffffffffffffffffffffffffffffff16815260200190815260200160002060008473ffffffffffffffffffffffffffffffffffffffff1673ffffffffffffffffffffffffffffffffffffffff16815260200190815260200160002060006101000a81548160ff0219169083151502179055508173ffffffffffffffffffffffffffffffffffffffff168373ffffffffffffffffffffffffffffffffffffffff167f17307eab39ab6107e8899845ad3d59bd9653f200f220920489ca2b5937696c318360405161277c9190613810565b60405180910390a3505050565b612794848484611f61565b6127a084848484613046565b6127df576040517f08c379a00000000000000000000000000000000000000000000000000000000081526004016127d690615460565b60405180910390fd5b50505050565b6060600f80546127f4906142de565b80601f0160208091040260200160405190810160405280929190818152602001828054612820906142de565b801561286d5780601f106128425761010080835404028352916020019161286d565b820191906000526020600020905b81548152906001019060200180831161285057829003601f168201915b5050505050905090565b606060006001612886846131cd565b01905060008167ffffffffffffffff8111156128a5576128a4613fb0565b5b6040519080825280601f01601f1916602001820160405280156128d75781602001600182028036833780820191505090505b509050600082602001820190505b60011561293a578080600190039150507f3031323334353637383961626364656600000000000000000000000000000000600a86061a8153600a858161292e5761292d614dbc565b5b049450600085036128e5575b819350505050919050565b600081905061295261371c565b60005b6014811015612ad057600061298086836014811061297657612975614cf9565b5b6020020135610e04565b90503373ffffffffffffffffffffffffffffffffffffffff168173ffffffffffffffffffffffffffffffffffffffff16146129f0576040517f08c379a00000000000000000000000000000000000000000000000000000000081526004016129e7906154cc565b60405180910390fd5b6000600e6000888560148110612a0957612a08614cf9565b5b60200201358152602001908152602001600020549050601481118015612a3b5750601480612a379190614b2c565b8111155b612a7a576040517f08c379a0000000000000000000000000000000000000000000000000000000008152600401612a7190615538565b60405180910390fd5b836001601483612a8a9190614d28565b612a949190614d28565b60148110612aa557612aa4614cf9565b5b602002018051809190612ab790614cb1565b8152505050508080612ac890614cb1565b915050612955565b5060005b6014811015612b4b576001828260148110612af257612af1614cf9565b5b60200201511015612b38576040517f08c379a0000000000000000000000000000000000000000000000000000000008152600401612b2f906155a4565b60405180910390fd5b8080612b4390614cb1565b915050612ad4565b5060005b6014811015612b8b57612b78858260148110612b6e57612b6d614cf9565b5b6020020135613320565b8080612b8390614cb1565b915050612b4f565b5050505050565b6000819050612b9f61371c565b60005b6064811015612d07576000612bcd868360648110612bc357612bc2614cf9565b5b6020020135610e04565b90503373ffffffffffffffffffffffffffffffffffffffff168173ffffffffffffffffffffffffffffffffffffffff1614612c3d576040517f08c379a0000000000000000000000000000000000000000000000000000000008152600401612c34906154cc565b60405180910390fd5b6000600e6000888560648110612c5657612c55614cf9565b5b6020020135815260200190815260200160002054905060018110158015612c7e575060148111155b612cbd576040517f08c379a0000000000000000000000000000000000000000000000000000000008152600401612cb490615610565b60405180910390fd5b83600182612ccb9190614d28565b60148110612cdc57612cdb614cf9565b5b602002018051809190612cee90614cb1565b8152505050508080612cff90614cb1565b915050612ba2565b5060005b6014811015612d82576005828260148110612d2957612d28614cf9565b5b60200201511015612d6f576040517f08c379a0000000000000000000000000000000000000000000000000000000008152600401612d669061567c565b60405180910390fd5b8080612d7a90614cb1565b915050612d0b565b5060005b6064811015612dc257612daf858260648110612da557612da4614cf9565b5b6020020135613320565b8080612dba90614cb1565b915050612d86565b5050505050565b60008082604051602001612ddd91906156b6565b604051602081830303815290604052805190602001209050600160148260001c612e079190615351565b612e119190614b2c565b915050919050565b3373ffffffffffffffffffffffffffffffffffffffff168173ffffffffffffffffffffffffffffffffffffffff1603612e87576040517f08c379a0000000000000000000000000000000000000000000000000000000008152600401612e7e9061571e565b60405180910390fd5b80600860006101000a81548173ffffffffffffffffffffffffffffffffffffffff021916908373ffffffffffffffffffffffffffffffffffffffff1602179055508073ffffffffffffffffffffffffffffffffffffffff16600760009054906101000a900473ffffffffffffffffffffffffffffffffffffffff1673ffffffffffffffffffffffffffffffffffffffff167fed8889f560326eb138920d842192f0eb3dd22b4f139c87a2c57538e05bae127860405160405180910390a350565b50505050565b50505050565b612f5d838361346e565b612f6a6000848484613046565b612fa9576040517f08c379a0000000000000000000000000000000000000000000000000000000008152600401612fa090615460565b60405180910390fd5b505050565b60607f92fd13387c7fe7befbc38d303d6468778fb9731bc4583f17d92989c6fcfdeaaa82604051602401612fe29190615769565b604051602081830303815290604052907bffffffffffffffffffffffffffffffffffffffffffffffffffffffff19166020820180517bffffffffffffffffffffffffffffffffffffffffffffffffffffffff83818316178352505050509050919050565b60006130678473ffffffffffffffffffffffffffffffffffffffff1661368b565b156131c0578373ffffffffffffffffffffffffffffffffffffffff1663150b7a02613090611c99565b8786866040518563ffffffff1660e01b81526004016130b294939291906157ce565b6020604051808303816000875af19250505080156130ee57506040513d601f19601f820116820180604052508101906130eb919061582f565b60015b613170573d806000811461311e576040519150601f19603f3d011682016040523d82523d6000602084013e613123565b606091505b506000815103613168576040517f08c379a000000000000000000000000000000000000000000000000000000000815260040161315f90615460565b60405180910390fd5b805181602001fd5b63150b7a0260e01b7bffffffffffffffffffffffffffffffffffffffffffffffffffffffff1916817bffffffffffffffffffffffffffffffffffffffffffffffffffffffff1916149150506131c5565b600190505b949350505050565b600080600090507a184f03e93ff9f4daa797ed6e38ed64bf6a1f010000000000000000831061322b577a184f03e93ff9f4daa797ed6e38ed64bf6a1f010000000000000000838161322157613220614dbc565b5b0492506040810190505b6d04ee2d6d415b85acef81000000008310613268576d04ee2d6d415b85acef8100000000838161325e5761325d614dbc565b5b0492506020810190505b662386f26fc10000831061329757662386f26fc10000838161328d5761328c614dbc565b5b0492506010810190505b6305f5e10083106132c0576305f5e10083816132b6576132b5614dbc565b5b0492506008810190505b61271083106132e55761271083816132db576132da614dbc565b5b0492506004810190505b6064831061330857606483816132fe576132fd614dbc565b5b0492506002810190505b600a8310613317576001810190505b80915050919050565b600061332b82610e04565b905061333b816000846001612f47565b61334482610e04565b90506004600083815260200190815260200160002060006101000a81549073ffffffffffffffffffffffffffffffffffffffff02191690556001600360008373ffffffffffffffffffffffffffffffffffffffff1673ffffffffffffffffffffffffffffffffffffffff168152602001908152602001600020600082825403925050819055506002600083815260200190815260200160002060006101000a81549073ffffffffffffffffffffffffffffffffffffffff021916905581600073ffffffffffffffffffffffffffffffffffffffff168273ffffffffffffffffffffffffffffffffffffffff167fddf252ad1be2c89b69c2b068fc378daa952ba7f163c4a11628f55a4df523b3ef60405160405180910390a461346a816000846001612f4d565b5050565b600073ffffffffffffffffffffffffffffffffffffffff168273ffffffffffffffffffffffffffffffffffffffff16036134dd576040517f08c379a00000000000000000000000000000000000000000000000000000000081526004016134d4906158a8565b60405180910390fd5b6134e681612329565b15613526576040517f08c379a000000000000000000000000000000000000000000000000000000000815260040161351d90615914565b60405180910390fd5b613534600083836001612f47565b61353d81612329565b1561357d576040517f08c379a000000000000000000000000000000000000000000000000000000000815260040161357490615914565b60405180910390fd5b6001600360008473ffffffffffffffffffffffffffffffffffffffff1673ffffffffffffffffffffffffffffffffffffffff16815260200190815260200160002060008282540192505081905550816002600083815260200190815260200160002060006101000a81548173ffffffffffffffffffffffffffffffffffffffff021916908373ffffffffffffffffffffffffffffffffffffffff160217905550808273ffffffffffffffffffffffffffffffffffffffff16600073ffffffffffffffffffffffffffffffffffffffff167fddf252ad1be2c89b69c2b068fc378daa952ba7f163c4a11628f55a4df523b3ef60405160405180910390a4613687600083836001612f4d565b5050565b6000808273ffffffffffffffffffffffffffffffffffffffff163b119050919050565b8280548282559060005260206000209081019282156136ea579160200282015b828111156136e95782518255916020019190600101906136ce565b5b5090506136f7919061373f565b5090565b5080546000825590600052602060002090810190613719919061373f565b50565b604051806102800160405280601490602082028036833780820191505090505090565b5b80821115613758576000816000905550600101613740565b5090565b6000604051905090565b600080fd5b600080fd5b60007fffffffff0000000000000000000000000000000000000000000000000000000082169050919050565b6137a581613770565b81146137b057600080fd5b50565b6000813590506137c28161379c565b92915050565b6000602082840312156137de576137dd613766565b5b60006137ec848285016137b3565b91505092915050565b60008115159050919050565b61380a816137f5565b82525050565b60006020820190506138256000830184613801565b92915050565b6000819050919050565b61383e8161382b565b82525050565b60006020820190506138596000830184613835565b92915050565b600081519050919050565b600082825260208201905092915050565b60005b8381101561389957808201518184015260208101905061387e565b60008484015250505050565b6000601f19601f8301169050919050565b60006138c18261385f565b6138cb818561386a565b93506138db81856020860161387b565b6138e4816138a5565b840191505092915050565b6000602082019050818103600083015261390981846138b6565b905092915050565b61391a8161382b565b811461392557600080fd5b50565b60008135905061393781613911565b92915050565b60006020828403121561395357613952613766565b5b600061396184828501613928565b91505092915050565b600073ffffffffffffffffffffffffffffffffffffffff82169050919050565b60006139958261396a565b9050919050565b6139a58161398a565b82525050565b60006020820190506139c0600083018461399c565b92915050565b6139cf8161398a565b81146139da57600080fd5b50565b6000813590506139ec816139c6565b92915050565b60008060408385031215613a0957613a08613766565b5b6000613a17858286016139dd565b9250506020613a2885828601613928565b9150509250929050565b600080fd5b600080fd5b600080fd5b60008083601f840112613a5757613a56613a32565b5b8235905067ffffffffffffffff811115613a7457613a73613a37565b5b602083019150836020820283011115613a9057613a8f613a3c565b5b9250929050565b600080600060408486031215613ab057613aaf613766565b5b6000613abe86828701613928565b935050602084013567ffffffffffffffff811115613adf57613ade61376b565b5b613aeb86828701613a41565b92509250509250925092565b600080600060608486031215613b1057613b0f613766565b5b6000613b1e868287016139dd565b9350506020613b2f868287016139dd565b9250506040613b4086828701613928565b9150509250925092565b600063ffffffff82169050919050565b613b6381613b4a565b82525050565b6000602082019050613b7e6000830184613b5a565b92915050565b6000819050919050565b6000613ba9613ba4613b9f8461396a565b613b84565b61396a565b9050919050565b6000613bbb82613b8e565b9050919050565b6000613bcd82613bb0565b9050919050565b613bdd81613bc2565b82525050565b6000602082019050613bf86000830184613bd4565b92915050565b6000613c0982613bb0565b9050919050565b613c1981613bfe565b82525050565b6000602082019050613c346000830184613c10565b92915050565b600060208284031215613c5057613c4f613766565b5b6000613c5e848285016139dd565b91505092915050565b60008083601f840112613c7d57613c7c613a32565b5b8235905067ffffffffffffffff811115613c9a57613c99613a37565b5b602083019150836001820283011115613cb657613cb5613a3c565b5b9250929050565b60008060208385031215613cd457613cd3613766565b5b600083013567ffffffffffffffff811115613cf257613cf161376b565b5b613cfe85828601613c67565b92509250509250929050565b6000819050919050565b613d1d81613d0a565b82525050565b6000602082019050613d386000830184613d14565b92915050565b60008083601f840112613d5457613d53613a32565b5b8235905067ffffffffffffffff811115613d7157613d70613a37565b5b602083019150836001820283011115613d8d57613d8c613a3c565b5b9250929050565b60008060008060608587031215613dae57613dad613766565b5b6000613dbc878288016139dd565b9450506020613dcd87828801613928565b935050604085013567ffffffffffffffff811115613dee57613ded61376b565b5b613dfa87828801613d3e565b925092505092959194509250565b613e11816137f5565b8114613e1c57600080fd5b50565b600081359050613e2e81613e08565b92915050565b60008060408385031215613e4b57613e4a613766565b5b6000613e59858286016139dd565b9250506020613e6a85828601613e1f565b9150509250929050565b613e7d81613d0a565b8114613e8857600080fd5b50565b600081359050613e9a81613e74565b92915050565b613ea981613b4a565b8114613eb457600080fd5b50565b600081359050613ec681613ea0565b92915050565b600061ffff82169050919050565b613ee381613ecc565b8114613eee57600080fd5b50565b600081359050613f0081613eda565b92915050565b600080600080600060a08688031215613f2257613f21613766565b5b6000613f30888289016139dd565b9550506020613f4188828901613e8b565b9450506040613f5288828901613928565b9350506060613f6388828901613eb7565b9250506080613f7488828901613ef1565b9150509295509295909350565b613f8a81613ecc565b82525050565b6000602082019050613fa56000830184613f81565b92915050565b600080fd5b7f4e487b7100000000000000000000000000000000000000000000000000000000600052604160045260246000fd5b613fe8826138a5565b810181811067ffffffffffffffff8211171561400757614006613fb0565b5b80604052505050565b600061401a61375c565b90506140268282613fdf565b919050565b600067ffffffffffffffff82111561404657614045613fb0565b5b61404f826138a5565b9050602081019050919050565b82818337600083830152505050565b600061407e6140798461402b565b614010565b90508281526020810184848401111561409a57614099613fab565b5b6140a584828561405c565b509392505050565b600082601f8301126140c2576140c1613a32565b5b81356140d284826020860161406b565b91505092915050565b600080600080608085870312156140f5576140f4613766565b5b6000614103878288016139dd565b9450506020614114878288016139dd565b935050604061412587828801613928565b925050606085013567ffffffffffffffff8111156141465761414561376b565b5b614152878288016140ad565b91505092959194509250565b60008190508260206014028201111561417a57614179613a3c565b5b92915050565b60008060006102c0848603121561419a57614199613766565b5b60006141a88682870161415e565b9350506102806141ba86828701613928565b9250506102a06141cc868287016139dd565b9150509250925092565b600080604083850312156141ed576141ec613766565b5b60006141fb858286016139dd565b925050602061420c858286016139dd565b9150509250929050565b60008190508260206064028201111561423257614231613a3c565b5b92915050565b600080600080610cc0858703121561425357614252613766565b5b600061426187828801614216565b945050610c80614273878288016139dd565b935050610ca085013567ffffffffffffffff8111156142955761429461376b565b5b6142a187828801613d3e565b925092505092959194509250565b7f4e487b7100000000000000000000000000000000000000000000000000000000600052602260045260246000fd5b600060028204905060018216806142f657607f821691505b602082108103614309576143086142af565b5b50919050565b7f4552433732313a20617070726f76616c20746f2063757272656e74206f776e6560008201527f7200000000000000000000000000000000000000000000000000000000000000602082015250565b600061436b60218361386a565b91506143768261430f565b604082019050919050565b6000602082019050818103600083015261439a8161435e565b9050919050565b7f4552433732313a20617070726f76652063616c6c6572206973206e6f7420746f60008201527f6b656e206f776e6572206f7220617070726f76656420666f7220616c6c000000602082015250565b60006143fd603d8361386a565b9150614408826143a1565b604082019050919050565b6000602082019050818103600083015261442c816143f0565b9050919050565b6000604082019050614448600083018561399c565b614455602083018461399c565b9392505050565b7f4552433732313a2063616c6c6572206973206e6f7420746f6b656e206f776e6560008201527f72206f7220617070726f76656400000000000000000000000000000000000000602082015250565b60006144b8602d8361386a565b91506144c38261445c565b604082019050919050565b600060208201905081810360008301526144e7816144ab565b9050919050565b6000815190506144fd81613911565b92915050565b60006020828403121561451957614518613766565b5b6000614527848285016144ee565b91505092915050565b6000604082019050614545600083018561399c565b6145526020830184613835565b9392505050565b60008151905061456881613e08565b92915050565b60006020828403121561458457614583613766565b5b600061459284828501614559565b91505092915050565b7f7800000000000000000000000000000000000000000000000000000000000000600082015250565b60006145d160018361386a565b91506145dc8261459b565b602082019050919050565b60006020820190508181036000830152614600816145c4565b9050919050565b600082905092915050565b60008190508160005260206000209050919050565b60006020601f8301049050919050565b600082821b905092915050565b6000600883026146747fffffffffffffffffffffffffffffffffffffffffffffffffffffffffffffffff82614637565b61467e8683614637565b95508019841693508086168417925050509392505050565b60006146b16146ac6146a78461382b565b613b84565b61382b565b9050919050565b6000819050919050565b6146cb83614696565b6146df6146d7826146b8565b848454614644565b825550505050565b600090565b6146f46146e7565b6146ff8184846146c2565b505050565b5b81811015614723576147186000826146ec565b600181019050614705565b5050565b601f8211156147685761473981614612565b61474284614627565b81016020851015614751578190505b61476561475d85614627565b830182614704565b50505b505050565b600082821c905092915050565b600061478b6000198460080261476d565b1980831691505092915050565b60006147a4838361477a565b9150826002028217905092915050565b6147be8383614607565b67ffffffffffffffff8111156147d7576147d6613fb0565b5b6147e182546142de565b6147ec828285614727565b6000601f83116001811461481b5760008415614809578287013590505b6148138582614798565b86555061487b565b601f19841661482986614612565b60005b828110156148515784890135825560018201915060208501945060208101905061482c565b8683101561486e578489013561486a601f89168261477a565b8355505b6001600288020188555050505b50505050505050565b7f4552433732313a20696e76616c696420746f6b656e2049440000000000000000600082015250565b60006148ba60188361386a565b91506148c582614884565b602082019050919050565b600060208201905081810360008301526148e9816148ad565b9050919050565b7f4552433732313a2061646472657373207a65726f206973206e6f74206120766160008201527f6c6964206f776e65720000000000000000000000000000000000000000000000602082015250565b600061494c60298361386a565b9150614957826148f0565b604082019050919050565b6000602082019050818103600083015261497b8161493f565b9050919050565b7f2165786973747300000000000000000000000000000000000000000000000000600082015250565b60006149b860078361386a565b91506149c382614982565b602082019050919050565b600060208201905081810360008301526149e7816149ab565b9050919050565b7f4d7573742062652070726f706f736564206f776e657200000000000000000000600082015250565b6000614a2460168361386a565b9150614a2f826149ee565b602082019050919050565b60006020820190508181036000830152614a5381614a17565b9050919050565b6000606082019050614a6f600083018661399c565b614a7c602083018561399c565b614a89604083018461399c565b949350505050565b7f7174790000000000000000000000000000000000000000000000000000000000600082015250565b6000614ac760038361386a565b9150614ad282614a91565b602082019050919050565b60006020820190508181036000830152614af681614aba565b9050919050565b7f4e487b7100000000000000000000000000000000000000000000000000000000600052601160045260246000fd5b6000614b378261382b565b9150614b428361382b565b9250828201905080821115614b5a57614b59614afd565b5b92915050565b7f6361700000000000000000000000000000000000000000000000000000000000600082015250565b6000614b9660038361386a565b9150614ba182614b60565b602082019050919050565b60006020820190508181036000830152614bc581614b89565b9050919050565b6000614bd78261382b565b9150614be28361382b565b9250828202614bf08161382b565b91508282048414831517614c0757614c06614afd565b5b5092915050565b6000606082019050614c23600083018661399c565b614c30602083018561399c565b614c3d6040830184613835565b949350505050565b7f7061790000000000000000000000000000000000000000000000000000000000600082015250565b6000614c7b60038361386a565b9150614c8682614c45565b602082019050919050565b60006020820190508181036000830152614caa81614c6e565b9050919050565b6000614cbc8261382b565b91507fffffffffffffffffffffffffffffffffffffffffffffffffffffffffffffffff8203614cee57614ced614afd565b5b600182019050919050565b7f4e487b7100000000000000000000000000000000000000000000000000000000600052603260045260246000fd5b6000614d338261382b565b9150614d3e8361382b565b9250828203905081811115614d5657614d55614afd565b5b92915050565b600081905092915050565b6000614d728261385f565b614d7c8185614d5c565b9350614d8c81856020860161387b565b80840191505092915050565b6000614da48285614d67565b9150614db08284614d67565b91508190509392505050565b7f4e487b7100000000000000000000000000000000000000000000000000000000600052601260045260246000fd5b6000614df68261382b565b9150614e018361382b565b925082614e1157614e10614dbc565b5b828204905092915050565b7f6761746500000000000000000000000000000000000000000000000000000000600082015250565b6000614e5260048361386a565b9150614e5d82614e1c565b602082019050919050565b60006020820190508181036000830152614e8181614e45565b9050919050565b7f7063740000000000000000000000000000000000000000000000000000000000600082015250565b6000614ebe60038361386a565b9150614ec982614e88565b602082019050919050565b60006020820190508181036000830152614eed81614eb1565b9050919050565b7f6e6f2d6964730000000000000000000000000000000000000000000000000000600082015250565b6000614f2a60068361386a565b9150614f3582614ef4565b602082019050919050565b60006020820190508181036000830152614f5981614f1d565b9050919050565b7f4552433732313a207472616e736665722066726f6d20696e636f72726563742060008201527f6f776e6572000000000000000000000000000000000000000000000000000000602082015250565b6000614fbc60258361386a565b9150614fc782614f60565b604082019050919050565b60006020820190508181036000830152614feb81614faf565b9050919050565b7f4552433732313a207472616e7366657220746f20746865207a65726f2061646460008201527f7265737300000000000000000000000000000000000000000000000000000000602082015250565b600061504e60248361386a565b915061505982614ff2565b604082019050919050565b6000602082019050818103600083015261507d81615041565b9050919050565b7f4f6e6c792063616c6c61626c65206279206f776e657200000000000000000000600082015250565b60006150ba60168361386a565b91506150c582615084565b602082019050919050565b600060208201905081810360008301526150e9816150ad565b9050919050565b7f5265656e7472616e637947756172643a207265656e7472616e742063616c6c00600082015250565b6000615126601f8361386a565b9150615131826150f0565b602082019050919050565b6000602082019050818103600083015261515581615119565b9050919050565b7f7672660000000000000000000000000000000000000000000000000000000000600082015250565b600061519260038361386a565b915061519d8261515c565b602082019050919050565b600060208201905081810360008301526151c181615185565b9050919050565b6151d181613d0a565b82525050565b6151e08161382b565b82525050565b6151ef81613ecc565b82525050565b6151fe81613b4a565b82525050565b600081519050919050565b600082825260208201905092915050565b600061522b82615204565b615235818561520f565b935061524581856020860161387b565b61524e816138a5565b840191505092915050565b600060c08301600083015161527160008601826151c8565b50602083015161528460208601826151d7565b50604083015161529760408601826151e6565b5060608301516152aa60608601826151f5565b5060808301516152bd60808601826151f5565b5060a083015184820360a08601526152d58282615220565b9150508091505092915050565b600060208201905081810360008301526152fc8184615259565b905092915050565b6000819050919050565b61531f61531a8261382b565b615304565b82525050565b6000615331828561530e565b602082019150615341828461530e565b6020820191508190509392505050565b600061535c8261382b565b91506153678361382b565b92508261537757615376614dbc565b5b828206905092915050565b7f4552433732313a20617070726f766520746f2063616c6c657200000000000000600082015250565b60006153b860198361386a565b91506153c382615382565b602082019050919050565b600060208201905081810360008301526153e7816153ab565b9050919050565b7f4552433732313a207472616e7366657220746f206e6f6e20455243373231526560008201527f63656976657220696d706c656d656e7465720000000000000000000000000000602082015250565b600061544a60328361386a565b9150615455826153ee565b604082019050919050565b600060208201905081810360008301526154798161543d565b9050919050565b7f6f776e6572000000000000000000000000000000000000000000000000000000600082015250565b60006154b660058361386a565b91506154c182615480565b602082019050919050565b600060208201905081810360008301526154e5816154a9565b9050919050565b7f6c6567656e646172790000000000000000000000000000000000000000000000600082015250565b600061552260098361386a565b915061552d826154ec565b602082019050919050565b6000602082019050818103600083015261555181615515565b9050919050565b7f6e65656431000000000000000000000000000000000000000000000000000000600082015250565b600061558e60058361386a565b915061559982615558565b602082019050919050565b600060208201905081810360008301526155bd81615581565b9050919050565b7f636f6d6d6f6e0000000000000000000000000000000000000000000000000000600082015250565b60006155fa60068361386a565b9150615605826155c4565b602082019050919050565b60006020820190508181036000830152615629816155ed565b9050919050565b7f6e65656435000000000000000000000000000000000000000000000000000000600082015250565b600061566660058361386a565b915061567182615630565b602082019050919050565b6000602082019050818103600083015261569581615659565b9050919050565b82818337505050565b6156b2610c80838361569c565b5050565b60006156c282846156a5565b610c808201915081905092915050565b7f43616e6e6f74207472616e7366657220746f2073656c66000000000000000000600082015250565b600061570860178361386a565b9150615713826156d2565b602082019050919050565b60006020820190508181036000830152615737816156fb565b9050919050565b615747816137f5565b82525050565b602082016000820151615763600085018261573e565b50505050565b600060208201905061577e600083018461574d565b92915050565b600082825260208201905092915050565b60006157a082615204565b6157aa8185615784565b93506157ba81856020860161387b565b6157c3816138a5565b840191505092915050565b60006080820190506157e3600083018761399c565b6157f0602083018661399c565b6157fd6040830185613835565b818103606083015261580f8184615795565b905095945050505050565b6000815190506158298161379c565b92915050565b60006020828403121561584557615844613766565b5b60006158538482850161581a565b91505092915050565b7f4552433732313a206d696e7420746f20746865207a65726f2061646472657373600082015250565b600061589260208361386a565b915061589d8261585c565b602082019050919050565b600060208201905081810360008301526158c181615885565b9050919050565b7f4552433732313a20746f6b656e20616c7265616479206d696e74656400000000600082015250565b60006158fe601c8361386a565b9150615909826158c8565b602082019050919050565b6000602082019050818103600083015261592d816158f1565b905091905056fea264697066735822122021146d0799e846ee10ec60888eab077fa0fe017bdbd991bb2193c04f2baf8de564736f6c63430008140033","opcodes":"PUSH1 0xA0 PUSH1 0x40 MSTORE PUSH1 0x3C PUSH1 0xD SSTORE PUSH3 0x3D090 PUSH1 0x13 PUSH1 0x0 PUSH2 0x100 EXP DUP2 SLOAD DUP2 PUSH4 0xFFFFFFFF MUL NOT AND SWAP1 DUP4 PUSH4 0xFFFFFFFF AND MUL OR SWAP1 SSTORE POP PUSH1 0x3 PUSH1 0x13 PUSH1 0x4 PUSH2 0x100 EXP DUP2 SLOAD DUP2 PUSH2 0xFFFF MUL NOT AND SWAP1 DUP4 PUSH2 0xFFFF AND MUL OR SWAP1 SSTORE POP PUSH1 0x1 PUSH1 0x13 PUSH1 0x6 PUSH2 0x100 EXP DUP2 SLOAD DUP2 PUSH4 0xFFFFFFFF MUL NOT AND SWAP1 DUP4 PUSH4 0xFFFFFFFF AND MUL OR SWAP1 SSTORE POP CALLVALUE DUP1 ISZERO PUSH3 0x7A JUMPI PUSH1 0x0 DUP1 REVERT JUMPDEST POP PUSH1 0x40 MLOAD PUSH3 0x652A CODESIZE SUB DUP1 PUSH3 0x652A DUP4 CODECOPY DUP2 DUP2 ADD PUSH1 0x40 MSTORE DUP2 ADD SWAP1 PUSH3 0xA0 SWAP2 SWAP1 PUSH3 0x6E1 JUMP JUMPDEST DUP1 CALLER DUP1 PUSH1 0x0 PUSH1 0x40 MLOAD DUP1 PUSH1 0x40 ADD PUSH1 0x40 MSTORE DUP1 PUSH1 0x8 DUP2 MSTORE PUSH1 0x20 ADD PUSH32 0x4761736861706F6E000000000000000000000000000000000000000000000000 DUP2 MSTORE POP PUSH1 0x40 MLOAD DUP1 PUSH1 0x40 ADD PUSH1 0x40 MSTORE DUP1 PUSH1 0x4 DUP2 MSTORE PUSH1 0x20 ADD PUSH32 0x4741534800000000000000000000000000000000000000000000000000000000 DUP2 MSTORE POP DUP2 PUSH1 0x0 SWAP1 DUP2 PUSH3 0x122 SWAP2 SWAP1 PUSH3 0x9B3 JUMP JUMPDEST POP DUP1 PUSH1 0x1 SWAP1 DUP2 PUSH3 0x134 SWAP2 SWAP1 PUSH3 0x9B3 JUMP JUMPDEST POP POP POP PUSH1 0x1 PUSH1 0x6 DUP2 SWAP1 SSTORE POP PUSH1 0x0 PUSH20 0xFFFFFFFFFFFFFFFFFFFFFFFFFFFFFFFFFFFFFFFF AND DUP3 PUSH20 0xFFFFFFFFFFFFFFFFFFFFFFFFFFFFFFFFFFFFFFFF AND SUB PUSH3 0x1B1 JUMPI PUSH1 0x40 MLOAD PUSH32 0x8C379A000000000000000000000000000000000000000000000000000000000 DUP2 MSTORE PUSH1 0x4 ADD PUSH3 0x1A8 SWAP1 PUSH3 0xAFB JUMP JUMPDEST PUSH1 0x40 MLOAD DUP1 SWAP2 SUB SWAP1 REVERT JUMPDEST DUP2 PUSH1 0x7 PUSH1 0x0 PUSH2 0x100 EXP DUP2 SLOAD DUP2 PUSH20 0xFFFFFFFFFFFFFFFFFFFFFFFFFFFFFFFFFFFFFFFF MUL NOT AND SWAP1 DUP4 PUSH20 0xFFFFFFFFFFFFFFFFFFFFFFFFFFFFFFFFFFFFFFFF AND MUL OR SWAP1 SSTORE POP PUSH1 0x0 PUSH20 0xFFFFFFFFFFFFFFFFFFFFFFFFFFFFFFFFFFFFFFFF AND DUP2 PUSH20 0xFFFFFFFFFFFFFFFFFFFFFFFFFFFFFFFFFFFFFFFF AND EQ PUSH3 0x239 JUMPI PUSH3 0x238 DUP2 PUSH3 0x37D PUSH1 0x20 SHL PUSH1 0x20 SHR JUMP JUMPDEST JUMPDEST POP POP POP PUSH1 0x0 PUSH20 0xFFFFFFFFFFFFFFFFFFFFFFFFFFFFFFFFFFFFFFFF AND DUP2 PUSH20 0xFFFFFFFFFFFFFFFFFFFFFFFFFFFFFFFFFFFFFFFF AND SUB PUSH3 0x2A3 JUMPI PUSH1 0x40 MLOAD PUSH32 0xD92E233D00000000000000000000000000000000000000000000000000000000 DUP2 MSTORE PUSH1 0x4 ADD PUSH1 0x40 MLOAD DUP1 SWAP2 SUB SWAP1 REVERT JUMPDEST DUP1 PUSH1 0x9 PUSH1 0x0 PUSH2 0x100 EXP DUP2 SLOAD DUP2 PUSH20 0xFFFFFFFFFFFFFFFFFFFFFFFFFFFFFFFFFFFFFFFF MUL NOT AND SWAP1 DUP4 PUSH20 0xFFFFFFFFFFFFFFFFFFFFFFFFFFFFFFFFFFFFFFFF AND MUL OR SWAP1 SSTORE POP POP DUP4 PUSH20 0xFFFFFFFFFFFFFFFFFFFFFFFFFFFFFFFFFFFFFFFF AND PUSH1 0x80 DUP2 PUSH20 0xFFFFFFFFFFFFFFFFFFFFFFFFFFFFFFFFFFFFFFFF AND DUP2 MSTORE POP POP DUP3 PUSH1 0xA DUP2 SWAP1 SSTORE POP DUP2 PUSH1 0xF SWAP1 DUP2 PUSH3 0x331 SWAP2 SWAP1 PUSH3 0x9B3 JUMP JUMPDEST POP DUP1 PUSH1 0x10 PUSH1 0x0 PUSH2 0x100 EXP DUP2 SLOAD DUP2 PUSH20 0xFFFFFFFFFFFFFFFFFFFFFFFFFFFFFFFFFFFFFFFF MUL NOT AND SWAP1 DUP4 PUSH20 0xFFFFFFFFFFFFFFFFFFFFFFFFFFFFFFFFFFFFFFFF AND MUL OR SWAP1 SSTORE POP POP POP POP POP PUSH3 0xB8F JUMP JUMPDEST CALLER PUSH20 0xFFFFFFFFFFFFFFFFFFFFFFFFFFFFFFFFFFFFFFFF AND DUP2 PUSH20 0xFFFFFFFFFFFFFFFFFFFFFFFFFFFFFFFFFFFFFFFF AND SUB PUSH3 0x3EE JUMPI PUSH1 0x40 MLOAD PUSH32 0x8C379A000000000000000000000000000000000000000000000000000000000 DUP2 MSTORE PUSH1 0x4 ADD PUSH3 0x3E5 SWAP1 PUSH3 0xB6D JUMP JUMPDEST PUSH1 0x40 MLOAD DUP1 SWAP2 SUB SWAP1 REVERT JUMPDEST DUP1 PUSH1 0x8 PUSH1 0x0 PUSH2 0x100 EXP DUP2 SLOAD DUP2 PUSH20 0xFFFFFFFFFFFFFFFFFFFFFFFFFFFFFFFFFFFFFFFF MUL NOT AND SWAP1 DUP4 PUSH20 0xFFFFFFFFFFFFFFFFFFFFFFFFFFFFFFFFFFFFFFFF AND MUL OR SWAP1 SSTORE POP DUP1 PUSH20 0xFFFFFFFFFFFFFFFFFFFFFFFFFFFFFFFFFFFFFFFF AND PUSH1 0x7 PUSH1 0x0 SWAP1 SLOAD SWAP1 PUSH2 0x100 EXP SWAP1 DIV PUSH20 0xFFFFFFFFFFFFFFFFFFFFFFFFFFFFFFFFFFFFFFFF AND PUSH20 0xFFFFFFFFFFFFFFFFFFFFFFFFFFFFFFFFFFFFFFFF AND PUSH32 0xED8889F560326EB138920D842192F0EB3DD22B4F139C87A2C57538E05BAE1278 PUSH1 0x40 MLOAD PUSH1 0x40 MLOAD DUP1 SWAP2 SUB SWAP1 LOG3 POP JUMP JUMPDEST PUSH1 0x0 PUSH1 0x40 MLOAD SWAP1 POP SWAP1 JUMP JUMPDEST PUSH1 0x0 DUP1 REVERT JUMPDEST PUSH1 0x0 DUP1 REVERT JUMPDEST PUSH1 0x0 PUSH20 0xFFFFFFFFFFFFFFFFFFFFFFFFFFFFFFFFFFFFFFFF DUP3 AND SWAP1 POP SWAP2 SWAP1 POP JUMP JUMPDEST PUSH1 0x0 PUSH3 0x4EF DUP3 PUSH3 0x4C2 JUMP JUMPDEST SWAP1 POP SWAP2 SWAP1 POP JUMP JUMPDEST PUSH3 0x501 DUP2 PUSH3 0x4E2 JUMP JUMPDEST DUP2 EQ PUSH3 0x50D JUMPI PUSH1 0x0 DUP1 REVERT JUMPDEST POP JUMP JUMPDEST PUSH1 0x0 DUP2 MLOAD SWAP1 POP PUSH3 0x521 DUP2 PUSH3 0x4F6 JUMP JUMPDEST SWAP3 SWAP2 POP POP JUMP JUMPDEST PUSH1 0x0 DUP2 SWAP1 POP SWAP2 SWAP1 POP JUMP JUMPDEST PUSH3 0x53C DUP2 PUSH3 0x527 JUMP JUMPDEST DUP2 EQ PUSH3 0x548 JUMPI PUSH1 0x0 DUP1 REVERT JUMPDEST POP JUMP JUMPDEST PUSH1 0x0 DUP2 MLOAD SWAP1 POP PUSH3 0x55C DUP2 PUSH3 0x531 JUMP JUMPDEST SWAP3 SWAP2 POP POP JUMP JUMPDEST PUSH1 0x0 DUP1 REVERT JUMPDEST PUSH1 0x0 DUP1 REVERT JUMPDEST PUSH1 0x0 PUSH1 0x1F NOT PUSH1 0x1F DUP4 ADD AND SWAP1 POP SWAP2 SWAP1 POP JUMP JUMPDEST PUSH32 0x4E487B7100000000000000000000000000000000000000000000000000000000 PUSH1 0x0 MSTORE PUSH1 0x41 PUSH1 0x4 MSTORE PUSH1 0x24 PUSH1 0x0 REVERT JUMPDEST PUSH3 0x5B7 DUP3 PUSH3 0x56C JUMP JUMPDEST DUP2 ADD DUP2 DUP2 LT PUSH8 0xFFFFFFFFFFFFFFFF DUP3 GT OR ISZERO PUSH3 0x5D9 JUMPI PUSH3 0x5D8 PUSH3 0x57D JUMP JUMPDEST JUMPDEST DUP1 PUSH1 0x40 MSTORE POP POP POP JUMP JUMPDEST PUSH1 0x0 PUSH3 0x5EE PUSH3 0x4AE JUMP JUMPDEST SWAP1 POP PUSH3 0x5FC DUP3 DUP3 PUSH3 0x5AC JUMP JUMPDEST SWAP2 SWAP1 POP JUMP JUMPDEST PUSH1 0x0 PUSH8 0xFFFFFFFFFFFFFFFF DUP3 GT ISZERO PUSH3 0x61F JUMPI PUSH3 0x61E PUSH3 0x57D JUMP JUMPDEST JUMPDEST PUSH3 0x62A DUP3 PUSH3 0x56C JUMP JUMPDEST SWAP1 POP PUSH1 0x20 DUP2 ADD SWAP1 POP SWAP2 SWAP1 POP JUMP JUMPDEST PUSH1 0x0 JUMPDEST DUP4 DUP2 LT ISZERO PUSH3 0x657 JUMPI DUP1 DUP3 ADD MLOAD DUP2 DUP5 ADD MSTORE PUSH1 0x20 DUP2 ADD SWAP1 POP PUSH3 0x63A JUMP JUMPDEST PUSH1 0x0 DUP5 DUP5 ADD MSTORE POP POP POP POP JUMP JUMPDEST PUSH1 0x0 PUSH3 0x67A PUSH3 0x674 DUP5 PUSH3 0x601 JUMP JUMPDEST PUSH3 0x5E2 JUMP JUMPDEST SWAP1 POP DUP3 DUP2 MSTORE PUSH1 0x20 DUP2 ADD DUP5 DUP5 DUP5 ADD GT ISZERO PUSH3 0x699 JUMPI PUSH3 0x698 PUSH3 0x567 JUMP JUMPDEST JUMPDEST PUSH3 0x6A6 DUP5 DUP3 DUP6 PUSH3 0x637 JUMP JUMPDEST POP SWAP4 SWAP3 POP POP POP JUMP JUMPDEST PUSH1 0x0 DUP3 PUSH1 0x1F DUP4 ADD SLT PUSH3 0x6C6 JUMPI PUSH3 0x6C5 PUSH3 0x562 JUMP JUMPDEST JUMPDEST DUP2 MLOAD PUSH3 0x6D8 DUP5 DUP3 PUSH1 0x20 DUP7 ADD PUSH3 0x663 JUMP JUMPDEST SWAP2 POP POP SWAP3 SWAP2 POP POP JUMP JUMPDEST PUSH1 0x0 DUP1 PUSH1 0x0 DUP1 PUSH1 0x80 DUP6 DUP8 SUB SLT ISZERO PUSH3 0x6FE JUMPI PUSH3 0x6FD PUSH3 0x4B8 JUMP JUMPDEST JUMPDEST PUSH1 0x0 PUSH3 0x70E DUP8 DUP3 DUP9 ADD PUSH3 0x510 JUMP JUMPDEST SWAP5 POP POP PUSH1 0x20 PUSH3 0x721 DUP8 DUP3 DUP9 ADD PUSH3 0x54B JUMP JUMPDEST SWAP4 POP POP PUSH1 0x40 DUP6 ADD MLOAD PUSH8 0xFFFFFFFFFFFFFFFF DUP2 GT ISZERO PUSH3 0x745 JUMPI PUSH3 0x744 PUSH3 0x4BD JUMP JUMPDEST JUMPDEST PUSH3 0x753 DUP8 DUP3 DUP9 ADD PUSH3 0x6AE JUMP JUMPDEST SWAP3 POP POP PUSH1 0x60 PUSH3 0x766 DUP8 DUP3 DUP9 ADD PUSH3 0x510 JUMP JUMPDEST SWAP2 POP POP SWAP3 SWAP6 SWAP2 SWAP5 POP SWAP3 POP JUMP JUMPDEST PUSH1 0x0 DUP2 MLOAD SWAP1 POP SWAP2 SWAP1 POP JUMP JUMPDEST PUSH32 0x4E487B7100000000000000000000000000000000000000000000000000000000 PUSH1 0x0 MSTORE PUSH1 0x22 PUSH1 0x4 MSTORE PUSH1 0x24 PUSH1 0x0 REVERT JUMPDEST PUSH1 0x0 PUSH1 0x2 DUP3 DIV SWAP1 POP PUSH1 0x1 DUP3 AND DUP1 PUSH3 0x7C5 JUMPI PUSH1 0x7F DUP3 AND SWAP2 POP JUMPDEST PUSH1 0x20 DUP3 LT DUP2 SUB PUSH3 0x7DB JUMPI PUSH3 0x7DA PUSH3 0x77D JUMP JUMPDEST JUMPDEST POP SWAP2 SWAP1 POP JUMP JUMPDEST PUSH1 0x0 DUP2 SWAP1 POP DUP2 PUSH1 0x0 MSTORE PUSH1 0x20 PUSH1 0x0 KECCAK256 SWAP1 POP SWAP2 SWAP1 POP JUMP JUMPDEST PUSH1 0x0 PUSH1 0x20 PUSH1 0x1F DUP4 ADD DIV SWAP1 POP SWAP2 SWAP1 POP JUMP JUMPDEST PUSH1 0x0 DUP3 DUP3 SHL SWAP1 POP SWAP3 SWAP2 POP POP JUMP JUMPDEST PUSH1 0x0 PUSH1 0x8 DUP4 MUL PUSH3 0x845 PUSH32 0xFFFFFFFFFFFFFFFFFFFFFFFFFFFFFFFFFFFFFFFFFFFFFFFFFFFFFFFFFFFFFFFF DUP3 PUSH3 0x806 JUMP JUMPDEST PUSH3 0x851 DUP7 DUP4 PUSH3 0x806 JUMP JUMPDEST SWAP6 POP DUP1 NOT DUP5 AND SWAP4 POP DUP1 DUP7 AND DUP5 OR SWAP3 POP POP POP SWAP4 SWAP3 POP POP POP JUMP JUMPDEST PUSH1 0x0 DUP2 SWAP1 POP SWAP2 SWAP1 POP JUMP JUMPDEST PUSH1 0x0 PUSH3 0x894 PUSH3 0x88E PUSH3 0x888 DUP5 PUSH3 0x527 JUMP JUMPDEST PUSH3 0x869 JUMP JUMPDEST PUSH3 0x527 JUMP JUMPDEST SWAP1 POP SWAP2 SWAP1 POP JUMP JUMPDEST PUSH1 0x0 DUP2 SWAP1 POP SWAP2 SWAP1 POP JUMP JUMPDEST PUSH3 0x8B0 DUP4 PUSH3 0x873 JUMP JUMPDEST PUSH3 0x8C8 PUSH3 0x8BF DUP3 PUSH3 0x89B JUMP JUMPDEST DUP5 DUP5 SLOAD PUSH3 0x813 JUMP JUMPDEST DUP3 SSTORE POP POP POP POP JUMP JUMPDEST PUSH1 0x0 SWAP1 JUMP JUMPDEST PUSH3 0x8DF PUSH3 0x8D0 JUMP JUMPDEST PUSH3 0x8EC DUP2 DUP5 DUP5 PUSH3 0x8A5 JUMP JUMPDEST POP POP POP JUMP JUMPDEST JUMPDEST DUP2 DUP2 LT ISZERO PUSH3 0x914 JUMPI PUSH3 0x908 PUSH1 0x0 DUP3 PUSH3 0x8D5 JUMP JUMPDEST PUSH1 0x1 DUP2 ADD SWAP1 POP PUSH3 0x8F2 JUMP JUMPDEST POP POP JUMP JUMPDEST PUSH1 0x1F DUP3 GT ISZERO PUSH3 0x963 JUMPI PUSH3 0x92D DUP2 PUSH3 0x7E1 JUMP JUMPDEST PUSH3 0x938 DUP5 PUSH3 0x7F6 JUMP JUMPDEST DUP2 ADD PUSH1 0x20 DUP6 LT ISZERO PUSH3 0x948 JUMPI DUP2 SWAP1 POP JUMPDEST PUSH3 0x960 PUSH3 0x957 DUP6 PUSH3 0x7F6 JUMP JUMPDEST DUP4 ADD DUP3 PUSH3 0x8F1 JUMP JUMPDEST POP POP JUMPDEST POP POP POP JUMP JUMPDEST PUSH1 0x0 DUP3 DUP3 SHR SWAP1 POP SWAP3 SWAP2 POP POP JUMP JUMPDEST PUSH1 0x0 PUSH3 0x988 PUSH1 0x0 NOT DUP5 PUSH1 0x8 MUL PUSH3 0x968 JUMP JUMPDEST NOT DUP1 DUP4 AND SWAP2 POP POP SWAP3 SWAP2 POP POP JUMP JUMPDEST PUSH1 0x0 PUSH3 0x9A3 DUP4 DUP4 PUSH3 0x975 JUMP JUMPDEST SWAP2 POP DUP3 PUSH1 0x2 MUL DUP3 OR SWAP1 POP SWAP3 SWAP2 POP POP JUMP JUMPDEST PUSH3 0x9BE DUP3 PUSH3 0x772 JUMP JUMPDEST PUSH8 0xFFFFFFFFFFFFFFFF DUP2 GT ISZERO PUSH3 0x9DA JUMPI PUSH3 0x9D9 PUSH3 0x57D JUMP JUMPDEST JUMPDEST PUSH3 0x9E6 DUP3 SLOAD PUSH3 0x7AC JUMP JUMPDEST PUSH3 0x9F3 DUP3 DUP3 DUP6 PUSH3 0x918 JUMP JUMPDEST PUSH1 0x0 PUSH1 0x20 SWAP1 POP PUSH1 0x1F DUP4 GT PUSH1 0x1 DUP2 EQ PUSH3 0xA2B JUMPI PUSH1 0x0 DUP5 ISZERO PUSH3 0xA16 JUMPI DUP3 DUP8 ADD MLOAD SWAP1 POP JUMPDEST PUSH3 0xA22 DUP6 DUP3 PUSH3 0x995 JUMP JUMPDEST DUP7 SSTORE POP PUSH3 0xA92 JUMP JUMPDEST PUSH1 0x1F NOT DUP5 AND PUSH3 0xA3B DUP7 PUSH3 0x7E1 JUMP JUMPDEST PUSH1 0x0 JUMPDEST DUP3 DUP2 LT ISZERO PUSH3 0xA65 JUMPI DUP5 DUP10 ADD MLOAD DUP3 SSTORE PUSH1 0x1 DUP3 ADD SWAP2 POP PUSH1 0x20 DUP6 ADD SWAP5 POP PUSH1 0x20 DUP2 ADD SWAP1 POP PUSH3 0xA3E JUMP JUMPDEST DUP7 DUP4 LT ISZERO PUSH3 0xA85 JUMPI DUP5 DUP10 ADD MLOAD PUSH3 0xA81 PUSH1 0x1F DUP10 AND DUP3 PUSH3 0x975 JUMP JUMPDEST DUP4 SSTORE POP JUMPDEST PUSH1 0x1 PUSH1 0x2 DUP9 MUL ADD DUP9 SSTORE POP POP POP JUMPDEST POP POP POP POP POP POP JUMP JUMPDEST PUSH1 0x0 DUP3 DUP3 MSTORE PUSH1 0x20 DUP3 ADD SWAP1 POP SWAP3 SWAP2 POP POP JUMP JUMPDEST PUSH32 0x43616E6E6F7420736574206F776E657220746F207A65726F0000000000000000 PUSH1 0x0 DUP3 ADD MSTORE POP JUMP JUMPDEST PUSH1 0x0 PUSH3 0xAE3 PUSH1 0x18 DUP4 PUSH3 0xA9A JUMP JUMPDEST SWAP2 POP PUSH3 0xAF0 DUP3 PUSH3 0xAAB JUMP JUMPDEST PUSH1 0x20 DUP3 ADD SWAP1 POP SWAP2 SWAP1 POP JUMP JUMPDEST PUSH1 0x0 PUSH1 0x20 DUP3 ADD SWAP1 POP DUP2 DUP2 SUB PUSH1 0x0 DUP4 ADD MSTORE PUSH3 0xB16 DUP2 PUSH3 0xAD4 JUMP JUMPDEST SWAP1 POP SWAP2 SWAP1 POP JUMP JUMPDEST PUSH32 0x43616E6E6F74207472616E7366657220746F2073656C66000000000000000000 PUSH1 0x0 DUP3 ADD MSTORE POP JUMP JUMPDEST PUSH1 0x0 PUSH3 0xB55 PUSH1 0x17 DUP4 PUSH3 0xA9A JUMP JUMPDEST SWAP2 POP PUSH3 0xB62 DUP3 PUSH3 0xB1D JUMP JUMPDEST PUSH1 0x20 DUP3 ADD SWAP1 POP SWAP2 SWAP1 POP JUMP JUMPDEST PUSH1 0x0 PUSH1 0x20 DUP3 ADD SWAP1 POP DUP2 DUP2 SUB PUSH1 0x0 DUP4 ADD MSTORE PUSH3 0xB88 DUP2 PUSH3 0xB46 JUMP JUMPDEST SWAP1 POP SWAP2 SWAP1 POP JUMP JUMPDEST PUSH1 0x80 MLOAD PUSH2 0x596A PUSH3 0xBC0 PUSH1 0x0 CODECOPY PUSH1 0x0 DUP2 DUP2 PUSH2 0xBF1 ADD MSTORE DUP2 DUP2 PUSH2 0xC65 ADD MSTORE DUP2 DUP2 PUSH2 0xD01 ADD MSTORE PUSH2 0x1428 ADD MSTORE PUSH2 0x596A PUSH1 0x0 RETURN INVALID PUSH1 0x80 PUSH1 0x40 MSTORE CALLVALUE DUP1 ISZERO PUSH2 0x10 JUMPI PUSH1 0x0 DUP1 REVERT JUMPDEST POP PUSH1 0x4 CALLDATASIZE LT PUSH2 0x269 JUMPI PUSH1 0x0 CALLDATALOAD PUSH1 0xE0 SHR DUP1 PUSH4 0x74E1EE41 GT PUSH2 0x151 JUMPI DUP1 PUSH4 0xA78F06B5 GT PUSH2 0xC3 JUMPI DUP1 PUSH4 0xE1B60F89 GT PUSH2 0x87 JUMPI DUP1 PUSH4 0xE1B60F89 EQ PUSH2 0x704 JUMPI DUP1 PUSH4 0xE985E9C5 EQ PUSH2 0x720 JUMPI DUP1 PUSH4 0xF2F2EF2B EQ PUSH2 0x750 JUMPI DUP1 PUSH4 0xF2FDE38B EQ PUSH2 0x76C JUMPI DUP1 PUSH4 0xF5A618B0 EQ PUSH2 0x788 JUMPI DUP1 PUSH4 0xFC831051 EQ PUSH2 0x7A6 JUMPI PUSH2 0x269 JUMP JUMPDEST DUP1 PUSH4 0xA78F06B5 EQ PUSH2 0x660 JUMPI DUP1 PUSH4 0xB05E9771 EQ PUSH2 0x67E JUMPI DUP1 PUSH4 0xB0FB162F EQ PUSH2 0x69A JUMPI DUP1 PUSH4 0xB88D4FDE EQ PUSH2 0x6B8 JUMPI DUP1 PUSH4 0xC87B56DD EQ PUSH2 0x6D4 JUMPI PUSH2 0x269 JUMP JUMPDEST DUP1 PUSH4 0x91B7F5ED GT PUSH2 0x115 JUMPI DUP1 PUSH4 0x91B7F5ED EQ PUSH2 0x5B2 JUMPI DUP1 PUSH4 0x94D008EF EQ PUSH2 0x5CE JUMPI DUP1 PUSH4 0x95D89B41 EQ PUSH2 0x5EA JUMPI DUP1 PUSH4 0x9ECCACF6 EQ PUSH2 0x608 JUMPI DUP1 PUSH4 0xA035B1FE EQ PUSH2 0x626 JUMPI DUP1 PUSH4 0xA22CB465 EQ PUSH2 0x644 JUMPI PUSH2 0x269 JUMP JUMPDEST DUP1 PUSH4 0x74E1EE41 EQ PUSH2 0x520 JUMPI DUP1 PUSH4 0x79BA5097 EQ PUSH2 0x550 JUMPI DUP1 PUSH4 0x7CCFD7FC EQ PUSH2 0x55A JUMPI DUP1 PUSH4 0x8DA5CB5B EQ PUSH2 0x578 JUMPI DUP1 PUSH4 0x8EA98117 EQ PUSH2 0x596 JUMPI PUSH2 0x269 JUMP JUMPDEST DUP1 PUSH4 0x24F74697 GT PUSH2 0x1EA JUMPI DUP1 PUSH4 0x51CFF8D9 GT PUSH2 0x1AE JUMPI DUP1 PUSH4 0x51CFF8D9 EQ PUSH2 0x44C JUMPI DUP1 PUSH4 0x55F804B3 EQ PUSH2 0x468 JUMPI DUP1 PUSH4 0x61728F39 EQ PUSH2 0x484 JUMPI DUP1 PUSH4 0x6352211E EQ PUSH2 0x4A2 JUMPI DUP1 PUSH4 0x66435C06 EQ PUSH2 0x4D2 JUMPI DUP1 PUSH4 0x70A08231 EQ PUSH2 0x4F0 JUMPI PUSH2 0x269 JUMP JUMPDEST DUP1 PUSH4 0x24F74697 EQ PUSH2 0x3B8 JUMPI DUP1 PUSH4 0x2D90ED6D EQ PUSH2 0x3D6 JUMPI DUP1 PUSH4 0x3013CE29 EQ PUSH2 0x3F4 JUMPI DUP1 PUSH4 0x3B2BCBF1 EQ PUSH2 0x412 JUMPI DUP1 PUSH4 0x42842E0E EQ PUSH2 0x430 JUMPI PUSH2 0x269 JUMP JUMPDEST DUP1 PUSH4 0x9C1BA2E GT PUSH2 0x231 JUMPI DUP1 PUSH4 0x9C1BA2E EQ PUSH2 0x326 JUMPI DUP1 PUSH4 0x18160DDD EQ PUSH2 0x344 JUMPI DUP1 PUSH4 0x1AC39BFD EQ PUSH2 0x362 JUMPI DUP1 PUSH4 0x1FE543E3 EQ PUSH2 0x380 JUMPI DUP1 PUSH4 0x23B872DD EQ PUSH2 0x39C JUMPI PUSH2 0x269 JUMP JUMPDEST DUP1 PUSH4 0x1FFC9A7 EQ PUSH2 0x26E JUMPI DUP1 PUSH4 0x6661ABD EQ PUSH2 0x29E JUMPI DUP1 PUSH4 0x6FDDE03 EQ PUSH2 0x2BC JUMPI DUP1 PUSH4 0x81812FC EQ PUSH2 0x2DA JUMPI DUP1 PUSH4 0x95EA7B3 EQ PUSH2 0x30A JUMPI JUMPDEST PUSH1 0x0 DUP1 REVERT JUMPDEST PUSH2 0x288 PUSH1 0x4 DUP1 CALLDATASIZE SUB DUP2 ADD SWAP1 PUSH2 0x283 SWAP2 SWAP1 PUSH2 0x37C8 JUMP JUMPDEST PUSH2 0x7C2 JUMP JUMPDEST PUSH1 0x40 MLOAD PUSH2 0x295 SWAP2 SWAP1 PUSH2 0x3810 JUMP JUMPDEST PUSH1 0x40 MLOAD DUP1 SWAP2 SUB SWAP1 RETURN JUMPDEST PUSH2 0x2A6 PUSH2 0x8A4 JUMP JUMPDEST PUSH1 0x40 MLOAD PUSH2 0x2B3 SWAP2 SWAP1 PUSH2 0x3844 JUMP JUMPDEST PUSH1 0x40 MLOAD DUP1 SWAP2 SUB SWAP1 RETURN JUMPDEST PUSH2 0x2C4 PUSH2 0x8AE JUMP JUMPDEST PUSH1 0x40 MLOAD PUSH2 0x2D1 SWAP2 SWAP1 PUSH2 0x38EF JUMP JUMPDEST PUSH1 0x40 MLOAD DUP1 SWAP2 SUB SWAP1 RETURN JUMPDEST PUSH2 0x2F4 PUSH1 0x4 DUP1 CALLDATASIZE SUB DUP2 ADD SWAP1 PUSH2 0x2EF SWAP2 SWAP1 PUSH2 0x393D JUMP JUMPDEST PUSH2 0x940 JUMP JUMPDEST PUSH1 0x40 MLOAD PUSH2 0x301 SWAP2 SWAP1 PUSH2 0x39AB JUMP JUMPDEST PUSH1 0x40 MLOAD DUP1 SWAP2 SUB SWAP1 RETURN JUMPDEST PUSH2 0x324 PUSH1 0x4 DUP1 CALLDATASIZE SUB DUP2 ADD SWAP1 PUSH2 0x31F SWAP2 SWAP1 PUSH2 0x39F2 JUMP JUMPDEST PUSH2 0x986 JUMP JUMPDEST STOP JUMPDEST PUSH2 0x32E PUSH2 0xA9D JUMP JUMPDEST PUSH1 0x40 MLOAD PUSH2 0x33B SWAP2 SWAP1 PUSH2 0x3844 JUMP JUMPDEST PUSH1 0x40 MLOAD DUP1 SWAP2 SUB SWAP1 RETURN JUMPDEST PUSH2 0x34C PUSH2 0xAA3 JUMP JUMPDEST PUSH1 0x40 MLOAD PUSH2 0x359 SWAP2 SWAP1 PUSH2 0x3844 JUMP JUMPDEST PUSH1 0x40 MLOAD DUP1 SWAP2 SUB SWAP1 RETURN JUMPDEST PUSH2 0x36A PUSH2 0xAA9 JUMP JUMPDEST PUSH1 0x40 MLOAD PUSH2 0x377 SWAP2 SWAP1 PUSH2 0x3844 JUMP JUMPDEST PUSH1 0x40 MLOAD DUP1 SWAP2 SUB SWAP1 RETURN JUMPDEST PUSH2 0x39A PUSH1 0x4 DUP1 CALLDATASIZE SUB DUP2 ADD SWAP1 PUSH2 0x395 SWAP2 SWAP1 PUSH2 0x3A97 JUMP JUMPDEST PUSH2 0xAAE JUMP JUMPDEST STOP JUMPDEST PUSH2 0x3B6 PUSH1 0x4 DUP1 CALLDATASIZE SUB DUP2 ADD SWAP1 PUSH2 0x3B1 SWAP2 SWAP1 PUSH2 0x3AF7 JUMP JUMPDEST PUSH2 0xB74 JUMP JUMPDEST STOP JUMPDEST PUSH2 0x3C0 PUSH2 0xBD4 JUMP JUMPDEST PUSH1 0x40 MLOAD PUSH2 0x3CD SWAP2 SWAP1 PUSH2 0x3B69 JUMP JUMPDEST PUSH1 0x40 MLOAD DUP1 SWAP2 SUB SWAP1 RETURN JUMPDEST PUSH2 0x3DE PUSH2 0xBEA JUMP JUMPDEST PUSH1 0x40 MLOAD PUSH2 0x3EB SWAP2 SWAP1 PUSH2 0x3844 JUMP JUMPDEST PUSH1 0x40 MLOAD DUP1 SWAP2 SUB SWAP1 RETURN JUMPDEST PUSH2 0x3FC PUSH2 0xBEF JUMP JUMPDEST PUSH1 0x40 MLOAD PUSH2 0x409 SWAP2 SWAP1 PUSH2 0x3BE3 JUMP JUMPDEST PUSH1 0x40 MLOAD DUP1 SWAP2 SUB SWAP1 RETURN JUMPDEST PUSH2 0x41A PUSH2 0xC13 JUMP JUMPDEST PUSH1 0x40 MLOAD PUSH2 0x427 SWAP2 SWAP1 PUSH2 0x3C1F JUMP JUMPDEST PUSH1 0x40 MLOAD DUP1 SWAP2 SUB SWAP1 RETURN JUMPDEST PUSH2 0x44A PUSH1 0x4 DUP1 CALLDATASIZE SUB DUP2 ADD SWAP1 PUSH2 0x445 SWAP2 SWAP1 PUSH2 0x3AF7 JUMP JUMPDEST PUSH2 0xC39 JUMP JUMPDEST STOP JUMPDEST PUSH2 0x466 PUSH1 0x4 DUP1 CALLDATASIZE SUB DUP2 ADD SWAP1 PUSH2 0x461 SWAP2 SWAP1 PUSH2 0x3C3A JUMP JUMPDEST PUSH2 0xC59 JUMP JUMPDEST STOP JUMPDEST PUSH2 0x482 PUSH1 0x4 DUP1 CALLDATASIZE SUB DUP2 ADD SWAP1 PUSH2 0x47D SWAP2 SWAP1 PUSH2 0x3CBD JUMP JUMPDEST PUSH2 0xDE0 JUMP JUMPDEST STOP JUMPDEST PUSH2 0x48C PUSH2 0xDFE JUMP JUMPDEST PUSH1 0x40 MLOAD PUSH2 0x499 SWAP2 SWAP1 PUSH2 0x3D23 JUMP JUMPDEST PUSH1 0x40 MLOAD DUP1 SWAP2 SUB SWAP1 RETURN JUMPDEST PUSH2 0x4BC PUSH1 0x4 DUP1 CALLDATASIZE SUB DUP2 ADD SWAP1 PUSH2 0x4B7 SWAP2 SWAP1 PUSH2 0x393D JUMP JUMPDEST PUSH2 0xE04 JUMP JUMPDEST PUSH1 0x40 MLOAD PUSH2 0x4C9 SWAP2 SWAP1 PUSH2 0x39AB JUMP JUMPDEST PUSH1 0x40 MLOAD DUP1 SWAP2 SUB SWAP1 RETURN JUMPDEST PUSH2 0x4DA PUSH2 0xE8A JUMP JUMPDEST PUSH1 0x40 MLOAD PUSH2 0x4E7 SWAP2 SWAP1 PUSH2 0x3844 JUMP JUMPDEST PUSH1 0x40 MLOAD DUP1 SWAP2 SUB SWAP1 RETURN JUMPDEST PUSH2 0x50A PUSH1 0x4 DUP1 CALLDATASIZE SUB DUP2 ADD SWAP1 PUSH2 0x505 SWAP2 SWAP1 PUSH2 0x3C3A JUMP JUMPDEST PUSH2 0xE90 JUMP JUMPDEST PUSH1 0x40 MLOAD PUSH2 0x517 SWAP2 SWAP1 PUSH2 0x3844 JUMP JUMPDEST PUSH1 0x40 MLOAD DUP1 SWAP2 SUB SWAP1 RETURN JUMPDEST PUSH2 0x53A PUSH1 0x4 DUP1 CALLDATASIZE SUB DUP2 ADD SWAP1 PUSH2 0x535 SWAP2 SWAP1 PUSH2 0x393D JUMP JUMPDEST PUSH2 0xF47 JUMP JUMPDEST PUSH1 0x40 MLOAD PUSH2 0x547 SWAP2 SWAP1 PUSH2 0x3844 JUMP JUMPDEST PUSH1 0x40 MLOAD DUP1 SWAP2 SUB SWAP1 RETURN JUMPDEST PUSH2 0x558 PUSH2 0xFAC JUMP JUMPDEST STOP JUMPDEST PUSH2 0x562 PUSH2 0x1143 JUMP JUMPDEST PUSH1 0x40 MLOAD PUSH2 0x56F SWAP2 SWAP1 PUSH2 0x3B69 JUMP JUMPDEST PUSH1 0x40 MLOAD DUP1 SWAP2 SUB SWAP1 RETURN JUMPDEST PUSH2 0x580 PUSH2 0x1159 JUMP JUMPDEST PUSH1 0x40 MLOAD PUSH2 0x58D SWAP2 SWAP1 PUSH2 0x39AB JUMP JUMPDEST PUSH1 0x40 MLOAD DUP1 SWAP2 SUB SWAP1 RETURN JUMPDEST PUSH2 0x5B0 PUSH1 0x4 DUP1 CALLDATASIZE SUB DUP2 ADD SWAP1 PUSH2 0x5AB SWAP2 SWAP1 PUSH2 0x3C3A JUMP JUMPDEST PUSH2 0x1183 JUMP JUMPDEST STOP JUMPDEST PUSH2 0x5CC PUSH1 0x4 DUP1 CALLDATASIZE SUB DUP2 ADD SWAP1 PUSH2 0x5C7 SWAP2 SWAP1 PUSH2 0x393D JUMP JUMPDEST PUSH2 0x1364 JUMP JUMPDEST STOP JUMPDEST PUSH2 0x5E8 PUSH1 0x4 DUP1 CALLDATASIZE SUB DUP2 ADD SWAP1 PUSH2 0x5E3 SWAP2 SWAP1 PUSH2 0x3D94 JUMP JUMPDEST PUSH2 0x1376 JUMP JUMPDEST STOP JUMPDEST PUSH2 0x5F2 PUSH2 0x1729 JUMP JUMPDEST PUSH1 0x40 MLOAD PUSH2 0x5FF SWAP2 SWAP1 PUSH2 0x38EF JUMP JUMPDEST PUSH1 0x40 MLOAD DUP1 SWAP2 SUB SWAP1 RETURN JUMPDEST PUSH2 0x610 PUSH2 0x17BB JUMP JUMPDEST PUSH1 0x40 MLOAD PUSH2 0x61D SWAP2 SWAP1 PUSH2 0x3C1F JUMP JUMPDEST PUSH1 0x40 MLOAD DUP1 SWAP2 SUB SWAP1 RETURN JUMPDEST PUSH2 0x62E PUSH2 0x17E1 JUMP JUMPDEST PUSH1 0x40 MLOAD PUSH2 0x63B SWAP2 SWAP1 PUSH2 0x3844 JUMP JUMPDEST PUSH1 0x40 MLOAD DUP1 SWAP2 SUB SWAP1 RETURN JUMPDEST PUSH2 0x65E PUSH1 0x4 DUP1 CALLDATASIZE SUB DUP2 ADD SWAP1 PUSH2 0x659 SWAP2 SWAP1 PUSH2 0x3E34 JUMP JUMPDEST PUSH2 0x17E7 JUMP JUMPDEST STOP JUMPDEST PUSH2 0x668 PUSH2 0x17FD JUMP JUMPDEST PUSH1 0x40 MLOAD PUSH2 0x675 SWAP2 SWAP1 PUSH2 0x3844 JUMP JUMPDEST PUSH1 0x40 MLOAD DUP1 SWAP2 SUB SWAP1 RETURN JUMPDEST PUSH2 0x698 PUSH1 0x4 DUP1 CALLDATASIZE SUB DUP2 ADD SWAP1 PUSH2 0x693 SWAP2 SWAP1 PUSH2 0x3F06 JUMP JUMPDEST PUSH2 0x1804 JUMP JUMPDEST STOP JUMPDEST PUSH2 0x6A2 PUSH2 0x18BC JUMP JUMPDEST PUSH1 0x40 MLOAD PUSH2 0x6AF SWAP2 SWAP1 PUSH2 0x3F90 JUMP JUMPDEST PUSH1 0x40 MLOAD DUP1 SWAP2 SUB SWAP1 RETURN JUMPDEST PUSH2 0x6D2 PUSH1 0x4 DUP1 CALLDATASIZE SUB DUP2 ADD SWAP1 PUSH2 0x6CD SWAP2 SWAP1 PUSH2 0x40DB JUMP JUMPDEST PUSH2 0x18D0 JUMP JUMPDEST STOP JUMPDEST PUSH2 0x6EE PUSH1 0x4 DUP1 CALLDATASIZE SUB DUP2 ADD SWAP1 PUSH2 0x6E9 SWAP2 SWAP1 PUSH2 0x393D JUMP JUMPDEST PUSH2 0x1932 JUMP JUMPDEST PUSH1 0x40 MLOAD PUSH2 0x6FB SWAP2 SWAP1 PUSH2 0x38EF JUMP JUMPDEST PUSH1 0x40 MLOAD DUP1 SWAP2 SUB SWAP1 RETURN JUMPDEST PUSH2 0x71E PUSH1 0x4 DUP1 CALLDATASIZE SUB DUP2 ADD SWAP1 PUSH2 0x719 SWAP2 SWAP1 PUSH2 0x4180 JUMP JUMPDEST PUSH2 0x199A JUMP JUMPDEST STOP JUMPDEST PUSH2 0x73A PUSH1 0x4 DUP1 CALLDATASIZE SUB DUP2 ADD SWAP1 PUSH2 0x735 SWAP2 SWAP1 PUSH2 0x41D6 JUMP JUMPDEST PUSH2 0x1A6F JUMP JUMPDEST PUSH1 0x40 MLOAD PUSH2 0x747 SWAP2 SWAP1 PUSH2 0x3810 JUMP JUMPDEST PUSH1 0x40 MLOAD DUP1 SWAP2 SUB SWAP1 RETURN JUMPDEST PUSH2 0x76A PUSH1 0x4 DUP1 CALLDATASIZE SUB DUP2 ADD SWAP1 PUSH2 0x765 SWAP2 SWAP1 PUSH2 0x4238 JUMP JUMPDEST PUSH2 0x1B03 JUMP JUMPDEST STOP JUMPDEST PUSH2 0x786 PUSH1 0x4 DUP1 CALLDATASIZE SUB DUP2 ADD SWAP1 PUSH2 0x781 SWAP2 SWAP1 PUSH2 0x3C3A JUMP JUMPDEST PUSH2 0x1B74 JUMP JUMPDEST STOP JUMPDEST PUSH2 0x790 PUSH2 0x1B88 JUMP JUMPDEST PUSH1 0x40 MLOAD PUSH2 0x79D SWAP2 SWAP1 PUSH2 0x3844 JUMP JUMPDEST PUSH1 0x40 MLOAD DUP1 SWAP2 SUB SWAP1 RETURN JUMPDEST PUSH2 0x7C0 PUSH1 0x4 DUP1 CALLDATASIZE SUB DUP2 ADD SWAP1 PUSH2 0x7BB SWAP2 SWAP1 PUSH2 0x393D JUMP JUMPDEST PUSH2 0x1B8E JUMP JUMPDEST STOP JUMPDEST PUSH1 0x0 PUSH32 0x80AC58CD00000000000000000000000000000000000000000000000000000000 PUSH28 0xFFFFFFFFFFFFFFFFFFFFFFFFFFFFFFFFFFFFFFFFFFFFFFFFFFFFFFFF NOT AND DUP3 PUSH28 0xFFFFFFFFFFFFFFFFFFFFFFFFFFFFFFFFFFFFFFFFFFFFFFFFFFFFFFFF NOT AND EQ DUP1 PUSH2 0x88D JUMPI POP PUSH32 0x5B5E139F00000000000000000000000000000000000000000000000000000000 PUSH28 0xFFFFFFFFFFFFFFFFFFFFFFFFFFFFFFFFFFFFFFFFFFFFFFFFFFFFFFFF NOT AND DUP3 PUSH28 0xFFFFFFFFFFFFFFFFFFFFFFFFFFFFFFFFFFFFFFFFFFFFFFFFFFFFFFFF NOT AND EQ JUMPDEST DUP1 PUSH2 0x89D JUMPI POP PUSH2 0x89C DUP3 PUSH2 0x1BE4 JUMP JUMPDEST JUMPDEST SWAP1 POP SWAP2 SWAP1 POP JUMP JUMPDEST PUSH1 0x0 PUSH1 0xB SLOAD SWAP1 POP SWAP1 JUMP JUMPDEST PUSH1 0x60 PUSH1 0x0 DUP1 SLOAD PUSH2 0x8BD SWAP1 PUSH2 0x42DE JUMP JUMPDEST DUP1 PUSH1 0x1F ADD PUSH1 0x20 DUP1 SWAP2 DIV MUL PUSH1 0x20 ADD PUSH1 0x40 MLOAD SWAP1 DUP2 ADD PUSH1 0x40 MSTORE DUP1 SWAP3 SWAP2 SWAP1 DUP2 DUP2 MSTORE PUSH1 0x20 ADD DUP3 DUP1 SLOAD PUSH2 0x8E9 SWAP1 PUSH2 0x42DE JUMP JUMPDEST DUP1 ISZERO PUSH2 0x936 JUMPI DUP1 PUSH1 0x1F LT PUSH2 0x90B JUMPI PUSH2 0x100 DUP1 DUP4 SLOAD DIV MUL DUP4 MSTORE SWAP2 PUSH1 0x20 ADD SWAP2 PUSH2 0x936 JUMP JUMPDEST DUP3 ADD SWAP2 SWAP1 PUSH1 0x0 MSTORE PUSH1 0x20 PUSH1 0x0 KECCAK256 SWAP1 JUMPDEST DUP2 SLOAD DUP2 MSTORE SWAP1 PUSH1 0x1 ADD SWAP1 PUSH1 0x20 ADD DUP1 DUP4 GT PUSH2 0x919 JUMPI DUP3 SWAP1 SUB PUSH1 0x1F AND DUP3 ADD SWAP2 JUMPDEST POP POP POP POP POP SWAP1 POP SWAP1 JUMP JUMPDEST PUSH1 0x0 PUSH2 0x94B DUP3 PUSH2 0x1C4E JUMP JUMPDEST PUSH1 0x4 PUSH1 0x0 DUP4 DUP2 MSTORE PUSH1 0x20 ADD SWAP1 DUP2 MSTORE PUSH1 0x20 ADD PUSH1 0x0 KECCAK256 PUSH1 0x0 SWAP1 SLOAD SWAP1 PUSH2 0x100 EXP SWAP1 DIV PUSH20 0xFFFFFFFFFFFFFFFFFFFFFFFFFFFFFFFFFFFFFFFF AND SWAP1 POP SWAP2 SWAP1 POP JUMP JUMPDEST PUSH1 0x0 PUSH2 0x991 DUP3 PUSH2 0xE04 JUMP JUMPDEST SWAP1 POP DUP1 PUSH20 0xFFFFFFFFFFFFFFFFFFFFFFFFFFFFFFFFFFFFFFFF AND DUP4 PUSH20 0xFFFFFFFFFFFFFFFFFFFFFFFFFFFFFFFFFFFFFFFF AND SUB PUSH2 0xA01 JUMPI PUSH1 0x40 MLOAD PUSH32 0x8C379A000000000000000000000000000000000000000000000000000000000 DUP2 MSTORE PUSH1 0x4 ADD PUSH2 0x9F8 SWAP1 PUSH2 0x4381 JUMP JUMPDEST PUSH1 0x40 MLOAD DUP1 SWAP2 SUB SWAP1 REVERT JUMPDEST DUP1 PUSH20 0xFFFFFFFFFFFFFFFFFFFFFFFFFFFFFFFFFFFFFFFF AND PUSH2 0xA20 PUSH2 0x1C99 JUMP JUMPDEST PUSH20 0xFFFFFFFFFFFFFFFFFFFFFFFFFFFFFFFFFFFFFFFF AND EQ DUP1 PUSH2 0xA4F JUMPI POP PUSH2 0xA4E DUP2 PUSH2 0xA49 PUSH2 0x1C99 JUMP JUMPDEST PUSH2 0x1A6F JUMP JUMPDEST JUMPDEST PUSH2 0xA8E JUMPI PUSH1 0x40 MLOAD PUSH32 0x8C379A000000000000000000000000000000000000000000000000000000000 DUP2 MSTORE PUSH1 0x4 ADD PUSH2 0xA85 SWAP1 PUSH2 0x4413 JUMP JUMPDEST PUSH1 0x40 MLOAD DUP1 SWAP2 SUB SWAP1 REVERT JUMPDEST PUSH2 0xA98 DUP4 DUP4 PUSH2 0x1CA1 JUMP JUMPDEST POP POP POP JUMP JUMPDEST PUSH1 0x12 SLOAD DUP2 JUMP JUMPDEST PUSH1 0xB SLOAD DUP2 JUMP JUMPDEST PUSH1 0x14 DUP2 JUMP JUMPDEST PUSH1 0x9 PUSH1 0x0 SWAP1 SLOAD SWAP1 PUSH2 0x100 EXP SWAP1 DIV PUSH20 0xFFFFFFFFFFFFFFFFFFFFFFFFFFFFFFFFFFFFFFFF AND PUSH20 0xFFFFFFFFFFFFFFFFFFFFFFFFFFFFFFFFFFFFFFFF AND CALLER PUSH20 0xFFFFFFFFFFFFFFFFFFFFFFFFFFFFFFFFFFFFFFFF AND EQ PUSH2 0xB64 JUMPI CALLER PUSH1 0x9 PUSH1 0x0 SWAP1 SLOAD SWAP1 PUSH2 0x100 EXP SWAP1 DIV PUSH20 0xFFFFFFFFFFFFFFFFFFFFFFFFFFFFFFFFFFFFFFFF AND PUSH1 0x40 MLOAD PUSH32 0x1CF993F400000000000000000000000000000000000000000000000000000000 DUP2 MSTORE PUSH1 0x4 ADD PUSH2 0xB5B SWAP3 SWAP2 SWAP1 PUSH2 0x4433 JUMP JUMPDEST PUSH1 0x40 MLOAD DUP1 SWAP2 SUB SWAP1 REVERT JUMPDEST PUSH2 0xB6F DUP4 DUP4 DUP4 PUSH2 0x1D5A JUMP JUMPDEST POP POP POP JUMP JUMPDEST PUSH2 0xB85 PUSH2 0xB7F PUSH2 0x1C99 JUMP JUMPDEST DUP3 PUSH2 0x1ECC JUMP JUMPDEST PUSH2 0xBC4 JUMPI PUSH1 0x40 MLOAD PUSH32 0x8C379A000000000000000000000000000000000000000000000000000000000 DUP2 MSTORE PUSH1 0x4 ADD PUSH2 0xBBB SWAP1 PUSH2 0x44CE JUMP JUMPDEST PUSH1 0x40 MLOAD DUP1 SWAP2 SUB SWAP1 REVERT JUMPDEST PUSH2 0xBCF DUP4 DUP4 DUP4 PUSH2 0x1F61 JUMP JUMPDEST POP POP POP JUMP JUMPDEST PUSH1 0x13 PUSH1 0x0 SWAP1 SLOAD SWAP1 PUSH2 0x100 EXP SWAP1 DIV PUSH4 0xFFFFFFFF AND DUP2 JUMP JUMPDEST PUSH1 0x14 DUP2 JUMP JUMPDEST PUSH32 0x0 DUP2 JUMP JUMPDEST PUSH1 0x10 PUSH1 0x0 SWAP1 SLOAD SWAP1 PUSH2 0x100 EXP SWAP1 DIV PUSH20 0xFFFFFFFFFFFFFFFFFFFFFFFFFFFFFFFFFFFFFFFF AND DUP2 JUMP JUMPDEST PUSH2 0xC54 DUP4 DUP4 DUP4 PUSH1 0x40 MLOAD DUP1 PUSH1 0x20 ADD PUSH1 0x40 MSTORE DUP1 PUSH1 0x0 DUP2 MSTORE POP PUSH2 0x18D0 JUMP JUMPDEST POP POP POP JUMP JUMPDEST PUSH2 0xC61 PUSH2 0x225A JUMP JUMPDEST PUSH1 0x0 PUSH32 0x0 PUSH20 0xFFFFFFFFFFFFFFFFFFFFFFFFFFFFFFFFFFFFFFFF AND PUSH4 0x70A08231 ADDRESS PUSH1 0x40 MLOAD DUP3 PUSH4 0xFFFFFFFF AND PUSH1 0xE0 SHL DUP2 MSTORE PUSH1 0x4 ADD PUSH2 0xCBC SWAP2 SWAP1 PUSH2 0x39AB JUMP JUMPDEST PUSH1 0x20 PUSH1 0x40 MLOAD DUP1 DUP4 SUB DUP2 DUP7 GAS STATICCALL ISZERO DUP1 ISZERO PUSH2 0xCD9 JUMPI RETURNDATASIZE PUSH1 0x0 DUP1 RETURNDATACOPY RETURNDATASIZE PUSH1 0x0 REVERT JUMPDEST POP POP POP POP PUSH1 0x40 MLOAD RETURNDATASIZE PUSH1 0x1F NOT PUSH1 0x1F DUP3 ADD AND DUP3 ADD DUP1 PUSH1 0x40 MSTORE POP DUP2 ADD SWAP1 PUSH2 0xCFD SWAP2 SWAP1 PUSH2 0x4503 JUMP JUMPDEST SWAP1 POP PUSH32 0x0 PUSH20 0xFFFFFFFFFFFFFFFFFFFFFFFFFFFFFFFFFFFFFFFF AND PUSH4 0xA9059CBB DUP4 DUP4 PUSH1 0x40 MLOAD DUP4 PUSH4 0xFFFFFFFF AND PUSH1 0xE0 SHL DUP2 MSTORE PUSH1 0x4 ADD PUSH2 0xD5A SWAP3 SWAP2 SWAP1 PUSH2 0x4530 JUMP JUMPDEST PUSH1 0x20 PUSH1 0x40 MLOAD DUP1 DUP4 SUB DUP2 PUSH1 0x0 DUP8 GAS CALL ISZERO DUP1 ISZERO PUSH2 0xD79 JUMPI RETURNDATASIZE PUSH1 0x0 DUP1 RETURNDATACOPY RETURNDATASIZE PUSH1 0x0 REVERT JUMPDEST POP POP POP POP PUSH1 0x40 MLOAD RETURNDATASIZE PUSH1 0x1F NOT PUSH1 0x1F DUP3 ADD AND DUP3 ADD DUP1 PUSH1 0x40 MSTORE POP DUP2 ADD SWAP1 PUSH2 0xD9D SWAP2 SWAP1 PUSH2 0x456E JUMP JUMPDEST PUSH2 0xDDC JUMPI PUSH1 0x40 MLOAD PUSH32 0x8C379A000000000000000000000000000000000000000000000000000000000 DUP2 MSTORE PUSH1 0x4 ADD PUSH2 0xDD3 SWAP1 PUSH2 0x45E7 JUMP JUMPDEST PUSH1 0x40 MLOAD DUP1 SWAP2 SUB SWAP1 REVERT JUMPDEST POP POP JUMP JUMPDEST PUSH2 0xDE8 PUSH2 0x225A JUMP JUMPDEST DUP2 DUP2 PUSH1 0xF SWAP2 DUP3 PUSH2 0xDF9 SWAP3 SWAP2 SWAP1 PUSH2 0x47B4 JUMP JUMPDEST POP POP POP JUMP JUMPDEST PUSH1 0x11 SLOAD DUP2 JUMP JUMPDEST PUSH1 0x0 DUP1 PUSH2 0xE10 DUP4 PUSH2 0x22EC JUMP JUMPDEST SWAP1 POP PUSH1 0x0 PUSH20 0xFFFFFFFFFFFFFFFFFFFFFFFFFFFFFFFFFFFFFFFF AND DUP2 PUSH20 0xFFFFFFFFFFFFFFFFFFFFFFFFFFFFFFFFFFFFFFFF AND SUB PUSH2 0xE81 JUMPI PUSH1 0x40 MLOAD PUSH32 0x8C379A000000000000000000000000000000000000000000000000000000000 DUP2 MSTORE PUSH1 0x4 ADD PUSH2 0xE78 SWAP1 PUSH2 0x48D0 JUMP JUMPDEST PUSH1 0x40 MLOAD DUP1 SWAP2 SUB SWAP1 REVERT JUMPDEST DUP1 SWAP2 POP POP SWAP2 SWAP1 POP JUMP JUMPDEST PUSH1 0xC SLOAD DUP2 JUMP JUMPDEST PUSH1 0x0 DUP1 PUSH20 0xFFFFFFFFFFFFFFFFFFFFFFFFFFFFFFFFFFFFFFFF AND DUP3 PUSH20 0xFFFFFFFFFFFFFFFFFFFFFFFFFFFFFFFFFFFFFFFF AND SUB PUSH2 0xF00 JUMPI PUSH1 0x40 MLOAD PUSH32 0x8C379A000000000000000000000000000000000000000000000000000000000 DUP2 MSTORE PUSH1 0x4 ADD PUSH2 0xEF7 SWAP1 PUSH2 0x4962 JUMP JUMPDEST PUSH1 0x40 MLOAD DUP1 SWAP2 SUB SWAP1 REVERT JUMPDEST PUSH1 0x3 PUSH1 0x0 DUP4 PUSH20 0xFFFFFFFFFFFFFFFFFFFFFFFFFFFFFFFFFFFFFFFF AND PUSH20 0xFFFFFFFFFFFFFFFFFFFFFFFFFFFFFFFFFFFFFFFF AND DUP2 MSTORE PUSH1 0x20 ADD SWAP1 DUP2 MSTORE PUSH1 0x20 ADD PUSH1 0x0 KECCAK256 SLOAD SWAP1 POP SWAP2 SWAP1 POP JUMP JUMPDEST PUSH1 0x0 PUSH2 0xF52 DUP3 PUSH2 0x2329 JUMP JUMPDEST PUSH2 0xF91 JUMPI PUSH1 0x40 MLOAD PUSH32 0x8C379A000000000000000000000000000000000000000000000000000000000 DUP2 MSTORE PUSH1 0x4 ADD PUSH2 0xF88 SWAP1 PUSH2 0x49CE JUMP JUMPDEST PUSH1 0x40 MLOAD DUP1 SWAP2 SUB SWAP1 REVERT JUMPDEST PUSH1 0xE PUSH1 0x0 DUP4 DUP2 MSTORE PUSH1 0x20 ADD SWAP1 DUP2 MSTORE PUSH1 0x20 ADD PUSH1 0x0 KECCAK256 SLOAD SWAP1 POP SWAP2 SWAP1 POP JUMP JUMPDEST PUSH1 0x8 PUSH1 0x0 SWAP1 SLOAD SWAP1 PUSH2 0x100 EXP SWAP1 DIV PUSH20 0xFFFFFFFFFFFFFFFFFFFFFFFFFFFFFFFFFFFFFFFF AND PUSH20 0xFFFFFFFFFFFFFFFFFFFFFFFFFFFFFFFFFFFFFFFF AND CALLER PUSH20 0xFFFFFFFFFFFFFFFFFFFFFFFFFFFFFFFFFFFFFFFF AND EQ PUSH2 0x103C JUMPI PUSH1 0x40 MLOAD PUSH32 0x8C379A000000000000000000000000000000000000000000000000000000000 DUP2 MSTORE PUSH1 0x4 ADD PUSH2 0x1033 SWAP1 PUSH2 0x4A3A JUMP JUMPDEST PUSH1 0x40 MLOAD DUP1 SWAP2 SUB SWAP1 REVERT JUMPDEST PUSH1 0x0 PUSH1 0x7 PUSH1 0x0 SWAP1 SLOAD SWAP1 PUSH2 0x100 EXP SWAP1 DIV PUSH20 0xFFFFFFFFFFFFFFFFFFFFFFFFFFFFFFFFFFFFFFFF AND SWAP1 POP CALLER PUSH1 0x7 PUSH1 0x0 PUSH2 0x100 EXP DUP2 SLOAD DUP2 PUSH20 0xFFFFFFFFFFFFFFFFFFFFFFFFFFFFFFFFFFFFFFFF MUL NOT AND SWAP1 DUP4 PUSH20 0xFFFFFFFFFFFFFFFFFFFFFFFFFFFFFFFFFFFFFFFF AND MUL OR SWAP1 SSTORE POP PUSH1 0x0 PUSH1 0x8 PUSH1 0x0 PUSH2 0x100 EXP DUP2 SLOAD DUP2 PUSH20 0xFFFFFFFFFFFFFFFFFFFFFFFFFFFFFFFFFFFFFFFF MUL NOT AND SWAP1 DUP4 PUSH20 0xFFFFFFFFFFFFFFFFFFFFFFFFFFFFFFFFFFFFFFFF AND MUL OR SWAP1 SSTORE POP CALLER PUSH20 0xFFFFFFFFFFFFFFFFFFFFFFFFFFFFFFFFFFFFFFFF AND DUP2 PUSH20 0xFFFFFFFFFFFFFFFFFFFFFFFFFFFFFFFFFFFFFFFF AND PUSH32 0x8BE0079C531659141344CD1FD0A4F28419497F9722A3DAAFE3B4186F6B6457E0 PUSH1 0x40 MLOAD PUSH1 0x40 MLOAD DUP1 SWAP2 SUB SWAP1 LOG3 POP JUMP JUMPDEST PUSH1 0x13 PUSH1 0x6 SWAP1 SLOAD SWAP1 PUSH2 0x100 EXP SWAP1 DIV PUSH4 0xFFFFFFFF AND DUP2 JUMP JUMPDEST PUSH1 0x0 PUSH1 0x7 PUSH1 0x0 SWAP1 SLOAD SWAP1 PUSH2 0x100 EXP SWAP1 DIV PUSH20 0xFFFFFFFFFFFFFFFFFFFFFFFFFFFFFFFFFFFFFFFF AND SWAP1 POP SWAP1 JUMP JUMPDEST PUSH2 0x118B PUSH2 0x1159 JUMP JUMPDEST PUSH20 0xFFFFFFFFFFFFFFFFFFFFFFFFFFFFFFFFFFFFFFFF AND CALLER PUSH20 0xFFFFFFFFFFFFFFFFFFFFFFFFFFFFFFFFFFFFFFFF AND EQ ISZERO DUP1 ISZERO PUSH2 0x1214 JUMPI POP PUSH1 0x9 PUSH1 0x0 SWAP1 SLOAD SWAP1 PUSH2 0x100 EXP SWAP1 DIV PUSH20 0xFFFFFFFFFFFFFFFFFFFFFFFFFFFFFFFFFFFFFFFF AND PUSH20 0xFFFFFFFFFFFFFFFFFFFFFFFFFFFFFFFFFFFFFFFF AND CALLER PUSH20 0xFFFFFFFFFFFFFFFFFFFFFFFFFFFFFFFFFFFFFFFF AND EQ ISZERO JUMPDEST ISZERO PUSH2 0x1283 JUMPI CALLER PUSH2 0x1222 PUSH2 0x1159 JUMP JUMPDEST PUSH1 0x9 PUSH1 0x0 SWAP1 SLOAD SWAP1 PUSH2 0x100 EXP SWAP1 DIV PUSH20 0xFFFFFFFFFFFFFFFFFFFFFFFFFFFFFFFFFFFFFFFF AND PUSH1 0x40 MLOAD PUSH32 0x61DB9C100000000000000000000000000000000000000000000000000000000 DUP2 MSTORE PUSH1 0x4 ADD PUSH2 0x127A SWAP4 SWAP3 SWAP2 SWAP1 PUSH2 0x4A5A JUMP JUMPDEST PUSH1 0x40 MLOAD DUP1 SWAP2 SUB SWAP1 REVERT JUMPDEST PUSH1 0x0 PUSH20 0xFFFFFFFFFFFFFFFFFFFFFFFFFFFFFFFFFFFFFFFF AND DUP2 PUSH20 0xFFFFFFFFFFFFFFFFFFFFFFFFFFFFFFFFFFFFFFFF AND SUB PUSH2 0x12E9 JUMPI PUSH1 0x40 MLOAD PUSH32 0xD92E233D00000000000000000000000000000000000000000000000000000000 DUP2 MSTORE PUSH1 0x4 ADD PUSH1 0x40 MLOAD DUP1 SWAP2 SUB SWAP1 REVERT JUMPDEST DUP1 PUSH1 0x9 PUSH1 0x0 PUSH2 0x100 EXP DUP2 SLOAD DUP2 PUSH20 0xFFFFFFFFFFFFFFFFFFFFFFFFFFFFFFFFFFFFFFFF MUL NOT AND SWAP1 DUP4 PUSH20 0xFFFFFFFFFFFFFFFFFFFFFFFFFFFFFFFFFFFFFFFF AND MUL OR SWAP1 SSTORE POP PUSH32 0xD1A6A14209A385A964D036E404CB5CFB71F4000CDB03C9366292430787261BE6 DUP2 PUSH1 0x40 MLOAD PUSH2 0x1359 SWAP2 SWAP1 PUSH2 0x39AB JUMP JUMPDEST PUSH1 0x40 MLOAD DUP1 SWAP2 SUB SWAP1 LOG1 POP JUMP JUMPDEST PUSH2 0x136C PUSH2 0x225A JUMP JUMPDEST DUP1 PUSH1 0xA DUP2 SWAP1 SSTORE POP POP JUMP JUMPDEST PUSH2 0x137E PUSH2 0x236A JUMP JUMPDEST PUSH1 0x0 DUP4 GT PUSH2 0x13C1 JUMPI PUSH1 0x40 MLOAD PUSH32 0x8C379A000000000000000000000000000000000000000000000000000000000 DUP2 MSTORE PUSH1 0x4 ADD PUSH2 0x13B8 SWAP1 PUSH2 0x4ADD JUMP JUMPDEST PUSH1 0x40 MLOAD DUP1 SWAP2 SUB SWAP1 REVERT JUMPDEST PUSH3 0x186A0 DUP4 PUSH1 0xC SLOAD PUSH2 0x13D3 SWAP2 SWAP1 PUSH2 0x4B2C JUMP JUMPDEST GT ISZERO PUSH2 0x1414 JUMPI PUSH1 0x40 MLOAD PUSH32 0x8C379A000000000000000000000000000000000000000000000000000000000 DUP2 MSTORE PUSH1 0x4 ADD PUSH2 0x140B SWAP1 PUSH2 0x4BAC JUMP JUMPDEST PUSH1 0x40 MLOAD DUP1 SWAP2 SUB SWAP1 REVERT JUMPDEST PUSH1 0x0 DUP4 PUSH1 0xA SLOAD PUSH2 0x1424 SWAP2 SWAP1 PUSH2 0x4BCC JUMP JUMPDEST SWAP1 POP PUSH32 0x0 PUSH20 0xFFFFFFFFFFFFFFFFFFFFFFFFFFFFFFFFFFFFFFFF AND PUSH4 0x23B872DD CALLER ADDRESS DUP5 PUSH1 0x40 MLOAD DUP5 PUSH4 0xFFFFFFFF AND PUSH1 0xE0 SHL DUP2 MSTORE PUSH1 0x4 ADD PUSH2 0x1483 SWAP4 SWAP3 SWAP2 SWAP1 PUSH2 0x4C0E JUMP JUMPDEST PUSH1 0x20 PUSH1 0x40 MLOAD DUP1 DUP4 SUB DUP2 PUSH1 0x0 DUP8 GAS CALL ISZERO DUP1 ISZERO PUSH2 0x14A2 JUMPI RETURNDATASIZE PUSH1 0x0 DUP1 RETURNDATACOPY RETURNDATASIZE PUSH1 0x0 REVERT JUMPDEST POP POP POP POP PUSH1 0x40 MLOAD RETURNDATASIZE PUSH1 0x1F NOT PUSH1 0x1F DUP3 ADD AND DUP3 ADD DUP1 PUSH1 0x40 MSTORE POP DUP2 ADD SWAP1 PUSH2 0x14C6 SWAP2 SWAP1 PUSH2 0x456E JUMP JUMPDEST PUSH2 0x1505 JUMPI PUSH1 0x40 MLOAD PUSH32 0x8C379A000000000000000000000000000000000000000000000000000000000 DUP2 MSTORE PUSH1 0x4 ADD PUSH2 0x14FC SWAP1 PUSH2 0x4C91 JUMP JUMPDEST PUSH1 0x40 MLOAD DUP1 SWAP2 SUB SWAP1 REVERT JUMPDEST PUSH1 0x0 DUP1 PUSH20 0xFFFFFFFFFFFFFFFFFFFFFFFFFFFFFFFFFFFFFFFF AND PUSH1 0x10 PUSH1 0x0 SWAP1 SLOAD SWAP1 PUSH2 0x100 EXP SWAP1 DIV PUSH20 0xFFFFFFFFFFFFFFFFFFFFFFFFFFFFFFFFFFFFFFFF AND PUSH20 0xFFFFFFFFFFFFFFFFFFFFFFFFFFFFFFFFFFFFFFFF AND EQ ISZERO DUP1 ISZERO PUSH2 0x1568 JUMPI POP PUSH1 0x0 PUSH1 0x12 SLOAD EQ ISZERO JUMPDEST DUP1 ISZERO PUSH2 0x1579 JUMPI POP PUSH1 0x0 DUP1 SHL PUSH1 0x11 SLOAD EQ ISZERO JUMPDEST SWAP1 POP DUP1 ISZERO PUSH2 0x1685 JUMPI PUSH1 0x0 DUP6 PUSH8 0xFFFFFFFFFFFFFFFF DUP2 GT ISZERO PUSH2 0x159D JUMPI PUSH2 0x159C PUSH2 0x3FB0 JUMP JUMPDEST JUMPDEST PUSH1 0x40 MLOAD SWAP1 DUP1 DUP3 MSTORE DUP1 PUSH1 0x20 MUL PUSH1 0x20 ADD DUP3 ADD PUSH1 0x40 MSTORE DUP1 ISZERO PUSH2 0x15CB JUMPI DUP2 PUSH1 0x20 ADD PUSH1 0x20 DUP3 MUL DUP1 CALLDATASIZE DUP4 CALLDATACOPY DUP1 DUP3 ADD SWAP2 POP POP SWAP1 POP JUMPDEST POP SWAP1 POP PUSH1 0x0 JUMPDEST DUP7 DUP2 LT ISZERO PUSH2 0x1649 JUMPI PUSH1 0x0 PUSH1 0xB PUSH1 0x0 DUP2 SLOAD PUSH2 0x15EA SWAP1 PUSH2 0x4CB1 JUMP JUMPDEST SWAP2 SWAP1 POP DUP2 SWAP1 SSTORE SWAP1 POP PUSH2 0x15FC DUP10 DUP3 PUSH2 0x23B9 JUMP JUMPDEST PUSH1 0x0 PUSH1 0xE PUSH1 0x0 DUP4 DUP2 MSTORE PUSH1 0x20 ADD SWAP1 DUP2 MSTORE PUSH1 0x20 ADD PUSH1 0x0 KECCAK256 DUP2 SWAP1 SSTORE POP DUP1 DUP4 DUP4 DUP2 MLOAD DUP2 LT PUSH2 0x1629 JUMPI PUSH2 0x1628 PUSH2 0x4CF9 JUMP JUMPDEST JUMPDEST PUSH1 0x20 MUL PUSH1 0x20 ADD ADD DUP2 DUP2 MSTORE POP POP POP DUP1 DUP1 PUSH2 0x1641 SWAP1 PUSH2 0x4CB1 JUMP JUMPDEST SWAP2 POP POP PUSH2 0x15D1 JUMP JUMPDEST POP PUSH1 0x0 PUSH2 0x1654 PUSH2 0x23D7 JUMP JUMPDEST SWAP1 POP DUP2 PUSH1 0x14 PUSH1 0x0 DUP4 DUP2 MSTORE PUSH1 0x20 ADD SWAP1 DUP2 MSTORE PUSH1 0x20 ADD PUSH1 0x0 KECCAK256 SWAP1 DUP1 MLOAD SWAP1 PUSH1 0x20 ADD SWAP1 PUSH2 0x167D SWAP3 SWAP2 SWAP1 PUSH2 0x36AE JUMP JUMPDEST POP POP POP PUSH2 0x1700 JUMP JUMPDEST PUSH1 0x0 JUMPDEST DUP6 DUP2 LT ISZERO PUSH2 0x16FE JUMPI PUSH1 0x0 PUSH1 0xB PUSH1 0x0 DUP2 SLOAD PUSH2 0x16A1 SWAP1 PUSH2 0x4CB1 JUMP JUMPDEST SWAP2 SWAP1 POP DUP2 SWAP1 SSTORE SWAP1 POP PUSH2 0x16B3 DUP9 DUP3 PUSH2 0x23B9 JUMP JUMPDEST PUSH1 0x0 PUSH2 0x16CF PUSH1 0x1 NUMBER PUSH2 0x16C5 SWAP2 SWAP1 PUSH2 0x4D28 JUMP JUMPDEST BLOCKHASH PUSH1 0x0 SHR DUP4 PUSH2 0x25C0 JUMP JUMPDEST SWAP1 POP DUP1 PUSH1 0xE PUSH1 0x0 DUP5 DUP2 MSTORE PUSH1 0x20 ADD SWAP1 DUP2 MSTORE PUSH1 0x20 ADD PUSH1 0x0 KECCAK256 DUP2 SWAP1 SSTORE POP POP POP DUP1 DUP1 PUSH2 0x16F6 SWAP1 PUSH2 0x4CB1 JUMP JUMPDEST SWAP2 POP POP PUSH2 0x1688 JUMP JUMPDEST POP JUMPDEST DUP5 PUSH1 0xC PUSH1 0x0 DUP3 DUP3 SLOAD PUSH2 0x1712 SWAP2 SWAP1 PUSH2 0x4B2C JUMP JUMPDEST SWAP3 POP POP DUP2 SWAP1 SSTORE POP POP POP PUSH2 0x1723 PUSH2 0x2613 JUMP JUMPDEST POP POP POP POP JUMP JUMPDEST PUSH1 0x60 PUSH1 0x1 DUP1 SLOAD PUSH2 0x1738 SWAP1 PUSH2 0x42DE JUMP JUMPDEST DUP1 PUSH1 0x1F ADD PUSH1 0x20 DUP1 SWAP2 DIV MUL PUSH1 0x20 ADD PUSH1 0x40 MLOAD SWAP1 DUP2 ADD PUSH1 0x40 MSTORE DUP1 SWAP3 SWAP2 SWAP1 DUP2 DUP2 MSTORE PUSH1 0x20 ADD DUP3 DUP1 SLOAD PUSH2 0x1764 SWAP1 PUSH2 0x42DE JUMP JUMPDEST DUP1 ISZERO PUSH2 0x17B1 JUMPI DUP1 PUSH1 0x1F LT PUSH2 0x1786 JUMPI PUSH2 0x100 DUP1 DUP4 SLOAD DIV MUL DUP4 MSTORE SWAP2 PUSH1 0x20 ADD SWAP2 PUSH2 0x17B1 JUMP JUMPDEST DUP3 ADD SWAP2 SWAP1 PUSH1 0x0 MSTORE PUSH1 0x20 PUSH1 0x0 KECCAK256 SWAP1 JUMPDEST DUP2 SLOAD DUP2 MSTORE SWAP1 PUSH1 0x1 ADD SWAP1 PUSH1 0x20 ADD DUP1 DUP4 GT PUSH2 0x1794 JUMPI DUP3 SWAP1 SUB PUSH1 0x1F AND DUP3 ADD SWAP2 JUMPDEST POP POP POP POP POP SWAP1 POP SWAP1 JUMP JUMPDEST PUSH1 0x9 PUSH1 0x0 SWAP1 SLOAD SWAP1 PUSH2 0x100 EXP SWAP1 DIV PUSH20 0xFFFFFFFFFFFFFFFFFFFFFFFFFFFFFFFFFFFFFFFF AND DUP2 JUMP JUMPDEST PUSH1 0xA SLOAD DUP2 JUMP JUMPDEST PUSH2 0x17F9 PUSH2 0x17F2 PUSH2 0x1C99 JUMP JUMPDEST DUP4 DUP4 PUSH2 0x261D JUMP JUMPDEST POP POP JUMP JUMPDEST PUSH3 0x186A0 DUP2 JUMP JUMPDEST PUSH2 0x180C PUSH2 0x225A JUMP JUMPDEST DUP5 PUSH1 0x10 PUSH1 0x0 PUSH2 0x100 EXP DUP2 SLOAD DUP2 PUSH20 0xFFFFFFFFFFFFFFFFFFFFFFFFFFFFFFFFFFFFFFFF MUL NOT AND SWAP1 DUP4 PUSH20 0xFFFFFFFFFFFFFFFFFFFFFFFFFFFFFFFFFFFFFFFF AND MUL OR SWAP1 SSTORE POP DUP4 PUSH1 0x11 DUP2 SWAP1 SSTORE POP DUP3 PUSH1 0x12 DUP2 SWAP1 SSTORE POP PUSH1 0x0 DUP3 PUSH4 0xFFFFFFFF AND EQ PUSH2 0x188B JUMPI DUP2 PUSH1 0x13 PUSH1 0x0 PUSH2 0x100 EXP DUP2 SLOAD DUP2 PUSH4 0xFFFFFFFF MUL NOT AND SWAP1 DUP4 PUSH4 0xFFFFFFFF AND MUL OR SWAP1 SSTORE POP JUMPDEST PUSH1 0x0 DUP2 PUSH2 0xFFFF AND EQ PUSH2 0x18B5 JUMPI DUP1 PUSH1 0x13 PUSH1 0x4 PUSH2 0x100 EXP DUP2 SLOAD DUP2 PUSH2 0xFFFF MUL NOT AND SWAP1 DUP4 PUSH2 0xFFFF AND MUL OR SWAP1 SSTORE POP JUMPDEST POP POP POP POP POP JUMP JUMPDEST PUSH1 0x13 PUSH1 0x4 SWAP1 SLOAD SWAP1 PUSH2 0x100 EXP SWAP1 DIV PUSH2 0xFFFF AND DUP2 JUMP JUMPDEST PUSH2 0x18E1 PUSH2 0x18DB PUSH2 0x1C99 JUMP JUMPDEST DUP4 PUSH2 0x1ECC JUMP JUMPDEST PUSH2 0x1920 JUMPI PUSH1 0x40 MLOAD PUSH32 0x8C379A000000000000000000000000000000000000000000000000000000000 DUP2 MSTORE PUSH1 0x4 ADD PUSH2 0x1917 SWAP1 PUSH2 0x44CE JUMP JUMPDEST PUSH1 0x40 MLOAD DUP1 SWAP2 SUB SWAP1 REVERT JUMPDEST PUSH2 0x192C DUP5 DUP5 DUP5 DUP5 PUSH2 0x2789 JUMP JUMPDEST POP POP POP POP JUMP JUMPDEST PUSH1 0x60 PUSH2 0x193D DUP3 PUSH2 0x1C4E JUMP JUMPDEST PUSH1 0x0 PUSH2 0x1947 PUSH2 0x27E5 JUMP JUMPDEST SWAP1 POP PUSH1 0x0 DUP2 MLOAD GT PUSH2 0x1967 JUMPI PUSH1 0x40 MLOAD DUP1 PUSH1 0x20 ADD PUSH1 0x40 MSTORE DUP1 PUSH1 0x0 DUP2 MSTORE POP PUSH2 0x1992 JUMP JUMPDEST DUP1 PUSH2 0x1971 DUP5 PUSH2 0x2877 JUMP JUMPDEST PUSH1 0x40 MLOAD PUSH1 0x20 ADD PUSH2 0x1982 SWAP3 SWAP2 SWAP1 PUSH2 0x4D98 JUMP JUMPDEST PUSH1 0x40 MLOAD PUSH1 0x20 DUP2 DUP4 SUB SUB DUP2 MSTORE SWAP1 PUSH1 0x40 MSTORE JUMPDEST SWAP2 POP POP SWAP2 SWAP1 POP JUMP JUMPDEST PUSH2 0x19A2 PUSH2 0x236A JUMP JUMPDEST PUSH1 0xD SLOAD PUSH3 0x186A0 PUSH1 0x64 PUSH1 0xC SLOAD PUSH2 0x19B8 SWAP2 SWAP1 PUSH2 0x4BCC JUMP JUMPDEST PUSH2 0x19C2 SWAP2 SWAP1 PUSH2 0x4DEB JUMP JUMPDEST LT ISZERO PUSH2 0x1A03 JUMPI PUSH1 0x40 MLOAD PUSH32 0x8C379A000000000000000000000000000000000000000000000000000000000 DUP2 MSTORE PUSH1 0x4 ADD PUSH2 0x19FA SWAP1 PUSH2 0x4E68 JUMP JUMPDEST PUSH1 0x40 MLOAD DUP1 SWAP2 SUB SWAP1 REVERT JUMPDEST PUSH2 0x1A0E DUP4 PUSH1 0x1 PUSH2 0x2945 JUMP JUMPDEST PUSH1 0x0 PUSH1 0xB PUSH1 0x0 DUP2 SLOAD PUSH2 0x1A1F SWAP1 PUSH2 0x4CB1 JUMP JUMPDEST SWAP2 SWAP1 POP DUP2 SWAP1 SSTORE SWAP1 POP PUSH2 0x1A31 DUP3 DUP3 PUSH2 0x23B9 JUMP JUMPDEST PUSH1 0x1 PUSH1 0x14 DUP1 PUSH2 0x1A40 SWAP2 SWAP1 PUSH2 0x4B2C JUMP JUMPDEST PUSH2 0x1A4A SWAP2 SWAP1 PUSH2 0x4B2C JUMP JUMPDEST PUSH1 0xE PUSH1 0x0 DUP4 DUP2 MSTORE PUSH1 0x20 ADD SWAP1 DUP2 MSTORE PUSH1 0x20 ADD PUSH1 0x0 KECCAK256 DUP2 SWAP1 SSTORE POP POP PUSH2 0x1A6A PUSH2 0x2613 JUMP JUMPDEST POP POP POP JUMP JUMPDEST PUSH1 0x0 PUSH1 0x5 PUSH1 0x0 DUP5 PUSH20 0xFFFFFFFFFFFFFFFFFFFFFFFFFFFFFFFFFFFFFFFF AND PUSH20 0xFFFFFFFFFFFFFFFFFFFFFFFFFFFFFFFFFFFFFFFF AND DUP2 MSTORE PUSH1 0x20 ADD SWAP1 DUP2 MSTORE PUSH1 0x20 ADD PUSH1 0x0 KECCAK256 PUSH1 0x0 DUP4 PUSH20 0xFFFFFFFFFFFFFFFFFFFFFFFFFFFFFFFFFFFFFFFF AND PUSH20 0xFFFFFFFFFFFFFFFFFFFFFFFFFFFFFFFFFFFFFFFF AND DUP2 MSTORE PUSH1 0x20 ADD SWAP1 DUP2 MSTORE PUSH1 0x20 ADD PUSH1 0x0 KECCAK256 PUSH1 0x0 SWAP1 SLOAD SWAP1 PUSH2 0x100 EXP SWAP1 DIV PUSH1 0xFF AND SWAP1 POP SWAP3 SWAP2 POP POP JUMP JUMPDEST PUSH2 0x1B0B PUSH2 0x236A JUMP JUMPDEST PUSH2 0x1B16 DUP5 PUSH1 0x0 PUSH2 0x2B92 JUMP JUMPDEST PUSH1 0x0 PUSH1 0xB PUSH1 0x0 DUP2 SLOAD PUSH2 0x1B27 SWAP1 PUSH2 0x4CB1 JUMP JUMPDEST SWAP2 SWAP1 POP DUP2 SWAP1 SSTORE SWAP1 POP PUSH2 0x1B39 DUP5 DUP3 PUSH2 0x23B9 JUMP JUMPDEST PUSH2 0x1B42 DUP6 PUSH2 0x2DC9 JUMP JUMPDEST PUSH1 0x14 PUSH2 0x1B4E SWAP2 SWAP1 PUSH2 0x4B2C JUMP JUMPDEST PUSH1 0xE PUSH1 0x0 DUP4 DUP2 MSTORE PUSH1 0x20 ADD SWAP1 DUP2 MSTORE PUSH1 0x20 ADD PUSH1 0x0 KECCAK256 DUP2 SWAP1 SSTORE POP POP PUSH2 0x1B6E PUSH2 0x2613 JUMP JUMPDEST POP POP POP POP JUMP JUMPDEST PUSH2 0x1B7C PUSH2 0x225A JUMP JUMPDEST PUSH2 0x1B85 DUP2 PUSH2 0x2E19 JUMP JUMPDEST POP JUMP JUMPDEST PUSH1 0xD SLOAD DUP2 JUMP JUMPDEST PUSH2 0x1B96 PUSH2 0x225A JUMP JUMPDEST PUSH1 0x64 DUP2 GT ISZERO PUSH2 0x1BDA JUMPI PUSH1 0x40 MLOAD PUSH32 0x8C379A000000000000000000000000000000000000000000000000000000000 DUP2 MSTORE PUSH1 0x4 ADD PUSH2 0x1BD1 SWAP1 PUSH2 0x4ED4 JUMP JUMPDEST PUSH1 0x40 MLOAD DUP1 SWAP2 SUB SWAP1 REVERT JUMPDEST DUP1 PUSH1 0xD DUP2 SWAP1 SSTORE POP POP JUMP JUMPDEST PUSH1 0x0 PUSH32 0x1FFC9A700000000000000000000000000000000000000000000000000000000 PUSH28 0xFFFFFFFFFFFFFFFFFFFFFFFFFFFFFFFFFFFFFFFFFFFFFFFFFFFFFFFF NOT AND DUP3 PUSH28 0xFFFFFFFFFFFFFFFFFFFFFFFFFFFFFFFFFFFFFFFFFFFFFFFFFFFFFFFF NOT AND EQ SWAP1 POP SWAP2 SWAP1 POP JUMP JUMPDEST PUSH2 0x1C57 DUP2 PUSH2 0x2329 JUMP JUMPDEST PUSH2 0x1C96 JUMPI PUSH1 0x40 MLOAD PUSH32 0x8C379A000000000000000000000000000000000000000000000000000000000 DUP2 MSTORE PUSH1 0x4 ADD PUSH2 0x1C8D SWAP1 PUSH2 0x48D0 JUMP JUMPDEST PUSH1 0x40 MLOAD DUP1 SWAP2 SUB SWAP1 REVERT JUMPDEST POP JUMP JUMPDEST PUSH1 0x0 CALLER SWAP1 POP SWAP1 JUMP JUMPDEST DUP2 PUSH1 0x4 PUSH1 0x0 DUP4 DUP2 MSTORE PUSH1 0x20 ADD SWAP1 DUP2 MSTORE PUSH1 0x20 ADD PUSH1 0x0 KECCAK256 PUSH1 0x0 PUSH2 0x100 EXP DUP2 SLOAD DUP2 PUSH20 0xFFFFFFFFFFFFFFFFFFFFFFFFFFFFFFFFFFFFFFFF MUL NOT AND SWAP1 DUP4 PUSH20 0xFFFFFFFFFFFFFFFFFFFFFFFFFFFFFFFFFFFFFFFF AND MUL OR SWAP1 SSTORE POP DUP1 DUP3 PUSH20 0xFFFFFFFFFFFFFFFFFFFFFFFFFFFFFFFFFFFFFFFF AND PUSH2 0x1D14 DUP4 PUSH2 0xE04 JUMP JUMPDEST PUSH20 0xFFFFFFFFFFFFFFFFFFFFFFFFFFFFFFFFFFFFFFFF AND PUSH32 0x8C5BE1E5EBEC7D5BD14F71427D1E84F3DD0314C0F7B2291E5B200AC8C7C3B925 PUSH1 0x40 MLOAD PUSH1 0x40 MLOAD DUP1 SWAP2 SUB SWAP1 LOG4 POP POP JUMP JUMPDEST PUSH1 0x0 DUP3 DUP3 PUSH1 0x0 DUP2 DUP2 LT PUSH2 0x1D70 JUMPI PUSH2 0x1D6F PUSH2 0x4CF9 JUMP JUMPDEST JUMPDEST SWAP1 POP PUSH1 0x20 MUL ADD CALLDATALOAD SWAP1 POP PUSH1 0x0 PUSH1 0x14 PUSH1 0x0 DUP7 DUP2 MSTORE PUSH1 0x20 ADD SWAP1 DUP2 MSTORE PUSH1 0x20 ADD PUSH1 0x0 KECCAK256 DUP1 SLOAD DUP1 PUSH1 0x20 MUL PUSH1 0x20 ADD PUSH1 0x40 MLOAD SWAP1 DUP2 ADD PUSH1 0x40 MSTORE DUP1 SWAP3 SWAP2 SWAP1 DUP2 DUP2 MSTORE PUSH1 0x20 ADD DUP3 DUP1 SLOAD DUP1 ISZERO PUSH2 0x1DD8 JUMPI PUSH1 0x20 MUL DUP3 ADD SWAP2 SWAP1 PUSH1 0x0 MSTORE PUSH1 0x20 PUSH1 0x0 KECCAK256 SWAP1 JUMPDEST DUP2 SLOAD DUP2 MSTORE PUSH1 0x20 ADD SWAP1 PUSH1 0x1 ADD SWAP1 DUP1 DUP4 GT PUSH2 0x1DC4 JUMPI JUMPDEST POP POP POP POP POP SWAP1 POP PUSH1 0x0 DUP2 MLOAD GT PUSH2 0x1E23 JUMPI PUSH1 0x40 MLOAD PUSH32 0x8C379A000000000000000000000000000000000000000000000000000000000 DUP2 MSTORE PUSH1 0x4 ADD PUSH2 0x1E1A SWAP1 PUSH2 0x4F40 JUMP JUMPDEST PUSH1 0x40 MLOAD DUP1 SWAP2 SUB SWAP1 REVERT JUMPDEST PUSH1 0x14 PUSH1 0x0 DUP7 DUP2 MSTORE PUSH1 0x20 ADD SWAP1 DUP2 MSTORE PUSH1 0x20 ADD PUSH1 0x0 KECCAK256 PUSH1 0x0 PUSH2 0x1E42 SWAP2 SWAP1 PUSH2 0x36FB JUMP JUMPDEST PUSH1 0x0 JUMPDEST DUP2 MLOAD DUP2 LT ISZERO PUSH2 0x1EC4 JUMPI PUSH1 0x0 DUP3 DUP3 DUP2 MLOAD DUP2 LT PUSH2 0x1E63 JUMPI PUSH2 0x1E62 PUSH2 0x4CF9 JUMP JUMPDEST JUMPDEST PUSH1 0x20 MUL PUSH1 0x20 ADD ADD MLOAD SWAP1 POP PUSH1 0x0 PUSH1 0xE PUSH1 0x0 DUP4 DUP2 MSTORE PUSH1 0x20 ADD SWAP1 DUP2 MSTORE PUSH1 0x20 ADD PUSH1 0x0 KECCAK256 SLOAD SUB PUSH2 0x1EB0 JUMPI PUSH1 0x0 PUSH2 0x1E94 DUP6 DUP4 PUSH2 0x25C0 JUMP JUMPDEST SWAP1 POP DUP1 PUSH1 0xE PUSH1 0x0 DUP5 DUP2 MSTORE PUSH1 0x20 ADD SWAP1 DUP2 MSTORE PUSH1 0x20 ADD PUSH1 0x0 KECCAK256 DUP2 SWAP1 SSTORE POP POP JUMPDEST POP DUP1 DUP1 PUSH2 0x1EBC SWAP1 PUSH2 0x4CB1 JUMP JUMPDEST SWAP2 POP POP PUSH2 0x1E45 JUMP JUMPDEST POP POP POP POP POP POP JUMP JUMPDEST PUSH1 0x0 DUP1 PUSH2 0x1ED8 DUP4 PUSH2 0xE04 JUMP JUMPDEST SWAP1 POP DUP1 PUSH20 0xFFFFFFFFFFFFFFFFFFFFFFFFFFFFFFFFFFFFFFFF AND DUP5 PUSH20 0xFFFFFFFFFFFFFFFFFFFFFFFFFFFFFFFFFFFFFFFF AND EQ DUP1 PUSH2 0x1F1A JUMPI POP PUSH2 0x1F19 DUP2 DUP6 PUSH2 0x1A6F JUMP JUMPDEST JUMPDEST DUP1 PUSH2 0x1F58 JUMPI POP DUP4 PUSH20 0xFFFFFFFFFFFFFFFFFFFFFFFFFFFFFFFFFFFFFFFF AND PUSH2 0x1F40 DUP5 PUSH2 0x940 JUMP JUMPDEST PUSH20 0xFFFFFFFFFFFFFFFFFFFFFFFFFFFFFFFFFFFFFFFF AND EQ JUMPDEST SWAP2 POP POP SWAP3 SWAP2 POP POP JUMP JUMPDEST DUP3 PUSH20 0xFFFFFFFFFFFFFFFFFFFFFFFFFFFFFFFFFFFFFFFF AND PUSH2 0x1F81 DUP3 PUSH2 0xE04 JUMP JUMPDEST PUSH20 0xFFFFFFFFFFFFFFFFFFFFFFFFFFFFFFFFFFFFFFFF AND EQ PUSH2 0x1FD7 JUMPI PUSH1 0x40 MLOAD PUSH32 0x8C379A000000000000000000000000000000000000000000000000000000000 DUP2 MSTORE PUSH1 0x4 ADD PUSH2 0x1FCE SWAP1 PUSH2 0x4FD2 JUMP JUMPDEST PUSH1 0x40 MLOAD DUP1 SWAP2 SUB SWAP1 REVERT JUMPDEST PUSH1 0x0 PUSH20 0xFFFFFFFFFFFFFFFFFFFFFFFFFFFFFFFFFFFFFFFF AND DUP3 PUSH20 0xFFFFFFFFFFFFFFFFFFFFFFFFFFFFFFFFFFFFFFFF AND SUB PUSH2 0x2046 JUMPI PUSH1 0x40 MLOAD PUSH32 0x8C379A000000000000000000000000000000000000000000000000000000000 DUP2 MSTORE PUSH1 0x4 ADD PUSH2 0x203D SWAP1 PUSH2 0x5064 JUMP JUMPDEST PUSH1 0x40 MLOAD DUP1 SWAP2 SUB SWAP1 REVERT JUMPDEST PUSH2 0x2053 DUP4 DUP4 DUP4 PUSH1 0x1 PUSH2 0x2F47 JUMP JUMPDEST DUP3 PUSH20 0xFFFFFFFFFFFFFFFFFFFFFFFFFFFFFFFFFFFFFFFF AND PUSH2 0x2073 DUP3 PUSH2 0xE04 JUMP JUMPDEST PUSH20 0xFFFFFFFFFFFFFFFFFFFFFFFFFFFFFFFFFFFFFFFF AND EQ PUSH2 0x20C9 JUMPI PUSH1 0x40 MLOAD PUSH32 0x8C379A000000000000000000000000000000000000000000000000000000000 DUP2 MSTORE PUSH1 0x4 ADD PUSH2 0x20C0 SWAP1 PUSH2 0x4FD2 JUMP JUMPDEST PUSH1 0x40 MLOAD DUP1 SWAP2 SUB SWAP1 REVERT JUMPDEST PUSH1 0x4 PUSH1 0x0 DUP3 DUP2 MSTORE PUSH1 0x20 ADD SWAP1 DUP2 MSTORE PUSH1 0x20 ADD PUSH1 0x0 KECCAK256 PUSH1 0x0 PUSH2 0x100 EXP DUP2 SLOAD SWAP1 PUSH20 0xFFFFFFFFFFFFFFFFFFFFFFFFFFFFFFFFFFFFFFFF MUL NOT AND SWAP1 SSTORE PUSH1 0x1 PUSH1 0x3 PUSH1 0x0 DUP6 PUSH20 0xFFFFFFFFFFFFFFFFFFFFFFFFFFFFFFFFFFFFFFFF AND PUSH20 0xFFFFFFFFFFFFFFFFFFFFFFFFFFFFFFFFFFFFFFFF AND DUP2 MSTORE PUSH1 0x20 ADD SWAP1 DUP2 MSTORE PUSH1 0x20 ADD PUSH1 0x0 KECCAK256 PUSH1 0x0 DUP3 DUP3 SLOAD SUB SWAP3 POP POP DUP2 SWAP1 SSTORE POP PUSH1 0x1 PUSH1 0x3 PUSH1 0x0 DUP5 PUSH20 0xFFFFFFFFFFFFFFFFFFFFFFFFFFFFFFFFFFFFFFFF AND PUSH20 0xFFFFFFFFFFFFFFFFFFFFFFFFFFFFFFFFFFFFFFFF AND DUP2 MSTORE PUSH1 0x20 ADD SWAP1 DUP2 MSTORE PUSH1 0x20 ADD PUSH1 0x0 KECCAK256 PUSH1 0x0 DUP3 DUP3 SLOAD ADD SWAP3 POP POP DUP2 SWAP1 SSTORE POP DUP2 PUSH1 0x2 PUSH1 0x0 DUP4 DUP2 MSTORE PUSH1 0x20 ADD SWAP1 DUP2 MSTORE PUSH1 0x20 ADD PUSH1 0x0 KECCAK256 PUSH1 0x0 PUSH2 0x100 EXP DUP2 SLOAD DUP2 PUSH20 0xFFFFFFFFFFFFFFFFFFFFFFFFFFFFFFFFFFFFFFFF MUL NOT AND SWAP1 DUP4 PUSH20 0xFFFFFFFFFFFFFFFFFFFFFFFFFFFFFFFFFFFFFFFF AND MUL OR SWAP1 SSTORE POP DUP1 DUP3 PUSH20 0xFFFFFFFFFFFFFFFFFFFFFFFFFFFFFFFFFFFFFFFF AND DUP5 PUSH20 0xFFFFFFFFFFFFFFFFFFFFFFFFFFFFFFFFFFFFFFFF AND PUSH32 0xDDF252AD1BE2C89B69C2B068FC378DAA952BA7F163C4A11628F55A4DF523B3EF PUSH1 0x40 MLOAD PUSH1 0x40 MLOAD DUP1 SWAP2 SUB SWAP1 LOG4 PUSH2 0x2255 DUP4 DUP4 DUP4 PUSH1 0x1 PUSH2 0x2F4D JUMP JUMPDEST POP POP POP JUMP JUMPDEST PUSH1 0x7 PUSH1 0x0 SWAP1 SLOAD SWAP1 PUSH2 0x100 EXP SWAP1 DIV PUSH20 0xFFFFFFFFFFFFFFFFFFFFFFFFFFFFFFFFFFFFFFFF AND PUSH20 0xFFFFFFFFFFFFFFFFFFFFFFFFFFFFFFFFFFFFFFFF AND CALLER PUSH20 0xFFFFFFFFFFFFFFFFFFFFFFFFFFFFFFFFFFFFFFFF AND EQ PUSH2 0x22EA JUMPI PUSH1 0x40 MLOAD PUSH32 0x8C379A000000000000000000000000000000000000000000000000000000000 DUP2 MSTORE PUSH1 0x4 ADD PUSH2 0x22E1 SWAP1 PUSH2 0x50D0 JUMP JUMPDEST PUSH1 0x40 MLOAD DUP1 SWAP2 SUB SWAP1 REVERT JUMPDEST JUMP JUMPDEST PUSH1 0x0 PUSH1 0x2 PUSH1 0x0 DUP4 DUP2 MSTORE PUSH1 0x20 ADD SWAP1 DUP2 MSTORE PUSH1 0x20 ADD PUSH1 0x0 KECCAK256 PUSH1 0x0 SWAP1 SLOAD SWAP1 PUSH2 0x100 EXP SWAP1 DIV PUSH20 0xFFFFFFFFFFFFFFFFFFFFFFFFFFFFFFFFFFFFFFFF AND SWAP1 POP SWAP2 SWAP1 POP JUMP JUMPDEST PUSH1 0x0 DUP1 PUSH20 0xFFFFFFFFFFFFFFFFFFFFFFFFFFFFFFFFFFFFFFFF AND PUSH2 0x234B DUP4 PUSH2 0x22EC JUMP JUMPDEST PUSH20 0xFFFFFFFFFFFFFFFFFFFFFFFFFFFFFFFFFFFFFFFF AND EQ ISZERO SWAP1 POP SWAP2 SWAP1 POP JUMP JUMPDEST PUSH1 0x2 PUSH1 0x6 SLOAD SUB PUSH2 0x23AF JUMPI PUSH1 0x40 MLOAD PUSH32 0x8C379A000000000000000000000000000000000000000000000000000000000 DUP2 MSTORE PUSH1 0x4 ADD PUSH2 0x23A6 SWAP1 PUSH2 0x513C JUMP JUMPDEST PUSH1 0x40 MLOAD DUP1 SWAP2 SUB SWAP1 REVERT JUMPDEST PUSH1 0x2 PUSH1 0x6 DUP2 SWAP1 SSTORE POP JUMP JUMPDEST PUSH2 0x23D3 DUP3 DUP3 PUSH1 0x40 MLOAD DUP1 PUSH1 0x20 ADD PUSH1 0x40 MSTORE DUP1 PUSH1 0x0 DUP2 MSTORE POP PUSH2 0x2F53 JUMP JUMPDEST POP POP JUMP JUMPDEST PUSH1 0x0 DUP1 PUSH20 0xFFFFFFFFFFFFFFFFFFFFFFFFFFFFFFFFFFFFFFFF AND PUSH1 0x10 PUSH1 0x0 SWAP1 SLOAD SWAP1 PUSH2 0x100 EXP SWAP1 DIV PUSH20 0xFFFFFFFFFFFFFFFFFFFFFFFFFFFFFFFFFFFFFFFF AND PUSH20 0xFFFFFFFFFFFFFFFFFFFFFFFFFFFFFFFFFFFFFFFF AND EQ ISZERO DUP1 ISZERO PUSH2 0x243A JUMPI POP PUSH1 0x0 PUSH1 0x12 SLOAD EQ ISZERO JUMPDEST DUP1 ISZERO PUSH2 0x244B JUMPI POP PUSH1 0x0 DUP1 SHL PUSH1 0x11 SLOAD EQ ISZERO JUMPDEST PUSH2 0x248A JUMPI PUSH1 0x40 MLOAD PUSH32 0x8C379A000000000000000000000000000000000000000000000000000000000 DUP2 MSTORE PUSH1 0x4 ADD PUSH2 0x2481 SWAP1 PUSH2 0x51A8 JUMP JUMPDEST PUSH1 0x40 MLOAD DUP1 SWAP2 SUB SWAP1 REVERT JUMPDEST PUSH1 0x0 PUSH1 0x40 MLOAD DUP1 PUSH1 0xC0 ADD PUSH1 0x40 MSTORE DUP1 PUSH1 0x11 SLOAD DUP2 MSTORE PUSH1 0x20 ADD PUSH1 0x12 SLOAD DUP2 MSTORE PUSH1 0x20 ADD PUSH1 0x13 PUSH1 0x4 SWAP1 SLOAD SWAP1 PUSH2 0x100 EXP SWAP1 DIV PUSH2 0xFFFF AND PUSH2 0xFFFF AND DUP2 MSTORE PUSH1 0x20 ADD PUSH1 0x13 PUSH1 0x0 SWAP1 SLOAD SWAP1 PUSH2 0x100 EXP SWAP1 DIV PUSH4 0xFFFFFFFF AND PUSH4 0xFFFFFFFF AND DUP2 MSTORE PUSH1 0x20 ADD PUSH1 0x13 PUSH1 0x6 SWAP1 SLOAD SWAP1 PUSH2 0x100 EXP SWAP1 DIV PUSH4 0xFFFFFFFF AND PUSH4 0xFFFFFFFF AND DUP2 MSTORE PUSH1 0x20 ADD PUSH2 0x2517 PUSH1 0x40 MLOAD DUP1 PUSH1 0x20 ADD PUSH1 0x40 MSTORE DUP1 PUSH1 0x0 ISZERO ISZERO DUP2 MSTORE POP PUSH2 0x2FAE JUMP JUMPDEST DUP2 MSTORE POP SWAP1 POP PUSH1 0x10 PUSH1 0x0 SWAP1 SLOAD SWAP1 PUSH2 0x100 EXP SWAP1 DIV PUSH20 0xFFFFFFFFFFFFFFFFFFFFFFFFFFFFFFFFFFFFFFFF AND PUSH20 0xFFFFFFFFFFFFFFFFFFFFFFFFFFFFFFFFFFFFFFFF AND PUSH4 0x9B1C385E DUP3 PUSH1 0x40 MLOAD DUP3 PUSH4 0xFFFFFFFF AND PUSH1 0xE0 SHL DUP2 MSTORE PUSH1 0x4 ADD PUSH2 0x2577 SWAP2 SWAP1 PUSH2 0x52E2 JUMP JUMPDEST PUSH1 0x20 PUSH1 0x40 MLOAD DUP1 DUP4 SUB DUP2 PUSH1 0x0 DUP8 GAS CALL ISZERO DUP1 ISZERO PUSH2 0x2596 JUMPI RETURNDATASIZE PUSH1 0x0 DUP1 RETURNDATACOPY RETURNDATASIZE PUSH1 0x0 REVERT JUMPDEST POP POP POP POP PUSH1 0x40 MLOAD RETURNDATASIZE PUSH1 0x1F NOT PUSH1 0x1F DUP3 ADD AND DUP3 ADD DUP1 PUSH1 0x40 MSTORE POP DUP2 ADD SWAP1 PUSH2 0x25BA SWAP2 SWAP1 PUSH2 0x4503 JUMP JUMPDEST SWAP2 POP POP SWAP1 JUMP JUMPDEST PUSH1 0x0 DUP1 PUSH1 0x14 DUP5 DUP5 PUSH1 0x40 MLOAD PUSH1 0x20 ADD PUSH2 0x25D8 SWAP3 SWAP2 SWAP1 PUSH2 0x5325 JUMP JUMPDEST PUSH1 0x40 MLOAD PUSH1 0x20 DUP2 DUP4 SUB SUB DUP2 MSTORE SWAP1 PUSH1 0x40 MSTORE DUP1 MLOAD SWAP1 PUSH1 0x20 ADD KECCAK256 PUSH1 0x0 SHR PUSH2 0x25FB SWAP2 SWAP1 PUSH2 0x5351 JUMP JUMPDEST SWAP1 POP PUSH1 0x1 DUP2 PUSH2 0x260A SWAP2 SWAP1 PUSH2 0x4B2C JUMP JUMPDEST SWAP2 POP POP SWAP3 SWAP2 POP POP JUMP JUMPDEST PUSH1 0x1 PUSH1 0x6 DUP2 SWAP1 SSTORE POP JUMP JUMPDEST DUP2 PUSH20 0xFFFFFFFFFFFFFFFFFFFFFFFFFFFFFFFFFFFFFFFF AND DUP4 PUSH20 0xFFFFFFFFFFFFFFFFFFFFFFFFFFFFFFFFFFFFFFFF AND SUB PUSH2 0x268B JUMPI PUSH1 0x40 MLOAD PUSH32 0x8C379A000000000000000000000000000000000000000000000000000000000 DUP2 MSTORE PUSH1 0x4 ADD PUSH2 0x2682 SWAP1 PUSH2 0x53CE JUMP JUMPDEST PUSH1 0x40 MLOAD DUP1 SWAP2 SUB SWAP1 REVERT JUMPDEST DUP1 PUSH1 0x5 PUSH1 0x0 DUP6 PUSH20 0xFFFFFFFFFFFFFFFFFFFFFFFFFFFFFFFFFFFFFFFF AND PUSH20 0xFFFFFFFFFFFFFFFFFFFFFFFFFFFFFFFFFFFFFFFF AND DUP2 MSTORE PUSH1 0x20 ADD SWAP1 DUP2 MSTORE PUSH1 0x20 ADD PUSH1 0x0 KECCAK256 PUSH1 0x0 DUP5 PUSH20 0xFFFFFFFFFFFFFFFFFFFFFFFFFFFFFFFFFFFFFFFF AND PUSH20 0xFFFFFFFFFFFFFFFFFFFFFFFFFFFFFFFFFFFFFFFF AND DUP2 MSTORE PUSH1 0x20 ADD SWAP1 DUP2 MSTORE PUSH1 0x20 ADD PUSH1 0x0 KECCAK256 PUSH1 0x0 PUSH2 0x100 EXP DUP2 SLOAD DUP2 PUSH1 0xFF MUL NOT AND SWAP1 DUP4 ISZERO ISZERO MUL OR SWAP1 SSTORE POP DUP2 PUSH20 0xFFFFFFFFFFFFFFFFFFFFFFFFFFFFFFFFFFFFFFFF AND DUP4 PUSH20 0xFFFFFFFFFFFFFFFFFFFFFFFFFFFFFFFFFFFFFFFF AND PUSH32 0x17307EAB39AB6107E8899845AD3D59BD9653F200F220920489CA2B5937696C31 DUP4 PUSH1 0x40 MLOAD PUSH2 0x277C SWAP2 SWAP1 PUSH2 0x3810 JUMP JUMPDEST PUSH1 0x40 MLOAD DUP1 SWAP2 SUB SWAP1 LOG3 POP POP POP JUMP JUMPDEST PUSH2 0x2794 DUP5 DUP5 DUP5 PUSH2 0x1F61 JUMP JUMPDEST PUSH2 0x27A0 DUP5 DUP5 DUP5 DUP5 PUSH2 0x3046 JUMP JUMPDEST PUSH2 0x27DF JUMPI PUSH1 0x40 MLOAD PUSH32 0x8C379A000000000000000000000000000000000000000000000000000000000 DUP2 MSTORE PUSH1 0x4 ADD PUSH2 0x27D6 SWAP1 PUSH2 0x5460 JUMP JUMPDEST PUSH1 0x40 MLOAD DUP1 SWAP2 SUB SWAP1 REVERT JUMPDEST POP POP POP POP JUMP JUMPDEST PUSH1 0x60 PUSH1 0xF DUP1 SLOAD PUSH2 0x27F4 SWAP1 PUSH2 0x42DE JUMP JUMPDEST DUP1 PUSH1 0x1F ADD PUSH1 0x20 DUP1 SWAP2 DIV MUL PUSH1 0x20 ADD PUSH1 0x40 MLOAD SWAP1 DUP2 ADD PUSH1 0x40 MSTORE DUP1 SWAP3 SWAP2 SWAP1 DUP2 DUP2 MSTORE PUSH1 0x20 ADD DUP3 DUP1 SLOAD PUSH2 0x2820 SWAP1 PUSH2 0x42DE JUMP JUMPDEST DUP1 ISZERO PUSH2 0x286D JUMPI DUP1 PUSH1 0x1F LT PUSH2 0x2842 JUMPI PUSH2 0x100 DUP1 DUP4 SLOAD DIV MUL DUP4 MSTORE SWAP2 PUSH1 0x20 ADD SWAP2 PUSH2 0x286D JUMP JUMPDEST DUP3 ADD SWAP2 SWAP1 PUSH1 0x0 MSTORE PUSH1 0x20 PUSH1 0x0 KECCAK256 SWAP1 JUMPDEST DUP2 SLOAD DUP2 MSTORE SWAP1 PUSH1 0x1 ADD SWAP1 PUSH1 0x20 ADD DUP1 DUP4 GT PUSH2 0x2850 JUMPI DUP3 SWAP1 SUB PUSH1 0x1F AND DUP3 ADD SWAP2 JUMPDEST POP POP POP POP POP SWAP1 POP SWAP1 JUMP JUMPDEST PUSH1 0x60 PUSH1 0x0 PUSH1 0x1 PUSH2 0x2886 DUP5 PUSH2 0x31CD JUMP JUMPDEST ADD SWAP1 POP PUSH1 0x0 DUP2 PUSH8 0xFFFFFFFFFFFFFFFF DUP2 GT ISZERO PUSH2 0x28A5 JUMPI PUSH2 0x28A4 PUSH2 0x3FB0 JUMP JUMPDEST JUMPDEST PUSH1 0x40 MLOAD SWAP1 DUP1 DUP3 MSTORE DUP1 PUSH1 0x1F ADD PUSH1 0x1F NOT AND PUSH1 0x20 ADD DUP3 ADD PUSH1 0x40 MSTORE DUP1 ISZERO PUSH2 0x28D7 JUMPI DUP2 PUSH1 0x20 ADD PUSH1 0x1 DUP3 MUL DUP1 CALLDATASIZE DUP4 CALLDATACOPY DUP1 DUP3 ADD SWAP2 POP POP SWAP1 POP JUMPDEST POP SWAP1 POP PUSH1 0x0 DUP3 PUSH1 0x20 ADD DUP3 ADD SWAP1 POP JUMPDEST PUSH1 0x1 ISZERO PUSH2 0x293A JUMPI DUP1 DUP1 PUSH1 0x1 SWAP1 SUB SWAP2 POP POP PUSH32 0x3031323334353637383961626364656600000000000000000000000000000000 PUSH1 0xA DUP7 MOD BYTE DUP2 MSTORE8 PUSH1 0xA DUP6 DUP2 PUSH2 0x292E JUMPI PUSH2 0x292D PUSH2 0x4DBC JUMP JUMPDEST JUMPDEST DIV SWAP5 POP PUSH1 0x0 DUP6 SUB PUSH2 0x28E5 JUMPI JUMPDEST DUP2 SWAP4 POP POP POP POP SWAP2 SWAP1 POP JUMP JUMPDEST PUSH1 0x0 DUP2 SWAP1 POP PUSH2 0x2952 PUSH2 0x371C JUMP JUMPDEST PUSH1 0x0 JUMPDEST PUSH1 0x14 DUP2 LT ISZERO PUSH2 0x2AD0 JUMPI PUSH1 0x0 PUSH2 0x2980 DUP7 DUP4 PUSH1 0x14 DUP2 LT PUSH2 0x2976 JUMPI PUSH2 0x2975 PUSH2 0x4CF9 JUMP JUMPDEST JUMPDEST PUSH1 0x20 MUL ADD CALLDATALOAD PUSH2 0xE04 JUMP JUMPDEST SWAP1 POP CALLER PUSH20 0xFFFFFFFFFFFFFFFFFFFFFFFFFFFFFFFFFFFFFFFF AND DUP2 PUSH20 0xFFFFFFFFFFFFFFFFFFFFFFFFFFFFFFFFFFFFFFFF AND EQ PUSH2 0x29F0 JUMPI PUSH1 0x40 MLOAD PUSH32 0x8C379A000000000000000000000000000000000000000000000000000000000 DUP2 MSTORE PUSH1 0x4 ADD PUSH2 0x29E7 SWAP1 PUSH2 0x54CC JUMP JUMPDEST PUSH1 0x40 MLOAD DUP1 SWAP2 SUB SWAP1 REVERT JUMPDEST PUSH1 0x0 PUSH1 0xE PUSH1 0x0 DUP9 DUP6 PUSH1 0x14 DUP2 LT PUSH2 0x2A09 JUMPI PUSH2 0x2A08 PUSH2 0x4CF9 JUMP JUMPDEST JUMPDEST PUSH1 0x20 MUL ADD CALLDATALOAD DUP2 MSTORE PUSH1 0x20 ADD SWAP1 DUP2 MSTORE PUSH1 0x20 ADD PUSH1 0x0 KECCAK256 SLOAD SWAP1 POP PUSH1 0x14 DUP2 GT DUP1 ISZERO PUSH2 0x2A3B JUMPI POP PUSH1 0x14 DUP1 PUSH2 0x2A37 SWAP2 SWAP1 PUSH2 0x4B2C JUMP JUMPDEST DUP2 GT ISZERO JUMPDEST PUSH2 0x2A7A JUMPI PUSH1 0x40 MLOAD PUSH32 0x8C379A000000000000000000000000000000000000000000000000000000000 DUP2 MSTORE PUSH1 0x4 ADD PUSH2 0x2A71 SWAP1 PUSH2 0x5538 JUMP JUMPDEST PUSH1 0x40 MLOAD DUP1 SWAP2 SUB SWAP1 REVERT JUMPDEST DUP4 PUSH1 0x1 PUSH1 0x14 DUP4 PUSH2 0x2A8A SWAP2 SWAP1 PUSH2 0x4D28 JUMP JUMPDEST PUSH2 0x2A94 SWAP2 SWAP1 PUSH2 0x4D28 JUMP JUMPDEST PUSH1 0x14 DUP2 LT PUSH2 0x2AA5 JUMPI PUSH2 0x2AA4 PUSH2 0x4CF9 JUMP JUMPDEST JUMPDEST PUSH1 0x20 MUL ADD DUP1 MLOAD DUP1 SWAP2 SWAP1 PUSH2 0x2AB7 SWAP1 PUSH2 0x4CB1 JUMP JUMPDEST DUP2 MSTORE POP POP POP POP DUP1 DUP1 PUSH2 0x2AC8 SWAP1 PUSH2 0x4CB1 JUMP JUMPDEST SWAP2 POP POP PUSH2 0x2955 JUMP JUMPDEST POP PUSH1 0x0 JUMPDEST PUSH1 0x14 DUP2 LT ISZERO PUSH2 0x2B4B JUMPI PUSH1 0x1 DUP3 DUP3 PUSH1 0x14 DUP2 LT PUSH2 0x2AF2 JUMPI PUSH2 0x2AF1 PUSH2 0x4CF9 JUMP JUMPDEST JUMPDEST PUSH1 0x20 MUL ADD MLOAD LT ISZERO PUSH2 0x2B38 JUMPI PUSH1 0x40 MLOAD PUSH32 0x8C379A000000000000000000000000000000000000000000000000000000000 DUP2 MSTORE PUSH1 0x4 ADD PUSH2 0x2B2F SWAP1 PUSH2 0x55A4 JUMP JUMPDEST PUSH1 0x40 MLOAD DUP1 SWAP2 SUB SWAP1 REVERT JUMPDEST DUP1 DUP1 PUSH2 0x2B43 SWAP1 PUSH2 0x4CB1 JUMP JUMPDEST SWAP2 POP POP PUSH2 0x2AD4 JUMP JUMPDEST POP PUSH1 0x0 JUMPDEST PUSH1 0x14 DUP2 LT ISZERO PUSH2 0x2B8B JUMPI PUSH2 0x2B78 DUP6 DUP3 PUSH1 0x14 DUP2 LT PUSH2 0x2B6E JUMPI PUSH2 0x2B6D PUSH2 0x4CF9 JUMP JUMPDEST JUMPDEST PUSH1 0x20 MUL ADD CALLDATALOAD PUSH2 0x3320 JUMP JUMPDEST DUP1 DUP1 PUSH2 0x2B83 SWAP1 PUSH2 0x4CB1 JUMP JUMPDEST SWAP2 POP POP PUSH2 0x2B4F JUMP JUMPDEST POP POP POP POP POP JUMP JUMPDEST PUSH1 0x0 DUP2 SWAP1 POP PUSH2 0x2B9F PUSH2 0x371C JUMP JUMPDEST PUSH1 0x0 JUMPDEST PUSH1 0x64 DUP2 LT ISZERO PUSH2 0x2D07 JUMPI PUSH1 0x0 PUSH2 0x2BCD DUP7 DUP4 PUSH1 0x64 DUP2 LT PUSH2 0x2BC3 JUMPI PUSH2 0x2BC2 PUSH2 0x4CF9 JUMP JUMPDEST JUMPDEST PUSH1 0x20 MUL ADD CALLDATALOAD PUSH2 0xE04 JUMP JUMPDEST SWAP1 POP CALLER PUSH20 0xFFFFFFFFFFFFFFFFFFFFFFFFFFFFFFFFFFFFFFFF AND DUP2 PUSH20 0xFFFFFFFFFFFFFFFFFFFFFFFFFFFFFFFFFFFFFFFF AND EQ PUSH2 0x2C3D JUMPI PUSH1 0x40 MLOAD PUSH32 0x8C379A000000000000000000000000000000000000000000000000000000000 DUP2 MSTORE PUSH1 0x4 ADD PUSH2 0x2C34 SWAP1 PUSH2 0x54CC JUMP JUMPDEST PUSH1 0x40 MLOAD DUP1 SWAP2 SUB SWAP1 REVERT JUMPDEST PUSH1 0x0 PUSH1 0xE PUSH1 0x0 DUP9 DUP6 PUSH1 0x64 DUP2 LT PUSH2 0x2C56 JUMPI PUSH2 0x2C55 PUSH2 0x4CF9 JUMP JUMPDEST JUMPDEST PUSH1 0x20 MUL ADD CALLDATALOAD DUP2 MSTORE PUSH1 0x20 ADD SWAP1 DUP2 MSTORE PUSH1 0x20 ADD PUSH1 0x0 KECCAK256 SLOAD SWAP1 POP PUSH1 0x1 DUP2 LT ISZERO DUP1 ISZERO PUSH2 0x2C7E JUMPI POP PUSH1 0x14 DUP2 GT ISZERO JUMPDEST PUSH2 0x2CBD JUMPI PUSH1 0x40 MLOAD PUSH32 0x8C379A000000000000000000000000000000000000000000000000000000000 DUP2 MSTORE PUSH1 0x4 ADD PUSH2 0x2CB4 SWAP1 PUSH2 0x5610 JUMP JUMPDEST PUSH1 0x40 MLOAD DUP1 SWAP2 SUB SWAP1 REVERT JUMPDEST DUP4 PUSH1 0x1 DUP3 PUSH2 0x2CCB SWAP2 SWAP1 PUSH2 0x4D28 JUMP JUMPDEST PUSH1 0x14 DUP2 LT PUSH2 0x2CDC JUMPI PUSH2 0x2CDB PUSH2 0x4CF9 JUMP JUMPDEST JUMPDEST PUSH1 0x20 MUL ADD DUP1 MLOAD DUP1 SWAP2 SWAP1 PUSH2 0x2CEE SWAP1 PUSH2 0x4CB1 JUMP JUMPDEST DUP2 MSTORE POP POP POP POP DUP1 DUP1 PUSH2 0x2CFF SWAP1 PUSH2 0x4CB1 JUMP JUMPDEST SWAP2 POP POP PUSH2 0x2BA2 JUMP JUMPDEST POP PUSH1 0x0 JUMPDEST PUSH1 0x14 DUP2 LT ISZERO PUSH2 0x2D82 JUMPI PUSH1 0x5 DUP3 DUP3 PUSH1 0x14 DUP2 LT PUSH2 0x2D29 JUMPI PUSH2 0x2D28 PUSH2 0x4CF9 JUMP JUMPDEST JUMPDEST PUSH1 0x20 MUL ADD MLOAD LT ISZERO PUSH2 0x2D6F JUMPI PUSH1 0x40 MLOAD PUSH32 0x8C379A000000000000000000000000000000000000000000000000000000000 DUP2 MSTORE PUSH1 0x4 ADD PUSH2 0x2D66 SWAP1 PUSH2 0x567C JUMP JUMPDEST PUSH1 0x40 MLOAD DUP1 SWAP2 SUB SWAP1 REVERT JUMPDEST DUP1 DUP1 PUSH2 0x2D7A SWAP1 PUSH2 0x4CB1 JUMP JUMPDEST SWAP2 POP POP PUSH2 0x2D0B JUMP JUMPDEST POP PUSH1 0x0 JUMPDEST PUSH1 0x64 DUP2 LT ISZERO PUSH2 0x2DC2 JUMPI PUSH2 0x2DAF DUP6 DUP3 PUSH1 0x64 DUP2 LT PUSH2 0x2DA5 JUMPI PUSH2 0x2DA4 PUSH2 0x4CF9 JUMP JUMPDEST JUMPDEST PUSH1 0x20 MUL ADD CALLDATALOAD PUSH2 0x3320 JUMP JUMPDEST DUP1 DUP1 PUSH2 0x2DBA SWAP1 PUSH2 0x4CB1 JUMP JUMPDEST SWAP2 POP POP PUSH2 0x2D86 JUMP JUMPDEST POP POP POP POP POP JUMP JUMPDEST PUSH1 0x0 DUP1 DUP3 PUSH1 0x40 MLOAD PUSH1 0x20 ADD PUSH2 0x2DDD SWAP2 SWAP1 PUSH2 0x56B6 JUMP JUMPDEST PUSH1 0x40 MLOAD PUSH1 0x20 DUP2 DUP4 SUB SUB DUP2 MSTORE SWAP1 PUSH1 0x40 MSTORE DUP1 MLOAD SWAP1 PUSH1 0x20 ADD KECCAK256 SWAP1 POP PUSH1 0x1 PUSH1 0x14 DUP3 PUSH1 0x0 SHR PUSH2 0x2E07 SWAP2 SWAP1 PUSH2 0x5351 JUMP JUMPDEST PUSH2 0x2E11 SWAP2 SWAP1 PUSH2 0x4B2C JUMP JUMPDEST SWAP2 POP POP SWAP2 SWAP1 POP JUMP JUMPDEST CALLER PUSH20 0xFFFFFFFFFFFFFFFFFFFFFFFFFFFFFFFFFFFFFFFF AND DUP2 PUSH20 0xFFFFFFFFFFFFFFFFFFFFFFFFFFFFFFFFFFFFFFFF AND SUB PUSH2 0x2E87 JUMPI PUSH1 0x40 MLOAD PUSH32 0x8C379A000000000000000000000000000000000000000000000000000000000 DUP2 MSTORE PUSH1 0x4 ADD PUSH2 0x2E7E SWAP1 PUSH2 0x571E JUMP JUMPDEST PUSH1 0x40 MLOAD DUP1 SWAP2 SUB SWAP1 REVERT JUMPDEST DUP1 PUSH1 0x8 PUSH1 0x0 PUSH2 0x100 EXP DUP2 SLOAD DUP2 PUSH20 0xFFFFFFFFFFFFFFFFFFFFFFFFFFFFFFFFFFFFFFFF MUL NOT AND SWAP1 DUP4 PUSH20 0xFFFFFFFFFFFFFFFFFFFFFFFFFFFFFFFFFFFFFFFF AND MUL OR SWAP1 SSTORE POP DUP1 PUSH20 0xFFFFFFFFFFFFFFFFFFFFFFFFFFFFFFFFFFFFFFFF AND PUSH1 0x7 PUSH1 0x0 SWAP1 SLOAD SWAP1 PUSH2 0x100 EXP SWAP1 DIV PUSH20 0xFFFFFFFFFFFFFFFFFFFFFFFFFFFFFFFFFFFFFFFF AND PUSH20 0xFFFFFFFFFFFFFFFFFFFFFFFFFFFFFFFFFFFFFFFF AND PUSH32 0xED8889F560326EB138920D842192F0EB3DD22B4F139C87A2C57538E05BAE1278 PUSH1 0x40 MLOAD PUSH1 0x40 MLOAD DUP1 SWAP2 SUB SWAP1 LOG3 POP JUMP JUMPDEST POP POP POP POP JUMP JUMPDEST POP POP POP POP JUMP JUMPDEST PUSH2 0x2F5D DUP4 DUP4 PUSH2 0x346E JUMP JUMPDEST PUSH2 0x2F6A PUSH1 0x0 DUP5 DUP5 DUP5 PUSH2 0x3046 JUMP JUMPDEST PUSH2 0x2FA9 JUMPI PUSH1 0x40 MLOAD PUSH32 0x8C379A000000000000000000000000000000000000000000000000000000000 DUP2 MSTORE PUSH1 0x4 ADD PUSH2 0x2FA0 SWAP1 PUSH2 0x5460 JUMP JUMPDEST PUSH1 0x40 MLOAD DUP1 SWAP2 SUB SWAP1 REVERT JUMPDEST POP POP POP JUMP JUMPDEST PUSH1 0x60 PUSH32 0x92FD13387C7FE7BEFBC38D303D6468778FB9731BC4583F17D92989C6FCFDEAAA DUP3 PUSH1 0x40 MLOAD PUSH1 0x24 ADD PUSH2 0x2FE2 SWAP2 SWAP1 PUSH2 0x5769 JUMP JUMPDEST PUSH1 0x40 MLOAD PUSH1 0x20 DUP2 DUP4 SUB SUB DUP2 MSTORE SWAP1 PUSH1 0x40 MSTORE SWAP1 PUSH28 0xFFFFFFFFFFFFFFFFFFFFFFFFFFFFFFFFFFFFFFFFFFFFFFFFFFFFFFFF NOT AND PUSH1 0x20 DUP3 ADD DUP1 MLOAD PUSH28 0xFFFFFFFFFFFFFFFFFFFFFFFFFFFFFFFFFFFFFFFFFFFFFFFFFFFFFFFF DUP4 DUP2 DUP4 AND OR DUP4 MSTORE POP POP POP POP SWAP1 POP SWAP2 SWAP1 POP JUMP JUMPDEST PUSH1 0x0 PUSH2 0x3067 DUP5 PUSH20 0xFFFFFFFFFFFFFFFFFFFFFFFFFFFFFFFFFFFFFFFF AND PUSH2 0x368B JUMP JUMPDEST ISZERO PUSH2 0x31C0 JUMPI DUP4 PUSH20 0xFFFFFFFFFFFFFFFFFFFFFFFFFFFFFFFFFFFFFFFF AND PUSH4 0x150B7A02 PUSH2 0x3090 PUSH2 0x1C99 JUMP JUMPDEST DUP8 DUP7 DUP7 PUSH1 0x40 MLOAD DUP6 PUSH4 0xFFFFFFFF AND PUSH1 0xE0 SHL DUP2 MSTORE PUSH1 0x4 ADD PUSH2 0x30B2 SWAP5 SWAP4 SWAP3 SWAP2 SWAP1 PUSH2 0x57CE JUMP JUMPDEST PUSH1 0x20 PUSH1 0x40 MLOAD DUP1 DUP4 SUB DUP2 PUSH1 0x0 DUP8 GAS CALL SWAP3 POP POP POP DUP1 ISZERO PUSH2 0x30EE JUMPI POP PUSH1 0x40 MLOAD RETURNDATASIZE PUSH1 0x1F NOT PUSH1 0x1F DUP3 ADD AND DUP3 ADD DUP1 PUSH1 0x40 MSTORE POP DUP2 ADD SWAP1 PUSH2 0x30EB SWAP2 SWAP1 PUSH2 0x582F JUMP JUMPDEST PUSH1 0x1 JUMPDEST PUSH2 0x3170 JUMPI RETURNDATASIZE DUP1 PUSH1 0x0 DUP2 EQ PUSH2 0x311E JUMPI PUSH1 0x40 MLOAD SWAP2 POP PUSH1 0x1F NOT PUSH1 0x3F RETURNDATASIZE ADD AND DUP3 ADD PUSH1 0x40 MSTORE RETURNDATASIZE DUP3 MSTORE RETURNDATASIZE PUSH1 0x0 PUSH1 0x20 DUP5 ADD RETURNDATACOPY PUSH2 0x3123 JUMP JUMPDEST PUSH1 0x60 SWAP2 POP JUMPDEST POP PUSH1 0x0 DUP2 MLOAD SUB PUSH2 0x3168 JUMPI PUSH1 0x40 MLOAD PUSH32 0x8C379A000000000000000000000000000000000000000000000000000000000 DUP2 MSTORE PUSH1 0x4 ADD PUSH2 0x315F SWAP1 PUSH2 0x5460 JUMP JUMPDEST PUSH1 0x40 MLOAD DUP1 SWAP2 SUB SWAP1 REVERT JUMPDEST DUP1 MLOAD DUP2 PUSH1 0x20 ADD REVERT JUMPDEST PUSH4 0x150B7A02 PUSH1 0xE0 SHL PUSH28 0xFFFFFFFFFFFFFFFFFFFFFFFFFFFFFFFFFFFFFFFFFFFFFFFFFFFFFFFF NOT AND DUP2 PUSH28 0xFFFFFFFFFFFFFFFFFFFFFFFFFFFFFFFFFFFFFFFFFFFFFFFFFFFFFFFF NOT AND EQ SWAP2 POP POP PUSH2 0x31C5 JUMP JUMPDEST PUSH1 0x1 SWAP1 POP JUMPDEST SWAP5 SWAP4 POP POP POP POP JUMP JUMPDEST PUSH1 0x0 DUP1 PUSH1 0x0 SWAP1 POP PUSH27 0x184F03E93FF9F4DAA797ED6E38ED64BF6A1F010000000000000000 DUP4 LT PUSH2 0x322B JUMPI PUSH27 0x184F03E93FF9F4DAA797ED6E38ED64BF6A1F010000000000000000 DUP4 DUP2 PUSH2 0x3221 JUMPI PUSH2 0x3220 PUSH2 0x4DBC JUMP JUMPDEST JUMPDEST DIV SWAP3 POP PUSH1 0x40 DUP2 ADD SWAP1 POP JUMPDEST PUSH14 0x4EE2D6D415B85ACEF8100000000 DUP4 LT PUSH2 0x3268 JUMPI PUSH14 0x4EE2D6D415B85ACEF8100000000 DUP4 DUP2 PUSH2 0x325E JUMPI PUSH2 0x325D PUSH2 0x4DBC JUMP JUMPDEST JUMPDEST DIV SWAP3 POP PUSH1 0x20 DUP2 ADD SWAP1 POP JUMPDEST PUSH7 0x2386F26FC10000 DUP4 LT PUSH2 0x3297 JUMPI PUSH7 0x2386F26FC10000 DUP4 DUP2 PUSH2 0x328D JUMPI PUSH2 0x328C PUSH2 0x4DBC JUMP JUMPDEST JUMPDEST DIV SWAP3 POP PUSH1 0x10 DUP2 ADD SWAP1 POP JUMPDEST PUSH4 0x5F5E100 DUP4 LT PUSH2 0x32C0 JUMPI PUSH4 0x5F5E100 DUP4 DUP2 PUSH2 0x32B6 JUMPI PUSH2 0x32B5 PUSH2 0x4DBC JUMP JUMPDEST JUMPDEST DIV SWAP3 POP PUSH1 0x8 DUP2 ADD SWAP1 POP JUMPDEST PUSH2 0x2710 DUP4 LT PUSH2 0x32E5 JUMPI PUSH2 0x2710 DUP4 DUP2 PUSH2 0x32DB JUMPI PUSH2 0x32DA PUSH2 0x4DBC JUMP JUMPDEST JUMPDEST DIV SWAP3 POP PUSH1 0x4 DUP2 ADD SWAP1 POP JUMPDEST PUSH1 0x64 DUP4 LT PUSH2 0x3308 JUMPI PUSH1 0x64 DUP4 DUP2 PUSH2 0x32FE JUMPI PUSH2 0x32FD PUSH2 0x4DBC JUMP JUMPDEST JUMPDEST DIV SWAP3 POP PUSH1 0x2 DUP2 ADD SWAP1 POP JUMPDEST PUSH1 0xA DUP4 LT PUSH2 0x3317 JUMPI PUSH1 0x1 DUP2 ADD SWAP1 POP JUMPDEST DUP1 SWAP2 POP POP SWAP2 SWAP1 POP JUMP JUMPDEST PUSH1 0x0 PUSH2 0x332B DUP3 PUSH2 0xE04 JUMP JUMPDEST SWAP1 POP PUSH2 0x333B DUP2 PUSH1 0x0 DUP5 PUSH1 0x1 PUSH2 0x2F47 JUMP JUMPDEST PUSH2 0x3344 DUP3 PUSH2 0xE04 JUMP JUMPDEST SWAP1 POP PUSH1 0x4 PUSH1 0x0 DUP4 DUP2 MSTORE PUSH1 0x20 ADD SWAP1 DUP2 MSTORE PUSH1 0x20 ADD PUSH1 0x0 KECCAK256 PUSH1 0x0 PUSH2 0x100 EXP DUP2 SLOAD SWAP1 PUSH20 0xFFFFFFFFFFFFFFFFFFFFFFFFFFFFFFFFFFFFFFFF MUL NOT AND SWAP1 SSTORE PUSH1 0x1 PUSH1 0x3 PUSH1 0x0 DUP4 PUSH20 0xFFFFFFFFFFFFFFFFFFFFFFFFFFFFFFFFFFFFFFFF AND PUSH20 0xFFFFFFFFFFFFFFFFFFFFFFFFFFFFFFFFFFFFFFFF AND DUP2 MSTORE PUSH1 0x20 ADD SWAP1 DUP2 MSTORE PUSH1 0x20 ADD PUSH1 0x0 KECCAK256 PUSH1 0x0 DUP3 DUP3 SLOAD SUB SWAP3 POP POP DUP2 SWAP1 SSTORE POP PUSH1 0x2 PUSH1 0x0 DUP4 DUP2 MSTORE PUSH1 0x20 ADD SWAP1 DUP2 MSTORE PUSH1 0x20 ADD PUSH1 0x0 KECCAK256 PUSH1 0x0 PUSH2 0x100 EXP DUP2 SLOAD SWAP1 PUSH20 0xFFFFFFFFFFFFFFFFFFFFFFFFFFFFFFFFFFFFFFFF MUL NOT AND SWAP1 SSTORE DUP2 PUSH1 0x0 PUSH20 0xFFFFFFFFFFFFFFFFFFFFFFFFFFFFFFFFFFFFFFFF AND DUP3 PUSH20 0xFFFFFFFFFFFFFFFFFFFFFFFFFFFFFFFFFFFFFFFF AND PUSH32 0xDDF252AD1BE2C89B69C2B068FC378DAA952BA7F163C4A11628F55A4DF523B3EF PUSH1 0x40 MLOAD PUSH1 0x40 MLOAD DUP1 SWAP2 SUB SWAP1 LOG4 PUSH2 0x346A DUP2 PUSH1 0x0 DUP5 PUSH1 0x1 PUSH2 0x2F4D JUMP JUMPDEST POP POP JUMP JUMPDEST PUSH1 0x0 PUSH20 0xFFFFFFFFFFFFFFFFFFFFFFFFFFFFFFFFFFFFFFFF AND DUP3 PUSH20 0xFFFFFFFFFFFFFFFFFFFFFFFFFFFFFFFFFFFFFFFF AND SUB PUSH2 0x34DD JUMPI PUSH1 0x40 MLOAD PUSH32 0x8C379A000000000000000000000000000000000000000000000000000000000 DUP2 MSTORE PUSH1 0x4 ADD PUSH2 0x34D4 SWAP1 PUSH2 0x58A8 JUMP JUMPDEST PUSH1 0x40 MLOAD DUP1 SWAP2 SUB SWAP1 REVERT JUMPDEST PUSH2 0x34E6 DUP2 PUSH2 0x2329 JUMP JUMPDEST ISZERO PUSH2 0x3526 JUMPI PUSH1 0x40 MLOAD PUSH32 0x8C379A000000000000000000000000000000000000000000000000000000000 DUP2 MSTORE PUSH1 0x4 ADD PUSH2 0x351D SWAP1 PUSH2 0x5914 JUMP JUMPDEST PUSH1 0x40 MLOAD DUP1 SWAP2 SUB SWAP1 REVERT JUMPDEST PUSH2 0x3534 PUSH1 0x0 DUP4 DUP4 PUSH1 0x1 PUSH2 0x2F47 JUMP JUMPDEST PUSH2 0x353D DUP2 PUSH2 0x2329 JUMP JUMPDEST ISZERO PUSH2 0x357D JUMPI PUSH1 0x40 MLOAD PUSH32 0x8C379A000000000000000000000000000000000000000000000000000000000 DUP2 MSTORE PUSH1 0x4 ADD PUSH2 0x3574 SWAP1 PUSH2 0x5914 JUMP JUMPDEST PUSH1 0x40 MLOAD DUP1 SWAP2 SUB SWAP1 REVERT JUMPDEST PUSH1 0x1 PUSH1 0x3 PUSH1 0x0 DUP5 PUSH20 0xFFFFFFFFFFFFFFFFFFFFFFFFFFFFFFFFFFFFFFFF AND PUSH20 0xFFFFFFFFFFFFFFFFFFFFFFFFFFFFFFFFFFFFFFFF AND DUP2 MSTORE PUSH1 0x20 ADD SWAP1 DUP2 MSTORE PUSH1 0x20 ADD PUSH1 0x0 KECCAK256 PUSH1 0x0 DUP3 DUP3 SLOAD ADD SWAP3 POP POP DUP2 SWAP1 SSTORE POP DUP2 PUSH1 0x2 PUSH1 0x0 DUP4 DUP2 MSTORE PUSH1 0x20 ADD SWAP1 DUP2 MSTORE PUSH1 0x20 ADD PUSH1 0x0 KECCAK256 PUSH1 0x0 PUSH2 0x100 EXP DUP2 SLOAD DUP2 PUSH20 0xFFFFFFFFFFFFFFFFFFFFFFFFFFFFFFFFFFFFFFFF MUL NOT AND SWAP1 DUP4 PUSH20 0xFFFFFFFFFFFFFFFFFFFFFFFFFFFFFFFFFFFFFFFF AND MUL OR SWAP1 SSTORE POP DUP1 DUP3 PUSH20 0xFFFFFFFFFFFFFFFFFFFFFFFFFFFFFFFFFFFFFFFF AND PUSH1 0x0 PUSH20 0xFFFFFFFFFFFFFFFFFFFFFFFFFFFFFFFFFFFFFFFF AND PUSH32 0xDDF252AD1BE2C89B69C2B068FC378DAA952BA7F163C4A11628F55A4DF523B3EF PUSH1 0x40 MLOAD PUSH1 0x40 MLOAD DUP1 SWAP2 SUB SWAP1 LOG4 PUSH2 0x3687 PUSH1 0x0 DUP4 DUP4 PUSH1 0x1 PUSH2 0x2F4D JUMP JUMPDEST POP POP JUMP JUMPDEST PUSH1 0x0 DUP1 DUP3 PUSH20 0xFFFFFFFFFFFFFFFFFFFFFFFFFFFFFFFFFFFFFFFF AND EXTCODESIZE GT SWAP1 POP SWAP2 SWAP1 POP JUMP JUMPDEST DUP3 DUP1 SLOAD DUP3 DUP3 SSTORE SWAP1 PUSH1 0x0 MSTORE PUSH1 0x20 PUSH1 0x0 KECCAK256 SWAP1 DUP2 ADD SWAP3 DUP3 ISZERO PUSH2 0x36EA JUMPI SWAP2 PUSH1 0x20 MUL DUP3 ADD JUMPDEST DUP3 DUP2 GT ISZERO PUSH2 0x36E9 JUMPI DUP3 MLOAD DUP3 SSTORE SWAP2 PUSH1 0x20 ADD SWAP2 SWAP1 PUSH1 0x1 ADD SWAP1 PUSH2 0x36CE JUMP JUMPDEST JUMPDEST POP SWAP1 POP PUSH2 0x36F7 SWAP2 SWAP1 PUSH2 0x373F JUMP JUMPDEST POP SWAP1 JUMP JUMPDEST POP DUP1 SLOAD PUSH1 0x0 DUP3 SSTORE SWAP1 PUSH1 0x0 MSTORE PUSH1 0x20 PUSH1 0x0 KECCAK256 SWAP1 DUP2 ADD SWAP1 PUSH2 0x3719 SWAP2 SWAP1 PUSH2 0x373F JUMP JUMPDEST POP JUMP JUMPDEST PUSH1 0x40 MLOAD DUP1 PUSH2 0x280 ADD PUSH1 0x40 MSTORE DUP1 PUSH1 0x14 SWAP1 PUSH1 0x20 DUP3 MUL DUP1 CALLDATASIZE DUP4 CALLDATACOPY DUP1 DUP3 ADD SWAP2 POP POP SWAP1 POP POP SWAP1 JUMP JUMPDEST JUMPDEST DUP1 DUP3 GT ISZERO PUSH2 0x3758 JUMPI PUSH1 0x0 DUP2 PUSH1 0x0 SWAP1 SSTORE POP PUSH1 0x1 ADD PUSH2 0x3740 JUMP JUMPDEST POP SWAP1 JUMP JUMPDEST PUSH1 0x0 PUSH1 0x40 MLOAD SWAP1 POP SWAP1 JUMP JUMPDEST PUSH1 0x0 DUP1 REVERT JUMPDEST PUSH1 0x0 DUP1 REVERT JUMPDEST PUSH1 0x0 PUSH32 0xFFFFFFFF00000000000000000000000000000000000000000000000000000000 DUP3 AND SWAP1 POP SWAP2 SWAP1 POP JUMP JUMPDEST PUSH2 0x37A5 DUP2 PUSH2 0x3770 JUMP JUMPDEST DUP2 EQ PUSH2 0x37B0 JUMPI PUSH1 0x0 DUP1 REVERT JUMPDEST POP JUMP JUMPDEST PUSH1 0x0 DUP2 CALLDATALOAD SWAP1 POP PUSH2 0x37C2 DUP2 PUSH2 0x379C JUMP JUMPDEST SWAP3 SWAP2 POP POP JUMP JUMPDEST PUSH1 0x0 PUSH1 0x20 DUP3 DUP5 SUB SLT ISZERO PUSH2 0x37DE JUMPI PUSH2 0x37DD PUSH2 0x3766 JUMP JUMPDEST JUMPDEST PUSH1 0x0 PUSH2 0x37EC DUP5 DUP3 DUP6 ADD PUSH2 0x37B3 JUMP JUMPDEST SWAP2 POP POP SWAP3 SWAP2 POP POP JUMP JUMPDEST PUSH1 0x0 DUP2 ISZERO ISZERO SWAP1 POP SWAP2 SWAP1 POP JUMP JUMPDEST PUSH2 0x380A DUP2 PUSH2 0x37F5 JUMP JUMPDEST DUP3 MSTORE POP POP JUMP JUMPDEST PUSH1 0x0 PUSH1 0x20 DUP3 ADD SWAP1 POP PUSH2 0x3825 PUSH1 0x0 DUP4 ADD DUP5 PUSH2 0x3801 JUMP JUMPDEST SWAP3 SWAP2 POP POP JUMP JUMPDEST PUSH1 0x0 DUP2 SWAP1 POP SWAP2 SWAP1 POP JUMP JUMPDEST PUSH2 0x383E DUP2 PUSH2 0x382B JUMP JUMPDEST DUP3 MSTORE POP POP JUMP JUMPDEST PUSH1 0x0 PUSH1 0x20 DUP3 ADD SWAP1 POP PUSH2 0x3859 PUSH1 0x0 DUP4 ADD DUP5 PUSH2 0x3835 JUMP JUMPDEST SWAP3 SWAP2 POP POP JUMP JUMPDEST PUSH1 0x0 DUP2 MLOAD SWAP1 POP SWAP2 SWAP1 POP JUMP JUMPDEST PUSH1 0x0 DUP3 DUP3 MSTORE PUSH1 0x20 DUP3 ADD SWAP1 POP SWAP3 SWAP2 POP POP JUMP JUMPDEST PUSH1 0x0 JUMPDEST DUP4 DUP2 LT ISZERO PUSH2 0x3899 JUMPI DUP1 DUP3 ADD MLOAD DUP2 DUP5 ADD MSTORE PUSH1 0x20 DUP2 ADD SWAP1 POP PUSH2 0x387E JUMP JUMPDEST PUSH1 0x0 DUP5 DUP5 ADD MSTORE POP POP POP POP JUMP JUMPDEST PUSH1 0x0 PUSH1 0x1F NOT PUSH1 0x1F DUP4 ADD AND SWAP1 POP SWAP2 SWAP1 POP JUMP JUMPDEST PUSH1 0x0 PUSH2 0x38C1 DUP3 PUSH2 0x385F JUMP JUMPDEST PUSH2 0x38CB DUP2 DUP6 PUSH2 0x386A JUMP JUMPDEST SWAP4 POP PUSH2 0x38DB DUP2 DUP6 PUSH1 0x20 DUP7 ADD PUSH2 0x387B JUMP JUMPDEST PUSH2 0x38E4 DUP2 PUSH2 0x38A5 JUMP JUMPDEST DUP5 ADD SWAP2 POP POP SWAP3 SWAP2 POP POP JUMP JUMPDEST PUSH1 0x0 PUSH1 0x20 DUP3 ADD SWAP1 POP DUP2 DUP2 SUB PUSH1 0x0 DUP4 ADD MSTORE PUSH2 0x3909 DUP2 DUP5 PUSH2 0x38B6 JUMP JUMPDEST SWAP1 POP SWAP3 SWAP2 POP POP JUMP JUMPDEST PUSH2 0x391A DUP2 PUSH2 0x382B JUMP JUMPDEST DUP2 EQ PUSH2 0x3925 JUMPI PUSH1 0x0 DUP1 REVERT JUMPDEST POP JUMP JUMPDEST PUSH1 0x0 DUP2 CALLDATALOAD SWAP1 POP PUSH2 0x3937 DUP2 PUSH2 0x3911 JUMP JUMPDEST SWAP3 SWAP2 POP POP JUMP JUMPDEST PUSH1 0x0 PUSH1 0x20 DUP3 DUP5 SUB SLT ISZERO PUSH2 0x3953 JUMPI PUSH2 0x3952 PUSH2 0x3766 JUMP JUMPDEST JUMPDEST PUSH1 0x0 PUSH2 0x3961 DUP5 DUP3 DUP6 ADD PUSH2 0x3928 JUMP JUMPDEST SWAP2 POP POP SWAP3 SWAP2 POP POP JUMP JUMPDEST PUSH1 0x0 PUSH20 0xFFFFFFFFFFFFFFFFFFFFFFFFFFFFFFFFFFFFFFFF DUP3 AND SWAP1 POP SWAP2 SWAP1 POP JUMP JUMPDEST PUSH1 0x0 PUSH2 0x3995 DUP3 PUSH2 0x396A JUMP JUMPDEST SWAP1 POP SWAP2 SWAP1 POP JUMP JUMPDEST PUSH2 0x39A5 DUP2 PUSH2 0x398A JUMP JUMPDEST DUP3 MSTORE POP POP JUMP JUMPDEST PUSH1 0x0 PUSH1 0x20 DUP3 ADD SWAP1 POP PUSH2 0x39C0 PUSH1 0x0 DUP4 ADD DUP5 PUSH2 0x399C JUMP JUMPDEST SWAP3 SWAP2 POP POP JUMP JUMPDEST PUSH2 0x39CF DUP2 PUSH2 0x398A JUMP JUMPDEST DUP2 EQ PUSH2 0x39DA JUMPI PUSH1 0x0 DUP1 REVERT JUMPDEST POP JUMP JUMPDEST PUSH1 0x0 DUP2 CALLDATALOAD SWAP1 POP PUSH2 0x39EC DUP2 PUSH2 0x39C6 JUMP JUMPDEST SWAP3 SWAP2 POP POP JUMP JUMPDEST PUSH1 0x0 DUP1 PUSH1 0x40 DUP4 DUP6 SUB SLT ISZERO PUSH2 0x3A09 JUMPI PUSH2 0x3A08 PUSH2 0x3766 JUMP JUMPDEST JUMPDEST PUSH1 0x0 PUSH2 0x3A17 DUP6 DUP3 DUP7 ADD PUSH2 0x39DD JUMP JUMPDEST SWAP3 POP POP PUSH1 0x20 PUSH2 0x3A28 DUP6 DUP3 DUP7 ADD PUSH2 0x3928 JUMP JUMPDEST SWAP2 POP POP SWAP3 POP SWAP3 SWAP1 POP JUMP JUMPDEST PUSH1 0x0 DUP1 REVERT JUMPDEST PUSH1 0x0 DUP1 REVERT JUMPDEST PUSH1 0x0 DUP1 REVERT JUMPDEST PUSH1 0x0 DUP1 DUP4 PUSH1 0x1F DUP5 ADD SLT PUSH2 0x3A57 JUMPI PUSH2 0x3A56 PUSH2 0x3A32 JUMP JUMPDEST JUMPDEST DUP3 CALLDATALOAD SWAP1 POP PUSH8 0xFFFFFFFFFFFFFFFF DUP2 GT ISZERO PUSH2 0x3A74 JUMPI PUSH2 0x3A73 PUSH2 0x3A37 JUMP JUMPDEST JUMPDEST PUSH1 0x20 DUP4 ADD SWAP2 POP DUP4 PUSH1 0x20 DUP3 MUL DUP4 ADD GT ISZERO PUSH2 0x3A90 JUMPI PUSH2 0x3A8F PUSH2 0x3A3C JUMP JUMPDEST JUMPDEST SWAP3 POP SWAP3 SWAP1 POP JUMP JUMPDEST PUSH1 0x0 DUP1 PUSH1 0x0 PUSH1 0x40 DUP5 DUP7 SUB SLT ISZERO PUSH2 0x3AB0 JUMPI PUSH2 0x3AAF PUSH2 0x3766 JUMP JUMPDEST JUMPDEST PUSH1 0x0 PUSH2 0x3ABE DUP7 DUP3 DUP8 ADD PUSH2 0x3928 JUMP JUMPDEST SWAP4 POP POP PUSH1 0x20 DUP5 ADD CALLDATALOAD PUSH8 0xFFFFFFFFFFFFFFFF DUP2 GT ISZERO PUSH2 0x3ADF JUMPI PUSH2 0x3ADE PUSH2 0x376B JUMP JUMPDEST JUMPDEST PUSH2 0x3AEB DUP7 DUP3 DUP8 ADD PUSH2 0x3A41 JUMP JUMPDEST SWAP3 POP SWAP3 POP POP SWAP3 POP SWAP3 POP SWAP3 JUMP JUMPDEST PUSH1 0x0 DUP1 PUSH1 0x0 PUSH1 0x60 DUP5 DUP7 SUB SLT ISZERO PUSH2 0x3B10 JUMPI PUSH2 0x3B0F PUSH2 0x3766 JUMP JUMPDEST JUMPDEST PUSH1 0x0 PUSH2 0x3B1E DUP7 DUP3 DUP8 ADD PUSH2 0x39DD JUMP JUMPDEST SWAP4 POP POP PUSH1 0x20 PUSH2 0x3B2F DUP7 DUP3 DUP8 ADD PUSH2 0x39DD JUMP JUMPDEST SWAP3 POP POP PUSH1 0x40 PUSH2 0x3B40 DUP7 DUP3 DUP8 ADD PUSH2 0x3928 JUMP JUMPDEST SWAP2 POP POP SWAP3 POP SWAP3 POP SWAP3 JUMP JUMPDEST PUSH1 0x0 PUSH4 0xFFFFFFFF DUP3 AND SWAP1 POP SWAP2 SWAP1 POP JUMP JUMPDEST PUSH2 0x3B63 DUP2 PUSH2 0x3B4A JUMP JUMPDEST DUP3 MSTORE POP POP JUMP JUMPDEST PUSH1 0x0 PUSH1 0x20 DUP3 ADD SWAP1 POP PUSH2 0x3B7E PUSH1 0x0 DUP4 ADD DUP5 PUSH2 0x3B5A JUMP JUMPDEST SWAP3 SWAP2 POP POP JUMP JUMPDEST PUSH1 0x0 DUP2 SWAP1 POP SWAP2 SWAP1 POP JUMP JUMPDEST PUSH1 0x0 PUSH2 0x3BA9 PUSH2 0x3BA4 PUSH2 0x3B9F DUP5 PUSH2 0x396A JUMP JUMPDEST PUSH2 0x3B84 JUMP JUMPDEST PUSH2 0x396A JUMP JUMPDEST SWAP1 POP SWAP2 SWAP1 POP JUMP JUMPDEST PUSH1 0x0 PUSH2 0x3BBB DUP3 PUSH2 0x3B8E JUMP JUMPDEST SWAP1 POP SWAP2 SWAP1 POP JUMP JUMPDEST PUSH1 0x0 PUSH2 0x3BCD DUP3 PUSH2 0x3BB0 JUMP JUMPDEST SWAP1 POP SWAP2 SWAP1 POP JUMP JUMPDEST PUSH2 0x3BDD DUP2 PUSH2 0x3BC2 JUMP JUMPDEST DUP3 MSTORE POP POP JUMP JUMPDEST PUSH1 0x0 PUSH1 0x20 DUP3 ADD SWAP1 POP PUSH2 0x3BF8 PUSH1 0x0 DUP4 ADD DUP5 PUSH2 0x3BD4 JUMP JUMPDEST SWAP3 SWAP2 POP POP JUMP JUMPDEST PUSH1 0x0 PUSH2 0x3C09 DUP3 PUSH2 0x3BB0 JUMP JUMPDEST SWAP1 POP SWAP2 SWAP1 POP JUMP JUMPDEST PUSH2 0x3C19 DUP2 PUSH2 0x3BFE JUMP JUMPDEST DUP3 MSTORE POP POP JUMP JUMPDEST PUSH1 0x0 PUSH1 0x20 DUP3 ADD SWAP1 POP PUSH2 0x3C34 PUSH1 0x0 DUP4 ADD DUP5 PUSH2 0x3C10 JUMP JUMPDEST SWAP3 SWAP2 POP POP JUMP JUMPDEST PUSH1 0x0 PUSH1 0x20 DUP3 DUP5 SUB SLT ISZERO PUSH2 0x3C50 JUMPI PUSH2 0x3C4F PUSH2 0x3766 JUMP JUMPDEST JUMPDEST PUSH1 0x0 PUSH2 0x3C5E DUP5 DUP3 DUP6 ADD PUSH2 0x39DD JUMP JUMPDEST SWAP2 POP POP SWAP3 SWAP2 POP POP JUMP JUMPDEST PUSH1 0x0 DUP1 DUP4 PUSH1 0x1F DUP5 ADD SLT PUSH2 0x3C7D JUMPI PUSH2 0x3C7C PUSH2 0x3A32 JUMP JUMPDEST JUMPDEST DUP3 CALLDATALOAD SWAP1 POP PUSH8 0xFFFFFFFFFFFFFFFF DUP2 GT ISZERO PUSH2 0x3C9A JUMPI PUSH2 0x3C99 PUSH2 0x3A37 JUMP JUMPDEST JUMPDEST PUSH1 0x20 DUP4 ADD SWAP2 POP DUP4 PUSH1 0x1 DUP3 MUL DUP4 ADD GT ISZERO PUSH2 0x3CB6 JUMPI PUSH2 0x3CB5 PUSH2 0x3A3C JUMP JUMPDEST JUMPDEST SWAP3 POP SWAP3 SWAP1 POP JUMP JUMPDEST PUSH1 0x0 DUP1 PUSH1 0x20 DUP4 DUP6 SUB SLT ISZERO PUSH2 0x3CD4 JUMPI PUSH2 0x3CD3 PUSH2 0x3766 JUMP JUMPDEST JUMPDEST PUSH1 0x0 DUP4 ADD CALLDATALOAD PUSH8 0xFFFFFFFFFFFFFFFF DUP2 GT ISZERO PUSH2 0x3CF2 JUMPI PUSH2 0x3CF1 PUSH2 0x376B JUMP JUMPDEST JUMPDEST PUSH2 0x3CFE DUP6 DUP3 DUP7 ADD PUSH2 0x3C67 JUMP JUMPDEST SWAP3 POP SWAP3 POP POP SWAP3 POP SWAP3 SWAP1 POP JUMP JUMPDEST PUSH1 0x0 DUP2 SWAP1 POP SWAP2 SWAP1 POP JUMP JUMPDEST PUSH2 0x3D1D DUP2 PUSH2 0x3D0A JUMP JUMPDEST DUP3 MSTORE POP POP JUMP JUMPDEST PUSH1 0x0 PUSH1 0x20 DUP3 ADD SWAP1 POP PUSH2 0x3D38 PUSH1 0x0 DUP4 ADD DUP5 PUSH2 0x3D14 JUMP JUMPDEST SWAP3 SWAP2 POP POP JUMP JUMPDEST PUSH1 0x0 DUP1 DUP4 PUSH1 0x1F DUP5 ADD SLT PUSH2 0x3D54 JUMPI PUSH2 0x3D53 PUSH2 0x3A32 JUMP JUMPDEST JUMPDEST DUP3 CALLDATALOAD SWAP1 POP PUSH8 0xFFFFFFFFFFFFFFFF DUP2 GT ISZERO PUSH2 0x3D71 JUMPI PUSH2 0x3D70 PUSH2 0x3A37 JUMP JUMPDEST JUMPDEST PUSH1 0x20 DUP4 ADD SWAP2 POP DUP4 PUSH1 0x1 DUP3 MUL DUP4 ADD GT ISZERO PUSH2 0x3D8D JUMPI PUSH2 0x3D8C PUSH2 0x3A3C JUMP JUMPDEST JUMPDEST SWAP3 POP SWAP3 SWAP1 POP JUMP JUMPDEST PUSH1 0x0 DUP1 PUSH1 0x0 DUP1 PUSH1 0x60 DUP6 DUP8 SUB SLT ISZERO PUSH2 0x3DAE JUMPI PUSH2 0x3DAD PUSH2 0x3766 JUMP JUMPDEST JUMPDEST PUSH1 0x0 PUSH2 0x3DBC DUP8 DUP3 DUP9 ADD PUSH2 0x39DD JUMP JUMPDEST SWAP5 POP POP PUSH1 0x20 PUSH2 0x3DCD DUP8 DUP3 DUP9 ADD PUSH2 0x3928 JUMP JUMPDEST SWAP4 POP POP PUSH1 0x40 DUP6 ADD CALLDATALOAD PUSH8 0xFFFFFFFFFFFFFFFF DUP2 GT ISZERO PUSH2 0x3DEE JUMPI PUSH2 0x3DED PUSH2 0x376B JUMP JUMPDEST JUMPDEST PUSH2 0x3DFA DUP8 DUP3 DUP9 ADD PUSH2 0x3D3E JUMP JUMPDEST SWAP3 POP SWAP3 POP POP SWAP3 SWAP6 SWAP2 SWAP5 POP SWAP3 POP JUMP JUMPDEST PUSH2 0x3E11 DUP2 PUSH2 0x37F5 JUMP JUMPDEST DUP2 EQ PUSH2 0x3E1C JUMPI PUSH1 0x0 DUP1 REVERT JUMPDEST POP JUMP JUMPDEST PUSH1 0x0 DUP2 CALLDATALOAD SWAP1 POP PUSH2 0x3E2E DUP2 PUSH2 0x3E08 JUMP JUMPDEST SWAP3 SWAP2 POP POP JUMP JUMPDEST PUSH1 0x0 DUP1 PUSH1 0x40 DUP4 DUP6 SUB SLT ISZERO PUSH2 0x3E4B JUMPI PUSH2 0x3E4A PUSH2 0x3766 JUMP JUMPDEST JUMPDEST PUSH1 0x0 PUSH2 0x3E59 DUP6 DUP3 DUP7 ADD PUSH2 0x39DD JUMP JUMPDEST SWAP3 POP POP PUSH1 0x20 PUSH2 0x3E6A DUP6 DUP3 DUP7 ADD PUSH2 0x3E1F JUMP JUMPDEST SWAP2 POP POP SWAP3 POP SWAP3 SWAP1 POP JUMP JUMPDEST PUSH2 0x3E7D DUP2 PUSH2 0x3D0A JUMP JUMPDEST DUP2 EQ PUSH2 0x3E88 JUMPI PUSH1 0x0 DUP1 REVERT JUMPDEST POP JUMP JUMPDEST PUSH1 0x0 DUP2 CALLDATALOAD SWAP1 POP PUSH2 0x3E9A DUP2 PUSH2 0x3E74 JUMP JUMPDEST SWAP3 SWAP2 POP POP JUMP JUMPDEST PUSH2 0x3EA9 DUP2 PUSH2 0x3B4A JUMP JUMPDEST DUP2 EQ PUSH2 0x3EB4 JUMPI PUSH1 0x0 DUP1 REVERT JUMPDEST POP JUMP JUMPDEST PUSH1 0x0 DUP2 CALLDATALOAD SWAP1 POP PUSH2 0x3EC6 DUP2 PUSH2 0x3EA0 JUMP JUMPDEST SWAP3 SWAP2 POP POP JUMP JUMPDEST PUSH1 0x0 PUSH2 0xFFFF DUP3 AND SWAP1 POP SWAP2 SWAP1 POP JUMP JUMPDEST PUSH2 0x3EE3 DUP2 PUSH2 0x3ECC JUMP JUMPDEST DUP2 EQ PUSH2 0x3EEE JUMPI PUSH1 0x0 DUP1 REVERT JUMPDEST POP JUMP JUMPDEST PUSH1 0x0 DUP2 CALLDATALOAD SWAP1 POP PUSH2 0x3F00 DUP2 PUSH2 0x3EDA JUMP JUMPDEST SWAP3 SWAP2 POP POP JUMP JUMPDEST PUSH1 0x0 DUP1 PUSH1 0x0 DUP1 PUSH1 0x0 PUSH1 0xA0 DUP7 DUP9 SUB SLT ISZERO PUSH2 0x3F22 JUMPI PUSH2 0x3F21 PUSH2 0x3766 JUMP JUMPDEST JUMPDEST PUSH1 0x0 PUSH2 0x3F30 DUP9 DUP3 DUP10 ADD PUSH2 0x39DD JUMP JUMPDEST SWAP6 POP POP PUSH1 0x20 PUSH2 0x3F41 DUP9 DUP3 DUP10 ADD PUSH2 0x3E8B JUMP JUMPDEST SWAP5 POP POP PUSH1 0x40 PUSH2 0x3F52 DUP9 DUP3 DUP10 ADD PUSH2 0x3928 JUMP JUMPDEST SWAP4 POP POP PUSH1 0x60 PUSH2 0x3F63 DUP9 DUP3 DUP10 ADD PUSH2 0x3EB7 JUMP JUMPDEST SWAP3 POP POP PUSH1 0x80 PUSH2 0x3F74 DUP9 DUP3 DUP10 ADD PUSH2 0x3EF1 JUMP JUMPDEST SWAP2 POP POP SWAP3 SWAP6 POP SWAP3 SWAP6 SWAP1 SWAP4 POP JUMP JUMPDEST PUSH2 0x3F8A DUP2 PUSH2 0x3ECC JUMP JUMPDEST DUP3 MSTORE POP POP JUMP JUMPDEST PUSH1 0x0 PUSH1 0x20 DUP3 ADD SWAP1 POP PUSH2 0x3FA5 PUSH1 0x0 DUP4 ADD DUP5 PUSH2 0x3F81 JUMP JUMPDEST SWAP3 SWAP2 POP POP JUMP JUMPDEST PUSH1 0x0 DUP1 REVERT JUMPDEST PUSH32 0x4E487B7100000000000000000000000000000000000000000000000000000000 PUSH1 0x0 MSTORE PUSH1 0x41 PUSH1 0x4 MSTORE PUSH1 0x24 PUSH1 0x0 REVERT JUMPDEST PUSH2 0x3FE8 DUP3 PUSH2 0x38A5 JUMP JUMPDEST DUP2 ADD DUP2 DUP2 LT PUSH8 0xFFFFFFFFFFFFFFFF DUP3 GT OR ISZERO PUSH2 0x4007 JUMPI PUSH2 0x4006 PUSH2 0x3FB0 JUMP JUMPDEST JUMPDEST DUP1 PUSH1 0x40 MSTORE POP POP POP JUMP JUMPDEST PUSH1 0x0 PUSH2 0x401A PUSH2 0x375C JUMP JUMPDEST SWAP1 POP PUSH2 0x4026 DUP3 DUP3 PUSH2 0x3FDF JUMP JUMPDEST SWAP2 SWAP1 POP JUMP JUMPDEST PUSH1 0x0 PUSH8 0xFFFFFFFFFFFFFFFF DUP3 GT ISZERO PUSH2 0x4046 JUMPI PUSH2 0x4045 PUSH2 0x3FB0 JUMP JUMPDEST JUMPDEST PUSH2 0x404F DUP3 PUSH2 0x38A5 JUMP JUMPDEST SWAP1 POP PUSH1 0x20 DUP2 ADD SWAP1 POP SWAP2 SWAP1 POP JUMP JUMPDEST DUP3 DUP2 DUP4 CALLDATACOPY PUSH1 0x0 DUP4 DUP4 ADD MSTORE POP POP POP JUMP JUMPDEST PUSH1 0x0 PUSH2 0x407E PUSH2 0x4079 DUP5 PUSH2 0x402B JUMP JUMPDEST PUSH2 0x4010 JUMP JUMPDEST SWAP1 POP DUP3 DUP2 MSTORE PUSH1 0x20 DUP2 ADD DUP5 DUP5 DUP5 ADD GT ISZERO PUSH2 0x409A JUMPI PUSH2 0x4099 PUSH2 0x3FAB JUMP JUMPDEST JUMPDEST PUSH2 0x40A5 DUP5 DUP3 DUP6 PUSH2 0x405C JUMP JUMPDEST POP SWAP4 SWAP3 POP POP POP JUMP JUMPDEST PUSH1 0x0 DUP3 PUSH1 0x1F DUP4 ADD SLT PUSH2 0x40C2 JUMPI PUSH2 0x40C1 PUSH2 0x3A32 JUMP JUMPDEST JUMPDEST DUP2 CALLDATALOAD PUSH2 0x40D2 DUP5 DUP3 PUSH1 0x20 DUP7 ADD PUSH2 0x406B JUMP JUMPDEST SWAP2 POP POP SWAP3 SWAP2 POP POP JUMP JUMPDEST PUSH1 0x0 DUP1 PUSH1 0x0 DUP1 PUSH1 0x80 DUP6 DUP8 SUB SLT ISZERO PUSH2 0x40F5 JUMPI PUSH2 0x40F4 PUSH2 0x3766 JUMP JUMPDEST JUMPDEST PUSH1 0x0 PUSH2 0x4103 DUP8 DUP3 DUP9 ADD PUSH2 0x39DD JUMP JUMPDEST SWAP5 POP POP PUSH1 0x20 PUSH2 0x4114 DUP8 DUP3 DUP9 ADD PUSH2 0x39DD JUMP JUMPDEST SWAP4 POP POP PUSH1 0x40 PUSH2 0x4125 DUP8 DUP3 DUP9 ADD PUSH2 0x3928 JUMP JUMPDEST SWAP3 POP POP PUSH1 0x60 DUP6 ADD CALLDATALOAD PUSH8 0xFFFFFFFFFFFFFFFF DUP2 GT ISZERO PUSH2 0x4146 JUMPI PUSH2 0x4145 PUSH2 0x376B JUMP JUMPDEST JUMPDEST PUSH2 0x4152 DUP8 DUP3 DUP9 ADD PUSH2 0x40AD JUMP JUMPDEST SWAP2 POP POP SWAP3 SWAP6 SWAP2 SWAP5 POP SWAP3 POP JUMP JUMPDEST PUSH1 0x0 DUP2 SWAP1 POP DUP3 PUSH1 0x20 PUSH1 0x14 MUL DUP3 ADD GT ISZERO PUSH2 0x417A JUMPI PUSH2 0x4179 PUSH2 0x3A3C JUMP JUMPDEST JUMPDEST SWAP3 SWAP2 POP POP JUMP JUMPDEST PUSH1 0x0 DUP1 PUSH1 0x0 PUSH2 0x2C0 DUP5 DUP7 SUB SLT ISZERO PUSH2 0x419A JUMPI PUSH2 0x4199 PUSH2 0x3766 JUMP JUMPDEST JUMPDEST PUSH1 0x0 PUSH2 0x41A8 DUP7 DUP3 DUP8 ADD PUSH2 0x415E JUMP JUMPDEST SWAP4 POP POP PUSH2 0x280 PUSH2 0x41BA DUP7 DUP3 DUP8 ADD PUSH2 0x3928 JUMP JUMPDEST SWAP3 POP POP PUSH2 0x2A0 PUSH2 0x41CC DUP7 DUP3 DUP8 ADD PUSH2 0x39DD JUMP JUMPDEST SWAP2 POP POP SWAP3 POP SWAP3 POP SWAP3 JUMP JUMPDEST PUSH1 0x0 DUP1 PUSH1 0x40 DUP4 DUP6 SUB SLT ISZERO PUSH2 0x41ED JUMPI PUSH2 0x41EC PUSH2 0x3766 JUMP JUMPDEST JUMPDEST PUSH1 0x0 PUSH2 0x41FB DUP6 DUP3 DUP7 ADD PUSH2 0x39DD JUMP JUMPDEST SWAP3 POP POP PUSH1 0x20 PUSH2 0x420C DUP6 DUP3 DUP7 ADD PUSH2 0x39DD JUMP JUMPDEST SWAP2 POP POP SWAP3 POP SWAP3 SWAP1 POP JUMP JUMPDEST PUSH1 0x0 DUP2 SWAP1 POP DUP3 PUSH1 0x20 PUSH1 0x64 MUL DUP3 ADD GT ISZERO PUSH2 0x4232 JUMPI PUSH2 0x4231 PUSH2 0x3A3C JUMP JUMPDEST JUMPDEST SWAP3 SWAP2 POP POP JUMP JUMPDEST PUSH1 0x0 DUP1 PUSH1 0x0 DUP1 PUSH2 0xCC0 DUP6 DUP8 SUB SLT ISZERO PUSH2 0x4253 JUMPI PUSH2 0x4252 PUSH2 0x3766 JUMP JUMPDEST JUMPDEST PUSH1 0x0 PUSH2 0x4261 DUP8 DUP3 DUP9 ADD PUSH2 0x4216 JUMP JUMPDEST SWAP5 POP POP PUSH2 0xC80 PUSH2 0x4273 DUP8 DUP3 DUP9 ADD PUSH2 0x39DD JUMP JUMPDEST SWAP4 POP POP PUSH2 0xCA0 DUP6 ADD CALLDATALOAD PUSH8 0xFFFFFFFFFFFFFFFF DUP2 GT ISZERO PUSH2 0x4295 JUMPI PUSH2 0x4294 PUSH2 0x376B JUMP JUMPDEST JUMPDEST PUSH2 0x42A1 DUP8 DUP3 DUP9 ADD PUSH2 0x3D3E JUMP JUMPDEST SWAP3 POP SWAP3 POP POP SWAP3 SWAP6 SWAP2 SWAP5 POP SWAP3 POP JUMP JUMPDEST PUSH32 0x4E487B7100000000000000000000000000000000000000000000000000000000 PUSH1 0x0 MSTORE PUSH1 0x22 PUSH1 0x4 MSTORE PUSH1 0x24 PUSH1 0x0 REVERT JUMPDEST PUSH1 0x0 PUSH1 0x2 DUP3 DIV SWAP1 POP PUSH1 0x1 DUP3 AND DUP1 PUSH2 0x42F6 JUMPI PUSH1 0x7F DUP3 AND SWAP2 POP JUMPDEST PUSH1 0x20 DUP3 LT DUP2 SUB PUSH2 0x4309 JUMPI PUSH2 0x4308 PUSH2 0x42AF JUMP JUMPDEST JUMPDEST POP SWAP2 SWAP1 POP JUMP JUMPDEST PUSH32 0x4552433732313A20617070726F76616C20746F2063757272656E74206F776E65 PUSH1 0x0 DUP3 ADD MSTORE PUSH32 0x7200000000000000000000000000000000000000000000000000000000000000 PUSH1 0x20 DUP3 ADD MSTORE POP JUMP JUMPDEST PUSH1 0x0 PUSH2 0x436B PUSH1 0x21 DUP4 PUSH2 0x386A JUMP JUMPDEST SWAP2 POP PUSH2 0x4376 DUP3 PUSH2 0x430F JUMP JUMPDEST PUSH1 0x40 DUP3 ADD SWAP1 POP SWAP2 SWAP1 POP JUMP JUMPDEST PUSH1 0x0 PUSH1 0x20 DUP3 ADD SWAP1 POP DUP2 DUP2 SUB PUSH1 0x0 DUP4 ADD MSTORE PUSH2 0x439A DUP2 PUSH2 0x435E JUMP JUMPDEST SWAP1 POP SWAP2 SWAP1 POP JUMP JUMPDEST PUSH32 0x4552433732313A20617070726F76652063616C6C6572206973206E6F7420746F PUSH1 0x0 DUP3 ADD MSTORE PUSH32 0x6B656E206F776E6572206F7220617070726F76656420666F7220616C6C000000 PUSH1 0x20 DUP3 ADD MSTORE POP JUMP JUMPDEST PUSH1 0x0 PUSH2 0x43FD PUSH1 0x3D DUP4 PUSH2 0x386A JUMP JUMPDEST SWAP2 POP PUSH2 0x4408 DUP3 PUSH2 0x43A1 JUMP JUMPDEST PUSH1 0x40 DUP3 ADD SWAP1 POP SWAP2 SWAP1 POP JUMP JUMPDEST PUSH1 0x0 PUSH1 0x20 DUP3 ADD SWAP1 POP DUP2 DUP2 SUB PUSH1 0x0 DUP4 ADD MSTORE PUSH2 0x442C DUP2 PUSH2 0x43F0 JUMP JUMPDEST SWAP1 POP SWAP2 SWAP1 POP JUMP JUMPDEST PUSH1 0x0 PUSH1 0x40 DUP3 ADD SWAP1 POP PUSH2 0x4448 PUSH1 0x0 DUP4 ADD DUP6 PUSH2 0x399C JUMP JUMPDEST PUSH2 0x4455 PUSH1 0x20 DUP4 ADD DUP5 PUSH2 0x399C JUMP JUMPDEST SWAP4 SWAP3 POP POP POP JUMP JUMPDEST PUSH32 0x4552433732313A2063616C6C6572206973206E6F7420746F6B656E206F776E65 PUSH1 0x0 DUP3 ADD MSTORE PUSH32 0x72206F7220617070726F76656400000000000000000000000000000000000000 PUSH1 0x20 DUP3 ADD MSTORE POP JUMP JUMPDEST PUSH1 0x0 PUSH2 0x44B8 PUSH1 0x2D DUP4 PUSH2 0x386A JUMP JUMPDEST SWAP2 POP PUSH2 0x44C3 DUP3 PUSH2 0x445C JUMP JUMPDEST PUSH1 0x40 DUP3 ADD SWAP1 POP SWAP2 SWAP1 POP JUMP JUMPDEST PUSH1 0x0 PUSH1 0x20 DUP3 ADD SWAP1 POP DUP2 DUP2 SUB PUSH1 0x0 DUP4 ADD MSTORE PUSH2 0x44E7 DUP2 PUSH2 0x44AB JUMP JUMPDEST SWAP1 POP SWAP2 SWAP1 POP JUMP JUMPDEST PUSH1 0x0 DUP2 MLOAD SWAP1 POP PUSH2 0x44FD DUP2 PUSH2 0x3911 JUMP JUMPDEST SWAP3 SWAP2 POP POP JUMP JUMPDEST PUSH1 0x0 PUSH1 0x20 DUP3 DUP5 SUB SLT ISZERO PUSH2 0x4519 JUMPI PUSH2 0x4518 PUSH2 0x3766 JUMP JUMPDEST JUMPDEST PUSH1 0x0 PUSH2 0x4527 DUP5 DUP3 DUP6 ADD PUSH2 0x44EE JUMP JUMPDEST SWAP2 POP POP SWAP3 SWAP2 POP POP JUMP JUMPDEST PUSH1 0x0 PUSH1 0x40 DUP3 ADD SWAP1 POP PUSH2 0x4545 PUSH1 0x0 DUP4 ADD DUP6 PUSH2 0x399C JUMP JUMPDEST PUSH2 0x4552 PUSH1 0x20 DUP4 ADD DUP5 PUSH2 0x3835 JUMP JUMPDEST SWAP4 SWAP3 POP POP POP JUMP JUMPDEST PUSH1 0x0 DUP2 MLOAD SWAP1 POP PUSH2 0x4568 DUP2 PUSH2 0x3E08 JUMP JUMPDEST SWAP3 SWAP2 POP POP JUMP JUMPDEST PUSH1 0x0 PUSH1 0x20 DUP3 DUP5 SUB SLT ISZERO PUSH2 0x4584 JUMPI PUSH2 0x4583 PUSH2 0x3766 JUMP JUMPDEST JUMPDEST PUSH1 0x0 PUSH2 0x4592 DUP5 DUP3 DUP6 ADD PUSH2 0x4559 JUMP JUMPDEST SWAP2 POP POP SWAP3 SWAP2 POP POP JUMP JUMPDEST PUSH32 0x7800000000000000000000000000000000000000000000000000000000000000 PUSH1 0x0 DUP3 ADD MSTORE POP JUMP JUMPDEST PUSH1 0x0 PUSH2 0x45D1 PUSH1 0x1 DUP4 PUSH2 0x386A JUMP JUMPDEST SWAP2 POP PUSH2 0x45DC DUP3 PUSH2 0x459B JUMP JUMPDEST PUSH1 0x20 DUP3 ADD SWAP1 POP SWAP2 SWAP1 POP JUMP JUMPDEST PUSH1 0x0 PUSH1 0x20 DUP3 ADD SWAP1 POP DUP2 DUP2 SUB PUSH1 0x0 DUP4 ADD MSTORE PUSH2 0x4600 DUP2 PUSH2 0x45C4 JUMP JUMPDEST SWAP1 POP SWAP2 SWAP1 POP JUMP JUMPDEST PUSH1 0x0 DUP3 SWAP1 POP SWAP3 SWAP2 POP POP JUMP JUMPDEST PUSH1 0x0 DUP2 SWAP1 POP DUP2 PUSH1 0x0 MSTORE PUSH1 0x20 PUSH1 0x0 KECCAK256 SWAP1 POP SWAP2 SWAP1 POP JUMP JUMPDEST PUSH1 0x0 PUSH1 0x20 PUSH1 0x1F DUP4 ADD DIV SWAP1 POP SWAP2 SWAP1 POP JUMP JUMPDEST PUSH1 0x0 DUP3 DUP3 SHL SWAP1 POP SWAP3 SWAP2 POP POP JUMP JUMPDEST PUSH1 0x0 PUSH1 0x8 DUP4 MUL PUSH2 0x4674 PUSH32 0xFFFFFFFFFFFFFFFFFFFFFFFFFFFFFFFFFFFFFFFFFFFFFFFFFFFFFFFFFFFFFFFF DUP3 PUSH2 0x4637 JUMP JUMPDEST PUSH2 0x467E DUP7 DUP4 PUSH2 0x4637 JUMP JUMPDEST SWAP6 POP DUP1 NOT DUP5 AND SWAP4 POP DUP1 DUP7 AND DUP5 OR SWAP3 POP POP POP SWAP4 SWAP3 POP POP POP JUMP JUMPDEST PUSH1 0x0 PUSH2 0x46B1 PUSH2 0x46AC PUSH2 0x46A7 DUP5 PUSH2 0x382B JUMP JUMPDEST PUSH2 0x3B84 JUMP JUMPDEST PUSH2 0x382B JUMP JUMPDEST SWAP1 POP SWAP2 SWAP1 POP JUMP JUMPDEST PUSH1 0x0 DUP2 SWAP1 POP SWAP2 SWAP1 POP JUMP JUMPDEST PUSH2 0x46CB DUP4 PUSH2 0x4696 JUMP JUMPDEST PUSH2 0x46DF PUSH2 0x46D7 DUP3 PUSH2 0x46B8 JUMP JUMPDEST DUP5 DUP5 SLOAD PUSH2 0x4644 JUMP JUMPDEST DUP3 SSTORE POP POP POP POP JUMP JUMPDEST PUSH1 0x0 SWAP1 JUMP JUMPDEST PUSH2 0x46F4 PUSH2 0x46E7 JUMP JUMPDEST PUSH2 0x46FF DUP2 DUP5 DUP5 PUSH2 0x46C2 JUMP JUMPDEST POP POP POP JUMP JUMPDEST JUMPDEST DUP2 DUP2 LT ISZERO PUSH2 0x4723 JUMPI PUSH2 0x4718 PUSH1 0x0 DUP3 PUSH2 0x46EC JUMP JUMPDEST PUSH1 0x1 DUP2 ADD SWAP1 POP PUSH2 0x4705 JUMP JUMPDEST POP POP JUMP JUMPDEST PUSH1 0x1F DUP3 GT ISZERO PUSH2 0x4768 JUMPI PUSH2 0x4739 DUP2 PUSH2 0x4612 JUMP JUMPDEST PUSH2 0x4742 DUP5 PUSH2 0x4627 JUMP JUMPDEST DUP2 ADD PUSH1 0x20 DUP6 LT ISZERO PUSH2 0x4751 JUMPI DUP2 SWAP1 POP JUMPDEST PUSH2 0x4765 PUSH2 0x475D DUP6 PUSH2 0x4627 JUMP JUMPDEST DUP4 ADD DUP3 PUSH2 0x4704 JUMP JUMPDEST POP POP JUMPDEST POP POP POP JUMP JUMPDEST PUSH1 0x0 DUP3 DUP3 SHR SWAP1 POP SWAP3 SWAP2 POP POP JUMP JUMPDEST PUSH1 0x0 PUSH2 0x478B PUSH1 0x0 NOT DUP5 PUSH1 0x8 MUL PUSH2 0x476D JUMP JUMPDEST NOT DUP1 DUP4 AND SWAP2 POP POP SWAP3 SWAP2 POP POP JUMP JUMPDEST PUSH1 0x0 PUSH2 0x47A4 DUP4 DUP4 PUSH2 0x477A JUMP JUMPDEST SWAP2 POP DUP3 PUSH1 0x2 MUL DUP3 OR SWAP1 POP SWAP3 SWAP2 POP POP JUMP JUMPDEST PUSH2 0x47BE DUP4 DUP4 PUSH2 0x4607 JUMP JUMPDEST PUSH8 0xFFFFFFFFFFFFFFFF DUP2 GT ISZERO PUSH2 0x47D7 JUMPI PUSH2 0x47D6 PUSH2 0x3FB0 JUMP JUMPDEST JUMPDEST PUSH2 0x47E1 DUP3 SLOAD PUSH2 0x42DE JUMP JUMPDEST PUSH2 0x47EC DUP3 DUP3 DUP6 PUSH2 0x4727 JUMP JUMPDEST PUSH1 0x0 PUSH1 0x1F DUP4 GT PUSH1 0x1 DUP2 EQ PUSH2 0x481B JUMPI PUSH1 0x0 DUP5 ISZERO PUSH2 0x4809 JUMPI DUP3 DUP8 ADD CALLDATALOAD SWAP1 POP JUMPDEST PUSH2 0x4813 DUP6 DUP3 PUSH2 0x4798 JUMP JUMPDEST DUP7 SSTORE POP PUSH2 0x487B JUMP JUMPDEST PUSH1 0x1F NOT DUP5 AND PUSH2 0x4829 DUP7 PUSH2 0x4612 JUMP JUMPDEST PUSH1 0x0 JUMPDEST DUP3 DUP2 LT ISZERO PUSH2 0x4851 JUMPI DUP5 DUP10 ADD CALLDATALOAD DUP3 SSTORE PUSH1 0x1 DUP3 ADD SWAP2 POP PUSH1 0x20 DUP6 ADD SWAP5 POP PUSH1 0x20 DUP2 ADD SWAP1 POP PUSH2 0x482C JUMP JUMPDEST DUP7 DUP4 LT ISZERO PUSH2 0x486E JUMPI DUP5 DUP10 ADD CALLDATALOAD PUSH2 0x486A PUSH1 0x1F DUP10 AND DUP3 PUSH2 0x477A JUMP JUMPDEST DUP4 SSTORE POP JUMPDEST PUSH1 0x1 PUSH1 0x2 DUP9 MUL ADD DUP9 SSTORE POP POP POP JUMPDEST POP POP POP POP POP POP POP JUMP JUMPDEST PUSH32 0x4552433732313A20696E76616C696420746F6B656E2049440000000000000000 PUSH1 0x0 DUP3 ADD MSTORE POP JUMP JUMPDEST PUSH1 0x0 PUSH2 0x48BA PUSH1 0x18 DUP4 PUSH2 0x386A JUMP JUMPDEST SWAP2 POP PUSH2 0x48C5 DUP3 PUSH2 0x4884 JUMP JUMPDEST PUSH1 0x20 DUP3 ADD SWAP1 POP SWAP2 SWAP1 POP JUMP JUMPDEST PUSH1 0x0 PUSH1 0x20 DUP3 ADD SWAP1 POP DUP2 DUP2 SUB PUSH1 0x0 DUP4 ADD MSTORE PUSH2 0x48E9 DUP2 PUSH2 0x48AD JUMP JUMPDEST SWAP1 POP SWAP2 SWAP1 POP JUMP JUMPDEST PUSH32 0x4552433732313A2061646472657373207A65726F206973206E6F742061207661 PUSH1 0x0 DUP3 ADD MSTORE PUSH32 0x6C6964206F776E65720000000000000000000000000000000000000000000000 PUSH1 0x20 DUP3 ADD MSTORE POP JUMP JUMPDEST PUSH1 0x0 PUSH2 0x494C PUSH1 0x29 DUP4 PUSH2 0x386A JUMP JUMPDEST SWAP2 POP PUSH2 0x4957 DUP3 PUSH2 0x48F0 JUMP JUMPDEST PUSH1 0x40 DUP3 ADD SWAP1 POP SWAP2 SWAP1 POP JUMP JUMPDEST PUSH1 0x0 PUSH1 0x20 DUP3 ADD SWAP1 POP DUP2 DUP2 SUB PUSH1 0x0 DUP4 ADD MSTORE PUSH2 0x497B DUP2 PUSH2 0x493F JUMP JUMPDEST SWAP1 POP SWAP2 SWAP1 POP JUMP JUMPDEST PUSH32 0x2165786973747300000000000000000000000000000000000000000000000000 PUSH1 0x0 DUP3 ADD MSTORE POP JUMP JUMPDEST PUSH1 0x0 PUSH2 0x49B8 PUSH1 0x7 DUP4 PUSH2 0x386A JUMP JUMPDEST SWAP2 POP PUSH2 0x49C3 DUP3 PUSH2 0x4982 JUMP JUMPDEST PUSH1 0x20 DUP3 ADD SWAP1 POP SWAP2 SWAP1 POP JUMP JUMPDEST PUSH1 0x0 PUSH1 0x20 DUP3 ADD SWAP1 POP DUP2 DUP2 SUB PUSH1 0x0 DUP4 ADD MSTORE PUSH2 0x49E7 DUP2 PUSH2 0x49AB JUMP JUMPDEST SWAP1 POP SWAP2 SWAP1 POP JUMP JUMPDEST PUSH32 0x4D7573742062652070726F706F736564206F776E657200000000000000000000 PUSH1 0x0 DUP3 ADD MSTORE POP JUMP JUMPDEST PUSH1 0x0 PUSH2 0x4A24 PUSH1 0x16 DUP4 PUSH2 0x386A JUMP JUMPDEST SWAP2 POP PUSH2 0x4A2F DUP3 PUSH2 0x49EE JUMP JUMPDEST PUSH1 0x20 DUP3 ADD SWAP1 POP SWAP2 SWAP1 POP JUMP JUMPDEST PUSH1 0x0 PUSH1 0x20 DUP3 ADD SWAP1 POP DUP2 DUP2 SUB PUSH1 0x0 DUP4 ADD MSTORE PUSH2 0x4A53 DUP2 PUSH2 0x4A17 JUMP JUMPDEST SWAP1 POP SWAP2 SWAP1 POP JUMP JUMPDEST PUSH1 0x0 PUSH1 0x60 DUP3 ADD SWAP1 POP PUSH2 0x4A6F PUSH1 0x0 DUP4 ADD DUP7 PUSH2 0x399C JUMP JUMPDEST PUSH2 0x4A7C PUSH1 0x20 DUP4 ADD DUP6 PUSH2 0x399C JUMP JUMPDEST PUSH2 0x4A89 PUSH1 0x40 DUP4 ADD DUP5 PUSH2 0x399C JUMP JUMPDEST SWAP5 SWAP4 POP POP POP POP JUMP JUMPDEST PUSH32 0x7174790000000000000000000000000000000000000000000000000000000000 PUSH1 0x0 DUP3 ADD MSTORE POP JUMP JUMPDEST PUSH1 0x0 PUSH2 0x4AC7 PUSH1 0x3 DUP4 PUSH2 0x386A JUMP JUMPDEST SWAP2 POP PUSH2 0x4AD2 DUP3 PUSH2 0x4A91 JUMP JUMPDEST PUSH1 0x20 DUP3 ADD SWAP1 POP SWAP2 SWAP1 POP JUMP JUMPDEST PUSH1 0x0 PUSH1 0x20 DUP3 ADD SWAP1 POP DUP2 DUP2 SUB PUSH1 0x0 DUP4 ADD MSTORE PUSH2 0x4AF6 DUP2 PUSH2 0x4ABA JUMP JUMPDEST SWAP1 POP SWAP2 SWAP1 POP JUMP JUMPDEST PUSH32 0x4E487B7100000000000000000000000000000000000000000000000000000000 PUSH1 0x0 MSTORE PUSH1 0x11 PUSH1 0x4 MSTORE PUSH1 0x24 PUSH1 0x0 REVERT JUMPDEST PUSH1 0x0 PUSH2 0x4B37 DUP3 PUSH2 0x382B JUMP JUMPDEST SWAP2 POP PUSH2 0x4B42 DUP4 PUSH2 0x382B JUMP JUMPDEST SWAP3 POP DUP3 DUP3 ADD SWAP1 POP DUP1 DUP3 GT ISZERO PUSH2 0x4B5A JUMPI PUSH2 0x4B59 PUSH2 0x4AFD JUMP JUMPDEST JUMPDEST SWAP3 SWAP2 POP POP JUMP JUMPDEST PUSH32 0x6361700000000000000000000000000000000000000000000000000000000000 PUSH1 0x0 DUP3 ADD MSTORE POP JUMP JUMPDEST PUSH1 0x0 PUSH2 0x4B96 PUSH1 0x3 DUP4 PUSH2 0x386A JUMP JUMPDEST SWAP2 POP PUSH2 0x4BA1 DUP3 PUSH2 0x4B60 JUMP JUMPDEST PUSH1 0x20 DUP3 ADD SWAP1 POP SWAP2 SWAP1 POP JUMP JUMPDEST PUSH1 0x0 PUSH1 0x20 DUP3 ADD SWAP1 POP DUP2 DUP2 SUB PUSH1 0x0 DUP4 ADD MSTORE PUSH2 0x4BC5 DUP2 PUSH2 0x4B89 JUMP JUMPDEST SWAP1 POP SWAP2 SWAP1 POP JUMP JUMPDEST PUSH1 0x0 PUSH2 0x4BD7 DUP3 PUSH2 0x382B JUMP JUMPDEST SWAP2 POP PUSH2 0x4BE2 DUP4 PUSH2 0x382B JUMP JUMPDEST SWAP3 POP DUP3 DUP3 MUL PUSH2 0x4BF0 DUP2 PUSH2 0x382B JUMP JUMPDEST SWAP2 POP DUP3 DUP3 DIV DUP5 EQ DUP4 ISZERO OR PUSH2 0x4C07 JUMPI PUSH2 0x4C06 PUSH2 0x4AFD JUMP JUMPDEST JUMPDEST POP SWAP3 SWAP2 POP POP JUMP JUMPDEST PUSH1 0x0 PUSH1 0x60 DUP3 ADD SWAP1 POP PUSH2 0x4C23 PUSH1 0x0 DUP4 ADD DUP7 PUSH2 0x399C JUMP JUMPDEST PUSH2 0x4C30 PUSH1 0x20 DUP4 ADD DUP6 PUSH2 0x399C JUMP JUMPDEST PUSH2 0x4C3D PUSH1 0x40 DUP4 ADD DUP5 PUSH2 0x3835 JUMP JUMPDEST SWAP5 SWAP4 POP POP POP POP JUMP JUMPDEST PUSH32 0x7061790000000000000000000000000000000000000000000000000000000000 PUSH1 0x0 DUP3 ADD MSTORE POP JUMP JUMPDEST PUSH1 0x0 PUSH2 0x4C7B PUSH1 0x3 DUP4 PUSH2 0x386A JUMP JUMPDEST SWAP2 POP PUSH2 0x4C86 DUP3 PUSH2 0x4C45 JUMP JUMPDEST PUSH1 0x20 DUP3 ADD SWAP1 POP SWAP2 SWAP1 POP JUMP JUMPDEST PUSH1 0x0 PUSH1 0x20 DUP3 ADD SWAP1 POP DUP2 DUP2 SUB PUSH1 0x0 DUP4 ADD MSTORE PUSH2 0x4CAA DUP2 PUSH2 0x4C6E JUMP JUMPDEST SWAP1 POP SWAP2 SWAP1 POP JUMP JUMPDEST PUSH1 0x0 PUSH2 0x4CBC DUP3 PUSH2 0x382B JUMP JUMPDEST SWAP2 POP PUSH32 0xFFFFFFFFFFFFFFFFFFFFFFFFFFFFFFFFFFFFFFFFFFFFFFFFFFFFFFFFFFFFFFFF DUP3 SUB PUSH2 0x4CEE JUMPI PUSH2 0x4CED PUSH2 0x4AFD JUMP JUMPDEST JUMPDEST PUSH1 0x1 DUP3 ADD SWAP1 POP SWAP2 SWAP1 POP JUMP JUMPDEST PUSH32 0x4E487B7100000000000000000000000000000000000000000000000000000000 PUSH1 0x0 MSTORE PUSH1 0x32 PUSH1 0x4 MSTORE PUSH1 0x24 PUSH1 0x0 REVERT JUMPDEST PUSH1 0x0 PUSH2 0x4D33 DUP3 PUSH2 0x382B JUMP JUMPDEST SWAP2 POP PUSH2 0x4D3E DUP4 PUSH2 0x382B JUMP JUMPDEST SWAP3 POP DUP3 DUP3 SUB SWAP1 POP DUP2 DUP2 GT ISZERO PUSH2 0x4D56 JUMPI PUSH2 0x4D55 PUSH2 0x4AFD JUMP JUMPDEST JUMPDEST SWAP3 SWAP2 POP POP JUMP JUMPDEST PUSH1 0x0 DUP2 SWAP1 POP SWAP3 SWAP2 POP POP JUMP JUMPDEST PUSH1 0x0 PUSH2 0x4D72 DUP3 PUSH2 0x385F JUMP JUMPDEST PUSH2 0x4D7C DUP2 DUP6 PUSH2 0x4D5C JUMP JUMPDEST SWAP4 POP PUSH2 0x4D8C DUP2 DUP6 PUSH1 0x20 DUP7 ADD PUSH2 0x387B JUMP JUMPDEST DUP1 DUP5 ADD SWAP2 POP POP SWAP3 SWAP2 POP POP JUMP JUMPDEST PUSH1 0x0 PUSH2 0x4DA4 DUP3 DUP6 PUSH2 0x4D67 JUMP JUMPDEST SWAP2 POP PUSH2 0x4DB0 DUP3 DUP5 PUSH2 0x4D67 JUMP JUMPDEST SWAP2 POP DUP2 SWAP1 POP SWAP4 SWAP3 POP POP POP JUMP JUMPDEST PUSH32 0x4E487B7100000000000000000000000000000000000000000000000000000000 PUSH1 0x0 MSTORE PUSH1 0x12 PUSH1 0x4 MSTORE PUSH1 0x24 PUSH1 0x0 REVERT JUMPDEST PUSH1 0x0 PUSH2 0x4DF6 DUP3 PUSH2 0x382B JUMP JUMPDEST SWAP2 POP PUSH2 0x4E01 DUP4 PUSH2 0x382B JUMP JUMPDEST SWAP3 POP DUP3 PUSH2 0x4E11 JUMPI PUSH2 0x4E10 PUSH2 0x4DBC JUMP JUMPDEST JUMPDEST DUP3 DUP3 DIV SWAP1 POP SWAP3 SWAP2 POP POP JUMP JUMPDEST PUSH32 0x6761746500000000000000000000000000000000000000000000000000000000 PUSH1 0x0 DUP3 ADD MSTORE POP JUMP JUMPDEST PUSH1 0x0 PUSH2 0x4E52 PUSH1 0x4 DUP4 PUSH2 0x386A JUMP JUMPDEST SWAP2 POP PUSH2 0x4E5D DUP3 PUSH2 0x4E1C JUMP JUMPDEST PUSH1 0x20 DUP3 ADD SWAP1 POP SWAP2 SWAP1 POP JUMP JUMPDEST PUSH1 0x0 PUSH1 0x20 DUP3 ADD SWAP1 POP DUP2 DUP2 SUB PUSH1 0x0 DUP4 ADD MSTORE PUSH2 0x4E81 DUP2 PUSH2 0x4E45 JUMP JUMPDEST SWAP1 POP SWAP2 SWAP1 POP JUMP JUMPDEST PUSH32 0x7063740000000000000000000000000000000000000000000000000000000000 PUSH1 0x0 DUP3 ADD MSTORE POP JUMP JUMPDEST PUSH1 0x0 PUSH2 0x4EBE PUSH1 0x3 DUP4 PUSH2 0x386A JUMP JUMPDEST SWAP2 POP PUSH2 0x4EC9 DUP3 PUSH2 0x4E88 JUMP JUMPDEST PUSH1 0x20 DUP3 ADD SWAP1 POP SWAP2 SWAP1 POP JUMP JUMPDEST PUSH1 0x0 PUSH1 0x20 DUP3 ADD SWAP1 POP DUP2 DUP2 SUB PUSH1 0x0 DUP4 ADD MSTORE PUSH2 0x4EED DUP2 PUSH2 0x4EB1 JUMP JUMPDEST SWAP1 POP SWAP2 SWAP1 POP JUMP JUMPDEST PUSH32 0x6E6F2D6964730000000000000000000000000000000000000000000000000000 PUSH1 0x0 DUP3 ADD MSTORE POP JUMP JUMPDEST PUSH1 0x0 PUSH2 0x4F2A PUSH1 0x6 DUP4 PUSH2 0x386A JUMP JUMPDEST SWAP2 POP PUSH2 0x4F35 DUP3 PUSH2 0x4EF4 JUMP JUMPDEST PUSH1 0x20 DUP3 ADD SWAP1 POP SWAP2 SWAP1 POP JUMP JUMPDEST PUSH1 0x0 PUSH1 0x20 DUP3 ADD SWAP1 POP DUP2 DUP2 SUB PUSH1 0x0 DUP4 ADD MSTORE PUSH2 0x4F59 DUP2 PUSH2 0x4F1D JUMP JUMPDEST SWAP1 POP SWAP2 SWAP1 POP JUMP JUMPDEST PUSH32 0x4552433732313A207472616E736665722066726F6D20696E636F727265637420 PUSH1 0x0 DUP3 ADD MSTORE PUSH32 0x6F776E6572000000000000000000000000000000000000000000000000000000 PUSH1 0x20 DUP3 ADD MSTORE POP JUMP JUMPDEST PUSH1 0x0 PUSH2 0x4FBC PUSH1 0x25 DUP4 PUSH2 0x386A JUMP JUMPDEST SWAP2 POP PUSH2 0x4FC7 DUP3 PUSH2 0x4F60 JUMP JUMPDEST PUSH1 0x40 DUP3 ADD SWAP1 POP SWAP2 SWAP1 POP JUMP JUMPDEST PUSH1 0x0 PUSH1 0x20 DUP3 ADD SWAP1 POP DUP2 DUP2 SUB PUSH1 0x0 DUP4 ADD MSTORE PUSH2 0x4FEB DUP2 PUSH2 0x4FAF JUMP JUMPDEST SWAP1 POP SWAP2 SWAP1 POP JUMP JUMPDEST PUSH32 0x4552433732313A207472616E7366657220746F20746865207A65726F20616464 PUSH1 0x0 DUP3 ADD MSTORE PUSH32 0x7265737300000000000000000000000000000000000000000000000000000000 PUSH1 0x20 DUP3 ADD MSTORE POP JUMP JUMPDEST PUSH1 0x0 PUSH2 0x504E PUSH1 0x24 DUP4 PUSH2 0x386A JUMP JUMPDEST SWAP2 POP PUSH2 0x5059 DUP3 PUSH2 0x4FF2 JUMP JUMPDEST PUSH1 0x40 DUP3 ADD SWAP1 POP SWAP2 SWAP1 POP JUMP JUMPDEST PUSH1 0x0 PUSH1 0x20 DUP3 ADD SWAP1 POP DUP2 DUP2 SUB PUSH1 0x0 DUP4 ADD MSTORE PUSH2 0x507D DUP2 PUSH2 0x5041 JUMP JUMPDEST SWAP1 POP SWAP2 SWAP1 POP JUMP JUMPDEST PUSH32 0x4F6E6C792063616C6C61626C65206279206F776E657200000000000000000000 PUSH1 0x0 DUP3 ADD MSTORE POP JUMP JUMPDEST PUSH1 0x0 PUSH2 0x50BA PUSH1 0x16 DUP4 PUSH2 0x386A JUMP JUMPDEST SWAP2 POP PUSH2 0x50C5 DUP3 PUSH2 0x5084 JUMP JUMPDEST PUSH1 0x20 DUP3 ADD SWAP1 POP SWAP2 SWAP1 POP JUMP JUMPDEST PUSH1 0x0 PUSH1 0x20 DUP3 ADD SWAP1 POP DUP2 DUP2 SUB PUSH1 0x0 DUP4 ADD MSTORE PUSH2 0x50E9 DUP2 PUSH2 0x50AD JUMP JUMPDEST SWAP1 POP SWAP2 SWAP1 POP JUMP JUMPDEST PUSH32 0x5265656E7472616E637947756172643A207265656E7472616E742063616C6C00 PUSH1 0x0 DUP3 ADD MSTORE POP JUMP JUMPDEST PUSH1 0x0 PUSH2 0x5126 PUSH1 0x1F DUP4 PUSH2 0x386A JUMP JUMPDEST SWAP2 POP PUSH2 0x5131 DUP3 PUSH2 0x50F0 JUMP JUMPDEST PUSH1 0x20 DUP3 ADD SWAP1 POP SWAP2 SWAP1 POP JUMP JUMPDEST PUSH1 0x0 PUSH1 0x20 DUP3 ADD SWAP1 POP DUP2 DUP2 SUB PUSH1 0x0 DUP4 ADD MSTORE PUSH2 0x5155 DUP2 PUSH2 0x5119 JUMP JUMPDEST SWAP1 POP SWAP2 SWAP1 POP JUMP JUMPDEST PUSH32 0x7672660000000000000000000000000000000000000000000000000000000000 PUSH1 0x0 DUP3 ADD MSTORE POP JUMP JUMPDEST PUSH1 0x0 PUSH2 0x5192 PUSH1 0x3 DUP4 PUSH2 0x386A JUMP JUMPDEST SWAP2 POP PUSH2 0x519D DUP3 PUSH2 0x515C JUMP JUMPDEST PUSH1 0x20 DUP3 ADD SWAP1 POP SWAP2 SWAP1 POP JUMP JUMPDEST PUSH1 0x0 PUSH1 0x20 DUP3 ADD SWAP1 POP DUP2 DUP2 SUB PUSH1 0x0 DUP4 ADD MSTORE PUSH2 0x51C1 DUP2 PUSH2 0x5185 JUMP JUMPDEST SWAP1 POP SWAP2 SWAP1 POP JUMP JUMPDEST PUSH2 0x51D1 DUP2 PUSH2 0x3D0A JUMP JUMPDEST DUP3 MSTORE POP POP JUMP JUMPDEST PUSH2 0x51E0 DUP2 PUSH2 0x382B JUMP JUMPDEST DUP3 MSTORE POP POP JUMP JUMPDEST PUSH2 0x51EF DUP2 PUSH2 0x3ECC JUMP JUMPDEST DUP3 MSTORE POP POP JUMP JUMPDEST PUSH2 0x51FE DUP2 PUSH2 0x3B4A JUMP JUMPDEST DUP3 MSTORE POP POP JUMP JUMPDEST PUSH1 0x0 DUP2 MLOAD SWAP1 POP SWAP2 SWAP1 POP JUMP JUMPDEST PUSH1 0x0 DUP3 DUP3 MSTORE PUSH1 0x20 DUP3 ADD SWAP1 POP SWAP3 SWAP2 POP POP JUMP JUMPDEST PUSH1 0x0 PUSH2 0x522B DUP3 PUSH2 0x5204 JUMP JUMPDEST PUSH2 0x5235 DUP2 DUP6 PUSH2 0x520F JUMP JUMPDEST SWAP4 POP PUSH2 0x5245 DUP2 DUP6 PUSH1 0x20 DUP7 ADD PUSH2 0x387B JUMP JUMPDEST PUSH2 0x524E DUP2 PUSH2 0x38A5 JUMP JUMPDEST DUP5 ADD SWAP2 POP POP SWAP3 SWAP2 POP POP JUMP JUMPDEST PUSH1 0x0 PUSH1 0xC0 DUP4 ADD PUSH1 0x0 DUP4 ADD MLOAD PUSH2 0x5271 PUSH1 0x0 DUP7 ADD DUP3 PUSH2 0x51C8 JUMP JUMPDEST POP PUSH1 0x20 DUP4 ADD MLOAD PUSH2 0x5284 PUSH1 0x20 DUP7 ADD DUP3 PUSH2 0x51D7 JUMP JUMPDEST POP PUSH1 0x40 DUP4 ADD MLOAD PUSH2 0x5297 PUSH1 0x40 DUP7 ADD DUP3 PUSH2 0x51E6 JUMP JUMPDEST POP PUSH1 0x60 DUP4 ADD MLOAD PUSH2 0x52AA PUSH1 0x60 DUP7 ADD DUP3 PUSH2 0x51F5 JUMP JUMPDEST POP PUSH1 0x80 DUP4 ADD MLOAD PUSH2 0x52BD PUSH1 0x80 DUP7 ADD DUP3 PUSH2 0x51F5 JUMP JUMPDEST POP PUSH1 0xA0 DUP4 ADD MLOAD DUP5 DUP3 SUB PUSH1 0xA0 DUP7 ADD MSTORE PUSH2 0x52D5 DUP3 DUP3 PUSH2 0x5220 JUMP JUMPDEST SWAP2 POP POP DUP1 SWAP2 POP POP SWAP3 SWAP2 POP POP JUMP JUMPDEST PUSH1 0x0 PUSH1 0x20 DUP3 ADD SWAP1 POP DUP2 DUP2 SUB PUSH1 0x0 DUP4 ADD MSTORE PUSH2 0x52FC DUP2 DUP5 PUSH2 0x5259 JUMP JUMPDEST SWAP1 POP SWAP3 SWAP2 POP POP JUMP JUMPDEST PUSH1 0x0 DUP2 SWAP1 POP SWAP2 SWAP1 POP JUMP JUMPDEST PUSH2 0x531F PUSH2 0x531A DUP3 PUSH2 0x382B JUMP JUMPDEST PUSH2 0x5304 JUMP JUMPDEST DUP3 MSTORE POP POP JUMP JUMPDEST PUSH1 0x0 PUSH2 0x5331 DUP3 DUP6 PUSH2 0x530E JUMP JUMPDEST PUSH1 0x20 DUP3 ADD SWAP2 POP PUSH2 0x5341 DUP3 DUP5 PUSH2 0x530E JUMP JUMPDEST PUSH1 0x20 DUP3 ADD SWAP2 POP DUP2 SWAP1 POP SWAP4 SWAP3 POP POP POP JUMP JUMPDEST PUSH1 0x0 PUSH2 0x535C DUP3 PUSH2 0x382B JUMP JUMPDEST SWAP2 POP PUSH2 0x5367 DUP4 PUSH2 0x382B JUMP JUMPDEST SWAP3 POP DUP3 PUSH2 0x5377 JUMPI PUSH2 0x5376 PUSH2 0x4DBC JUMP JUMPDEST JUMPDEST DUP3 DUP3 MOD SWAP1 POP SWAP3 SWAP2 POP POP JUMP JUMPDEST PUSH32 0x4552433732313A20617070726F766520746F2063616C6C657200000000000000 PUSH1 0x0 DUP3 ADD MSTORE POP JUMP JUMPDEST PUSH1 0x0 PUSH2 0x53B8 PUSH1 0x19 DUP4 PUSH2 0x386A JUMP JUMPDEST SWAP2 POP PUSH2 0x53C3 DUP3 PUSH2 0x5382 JUMP JUMPDEST PUSH1 0x20 DUP3 ADD SWAP1 POP SWAP2 SWAP1 POP JUMP JUMPDEST PUSH1 0x0 PUSH1 0x20 DUP3 ADD SWAP1 POP DUP2 DUP2 SUB PUSH1 0x0 DUP4 ADD MSTORE PUSH2 0x53E7 DUP2 PUSH2 0x53AB JUMP JUMPDEST SWAP1 POP SWAP2 SWAP1 POP JUMP JUMPDEST PUSH32 0x4552433732313A207472616E7366657220746F206E6F6E204552433732315265 PUSH1 0x0 DUP3 ADD MSTORE PUSH32 0x63656976657220696D706C656D656E7465720000000000000000000000000000 PUSH1 0x20 DUP3 ADD MSTORE POP JUMP JUMPDEST PUSH1 0x0 PUSH2 0x544A PUSH1 0x32 DUP4 PUSH2 0x386A JUMP JUMPDEST SWAP2 POP PUSH2 0x5455 DUP3 PUSH2 0x53EE JUMP JUMPDEST PUSH1 0x40 DUP3 ADD SWAP1 POP SWAP2 SWAP1 POP JUMP JUMPDEST PUSH1 0x0 PUSH1 0x20 DUP3 ADD SWAP1 POP DUP2 DUP2 SUB PUSH1 0x0 DUP4 ADD MSTORE PUSH2 0x5479 DUP2 PUSH2 0x543D JUMP JUMPDEST SWAP1 POP SWAP2 SWAP1 POP JUMP JUMPDEST PUSH32 0x6F776E6572000000000000000000000000000000000000000000000000000000 PUSH1 0x0 DUP3 ADD MSTORE POP JUMP JUMPDEST PUSH1 0x0 PUSH2 0x54B6 PUSH1 0x5 DUP4 PUSH2 0x386A JUMP JUMPDEST SWAP2 POP PUSH2 0x54C1 DUP3 PUSH2 0x5480 JUMP JUMPDEST PUSH1 0x20 DUP3 ADD SWAP1 POP SWAP2 SWAP1 POP JUMP JUMPDEST PUSH1 0x0 PUSH1 0x20 DUP3 ADD SWAP1 POP DUP2 DUP2 SUB PUSH1 0x0 DUP4 ADD MSTORE PUSH2 0x54E5 DUP2 PUSH2 0x54A9 JUMP JUMPDEST SWAP1 POP SWAP2 SWAP1 POP JUMP JUMPDEST PUSH32 0x6C6567656E646172790000000000000000000000000000000000000000000000 PUSH1 0x0 DUP3 ADD MSTORE POP JUMP JUMPDEST PUSH1 0x0 PUSH2 0x5522 PUSH1 0x9 DUP4 PUSH2 0x386A JUMP JUMPDEST SWAP2 POP PUSH2 0x552D DUP3 PUSH2 0x54EC JUMP JUMPDEST PUSH1 0x20 DUP3 ADD SWAP1 POP SWAP2 SWAP1 POP JUMP JUMPDEST PUSH1 0x0 PUSH1 0x20 DUP3 ADD SWAP1 POP DUP2 DUP2 SUB PUSH1 0x0 DUP4 ADD MSTORE PUSH2 0x5551 DUP2 PUSH2 0x5515 JUMP JUMPDEST SWAP1 POP SWAP2 SWAP1 POP JUMP JUMPDEST PUSH32 0x6E65656431000000000000000000000000000000000000000000000000000000 PUSH1 0x0 DUP3 ADD MSTORE POP JUMP JUMPDEST PUSH1 0x0 PUSH2 0x558E PUSH1 0x5 DUP4 PUSH2 0x386A JUMP JUMPDEST SWAP2 POP PUSH2 0x5599 DUP3 PUSH2 0x5558 JUMP JUMPDEST PUSH1 0x20 DUP3 ADD SWAP1 POP SWAP2 SWAP1 POP JUMP JUMPDEST PUSH1 0x0 PUSH1 0x20 DUP3 ADD SWAP1 POP DUP2 DUP2 SUB PUSH1 0x0 DUP4 ADD MSTORE PUSH2 0x55BD DUP2 PUSH2 0x5581 JUMP JUMPDEST SWAP1 POP SWAP2 SWAP1 POP JUMP JUMPDEST PUSH32 0x636F6D6D6F6E0000000000000000000000000000000000000000000000000000 PUSH1 0x0 DUP3 ADD MSTORE POP JUMP JUMPDEST PUSH1 0x0 PUSH2 0x55FA PUSH1 0x6 DUP4 PUSH2 0x386A JUMP JUMPDEST SWAP2 POP PUSH2 0x5605 DUP3 PUSH2 0x55C4 JUMP JUMPDEST PUSH1 0x20 DUP3 ADD SWAP1 POP SWAP2 SWAP1 POP JUMP JUMPDEST PUSH1 0x0 PUSH1 0x20 DUP3 ADD SWAP1 POP DUP2 DUP2 SUB PUSH1 0x0 DUP4 ADD MSTORE PUSH2 0x5629 DUP2 PUSH2 0x55ED JUMP JUMPDEST SWAP1 POP SWAP2 SWAP1 POP JUMP JUMPDEST PUSH32 0x6E65656435000000000000000000000000000000000000000000000000000000 PUSH1 0x0 DUP3 ADD MSTORE POP JUMP JUMPDEST PUSH1 0x0 PUSH2 0x5666 PUSH1 0x5 DUP4 PUSH2 0x386A JUMP JUMPDEST SWAP2 POP PUSH2 0x5671 DUP3 PUSH2 0x5630 JUMP JUMPDEST PUSH1 0x20 DUP3 ADD SWAP1 POP SWAP2 SWAP1 POP JUMP JUMPDEST PUSH1 0x0 PUSH1 0x20 DUP3 ADD SWAP1 POP DUP2 DUP2 SUB PUSH1 0x0 DUP4 ADD MSTORE PUSH2 0x5695 DUP2 PUSH2 0x5659 JUMP JUMPDEST SWAP1 POP SWAP2 SWAP1 POP JUMP JUMPDEST DUP3 DUP2 DUP4 CALLDATACOPY POP POP POP JUMP JUMPDEST PUSH2 0x56B2 PUSH2 0xC80 DUP4 DUP4 PUSH2 0x569C JUMP JUMPDEST POP POP JUMP JUMPDEST PUSH1 0x0 PUSH2 0x56C2 DUP3 DUP5 PUSH2 0x56A5 JUMP JUMPDEST PUSH2 0xC80 DUP3 ADD SWAP2 POP DUP2 SWAP1 POP SWAP3 SWAP2 POP POP JUMP JUMPDEST PUSH32 0x43616E6E6F74207472616E7366657220746F2073656C66000000000000000000 PUSH1 0x0 DUP3 ADD MSTORE POP JUMP JUMPDEST PUSH1 0x0 PUSH2 0x5708 PUSH1 0x17 DUP4 PUSH2 0x386A JUMP JUMPDEST SWAP2 POP PUSH2 0x5713 DUP3 PUSH2 0x56D2 JUMP JUMPDEST PUSH1 0x20 DUP3 ADD SWAP1 POP SWAP2 SWAP1 POP JUMP JUMPDEST PUSH1 0x0 PUSH1 0x20 DUP3 ADD SWAP1 POP DUP2 DUP2 SUB PUSH1 0x0 DUP4 ADD MSTORE PUSH2 0x5737 DUP2 PUSH2 0x56FB JUMP JUMPDEST SWAP1 POP SWAP2 SWAP1 POP JUMP JUMPDEST PUSH2 0x5747 DUP2 PUSH2 0x37F5 JUMP JUMPDEST DUP3 MSTORE POP POP JUMP JUMPDEST PUSH1 0x20 DUP3 ADD PUSH1 0x0 DUP3 ADD MLOAD PUSH2 0x5763 PUSH1 0x0 DUP6 ADD DUP3 PUSH2 0x573E JUMP JUMPDEST POP POP POP POP JUMP JUMPDEST PUSH1 0x0 PUSH1 0x20 DUP3 ADD SWAP1 POP PUSH2 0x577E PUSH1 0x0 DUP4 ADD DUP5 PUSH2 0x574D JUMP JUMPDEST SWAP3 SWAP2 POP POP JUMP JUMPDEST PUSH1 0x0 DUP3 DUP3 MSTORE PUSH1 0x20 DUP3 ADD SWAP1 POP SWAP3 SWAP2 POP POP JUMP JUMPDEST PUSH1 0x0 PUSH2 0x57A0 DUP3 PUSH2 0x5204 JUMP JUMPDEST PUSH2 0x57AA DUP2 DUP6 PUSH2 0x5784 JUMP JUMPDEST SWAP4 POP PUSH2 0x57BA DUP2 DUP6 PUSH1 0x20 DUP7 ADD PUSH2 0x387B JUMP JUMPDEST PUSH2 0x57C3 DUP2 PUSH2 0x38A5 JUMP JUMPDEST DUP5 ADD SWAP2 POP POP SWAP3 SWAP2 POP POP JUMP JUMPDEST PUSH1 0x0 PUSH1 0x80 DUP3 ADD SWAP1 POP PUSH2 0x57E3 PUSH1 0x0 DUP4 ADD DUP8 PUSH2 0x399C JUMP JUMPDEST PUSH2 0x57F0 PUSH1 0x20 DUP4 ADD DUP7 PUSH2 0x399C JUMP JUMPDEST PUSH2 0x57FD PUSH1 0x40 DUP4 ADD DUP6 PUSH2 0x3835 JUMP JUMPDEST DUP2 DUP2 SUB PUSH1 0x60 DUP4 ADD MSTORE PUSH2 0x580F DUP2 DUP5 PUSH2 0x5795 JUMP JUMPDEST SWAP1 POP SWAP6 SWAP5 POP POP POP POP POP JUMP JUMPDEST PUSH1 0x0 DUP2 MLOAD SWAP1 POP PUSH2 0x5829 DUP2 PUSH2 0x379C JUMP JUMPDEST SWAP3 SWAP2 POP POP JUMP JUMPDEST PUSH1 0x0 PUSH1 0x20 DUP3 DUP5 SUB SLT ISZERO PUSH2 0x5845 JUMPI PUSH2 0x5844 PUSH2 0x3766 JUMP JUMPDEST JUMPDEST PUSH1 0x0 PUSH2 0x5853 DUP5 DUP3 DUP6 ADD PUSH2 0x581A JUMP JUMPDEST SWAP2 POP POP SWAP3 SWAP2 POP POP JUMP JUMPDEST PUSH32 0x4552433732313A206D696E7420746F20746865207A65726F2061646472657373 PUSH1 0x0 DUP3 ADD MSTORE POP JUMP JUMPDEST PUSH1 0x0 PUSH2 0x5892 PUSH1 0x20 DUP4 PUSH2 0x386A JUMP JUMPDEST SWAP2 POP PUSH2 0x589D DUP3 PUSH2 0x585C JUMP JUMPDEST PUSH1 0x20 DUP3 ADD SWAP1 POP SWAP2 SWAP1 POP JUMP JUMPDEST PUSH1 0x0 PUSH1 0x20 DUP3 ADD SWAP1 POP DUP2 DUP2 SUB PUSH1 0x0 DUP4 ADD MSTORE PUSH2 0x58C1 DUP2 PUSH2 0x5885 JUMP JUMPDEST SWAP1 POP SWAP2 SWAP1 POP JUMP JUMPDEST PUSH32 0x4552433732313A20746F6B656E20616C7265616479206D696E74656400000000 PUSH1 0x0 DUP3 ADD MSTORE POP JUMP JUMPDEST PUSH1 0x0 PUSH2 0x58FE PUSH1 0x1C DUP4 PUSH2 0x386A JUMP JUMPDEST SWAP2 POP PUSH2 0x5909 DUP3 PUSH2 0x58C8 JUMP JUMPDEST PUSH1 0x20 DUP3 ADD SWAP1 POP SWAP2 SWAP1 POP JUMP JUMPDEST PUSH1 0x0 PUSH1 0x20 DUP3 ADD SWAP1 POP DUP2 DUP2 SUB PUSH1 0x0 DUP4 ADD MSTORE PUSH2 0x592D DUP2 PUSH2 0x58F1 JUMP JUMPDEST SWAP1 POP SWAP2 SWAP1 POP JUMP INVALID LOG2 PUSH5 0x6970667358 0x22 SLT KECCAK256 0x21 EQ PUSH14 0x799E846EE10EC60888EAB077FA0 INVALID ADD PUSH28 0xDBD991BB2193C04F2BAF8DE564736F6C634300081400330000000000 "},"methodIdentifiers":{"COMMON_VARIANTS()":"1ac39bfd","COORDINATOR()":"3b2bcbf1","LEGENDARY_OFFSET()":"2d90ed6d","MAX_COMMON_SUPPLY()":"a78f06b5","acceptOwnership()":"79ba5097","approve(address,uint256)":"095ea7b3","balanceOf(address)":"70a08231","burnCollection1(uint256[100],address,bytes)":"f2f2ef2b","burnCollection2(uint256[20],uint256,address)":"e1b60f89","callbackGasLimit()":"24f74697","commonMinted()":"66435c06","count()":"06661abd","getApproved(uint256)":"081812fc","getVariant(uint256)":"74e1ee41","isApprovedForAll(address,address)":"e985e9c5","jackpotMintPercent()":"f5a618b0","keyHash()":"61728f39","mint(address,uint256,bytes)":"94d008ef","name()":"06fdde03","numWords()":"7ccfd7fc","owner()":"8da5cb5b","ownerOf(uint256)":"6352211e","paymentToken()":"3013ce29","price()":"a035b1fe","rawFulfillRandomWords(uint256,uint256[])":"1fe543e3","requestConfirmations()":"b0fb162f","s_vrfCoordinator()":"9eccacf6","safeTransferFrom(address,address,uint256)":"42842e0e","safeTransferFrom(address,address,uint256,bytes)":"b88d4fde","setApprovalForAll(address,bool)":"a22cb465","setBaseURI(string)":"55f804b3","setCoordinator(address)":"8ea98117","setJackpotMintPercent(uint256)":"fc831051","setPrice(uint256)":"91b7f5ed","setVRFConfigV25(address,bytes32,uint256,uint32,uint16)":"b05e9771","subscriptionId()":"09c1ba2e","supportsInterface(bytes4)":"01ffc9a7","symbol()":"95d89b41","tokenURI(uint256)":"c87b56dd","totalSupply()":"18160ddd","transferFrom(address,address,uint256)":"23b872dd","transferOwnership(address)":"f2fde38b","withdraw(address)":"51cff8d9"}}}}}