{"contracts/Gashapon.sol":{"Gashapon":{"abi":[{"inputs":[{"internalType":"address","name":"paymentToken_","type":"address"},{"internalType":"uint256","name":"price_","type":"uint256"},{"internalType":"string","name":"baseURI_","type":"string"},{"internalType":"address","name":"coordinator_","type":"address"}],"stateMutability":"nonpayable","type":"constructor"},{"inputs":[{"internalType":"address","name":"have","type":"address"},{"internalType":"address","name":"want","type":"address"}],"name":"OnlyCoordinatorCanFulfill","type":"error"},{"inputs":[{"internalType":"address","name":"have","type":"address"},{"internalType":"address","name":"owner","type":"address"},{"internalType":"address","name":"coordinator","type":"address"}],"name":"OnlyOwnerOrCoordinator","type":"error"},{"inputs":[],"name":"ZeroAddress","type":"error"},{"anonymous":false,"inputs":[{"indexed":true,"internalType":"address","name":"owner","type":"address"},{"indexed":true,"internalType":"address","name":"approved","type":"address"},{"indexed":true,"internalType":"uint256","name":"tokenId","type":"uint256"}],"name":"Approval","type":"event"},{"anonymous":false,"inputs":[{"indexed":true,"internalType":"address","name":"owner","type":"address"},{"indexed":true,"internalType":"address","name":"operator","type":"address"},{"indexed":false,"internalType":"bool","name":"approved","type":"bool"}],"name":"ApprovalForAll","type":"event"},{"anonymous":false,"inputs":[{"indexed":false,"internalType":"address","name":"vrfCoordinator","type":"address"}],"name":"CoordinatorSet","type":"event"},{"anonymous":false,"inputs":[{"indexed":true,"internalType":"address","name":"from","type":"address"},{"indexed":true,"internalType":"address","name":"to","type":"address"}],"name":"OwnershipTransferRequested","type":"event"},{"anonymous":false,"inputs":[{"indexed":true,"internalType":"address","name":"from","type":"address"},{"indexed":true,"internalType":"address","name":"to","type":"address"}],"name":"OwnershipTransferred","type":"event"},{"anonymous":false,"inputs":[{"indexed":true,"internalType":"address","name":"from","type":"address"},{"indexed":true,"internalType":"address","name":"to","type":"address"},{"indexed":true,"internalType":"uint256","name":"tokenId","type":"uint256"}],"name":"Transfer","type":"event"},{"inputs":[],"name":"COMMON_VARIANTS","outputs":[{"internalType":"uint256","name":"","type":"uint256"}],"stateMutability":"view","type":"function"},{"inputs":[],"name":"COORDINATOR","outputs":[{"internalType":"contract IVRFCoordinatorV2Plus","name":"","type":"address"}],"stateMutability":"view","type":"function"},{"inputs":[],"name":"LEGENDARY_OFFSET","outputs":[{"internalType":"uint256","name":"","type":"uint256"}],"stateMutability":"view","type":"function"},{"inputs":[],"name":"MAX_COMMON_SUPPLY","outputs":[{"internalType":"uint256","name":"","type":"uint256"}],"stateMutability":"view","type":"function"},{"inputs":[],"name":"acceptOwnership","outputs":[],"stateMutability":"nonpayable","type":"function"},{"inputs":[{"internalType":"address","name":"to","type":"address"},{"internalType":"uint256","name":"tokenId","type":"uint256"}],"name":"approve","outputs":[],"stateMutability":"nonpayable","type":"function"},{"inputs":[{"internalType":"address","name":"owner","type":"address"}],"name":"balanceOf","outputs":[{"internalType":"uint256","name":"","type":"uint256"}],"stateMutability":"view","type":"function"},{"inputs":[{"internalType":"uint256[100]","name":"tokens","type":"uint256[100]"},{"internalType":"address","name":"rewardsReceiver","type":"address"},{"internalType":"bytes","name":"","type":"bytes"}],"name":"burnCollection1","outputs":[],"stateMutability":"nonpayable","type":"function"},{"inputs":[{"internalType":"uint256[20]","name":"tokens","type":"uint256[20]"},{"internalType":"uint256","name":"","type":"uint256"},{"internalType":"address","name":"rewardsReceiver","type":"address"}],"name":"burnCollection2","outputs":[],"stateMutability":"nonpayable","type":"function"},{"inputs":[],"name":"callbackGasLimit","outputs":[{"internalType":"uint32","name":"","type":"uint32"}],"stateMutability":"view","type":"function"},{"inputs":[],"name":"commonMinted","outputs":[{"internalType":"uint256","name":"","type":"uint256"}],"stateMutability":"view","type":"function"},{"inputs":[],"name":"count","outputs":[{"internalType":"uint256","name":"","type":"uint256"}],"stateMutability":"view","type":"function"},{"inputs":[{"internalType":"uint256","name":"tokenId","type":"uint256"}],"name":"getApproved","outputs":[{"internalType":"address","name":"","type":"address"}],"stateMutability":"view","type":"function"},{"inputs":[{"internalType":"uint256","name":"tokenId","type":"uint256"}],"name":"getVariant","outputs":[{"internalType":"uint256","name":"","type":"uint256"}],"stateMutability":"view","type":"function"},{"inputs":[{"internalType":"address","name":"owner","type":"address"},{"internalType":"address","name":"operator","type":"address"}],"name":"isApprovedForAll","outputs":[{"internalType":"bool","name":"","type":"bool"}],"stateMutability":"view","type":"function"},{"inputs":[],"name":"jackpotMintPercent","outputs":[{"internalType":"uint256","name":"","type":"uint256"}],"stateMutability":"view","type":"function"},{"inputs":[],"name":"keyHash","outputs":[{"internalType":"bytes32","name":"","type":"bytes32"}],"stateMutability":"view","type":"function"},{"inputs":[{"internalType":"address","name":"receiver","type":"address"},{"internalType":"uint256","name":"quantity","type":"uint256"},{"internalType":"bytes","name":"","type":"bytes"}],"name":"mint","outputs":[],"stateMutability":"nonpayable","type":"function"},{"inputs":[],"name":"name","outputs":[{"internalType":"string","name":"","type":"string"}],"stateMutability":"view","type":"function"},{"inputs":[],"name":"numWords","outputs":[{"internalType":"uint32","name":"","type":"uint32"}],"stateMutability":"view","type":"function"},{"inputs":[],"name":"owner","outputs":[{"internalType":"address","name":"","type":"address"}],"stateMutability":"view","type":"function"},{"inputs":[{"internalType":"uint256","name":"tokenId","type":"uint256"}],"name":"ownerOf","outputs":[{"internalType":"address","name":"","type":"address"}],"stateMutability":"view","type":"function"},{"inputs":[],"name":"paymentToken","outputs":[{"internalType":"contract IERC20","name":"","type":"address"}],"stateMutability":"view","type":"function"},{"inputs":[],"name":"price","outputs":[{"internalType":"uint256","name":"","type":"uint256"}],"stateMutability":"view","type":"function"},{"inputs":[{"internalType":"uint256","name":"requestId","type":"uint256"},{"internalType":"uint256[]","name":"randomWords","type":"uint256[]"}],"name":"rawFulfillRandomWords","outputs":[],"stateMutability":"nonpayable","type":"function"},{"inputs":[],"name":"requestConfirmations","outputs":[{"internalType":"uint16","name":"","type":"uint16"}],"stateMutability":"view","type":"function"},{"inputs":[],"name":"s_vrfCoordinator","outputs":[{"internalType":"contract IVRFCoordinatorV2Plus","name":"","type":"address"}],"stateMutability":"view","type":"function"},{"inputs":[{"internalType":"address","name":"from","type":"address"},{"internalType":"address","name":"to","type":"address"},{"internalType":"uint256","name":"tokenId","type":"uint256"}],"name":"safeTransferFrom","outputs":[],"stateMutability":"nonpayable","type":"function"},{"inputs":[{"internalType":"address","name":"from","type":"address"},{"internalType":"address","name":"to","type":"address"},{"internalType":"uint256","name":"tokenId","type":"uint256"},{"internalType":"bytes","name":"data","type":"bytes"}],"name":"safeTransferFrom","outputs":[],"stateMutability":"nonpayable","type":"function"},{"inputs":[{"internalType":"address","name":"operator","type":"address"},{"internalType":"bool","name":"approved","type":"bool"}],"name":"setApprovalForAll","outputs":[],"stateMutability":"nonpayable","type":"function"},{"inputs":[{"internalType":"string","name":"newBase","type":"string"}],"name":"setBaseURI","outputs":[],"stateMutability":"nonpayable","type":"function"},{"inputs":[{"internalType":"address","name":"_vrfCoordinator","type":"address"}],"name":"setCoordinator","outputs":[],"stateMutability":"nonpayable","type":"function"},{"inputs":[{"internalType":"uint256","name":"percent","type":"uint256"}],"name":"setJackpotMintPercent","outputs":[],"stateMutability":"nonpayable","type":"function"},{"inputs":[{"internalType":"uint256","name":"newPrice","type":"uint256"}],"name":"setPrice","outputs":[],"stateMutability":"nonpayable","type":"function"},{"inputs":[{"internalType":"address","name":"coordinator","type":"address"},{"internalType":"bytes32","name":"keyHash_","type":"bytes32"},{"internalType":"uint256","name":"subId","type":"uint256"},{"internalType":"uint32","name":"cbGasLimit","type":"uint32"},{"internalType":"uint16","name":"confs","type":"uint16"}],"name":"setVRFConfigV25","outputs":[],"stateMutability":"nonpayable","type":"function"},{"inputs":[],"name":"subscriptionId","outputs":[{"internalType":"uint256","name":"","type":"uint256"}],"stateMutability":"view","type":"function"},{"inputs":[{"internalType":"bytes4","name":"interfaceId","type":"bytes4"}],"name":"supportsInterface","outputs":[{"internalType":"bool","name":"","type":"bool"}],"stateMutability":"view","type":"function"},{"inputs":[],"name":"symbol","outputs":[{"internalType":"string","name":"","type":"string"}],"stateMutability":"view","type":"function"},{"inputs":[{"internalType":"uint256","name":"tokenId","type":"uint256"}],"name":"tokenURI","outputs":[{"internalType":"string","name":"","type":"string"}],"stateMutability":"view","type":"function"},{"inputs":[],"name":"totalSupply","outputs":[{"internalType":"uint256","name":"","type":"uint256"}],"stateMutability":"view","type":"function"},{"inputs":[{"internalType":"address","name":"from","type":"address"},{"internalType":"address","name":"to","type":"address"},{"internalType":"uint256","name":"tokenId","type":"uint256"}],"name":"transferFrom","outputs":[],"stateMutability":"nonpayable","type":"function"},{"inputs":[{"internalType":"address","name":"to","type":"address"}],"name":"transferOwnership","outputs":[],"stateMutability":"nonpayable","type":"function"},{"inputs":[{"internalType":"address","name":"to","type":"address"}],"name":"withdraw","outputs":[],"stateMutability":"nonpayable","type":"function"}],"evm":{"bytecode":{"linkReferences":{},"object":"60a0604052603c600d556203d090601360006101000a81548163ffffffff021916908363ffffffff1602179055506003601360046101000a81548161ffff021916908361ffff1602179055506001601360066101000a81548163ffffffff021916908363ffffffff1602179055503480156200007a57600080fd5b506040516200642d3803806200642d8339818101604052810190620000a09190620006e1565b80338060006040518060400160405280600881526020017f4761736861706f6e0000000000000000000000000000000000000000000000008152506040518060400160405280600481526020017f47415348000000000000000000000000000000000000000000000000000000008152508160009081620001229190620009b3565b508060019081620001349190620009b3565b5050506001600681905550600073ffffffffffffffffffffffffffffffffffffffff168273ffffffffffffffffffffffffffffffffffffffff1603620001b1576040517f08c379a0000000000000000000000000000000000000000000000000000000008152600401620001a89062000afb565b60405180910390fd5b81600760006101000a81548173ffffffffffffffffffffffffffffffffffffffff021916908373ffffffffffffffffffffffffffffffffffffffff160217905550600073ffffffffffffffffffffffffffffffffffffffff168173ffffffffffffffffffffffffffffffffffffffff1614620002395762000238816200037d60201b60201c565b5b505050600073ffffffffffffffffffffffffffffffffffffffff168173ffffffffffffffffffffffffffffffffffffffff1603620002a3576040517fd92e233d00000000000000000000000000000000000000000000000000000000815260040160405180910390fd5b80600960006101000a81548173ffffffffffffffffffffffffffffffffffffffff021916908373ffffffffffffffffffffffffffffffffffffffff160217905550508373ffffffffffffffffffffffffffffffffffffffff1660808173ffffffffffffffffffffffffffffffffffffffff168152505082600a8190555081600f9081620003319190620009b3565b5080601060006101000a81548173ffffffffffffffffffffffffffffffffffffffff021916908373ffffffffffffffffffffffffffffffffffffffff1602179055505050505062000b8f565b3373ffffffffffffffffffffffffffffffffffffffff168173ffffffffffffffffffffffffffffffffffffffff1603620003ee576040517f08c379a0000000000000000000000000000000000000000000000000000000008152600401620003e59062000b6d565b60405180910390fd5b80600860006101000a81548173ffffffffffffffffffffffffffffffffffffffff021916908373ffffffffffffffffffffffffffffffffffffffff1602179055508073ffffffffffffffffffffffffffffffffffffffff16600760009054906101000a900473ffffffffffffffffffffffffffffffffffffffff1673ffffffffffffffffffffffffffffffffffffffff167fed8889f560326eb138920d842192f0eb3dd22b4f139c87a2c57538e05bae127860405160405180910390a350565b6000604051905090565b600080fd5b600080fd5b600073ffffffffffffffffffffffffffffffffffffffff82169050919050565b6000620004ef82620004c2565b9050919050565b6200050181620004e2565b81146200050d57600080fd5b50565b6000815190506200052181620004f6565b92915050565b6000819050919050565b6200053c8162000527565b81146200054857600080fd5b50565b6000815190506200055c8162000531565b92915050565b600080fd5b600080fd5b6000601f19601f8301169050919050565b7f4e487b7100000000000000000000000000000000000000000000000000000000600052604160045260246000fd5b620005b7826200056c565b810181811067ffffffffffffffff82111715620005d957620005d86200057d565b5b80604052505050565b6000620005ee620004ae565b9050620005fc8282620005ac565b919050565b600067ffffffffffffffff8211156200061f576200061e6200057d565b5b6200062a826200056c565b9050602081019050919050565b60005b83811015620006575780820151818401526020810190506200063a565b60008484015250505050565b60006200067a620006748462000601565b620005e2565b90508281526020810184848401111562000699576200069862000567565b5b620006a684828562000637565b509392505050565b600082601f830112620006c657620006c562000562565b5b8151620006d884826020860162000663565b91505092915050565b60008060008060808587031215620006fe57620006fd620004b8565b5b60006200070e8782880162000510565b945050602062000721878288016200054b565b935050604085015167ffffffffffffffff811115620007455762000744620004bd565b5b6200075387828801620006ae565b9250506060620007668782880162000510565b91505092959194509250565b600081519050919050565b7f4e487b7100000000000000000000000000000000000000000000000000000000600052602260045260246000fd5b60006002820490506001821680620007c557607f821691505b602082108103620007db57620007da6200077d565b5b50919050565b60008190508160005260206000209050919050565b60006020601f8301049050919050565b600082821b905092915050565b600060088302620008457fffffffffffffffffffffffffffffffffffffffffffffffffffffffffffffffff8262000806565b62000851868362000806565b95508019841693508086168417925050509392505050565b6000819050919050565b6000620008946200088e620008888462000527565b62000869565b62000527565b9050919050565b6000819050919050565b620008b08362000873565b620008c8620008bf826200089b565b84845462000813565b825550505050565b600090565b620008df620008d0565b620008ec818484620008a5565b505050565b5b81811015620009145762000908600082620008d5565b600181019050620008f2565b5050565b601f82111562000963576200092d81620007e1565b6200093884620007f6565b8101602085101562000948578190505b620009606200095785620007f6565b830182620008f1565b50505b505050565b600082821c905092915050565b6000620009886000198460080262000968565b1980831691505092915050565b6000620009a3838362000975565b9150826002028217905092915050565b620009be8262000772565b67ffffffffffffffff811115620009da57620009d96200057d565b5b620009e68254620007ac565b620009f382828562000918565b600060209050601f83116001811462000a2b576000841562000a16578287015190505b62000a22858262000995565b86555062000a92565b601f19841662000a3b86620007e1565b60005b8281101562000a655784890151825560018201915060208501945060208101905062000a3e565b8683101562000a85578489015162000a81601f89168262000975565b8355505b6001600288020188555050505b505050505050565b600082825260208201905092915050565b7f43616e6e6f7420736574206f776e657220746f207a65726f0000000000000000600082015250565b600062000ae360188362000a9a565b915062000af08262000aab565b602082019050919050565b6000602082019050818103600083015262000b168162000ad4565b9050919050565b7f43616e6e6f74207472616e7366657220746f2073656c66000000000000000000600082015250565b600062000b5560178362000a9a565b915062000b628262000b1d565b602082019050919050565b6000602082019050818103600083015262000b888162000b46565b9050919050565b60805161586d62000bc060003960008181610bf101528181610c6501528181610d010152611428015261586d6000f3fe608060405234801561001057600080fd5b50600436106102695760003560e01c806374e1ee4111610151578063a78f06b5116100c3578063e1b60f8911610087578063e1b60f8914610704578063e985e9c514610720578063f2f2ef2b14610750578063f2fde38b1461076c578063f5a618b014610788578063fc831051146107a657610269565b8063a78f06b514610660578063b05e97711461067e578063b0fb162f1461069a578063b88d4fde146106b8578063c87b56dd146106d457610269565b806391b7f5ed1161011557806391b7f5ed146105b257806394d008ef146105ce57806395d89b41146105ea5780639eccacf614610608578063a035b1fe14610626578063a22cb4651461064457610269565b806374e1ee411461052057806379ba5097146105505780637ccfd7fc1461055a5780638da5cb5b146105785780638ea981171461059657610269565b806324f74697116101ea57806351cff8d9116101ae57806351cff8d91461044c57806355f804b31461046857806361728f39146104845780636352211e146104a257806366435c06146104d257806370a08231146104f057610269565b806324f74697146103b85780632d90ed6d146103d65780633013ce29146103f45780633b2bcbf11461041257806342842e0e1461043057610269565b806309c1ba2e1161023157806309c1ba2e1461032657806318160ddd146103445780631ac39bfd146103625780631fe543e31461038057806323b872dd1461039c57610269565b806301ffc9a71461026e57806306661abd1461029e57806306fdde03146102bc578063081812fc146102da578063095ea7b31461030a575b600080fd5b610288600480360381019061028391906136cb565b6107c2565b6040516102959190613713565b60405180910390f35b6102a66108a4565b6040516102b39190613747565b60405180910390f35b6102c46108ae565b6040516102d191906137f2565b60405180910390f35b6102f460048036038101906102ef9190613840565b610940565b60405161030191906138ae565b60405180910390f35b610324600480360381019061031f91906138f5565b610986565b005b61032e610a9d565b60405161033b9190613747565b60405180910390f35b61034c610aa3565b6040516103599190613747565b60405180910390f35b61036a610aa9565b6040516103779190613747565b60405180910390f35b61039a6004803603810190610395919061399a565b610aae565b005b6103b660048036038101906103b191906139fa565b610b74565b005b6103c0610bd4565b6040516103cd9190613a6c565b60405180910390f35b6103de610bea565b6040516103eb9190613747565b60405180910390f35b6103fc610bef565b6040516104099190613ae6565b60405180910390f35b61041a610c13565b6040516104279190613b22565b60405180910390f35b61044a600480360381019061044591906139fa565b610c39565b005b61046660048036038101906104619190613b3d565b610c59565b005b610482600480360381019061047d9190613bc0565b610de0565b005b61048c610dfe565b6040516104999190613c26565b60405180910390f35b6104bc60048036038101906104b79190613840565b610e04565b6040516104c991906138ae565b60405180910390f35b6104da610e8a565b6040516104e79190613747565b60405180910390f35b61050a60048036038101906105059190613b3d565b610e90565b6040516105179190613747565b60405180910390f35b61053a60048036038101906105359190613840565b610f47565b6040516105479190613747565b60405180910390f35b610558610fac565b005b610562611143565b60405161056f9190613a6c565b60405180910390f35b610580611159565b60405161058d91906138ae565b60405180910390f35b6105b060048036038101906105ab9190613b3d565b611183565b005b6105cc60048036038101906105c79190613840565b611364565b005b6105e860048036038101906105e39190613c97565b611376565b005b6105f261162c565b6040516105ff91906137f2565b60405180910390f35b6106106116be565b60405161061d9190613b22565b60405180910390f35b61062e6116e4565b60405161063b9190613747565b60405180910390f35b61065e60048036038101906106599190613d37565b6116ea565b005b610668611700565b6040516106759190613747565b60405180910390f35b61069860048036038101906106939190613e09565b611707565b005b6106a26117bf565b6040516106af9190613e93565b60405180910390f35b6106d260048036038101906106cd9190613fde565b6117d3565b005b6106ee60048036038101906106e99190613840565b611835565b6040516106fb91906137f2565b60405180910390f35b61071e60048036038101906107199190614083565b61189d565b005b61073a600480360381019061073591906140d9565b611972565b6040516107479190613713565b60405180910390f35b61076a6004803603810190610765919061413b565b611a06565b005b61078660048036038101906107819190613b3d565b611a77565b005b610790611a8b565b60405161079d9190613747565b60405180910390f35b6107c060048036038101906107bb9190613840565b611a91565b005b60007f80ac58cd000000000000000000000000000000000000000000000000000000007bffffffffffffffffffffffffffffffffffffffffffffffffffffffff1916827bffffffffffffffffffffffffffffffffffffffffffffffffffffffff1916148061088d57507f5b5e139f000000000000000000000000000000000000000000000000000000007bffffffffffffffffffffffffffffffffffffffffffffffffffffffff1916827bffffffffffffffffffffffffffffffffffffffffffffffffffffffff1916145b8061089d575061089c82611ae7565b5b9050919050565b6000600b54905090565b6060600080546108bd906141e1565b80601f01602080910402602001604051908101604052809291908181526020018280546108e9906141e1565b80156109365780601f1061090b57610100808354040283529160200191610936565b820191906000526020600020905b81548152906001019060200180831161091957829003601f168201915b5050505050905090565b600061094b82611b51565b6004600083815260200190815260200160002060009054906101000a900473ffffffffffffffffffffffffffffffffffffffff169050919050565b600061099182610e04565b90508073ffffffffffffffffffffffffffffffffffffffff168373ffffffffffffffffffffffffffffffffffffffff1603610a01576040517f08c379a00000000000000000000000000000000000000000000000000000000081526004016109f890614284565b60405180910390fd5b8073ffffffffffffffffffffffffffffffffffffffff16610a20611b9c565b73ffffffffffffffffffffffffffffffffffffffff161480610a4f5750610a4e81610a49611b9c565b611972565b5b610a8e576040517f08c379a0000000000000000000000000000000000000000000000000000000008152600401610a8590614316565b60405180910390fd5b610a988383611ba4565b505050565b60125481565b600b5481565b601481565b600960009054906101000a900473ffffffffffffffffffffffffffffffffffffffff1673ffffffffffffffffffffffffffffffffffffffff163373ffffffffffffffffffffffffffffffffffffffff1614610b645733600960009054906101000a900473ffffffffffffffffffffffffffffffffffffffff166040517f1cf993f4000000000000000000000000000000000000000000000000000000008152600401610b5b929190614336565b60405180910390fd5b610b6f838383611c5d565b505050565b610b85610b7f611b9c565b82611dcf565b610bc4576040517f08c379a0000000000000000000000000000000000000000000000000000000008152600401610bbb906143d1565b60405180910390fd5b610bcf838383611e64565b505050565b601360009054906101000a900463ffffffff1681565b601481565b7f000000000000000000000000000000000000000000000000000000000000000081565b601060009054906101000a900473ffffffffffffffffffffffffffffffffffffffff1681565b610c54838383604051806020016040528060008152506117d3565b505050565b610c6161215d565b60007f000000000000000000000000000000000000000000000000000000000000000073ffffffffffffffffffffffffffffffffffffffff166370a08231306040518263ffffffff1660e01b8152600401610cbc91906138ae565b602060405180830381865afa158015610cd9573d6000803e3d6000fd5b505050506040513d601f19601f82011682018060405250810190610cfd9190614406565b90507f000000000000000000000000000000000000000000000000000000000000000073ffffffffffffffffffffffffffffffffffffffff1663a9059cbb83836040518363ffffffff1660e01b8152600401610d5a929190614433565b6020604051808303816000875af1158015610d79573d6000803e3d6000fd5b505050506040513d601f19601f82011682018060405250810190610d9d9190614471565b610ddc576040517f08c379a0000000000000000000000000000000000000000000000000000000008152600401610dd3906144ea565b60405180910390fd5b5050565b610de861215d565b8181600f9182610df99291906146b7565b505050565b60115481565b600080610e10836121ef565b9050600073ffffffffffffffffffffffffffffffffffffffff168173ffffffffffffffffffffffffffffffffffffffff1603610e81576040517f08c379a0000000000000000000000000000000000000000000000000000000008152600401610e78906147d3565b60405180910390fd5b80915050919050565b600c5481565b60008073ffffffffffffffffffffffffffffffffffffffff168273ffffffffffffffffffffffffffffffffffffffff1603610f00576040517f08c379a0000000000000000000000000000000000000000000000000000000008152600401610ef790614865565b60405180910390fd5b600360008373ffffffffffffffffffffffffffffffffffffffff1673ffffffffffffffffffffffffffffffffffffffff168152602001908152602001600020549050919050565b6000610f528261222c565b610f91576040517f08c379a0000000000000000000000000000000000000000000000000000000008152600401610f88906148d1565b60405180910390fd5b600e6000838152602001908152602001600020549050919050565b600860009054906101000a900473ffffffffffffffffffffffffffffffffffffffff1673ffffffffffffffffffffffffffffffffffffffff163373ffffffffffffffffffffffffffffffffffffffff161461103c576040517f08c379a00000000000000000000000000000000000000000000000000000000081526004016110339061493d565b60405180910390fd5b6000600760009054906101000a900473ffffffffffffffffffffffffffffffffffffffff16905033600760006101000a81548173ffffffffffffffffffffffffffffffffffffffff021916908373ffffffffffffffffffffffffffffffffffffffff1602179055506000600860006101000a81548173ffffffffffffffffffffffffffffffffffffffff021916908373ffffffffffffffffffffffffffffffffffffffff1602179055503373ffffffffffffffffffffffffffffffffffffffff168173ffffffffffffffffffffffffffffffffffffffff167f8be0079c531659141344cd1fd0a4f28419497f9722a3daafe3b4186f6b6457e060405160405180910390a350565b601360069054906101000a900463ffffffff1681565b6000600760009054906101000a900473ffffffffffffffffffffffffffffffffffffffff16905090565b61118b611159565b73ffffffffffffffffffffffffffffffffffffffff163373ffffffffffffffffffffffffffffffffffffffff16141580156112145750600960009054906101000a900473ffffffffffffffffffffffffffffffffffffffff1673ffffffffffffffffffffffffffffffffffffffff163373ffffffffffffffffffffffffffffffffffffffff1614155b156112835733611222611159565b600960009054906101000a900473ffffffffffffffffffffffffffffffffffffffff166040517f061db9c100000000000000000000000000000000000000000000000000000000815260040161127a9392919061495d565b60405180910390fd5b600073ffffffffffffffffffffffffffffffffffffffff168173ffffffffffffffffffffffffffffffffffffffff16036112e9576040517fd92e233d00000000000000000000000000000000000000000000000000000000815260040160405180910390fd5b80600960006101000a81548173ffffffffffffffffffffffffffffffffffffffff021916908373ffffffffffffffffffffffffffffffffffffffff1602179055507fd1a6a14209a385a964d036e404cb5cfb71f4000cdb03c9366292430787261be68160405161135991906138ae565b60405180910390a150565b61136c61215d565b80600a8190555050565b61137e61226d565b600083116113c1576040517f08c379a00000000000000000000000000000000000000000000000000000000081526004016113b8906149e0565b60405180910390fd5b620186a083600c546113d39190614a2f565b1115611414576040517f08c379a000000000000000000000000000000000000000000000000000000000815260040161140b90614aaf565b60405180910390fd5b600083600a546114249190614acf565b90507f000000000000000000000000000000000000000000000000000000000000000073ffffffffffffffffffffffffffffffffffffffff166323b872dd3330846040518463ffffffff1660e01b815260040161148393929190614b11565b6020604051808303816000875af11580156114a2573d6000803e3d6000fd5b505050506040513d601f19601f820116820180604052508101906114c69190614471565b611505576040517f08c379a00000000000000000000000000000000000000000000000000000000081526004016114fc90614b94565b60405180910390fd5b60008467ffffffffffffffff81111561152157611520613eb3565b5b60405190808252806020026020018201604052801561154f5781602001602082028036833780820191505090505b50905060005b858110156115cd576000600b6000815461156e90614bb4565b919050819055905061158088826122bc565b6000600e600083815260200190815260200160002081905550808383815181106115ad576115ac614bfc565b5b6020026020010181815250505080806115c590614bb4565b915050611555565b5060006115d86122da565b9050816014600083815260200190815260200160002090805190602001906116019291906135b1565b5085600c60008282546116149190614a2f565b925050819055505050506116266124c3565b50505050565b60606001805461163b906141e1565b80601f0160208091040260200160405190810160405280929190818152602001828054611667906141e1565b80156116b45780601f10611689576101008083540402835291602001916116b4565b820191906000526020600020905b81548152906001019060200180831161169757829003601f168201915b5050505050905090565b600960009054906101000a900473ffffffffffffffffffffffffffffffffffffffff1681565b600a5481565b6116fc6116f5611b9c565b83836124cd565b5050565b620186a081565b61170f61215d565b84601060006101000a81548173ffffffffffffffffffffffffffffffffffffffff021916908373ffffffffffffffffffffffffffffffffffffffff160217905550836011819055508260128190555060008263ffffffff161461178e5781601360006101000a81548163ffffffff021916908363ffffffff1602179055505b60008161ffff16146117b85780601360046101000a81548161ffff021916908361ffff1602179055505b5050505050565b601360049054906101000a900461ffff1681565b6117e46117de611b9c565b83611dcf565b611823576040517f08c379a000000000000000000000000000000000000000000000000000000000815260040161181a906143d1565b60405180910390fd5b61182f84848484612639565b50505050565b606061184082611b51565b600061184a612695565b9050600081511161186a5760405180602001604052806000815250611895565b8061187484612727565b604051602001611885929190614c67565b6040516020818303038152906040525b915050919050565b6118a561226d565b600d54620186a06064600c546118bb9190614acf565b6118c59190614cba565b1015611906576040517f08c379a00000000000000000000000000000000000000000000000000000000081526004016118fd90614d37565b60405180910390fd5b6119118360016127f5565b6000600b6000815461192290614bb4565b919050819055905061193482826122bc565b60016014806119439190614a2f565b61194d9190614a2f565b600e6000838152602001908152602001600020819055505061196d6124c3565b505050565b6000600560008473ffffffffffffffffffffffffffffffffffffffff1673ffffffffffffffffffffffffffffffffffffffff16815260200190815260200160002060008373ffffffffffffffffffffffffffffffffffffffff1673ffffffffffffffffffffffffffffffffffffffff16815260200190815260200160002060009054906101000a900460ff16905092915050565b611a0e61226d565b611a19846000612a42565b6000600b60008154611a2a90614bb4565b9190508190559050611a3c84826122bc565b611a4585612c79565b6014611a519190614a2f565b600e60008381526020019081526020016000208190555050611a716124c3565b50505050565b611a7f61215d565b611a8881612cc9565b50565b600d5481565b611a9961215d565b6064811115611add576040517f08c379a0000000000000000000000000000000000000000000000000000000008152600401611ad490614da3565b60405180910390fd5b80600d8190555050565b60007f01ffc9a7000000000000000000000000000000000000000000000000000000007bffffffffffffffffffffffffffffffffffffffffffffffffffffffff1916827bffffffffffffffffffffffffffffffffffffffffffffffffffffffff1916149050919050565b611b5a8161222c565b611b99576040517f08c379a0000000000000000000000000000000000000000000000000000000008152600401611b90906147d3565b60405180910390fd5b50565b600033905090565b816004600083815260200190815260200160002060006101000a81548173ffffffffffffffffffffffffffffffffffffffff021916908373ffffffffffffffffffffffffffffffffffffffff160217905550808273ffffffffffffffffffffffffffffffffffffffff16611c1783610e04565b73ffffffffffffffffffffffffffffffffffffffff167f8c5be1e5ebec7d5bd14f71427d1e84f3dd0314c0f7b2291e5b200ac8c7c3b92560405160405180910390a45050565b600082826000818110611c7357611c72614bfc565b5b905060200201359050600060146000868152602001908152602001600020805480602002602001604051908101604052809291908181526020018280548015611cdb57602002820191906000526020600020905b815481526020019060010190808311611cc7575b505050505090506000815111611d26576040517f08c379a0000000000000000000000000000000000000000000000000000000008152600401611d1d90614e0f565b60405180910390fd5b601460008681526020019081526020016000206000611d4591906135fe565b60005b8151811015611dc7576000828281518110611d6657611d65614bfc565b5b602002602001015190506000600e60008381526020019081526020016000205403611db3576000611d978583612df7565b905080600e600084815260200190815260200160002081905550505b508080611dbf90614bb4565b915050611d48565b505050505050565b600080611ddb83610e04565b90508073ffffffffffffffffffffffffffffffffffffffff168473ffffffffffffffffffffffffffffffffffffffff161480611e1d5750611e1c8185611972565b5b80611e5b57508373ffffffffffffffffffffffffffffffffffffffff16611e4384610940565b73ffffffffffffffffffffffffffffffffffffffff16145b91505092915050565b8273ffffffffffffffffffffffffffffffffffffffff16611e8482610e04565b73ffffffffffffffffffffffffffffffffffffffff1614611eda576040517f08c379a0000000000000000000000000000000000000000000000000000000008152600401611ed190614ea1565b60405180910390fd5b600073ffffffffffffffffffffffffffffffffffffffff168273ffffffffffffffffffffffffffffffffffffffff1603611f49576040517f08c379a0000000000000000000000000000000000000000000000000000000008152600401611f4090614f33565b60405180910390fd5b611f568383836001612e4a565b8273ffffffffffffffffffffffffffffffffffffffff16611f7682610e04565b73ffffffffffffffffffffffffffffffffffffffff1614611fcc576040517f08c379a0000000000000000000000000000000000000000000000000000000008152600401611fc390614ea1565b60405180910390fd5b6004600082815260200190815260200160002060006101000a81549073ffffffffffffffffffffffffffffffffffffffff02191690556001600360008573ffffffffffffffffffffffffffffffffffffffff1673ffffffffffffffffffffffffffffffffffffffff168152602001908152602001600020600082825403925050819055506001600360008473ffffffffffffffffffffffffffffffffffffffff1673ffffffffffffffffffffffffffffffffffffffff16815260200190815260200160002060008282540192505081905550816002600083815260200190815260200160002060006101000a81548173ffffffffffffffffffffffffffffffffffffffff021916908373ffffffffffffffffffffffffffffffffffffffff160217905550808273ffffffffffffffffffffffffffffffffffffffff168473ffffffffffffffffffffffffffffffffffffffff167fddf252ad1be2c89b69c2b068fc378daa952ba7f163c4a11628f55a4df523b3ef60405160405180910390a46121588383836001612e50565b505050565b600760009054906101000a900473ffffffffffffffffffffffffffffffffffffffff1673ffffffffffffffffffffffffffffffffffffffff163373ffffffffffffffffffffffffffffffffffffffff16146121ed576040517f08c379a00000000000000000000000000000000000000000000000000000000081526004016121e490614f9f565b60405180910390fd5b565b60006002600083815260200190815260200160002060009054906101000a900473ffffffffffffffffffffffffffffffffffffffff169050919050565b60008073ffffffffffffffffffffffffffffffffffffffff1661224e836121ef565b73ffffffffffffffffffffffffffffffffffffffff1614159050919050565b6002600654036122b2576040517f08c379a00000000000000000000000000000000000000000000000000000000081526004016122a99061500b565b60405180910390fd5b6002600681905550565b6122d6828260405180602001604052806000815250612e56565b5050565b60008073ffffffffffffffffffffffffffffffffffffffff16601060009054906101000a900473ffffffffffffffffffffffffffffffffffffffff1673ffffffffffffffffffffffffffffffffffffffff161415801561233d5750600060125414155b801561234e57506000801b60115414155b61238d576040517f08c379a000000000000000000000000000000000000000000000000000000000815260040161238490615077565b60405180910390fd5b60006040518060c0016040528060115481526020016012548152602001601360049054906101000a900461ffff1661ffff168152602001601360009054906101000a900463ffffffff1663ffffffff168152602001601360069054906101000a900463ffffffff1663ffffffff16815260200161241a604051806020016040528060001515815250612eb1565b8152509050601060009054906101000a900473ffffffffffffffffffffffffffffffffffffffff1673ffffffffffffffffffffffffffffffffffffffff16639b1c385e826040518263ffffffff1660e01b815260040161247a91906151b1565b6020604051808303816000875af1158015612499573d6000803e3d6000fd5b505050506040513d601f19601f820116820180604052508101906124bd9190614406565b91505090565b6001600681905550565b8173ffffffffffffffffffffffffffffffffffffffff168373ffffffffffffffffffffffffffffffffffffffff160361253b576040517f08c379a00000000000000000000000000000000000000000000000000000000081526004016125329061521f565b60405180910390fd5b80600560008573ffffffffffffffffffffffffffffffffffffffff1673ffffffffffffffffffffffffffffffffffffffff16815260200190815260200160002060008473ffffffffffffffffffffffffffffffffffffffff1673ffffffffffffffffffffffffffffffffffffffff16815260200190815260200160002060006101000a81548160ff0219169083151502179055508173ffffffffffffffffffffffffffffffffffffffff168373ffffffffffffffffffffffffffffffffffffffff167f17307eab39ab6107e8899845ad3d59bd9653f200f220920489ca2b5937696c318360405161262c9190613713565b60405180910390a3505050565b612644848484611e64565b61265084848484612f49565b61268f576040517f08c379a0000000000000000000000000000000000000000000000000000000008152600401612686906152b1565b60405180910390fd5b50505050565b6060600f80546126a4906141e1565b80601f01602080910402602001604051908101604052809291908181526020018280546126d0906141e1565b801561271d5780601f106126f25761010080835404028352916020019161271d565b820191906000526020600020905b81548152906001019060200180831161270057829003601f168201915b5050505050905090565b606060006001612736846130d0565b01905060008167ffffffffffffffff81111561275557612754613eb3565b5b6040519080825280601f01601f1916602001820160405280156127875781602001600182028036833780820191505090505b509050600082602001820190505b6001156127ea578080600190039150507f3031323334353637383961626364656600000000000000000000000000000000600a86061a8153600a85816127de576127dd614c8b565b5b04945060008503612795575b819350505050919050565b600081905061280261361f565b60005b601481101561298057600061283086836014811061282657612825614bfc565b5b6020020135610e04565b90503373ffffffffffffffffffffffffffffffffffffffff168173ffffffffffffffffffffffffffffffffffffffff16146128a0576040517f08c379a00000000000000000000000000000000000000000000000000000000081526004016128979061531d565b60405180910390fd5b6000600e60008885601481106128b9576128b8614bfc565b5b602002013581526020019081526020016000205490506014811180156128eb57506014806128e79190614a2f565b8111155b61292a576040517f08c379a000000000000000000000000000000000000000000000000000000000815260040161292190615389565b60405180910390fd5b83600160148361293a91906153a9565b61294491906153a9565b6014811061295557612954614bfc565b5b60200201805180919061296790614bb4565b815250505050808061297890614bb4565b915050612805565b5060005b60148110156129fb5760018282601481106129a2576129a1614bfc565b5b602002015110156129e8576040517f08c379a00000000000000000000000000000000000000000000000000000000081526004016129df90615429565b60405180910390fd5b80806129f390614bb4565b915050612984565b5060005b6014811015612a3b57612a28858260148110612a1e57612a1d614bfc565b5b6020020135613223565b8080612a3390614bb4565b9150506129ff565b5050505050565b6000819050612a4f61361f565b60005b6064811015612bb7576000612a7d868360648110612a7357612a72614bfc565b5b6020020135610e04565b90503373ffffffffffffffffffffffffffffffffffffffff168173ffffffffffffffffffffffffffffffffffffffff1614612aed576040517f08c379a0000000000000000000000000000000000000000000000000000000008152600401612ae49061531d565b60405180910390fd5b6000600e6000888560648110612b0657612b05614bfc565b5b6020020135815260200190815260200160002054905060018110158015612b2e575060148111155b612b6d576040517f08c379a0000000000000000000000000000000000000000000000000000000008152600401612b6490615495565b60405180910390fd5b83600182612b7b91906153a9565b60148110612b8c57612b8b614bfc565b5b602002018051809190612b9e90614bb4565b8152505050508080612baf90614bb4565b915050612a52565b5060005b6014811015612c32576005828260148110612bd957612bd8614bfc565b5b60200201511015612c1f576040517f08c379a0000000000000000000000000000000000000000000000000000000008152600401612c1690615501565b60405180910390fd5b8080612c2a90614bb4565b915050612bbb565b5060005b6064811015612c7257612c5f858260648110612c5557612c54614bfc565b5b6020020135613223565b8080612c6a90614bb4565b915050612c36565b5050505050565b60008082604051602001612c8d919061553b565b604051602081830303815290604052805190602001209050600160148260001c612cb79190615557565b612cc19190614a2f565b915050919050565b3373ffffffffffffffffffffffffffffffffffffffff168173ffffffffffffffffffffffffffffffffffffffff1603612d37576040517f08c379a0000000000000000000000000000000000000000000000000000000008152600401612d2e906155d4565b60405180910390fd5b80600860006101000a81548173ffffffffffffffffffffffffffffffffffffffff021916908373ffffffffffffffffffffffffffffffffffffffff1602179055508073ffffffffffffffffffffffffffffffffffffffff16600760009054906101000a900473ffffffffffffffffffffffffffffffffffffffff1673ffffffffffffffffffffffffffffffffffffffff167fed8889f560326eb138920d842192f0eb3dd22b4f139c87a2c57538e05bae127860405160405180910390a350565b60008060148484604051602001612e0f929190615615565b6040516020818303038152906040528051906020012060001c612e329190615557565b9050600181612e419190614a2f565b91505092915050565b50505050565b50505050565b612e608383613371565b612e6d6000848484612f49565b612eac576040517f08c379a0000000000000000000000000000000000000000000000000000000008152600401612ea3906152b1565b60405180910390fd5b505050565b60607f92fd13387c7fe7befbc38d303d6468778fb9731bc4583f17d92989c6fcfdeaaa82604051602401612ee5919061566c565b604051602081830303815290604052907bffffffffffffffffffffffffffffffffffffffffffffffffffffffff19166020820180517bffffffffffffffffffffffffffffffffffffffffffffffffffffffff83818316178352505050509050919050565b6000612f6a8473ffffffffffffffffffffffffffffffffffffffff1661358e565b156130c3578373ffffffffffffffffffffffffffffffffffffffff1663150b7a02612f93611b9c565b8786866040518563ffffffff1660e01b8152600401612fb594939291906156d1565b6020604051808303816000875af1925050508015612ff157506040513d601f19601f82011682018060405250810190612fee9190615732565b60015b613073573d8060008114613021576040519150601f19603f3d011682016040523d82523d6000602084013e613026565b606091505b50600081510361306b576040517f08c379a0000000000000000000000000000000000000000000000000000000008152600401613062906152b1565b60405180910390fd5b805181602001fd5b63150b7a0260e01b7bffffffffffffffffffffffffffffffffffffffffffffffffffffffff1916817bffffffffffffffffffffffffffffffffffffffffffffffffffffffff1916149150506130c8565b600190505b949350505050565b600080600090507a184f03e93ff9f4daa797ed6e38ed64bf6a1f010000000000000000831061312e577a184f03e93ff9f4daa797ed6e38ed64bf6a1f010000000000000000838161312457613123614c8b565b5b0492506040810190505b6d04ee2d6d415b85acef8100000000831061316b576d04ee2d6d415b85acef8100000000838161316157613160614c8b565b5b0492506020810190505b662386f26fc10000831061319a57662386f26fc1000083816131905761318f614c8b565b5b0492506010810190505b6305f5e10083106131c3576305f5e10083816131b9576131b8614c8b565b5b0492506008810190505b61271083106131e85761271083816131de576131dd614c8b565b5b0492506004810190505b6064831061320b576064838161320157613200614c8b565b5b0492506002810190505b600a831061321a576001810190505b80915050919050565b600061322e82610e04565b905061323e816000846001612e4a565b61324782610e04565b90506004600083815260200190815260200160002060006101000a81549073ffffffffffffffffffffffffffffffffffffffff02191690556001600360008373ffffffffffffffffffffffffffffffffffffffff1673ffffffffffffffffffffffffffffffffffffffff168152602001908152602001600020600082825403925050819055506002600083815260200190815260200160002060006101000a81549073ffffffffffffffffffffffffffffffffffffffff021916905581600073ffffffffffffffffffffffffffffffffffffffff168273ffffffffffffffffffffffffffffffffffffffff167fddf252ad1be2c89b69c2b068fc378daa952ba7f163c4a11628f55a4df523b3ef60405160405180910390a461336d816000846001612e50565b5050565b600073ffffffffffffffffffffffffffffffffffffffff168273ffffffffffffffffffffffffffffffffffffffff16036133e0576040517f08c379a00000000000000000000000000000000000000000000000000000000081526004016133d7906157ab565b60405180910390fd5b6133e98161222c565b15613429576040517f08c379a000000000000000000000000000000000000000000000000000000000815260040161342090615817565b60405180910390fd5b613437600083836001612e4a565b6134408161222c565b15613480576040517f08c379a000000000000000000000000000000000000000000000000000000000815260040161347790615817565b60405180910390fd5b6001600360008473ffffffffffffffffffffffffffffffffffffffff1673ffffffffffffffffffffffffffffffffffffffff16815260200190815260200160002060008282540192505081905550816002600083815260200190815260200160002060006101000a81548173ffffffffffffffffffffffffffffffffffffffff021916908373ffffffffffffffffffffffffffffffffffffffff160217905550808273ffffffffffffffffffffffffffffffffffffffff16600073ffffffffffffffffffffffffffffffffffffffff167fddf252ad1be2c89b69c2b068fc378daa952ba7f163c4a11628f55a4df523b3ef60405160405180910390a461358a600083836001612e50565b5050565b6000808273ffffffffffffffffffffffffffffffffffffffff163b119050919050565b8280548282559060005260206000209081019282156135ed579160200282015b828111156135ec5782518255916020019190600101906135d1565b5b5090506135fa9190613642565b5090565b508054600082559060005260206000209081019061361c9190613642565b50565b604051806102800160405280601490602082028036833780820191505090505090565b5b8082111561365b576000816000905550600101613643565b5090565b6000604051905090565b600080fd5b600080fd5b60007fffffffff0000000000000000000000000000000000000000000000000000000082169050919050565b6136a881613673565b81146136b357600080fd5b50565b6000813590506136c58161369f565b92915050565b6000602082840312156136e1576136e0613669565b5b60006136ef848285016136b6565b91505092915050565b60008115159050919050565b61370d816136f8565b82525050565b60006020820190506137286000830184613704565b92915050565b6000819050919050565b6137418161372e565b82525050565b600060208201905061375c6000830184613738565b92915050565b600081519050919050565b600082825260208201905092915050565b60005b8381101561379c578082015181840152602081019050613781565b60008484015250505050565b6000601f19601f8301169050919050565b60006137c482613762565b6137ce818561376d565b93506137de81856020860161377e565b6137e7816137a8565b840191505092915050565b6000602082019050818103600083015261380c81846137b9565b905092915050565b61381d8161372e565b811461382857600080fd5b50565b60008135905061383a81613814565b92915050565b60006020828403121561385657613855613669565b5b60006138648482850161382b565b91505092915050565b600073ffffffffffffffffffffffffffffffffffffffff82169050919050565b60006138988261386d565b9050919050565b6138a88161388d565b82525050565b60006020820190506138c3600083018461389f565b92915050565b6138d28161388d565b81146138dd57600080fd5b50565b6000813590506138ef816138c9565b92915050565b6000806040838503121561390c5761390b613669565b5b600061391a858286016138e0565b925050602061392b8582860161382b565b9150509250929050565b600080fd5b600080fd5b600080fd5b60008083601f84011261395a57613959613935565b5b8235905067ffffffffffffffff8111156139775761397661393a565b5b6020830191508360208202830111156139935761399261393f565b5b9250929050565b6000806000604084860312156139b3576139b2613669565b5b60006139c18682870161382b565b935050602084013567ffffffffffffffff8111156139e2576139e161366e565b5b6139ee86828701613944565b92509250509250925092565b600080600060608486031215613a1357613a12613669565b5b6000613a21868287016138e0565b9350506020613a32868287016138e0565b9250506040613a438682870161382b565b9150509250925092565b600063ffffffff82169050919050565b613a6681613a4d565b82525050565b6000602082019050613a816000830184613a5d565b92915050565b6000819050919050565b6000613aac613aa7613aa28461386d565b613a87565b61386d565b9050919050565b6000613abe82613a91565b9050919050565b6000613ad082613ab3565b9050919050565b613ae081613ac5565b82525050565b6000602082019050613afb6000830184613ad7565b92915050565b6000613b0c82613ab3565b9050919050565b613b1c81613b01565b82525050565b6000602082019050613b376000830184613b13565b92915050565b600060208284031215613b5357613b52613669565b5b6000613b61848285016138e0565b91505092915050565b60008083601f840112613b8057613b7f613935565b5b8235905067ffffffffffffffff811115613b9d57613b9c61393a565b5b602083019150836001820283011115613bb957613bb861393f565b5b9250929050565b60008060208385031215613bd757613bd6613669565b5b600083013567ffffffffffffffff811115613bf557613bf461366e565b5b613c0185828601613b6a565b92509250509250929050565b6000819050919050565b613c2081613c0d565b82525050565b6000602082019050613c3b6000830184613c17565b92915050565b60008083601f840112613c5757613c56613935565b5b8235905067ffffffffffffffff811115613c7457613c7361393a565b5b602083019150836001820283011115613c9057613c8f61393f565b5b9250929050565b60008060008060608587031215613cb157613cb0613669565b5b6000613cbf878288016138e0565b9450506020613cd08782880161382b565b935050604085013567ffffffffffffffff811115613cf157613cf061366e565b5b613cfd87828801613c41565b925092505092959194509250565b613d14816136f8565b8114613d1f57600080fd5b50565b600081359050613d3181613d0b565b92915050565b60008060408385031215613d4e57613d4d613669565b5b6000613d5c858286016138e0565b9250506020613d6d85828601613d22565b9150509250929050565b613d8081613c0d565b8114613d8b57600080fd5b50565b600081359050613d9d81613d77565b92915050565b613dac81613a4d565b8114613db757600080fd5b50565b600081359050613dc981613da3565b92915050565b600061ffff82169050919050565b613de681613dcf565b8114613df157600080fd5b50565b600081359050613e0381613ddd565b92915050565b600080600080600060a08688031215613e2557613e24613669565b5b6000613e33888289016138e0565b9550506020613e4488828901613d8e565b9450506040613e558882890161382b565b9350506060613e6688828901613dba565b9250506080613e7788828901613df4565b9150509295509295909350565b613e8d81613dcf565b82525050565b6000602082019050613ea86000830184613e84565b92915050565b600080fd5b7f4e487b7100000000000000000000000000000000000000000000000000000000600052604160045260246000fd5b613eeb826137a8565b810181811067ffffffffffffffff82111715613f0a57613f09613eb3565b5b80604052505050565b6000613f1d61365f565b9050613f298282613ee2565b919050565b600067ffffffffffffffff821115613f4957613f48613eb3565b5b613f52826137a8565b9050602081019050919050565b82818337600083830152505050565b6000613f81613f7c84613f2e565b613f13565b905082815260208101848484011115613f9d57613f9c613eae565b5b613fa8848285613f5f565b509392505050565b600082601f830112613fc557613fc4613935565b5b8135613fd5848260208601613f6e565b91505092915050565b60008060008060808587031215613ff857613ff7613669565b5b6000614006878288016138e0565b9450506020614017878288016138e0565b93505060406140288782880161382b565b925050606085013567ffffffffffffffff8111156140495761404861366e565b5b61405587828801613fb0565b91505092959194509250565b60008190508260206014028201111561407d5761407c61393f565b5b92915050565b60008060006102c0848603121561409d5761409c613669565b5b60006140ab86828701614061565b9350506102806140bd8682870161382b565b9250506102a06140cf868287016138e0565b9150509250925092565b600080604083850312156140f0576140ef613669565b5b60006140fe858286016138e0565b925050602061410f858286016138e0565b9150509250929050565b6000819050826020606402820111156141355761413461393f565b5b92915050565b600080600080610cc0858703121561415657614155613669565b5b600061416487828801614119565b945050610c80614176878288016138e0565b935050610ca085013567ffffffffffffffff8111156141985761419761366e565b5b6141a487828801613c41565b925092505092959194509250565b7f4e487b7100000000000000000000000000000000000000000000000000000000600052602260045260246000fd5b600060028204905060018216806141f957607f821691505b60208210810361420c5761420b6141b2565b5b50919050565b7f4552433732313a20617070726f76616c20746f2063757272656e74206f776e6560008201527f7200000000000000000000000000000000000000000000000000000000000000602082015250565b600061426e60218361376d565b915061427982614212565b604082019050919050565b6000602082019050818103600083015261429d81614261565b9050919050565b7f4552433732313a20617070726f76652063616c6c6572206973206e6f7420746f60008201527f6b656e206f776e6572206f7220617070726f76656420666f7220616c6c000000602082015250565b6000614300603d8361376d565b915061430b826142a4565b604082019050919050565b6000602082019050818103600083015261432f816142f3565b9050919050565b600060408201905061434b600083018561389f565b614358602083018461389f565b9392505050565b7f4552433732313a2063616c6c6572206973206e6f7420746f6b656e206f776e6560008201527f72206f7220617070726f76656400000000000000000000000000000000000000602082015250565b60006143bb602d8361376d565b91506143c68261435f565b604082019050919050565b600060208201905081810360008301526143ea816143ae565b9050919050565b60008151905061440081613814565b92915050565b60006020828403121561441c5761441b613669565b5b600061442a848285016143f1565b91505092915050565b6000604082019050614448600083018561389f565b6144556020830184613738565b9392505050565b60008151905061446b81613d0b565b92915050565b60006020828403121561448757614486613669565b5b60006144958482850161445c565b91505092915050565b7f7800000000000000000000000000000000000000000000000000000000000000600082015250565b60006144d460018361376d565b91506144df8261449e565b602082019050919050565b60006020820190508181036000830152614503816144c7565b9050919050565b600082905092915050565b60008190508160005260206000209050919050565b60006020601f8301049050919050565b600082821b905092915050565b6000600883026145777fffffffffffffffffffffffffffffffffffffffffffffffffffffffffffffffff8261453a565b614581868361453a565b95508019841693508086168417925050509392505050565b60006145b46145af6145aa8461372e565b613a87565b61372e565b9050919050565b6000819050919050565b6145ce83614599565b6145e26145da826145bb565b848454614547565b825550505050565b600090565b6145f76145ea565b6146028184846145c5565b505050565b5b818110156146265761461b6000826145ef565b600181019050614608565b5050565b601f82111561466b5761463c81614515565b6146458461452a565b81016020851015614654578190505b6146686146608561452a565b830182614607565b50505b505050565b600082821c905092915050565b600061468e60001984600802614670565b1980831691505092915050565b60006146a7838361467d565b9150826002028217905092915050565b6146c1838361450a565b67ffffffffffffffff8111156146da576146d9613eb3565b5b6146e482546141e1565b6146ef82828561462a565b6000601f83116001811461471e576000841561470c578287013590505b614716858261469b565b86555061477e565b601f19841661472c86614515565b60005b828110156147545784890135825560018201915060208501945060208101905061472f565b86831015614771578489013561476d601f89168261467d565b8355505b6001600288020188555050505b50505050505050565b7f4552433732313a20696e76616c696420746f6b656e2049440000000000000000600082015250565b60006147bd60188361376d565b91506147c882614787565b602082019050919050565b600060208201905081810360008301526147ec816147b0565b9050919050565b7f4552433732313a2061646472657373207a65726f206973206e6f74206120766160008201527f6c6964206f776e65720000000000000000000000000000000000000000000000602082015250565b600061484f60298361376d565b915061485a826147f3565b604082019050919050565b6000602082019050818103600083015261487e81614842565b9050919050565b7f2165786973747300000000000000000000000000000000000000000000000000600082015250565b60006148bb60078361376d565b91506148c682614885565b602082019050919050565b600060208201905081810360008301526148ea816148ae565b9050919050565b7f4d7573742062652070726f706f736564206f776e657200000000000000000000600082015250565b600061492760168361376d565b9150614932826148f1565b602082019050919050565b600060208201905081810360008301526149568161491a565b9050919050565b6000606082019050614972600083018661389f565b61497f602083018561389f565b61498c604083018461389f565b949350505050565b7f7174790000000000000000000000000000000000000000000000000000000000600082015250565b60006149ca60038361376d565b91506149d582614994565b602082019050919050565b600060208201905081810360008301526149f9816149bd565b9050919050565b7f4e487b7100000000000000000000000000000000000000000000000000000000600052601160045260246000fd5b6000614a3a8261372e565b9150614a458361372e565b9250828201905080821115614a5d57614a5c614a00565b5b92915050565b7f6361700000000000000000000000000000000000000000000000000000000000600082015250565b6000614a9960038361376d565b9150614aa482614a63565b602082019050919050565b60006020820190508181036000830152614ac881614a8c565b9050919050565b6000614ada8261372e565b9150614ae58361372e565b9250828202614af38161372e565b91508282048414831517614b0a57614b09614a00565b5b5092915050565b6000606082019050614b26600083018661389f565b614b33602083018561389f565b614b406040830184613738565b949350505050565b7f7061790000000000000000000000000000000000000000000000000000000000600082015250565b6000614b7e60038361376d565b9150614b8982614b48565b602082019050919050565b60006020820190508181036000830152614bad81614b71565b9050919050565b6000614bbf8261372e565b91507fffffffffffffffffffffffffffffffffffffffffffffffffffffffffffffffff8203614bf157614bf0614a00565b5b600182019050919050565b7f4e487b7100000000000000000000000000000000000000000000000000000000600052603260045260246000fd5b600081905092915050565b6000614c4182613762565b614c4b8185614c2b565b9350614c5b81856020860161377e565b80840191505092915050565b6000614c738285614c36565b9150614c7f8284614c36565b91508190509392505050565b7f4e487b7100000000000000000000000000000000000000000000000000000000600052601260045260246000fd5b6000614cc58261372e565b9150614cd08361372e565b925082614ce057614cdf614c8b565b5b828204905092915050565b7f6761746500000000000000000000000000000000000000000000000000000000600082015250565b6000614d2160048361376d565b9150614d2c82614ceb565b602082019050919050565b60006020820190508181036000830152614d5081614d14565b9050919050565b7f7063740000000000000000000000000000000000000000000000000000000000600082015250565b6000614d8d60038361376d565b9150614d9882614d57565b602082019050919050565b60006020820190508181036000830152614dbc81614d80565b9050919050565b7f6e6f2d6964730000000000000000000000000000000000000000000000000000600082015250565b6000614df960068361376d565b9150614e0482614dc3565b602082019050919050565b60006020820190508181036000830152614e2881614dec565b9050919050565b7f4552433732313a207472616e736665722066726f6d20696e636f72726563742060008201527f6f776e6572000000000000000000000000000000000000000000000000000000602082015250565b6000614e8b60258361376d565b9150614e9682614e2f565b604082019050919050565b60006020820190508181036000830152614eba81614e7e565b9050919050565b7f4552433732313a207472616e7366657220746f20746865207a65726f2061646460008201527f7265737300000000000000000000000000000000000000000000000000000000602082015250565b6000614f1d60248361376d565b9150614f2882614ec1565b604082019050919050565b60006020820190508181036000830152614f4c81614f10565b9050919050565b7f4f6e6c792063616c6c61626c65206279206f776e657200000000000000000000600082015250565b6000614f8960168361376d565b9150614f9482614f53565b602082019050919050565b60006020820190508181036000830152614fb881614f7c565b9050919050565b7f5265656e7472616e637947756172643a207265656e7472616e742063616c6c00600082015250565b6000614ff5601f8361376d565b915061500082614fbf565b602082019050919050565b6000602082019050818103600083015261502481614fe8565b9050919050565b7f7672660000000000000000000000000000000000000000000000000000000000600082015250565b600061506160038361376d565b915061506c8261502b565b602082019050919050565b6000602082019050818103600083015261509081615054565b9050919050565b6150a081613c0d565b82525050565b6150af8161372e565b82525050565b6150be81613dcf565b82525050565b6150cd81613a4d565b82525050565b600081519050919050565b600082825260208201905092915050565b60006150fa826150d3565b61510481856150de565b935061511481856020860161377e565b61511d816137a8565b840191505092915050565b600060c0830160008301516151406000860182615097565b50602083015161515360208601826150a6565b50604083015161516660408601826150b5565b50606083015161517960608601826150c4565b50608083015161518c60808601826150c4565b5060a083015184820360a08601526151a482826150ef565b9150508091505092915050565b600060208201905081810360008301526151cb8184615128565b905092915050565b7f4552433732313a20617070726f766520746f2063616c6c657200000000000000600082015250565b600061520960198361376d565b9150615214826151d3565b602082019050919050565b60006020820190508181036000830152615238816151fc565b9050919050565b7f4552433732313a207472616e7366657220746f206e6f6e20455243373231526560008201527f63656976657220696d706c656d656e7465720000000000000000000000000000602082015250565b600061529b60328361376d565b91506152a68261523f565b604082019050919050565b600060208201905081810360008301526152ca8161528e565b9050919050565b7f6f776e6572000000000000000000000000000000000000000000000000000000600082015250565b600061530760058361376d565b9150615312826152d1565b602082019050919050565b60006020820190508181036000830152615336816152fa565b9050919050565b7f6c6567656e646172790000000000000000000000000000000000000000000000600082015250565b600061537360098361376d565b915061537e8261533d565b602082019050919050565b600060208201905081810360008301526153a281615366565b9050919050565b60006153b48261372e565b91506153bf8361372e565b92508282039050818111156153d7576153d6614a00565b5b92915050565b7f6e65656431000000000000000000000000000000000000000000000000000000600082015250565b600061541360058361376d565b915061541e826153dd565b602082019050919050565b6000602082019050818103600083015261544281615406565b9050919050565b7f636f6d6d6f6e0000000000000000000000000000000000000000000000000000600082015250565b600061547f60068361376d565b915061548a82615449565b602082019050919050565b600060208201905081810360008301526154ae81615472565b9050919050565b7f6e65656435000000000000000000000000000000000000000000000000000000600082015250565b60006154eb60058361376d565b91506154f6826154b5565b602082019050919050565b6000602082019050818103600083015261551a816154de565b9050919050565b82818337505050565b615537610c808383615521565b5050565b6000615547828461552a565b610c808201915081905092915050565b60006155628261372e565b915061556d8361372e565b92508261557d5761557c614c8b565b5b828206905092915050565b7f43616e6e6f74207472616e7366657220746f2073656c66000000000000000000600082015250565b60006155be60178361376d565b91506155c982615588565b602082019050919050565b600060208201905081810360008301526155ed816155b1565b9050919050565b6000819050919050565b61560f61560a8261372e565b6155f4565b82525050565b600061562182856155fe565b60208201915061563182846155fe565b6020820191508190509392505050565b61564a816136f8565b82525050565b6020820160008201516156666000850182615641565b50505050565b60006020820190506156816000830184615650565b92915050565b600082825260208201905092915050565b60006156a3826150d3565b6156ad8185615687565b93506156bd81856020860161377e565b6156c6816137a8565b840191505092915050565b60006080820190506156e6600083018761389f565b6156f3602083018661389f565b6157006040830185613738565b81810360608301526157128184615698565b905095945050505050565b60008151905061572c8161369f565b92915050565b60006020828403121561574857615747613669565b5b60006157568482850161571d565b91505092915050565b7f4552433732313a206d696e7420746f20746865207a65726f2061646472657373600082015250565b600061579560208361376d565b91506157a08261575f565b602082019050919050565b600060208201905081810360008301526157c481615788565b9050919050565b7f4552433732313a20746f6b656e20616c7265616479206d696e74656400000000600082015250565b6000615801601c8361376d565b915061580c826157cb565b602082019050919050565b60006020820190508181036000830152615830816157f4565b905091905056fea2646970667358221220cd680fbb0cab620f80fd1a7f6ed77621cccf8768fe820438da42d0087f2320dd64736f6c63430008140033","opcodes":"PUSH1 0xA0 PUSH1 0x40 MSTORE PUSH1 0x3C PUSH1 0xD SSTORE PUSH3 0x3D090 PUSH1 0x13 PUSH1 0x0 PUSH2 0x100 EXP DUP2 SLOAD DUP2 PUSH4 0xFFFFFFFF MUL NOT AND SWAP1 DUP4 PUSH4 0xFFFFFFFF AND MUL OR SWAP1 SSTORE POP PUSH1 0x3 PUSH1 0x13 PUSH1 0x4 PUSH2 0x100 EXP DUP2 SLOAD DUP2 PUSH2 0xFFFF MUL NOT AND SWAP1 DUP4 PUSH2 0xFFFF AND MUL OR SWAP1 SSTORE POP PUSH1 0x1 PUSH1 0x13 PUSH1 0x6 PUSH2 0x100 EXP DUP2 SLOAD DUP2 PUSH4 0xFFFFFFFF MUL NOT AND SWAP1 DUP4 PUSH4 0xFFFFFFFF AND MUL OR SWAP1 SSTORE POP CALLVALUE DUP1 ISZERO PUSH3 0x7A JUMPI PUSH1 0x0 DUP1 REVERT JUMPDEST POP PUSH1 0x40 MLOAD PUSH3 0x642D CODESIZE SUB DUP1 PUSH3 0x642D DUP4 CODECOPY DUP2 DUP2 ADD PUSH1 0x40 MSTORE DUP2 ADD SWAP1 PUSH3 0xA0 SWAP2 SWAP1 PUSH3 0x6E1 JUMP JUMPDEST DUP1 CALLER DUP1 PUSH1 0x0 PUSH1 0x40 MLOAD DUP1 PUSH1 0x40 ADD PUSH1 0x40 MSTORE DUP1 PUSH1 0x8 DUP2 MSTORE PUSH1 0x20 ADD PUSH32 0x4761736861706F6E000000000000000000000000000000000000000000000000 DUP2 MSTORE POP PUSH1 0x40 MLOAD DUP1 PUSH1 0x40 ADD PUSH1 0x40 MSTORE DUP1 PUSH1 0x4 DUP2 MSTORE PUSH1 0x20 ADD PUSH32 0x4741534800000000000000000000000000000000000000000000000000000000 DUP2 MSTORE POP DUP2 PUSH1 0x0 SWAP1 DUP2 PUSH3 0x122 SWAP2 SWAP1 PUSH3 0x9B3 JUMP JUMPDEST POP DUP1 PUSH1 0x1 SWAP1 DUP2 PUSH3 0x134 SWAP2 SWAP1 PUSH3 0x9B3 JUMP JUMPDEST POP POP POP PUSH1 0x1 PUSH1 0x6 DUP2 SWAP1 SSTORE POP PUSH1 0x0 PUSH20 0xFFFFFFFFFFFFFFFFFFFFFFFFFFFFFFFFFFFFFFFF AND DUP3 PUSH20 0xFFFFFFFFFFFFFFFFFFFFFFFFFFFFFFFFFFFFFFFF AND SUB PUSH3 0x1B1 JUMPI PUSH1 0x40 MLOAD PUSH32 0x8C379A000000000000000000000000000000000000000000000000000000000 DUP2 MSTORE PUSH1 0x4 ADD PUSH3 0x1A8 SWAP1 PUSH3 0xAFB JUMP JUMPDEST PUSH1 0x40 MLOAD DUP1 SWAP2 SUB SWAP1 REVERT JUMPDEST DUP2 PUSH1 0x7 PUSH1 0x0 PUSH2 0x100 EXP DUP2 SLOAD DUP2 PUSH20 0xFFFFFFFFFFFFFFFFFFFFFFFFFFFFFFFFFFFFFFFF MUL NOT AND SWAP1 DUP4 PUSH20 0xFFFFFFFFFFFFFFFFFFFFFFFFFFFFFFFFFFFFFFFF AND MUL OR SWAP1 SSTORE POP PUSH1 0x0 PUSH20 0xFFFFFFFFFFFFFFFFFFFFFFFFFFFFFFFFFFFFFFFF AND DUP2 PUSH20 0xFFFFFFFFFFFFFFFFFFFFFFFFFFFFFFFFFFFFFFFF AND EQ PUSH3 0x239 JUMPI PUSH3 0x238 DUP2 PUSH3 0x37D PUSH1 0x20 SHL PUSH1 0x20 SHR JUMP JUMPDEST JUMPDEST POP POP POP PUSH1 0x0 PUSH20 0xFFFFFFFFFFFFFFFFFFFFFFFFFFFFFFFFFFFFFFFF AND DUP2 PUSH20 0xFFFFFFFFFFFFFFFFFFFFFFFFFFFFFFFFFFFFFFFF AND SUB PUSH3 0x2A3 JUMPI PUSH1 0x40 MLOAD PUSH32 0xD92E233D00000000000000000000000000000000000000000000000000000000 DUP2 MSTORE PUSH1 0x4 ADD PUSH1 0x40 MLOAD DUP1 SWAP2 SUB SWAP1 REVERT JUMPDEST DUP1 PUSH1 0x9 PUSH1 0x0 PUSH2 0x100 EXP DUP2 SLOAD DUP2 PUSH20 0xFFFFFFFFFFFFFFFFFFFFFFFFFFFFFFFFFFFFFFFF MUL NOT AND SWAP1 DUP4 PUSH20 0xFFFFFFFFFFFFFFFFFFFFFFFFFFFFFFFFFFFFFFFF AND MUL OR SWAP1 SSTORE POP POP DUP4 PUSH20 0xFFFFFFFFFFFFFFFFFFFFFFFFFFFFFFFFFFFFFFFF AND PUSH1 0x80 DUP2 PUSH20 0xFFFFFFFFFFFFFFFFFFFFFFFFFFFFFFFFFFFFFFFF AND DUP2 MSTORE POP POP DUP3 PUSH1 0xA DUP2 SWAP1 SSTORE POP DUP2 PUSH1 0xF SWAP1 DUP2 PUSH3 0x331 SWAP2 SWAP1 PUSH3 0x9B3 JUMP JUMPDEST POP DUP1 PUSH1 0x10 PUSH1 0x0 PUSH2 0x100 EXP DUP2 SLOAD DUP2 PUSH20 0xFFFFFFFFFFFFFFFFFFFFFFFFFFFFFFFFFFFFFFFF MUL NOT AND SWAP1 DUP4 PUSH20 0xFFFFFFFFFFFFFFFFFFFFFFFFFFFFFFFFFFFFFFFF AND MUL OR SWAP1 SSTORE POP POP POP POP POP PUSH3 0xB8F JUMP JUMPDEST CALLER PUSH20 0xFFFFFFFFFFFFFFFFFFFFFFFFFFFFFFFFFFFFFFFF AND DUP2 PUSH20 0xFFFFFFFFFFFFFFFFFFFFFFFFFFFFFFFFFFFFFFFF AND SUB PUSH3 0x3EE JUMPI PUSH1 0x40 MLOAD PUSH32 0x8C379A000000000000000000000000000000000000000000000000000000000 DUP2 MSTORE PUSH1 0x4 ADD PUSH3 0x3E5 SWAP1 PUSH3 0xB6D JUMP JUMPDEST PUSH1 0x40 MLOAD DUP1 SWAP2 SUB SWAP1 REVERT JUMPDEST DUP1 PUSH1 0x8 PUSH1 0x0 PUSH2 0x100 EXP DUP2 SLOAD DUP2 PUSH20 0xFFFFFFFFFFFFFFFFFFFFFFFFFFFFFFFFFFFFFFFF MUL NOT AND SWAP1 DUP4 PUSH20 0xFFFFFFFFFFFFFFFFFFFFFFFFFFFFFFFFFFFFFFFF AND MUL OR SWAP1 SSTORE POP DUP1 PUSH20 0xFFFFFFFFFFFFFFFFFFFFFFFFFFFFFFFFFFFFFFFF AND PUSH1 0x7 PUSH1 0x0 SWAP1 SLOAD SWAP1 PUSH2 0x100 EXP SWAP1 DIV PUSH20 0xFFFFFFFFFFFFFFFFFFFFFFFFFFFFFFFFFFFFFFFF AND PUSH20 0xFFFFFFFFFFFFFFFFFFFFFFFFFFFFFFFFFFFFFFFF AND PUSH32 0xED8889F560326EB138920D842192F0EB3DD22B4F139C87A2C57538E05BAE1278 PUSH1 0x40 MLOAD PUSH1 0x40 MLOAD DUP1 SWAP2 SUB SWAP1 LOG3 POP JUMP JUMPDEST PUSH1 0x0 PUSH1 0x40 MLOAD SWAP1 POP SWAP1 JUMP JUMPDEST PUSH1 0x0 DUP1 REVERT JUMPDEST PUSH1 0x0 DUP1 REVERT JUMPDEST PUSH1 0x0 PUSH20 0xFFFFFFFFFFFFFFFFFFFFFFFFFFFFFFFFFFFFFFFF DUP3 AND SWAP1 POP SWAP2 SWAP1 POP JUMP JUMPDEST PUSH1 0x0 PUSH3 0x4EF DUP3 PUSH3 0x4C2 JUMP JUMPDEST SWAP1 POP SWAP2 SWAP1 POP JUMP JUMPDEST PUSH3 0x501 DUP2 PUSH3 0x4E2 JUMP JUMPDEST DUP2 EQ PUSH3 0x50D JUMPI PUSH1 0x0 DUP1 REVERT JUMPDEST POP JUMP JUMPDEST PUSH1 0x0 DUP2 MLOAD SWAP1 POP PUSH3 0x521 DUP2 PUSH3 0x4F6 JUMP JUMPDEST SWAP3 SWAP2 POP POP JUMP JUMPDEST PUSH1 0x0 DUP2 SWAP1 POP SWAP2 SWAP1 POP JUMP JUMPDEST PUSH3 0x53C DUP2 PUSH3 0x527 JUMP JUMPDEST DUP2 EQ PUSH3 0x548 JUMPI PUSH1 0x0 DUP1 REVERT JUMPDEST POP JUMP JUMPDEST PUSH1 0x0 DUP2 MLOAD SWAP1 POP PUSH3 0x55C DUP2 PUSH3 0x531 JUMP JUMPDEST SWAP3 SWAP2 POP POP JUMP JUMPDEST PUSH1 0x0 DUP1 REVERT JUMPDEST PUSH1 0x0 DUP1 REVERT JUMPDEST PUSH1 0x0 PUSH1 0x1F NOT PUSH1 0x1F DUP4 ADD AND SWAP1 POP SWAP2 SWAP1 POP JUMP JUMPDEST PUSH32 0x4E487B7100000000000000000000000000000000000000000000000000000000 PUSH1 0x0 MSTORE PUSH1 0x41 PUSH1 0x4 MSTORE PUSH1 0x24 PUSH1 0x0 REVERT JUMPDEST PUSH3 0x5B7 DUP3 PUSH3 0x56C JUMP JUMPDEST DUP2 ADD DUP2 DUP2 LT PUSH8 0xFFFFFFFFFFFFFFFF DUP3 GT OR ISZERO PUSH3 0x5D9 JUMPI PUSH3 0x5D8 PUSH3 0x57D JUMP JUMPDEST JUMPDEST DUP1 PUSH1 0x40 MSTORE POP POP POP JUMP JUMPDEST PUSH1 0x0 PUSH3 0x5EE PUSH3 0x4AE JUMP JUMPDEST SWAP1 POP PUSH3 0x5FC DUP3 DUP3 PUSH3 0x5AC JUMP JUMPDEST SWAP2 SWAP1 POP JUMP JUMPDEST PUSH1 0x0 PUSH8 0xFFFFFFFFFFFFFFFF DUP3 GT ISZERO PUSH3 0x61F JUMPI PUSH3 0x61E PUSH3 0x57D JUMP JUMPDEST JUMPDEST PUSH3 0x62A DUP3 PUSH3 0x56C JUMP JUMPDEST SWAP1 POP PUSH1 0x20 DUP2 ADD SWAP1 POP SWAP2 SWAP1 POP JUMP JUMPDEST PUSH1 0x0 JUMPDEST DUP4 DUP2 LT ISZERO PUSH3 0x657 JUMPI DUP1 DUP3 ADD MLOAD DUP2 DUP5 ADD MSTORE PUSH1 0x20 DUP2 ADD SWAP1 POP PUSH3 0x63A JUMP JUMPDEST PUSH1 0x0 DUP5 DUP5 ADD MSTORE POP POP POP POP JUMP JUMPDEST PUSH1 0x0 PUSH3 0x67A PUSH3 0x674 DUP5 PUSH3 0x601 JUMP JUMPDEST PUSH3 0x5E2 JUMP JUMPDEST SWAP1 POP DUP3 DUP2 MSTORE PUSH1 0x20 DUP2 ADD DUP5 DUP5 DUP5 ADD GT ISZERO PUSH3 0x699 JUMPI PUSH3 0x698 PUSH3 0x567 JUMP JUMPDEST JUMPDEST PUSH3 0x6A6 DUP5 DUP3 DUP6 PUSH3 0x637 JUMP JUMPDEST POP SWAP4 SWAP3 POP POP POP JUMP JUMPDEST PUSH1 0x0 DUP3 PUSH1 0x1F DUP4 ADD SLT PUSH3 0x6C6 JUMPI PUSH3 0x6C5 PUSH3 0x562 JUMP JUMPDEST JUMPDEST DUP2 MLOAD PUSH3 0x6D8 DUP5 DUP3 PUSH1 0x20 DUP7 ADD PUSH3 0x663 JUMP JUMPDEST SWAP2 POP POP SWAP3 SWAP2 POP POP JUMP JUMPDEST PUSH1 0x0 DUP1 PUSH1 0x0 DUP1 PUSH1 0x80 DUP6 DUP8 SUB SLT ISZERO PUSH3 0x6FE JUMPI PUSH3 0x6FD PUSH3 0x4B8 JUMP JUMPDEST JUMPDEST PUSH1 0x0 PUSH3 0x70E DUP8 DUP3 DUP9 ADD PUSH3 0x510 JUMP JUMPDEST SWAP5 POP POP PUSH1 0x20 PUSH3 0x721 DUP8 DUP3 DUP9 ADD PUSH3 0x54B JUMP JUMPDEST SWAP4 POP POP PUSH1 0x40 DUP6 ADD MLOAD PUSH8 0xFFFFFFFFFFFFFFFF DUP2 GT ISZERO PUSH3 0x745 JUMPI PUSH3 0x744 PUSH3 0x4BD JUMP JUMPDEST JUMPDEST PUSH3 0x753 DUP8 DUP3 DUP9 ADD PUSH3 0x6AE JUMP JUMPDEST SWAP3 POP POP PUSH1 0x60 PUSH3 0x766 DUP8 DUP3 DUP9 ADD PUSH3 0x510 JUMP JUMPDEST SWAP2 POP POP SWAP3 SWAP6 SWAP2 SWAP5 POP SWAP3 POP JUMP JUMPDEST PUSH1 0x0 DUP2 MLOAD SWAP1 POP SWAP2 SWAP1 POP JUMP JUMPDEST PUSH32 0x4E487B7100000000000000000000000000000000000000000000000000000000 PUSH1 0x0 MSTORE PUSH1 0x22 PUSH1 0x4 MSTORE PUSH1 0x24 PUSH1 0x0 REVERT JUMPDEST PUSH1 0x0 PUSH1 0x2 DUP3 DIV SWAP1 POP PUSH1 0x1 DUP3 AND DUP1 PUSH3 0x7C5 JUMPI PUSH1 0x7F DUP3 AND SWAP2 POP JUMPDEST PUSH1 0x20 DUP3 LT DUP2 SUB PUSH3 0x7DB JUMPI PUSH3 0x7DA PUSH3 0x77D JUMP JUMPDEST JUMPDEST POP SWAP2 SWAP1 POP JUMP JUMPDEST PUSH1 0x0 DUP2 SWAP1 POP DUP2 PUSH1 0x0 MSTORE PUSH1 0x20 PUSH1 0x0 KECCAK256 SWAP1 POP SWAP2 SWAP1 POP JUMP JUMPDEST PUSH1 0x0 PUSH1 0x20 PUSH1 0x1F DUP4 ADD DIV SWAP1 POP SWAP2 SWAP1 POP JUMP JUMPDEST PUSH1 0x0 DUP3 DUP3 SHL SWAP1 POP SWAP3 SWAP2 POP POP JUMP JUMPDEST PUSH1 0x0 PUSH1 0x8 DUP4 MUL PUSH3 0x845 PUSH32 0xFFFFFFFFFFFFFFFFFFFFFFFFFFFFFFFFFFFFFFFFFFFFFFFFFFFFFFFFFFFFFFFF DUP3 PUSH3 0x806 JUMP JUMPDEST PUSH3 0x851 DUP7 DUP4 PUSH3 0x806 JUMP JUMPDEST SWAP6 POP DUP1 NOT DUP5 AND SWAP4 POP DUP1 DUP7 AND DUP5 OR SWAP3 POP POP POP SWAP4 SWAP3 POP POP POP JUMP JUMPDEST PUSH1 0x0 DUP2 SWAP1 POP SWAP2 SWAP1 POP JUMP JUMPDEST PUSH1 0x0 PUSH3 0x894 PUSH3 0x88E PUSH3 0x888 DUP5 PUSH3 0x527 JUMP JUMPDEST PUSH3 0x869 JUMP JUMPDEST PUSH3 0x527 JUMP JUMPDEST SWAP1 POP SWAP2 SWAP1 POP JUMP JUMPDEST PUSH1 0x0 DUP2 SWAP1 POP SWAP2 SWAP1 POP JUMP JUMPDEST PUSH3 0x8B0 DUP4 PUSH3 0x873 JUMP JUMPDEST PUSH3 0x8C8 PUSH3 0x8BF DUP3 PUSH3 0x89B JUMP JUMPDEST DUP5 DUP5 SLOAD PUSH3 0x813 JUMP JUMPDEST DUP3 SSTORE POP POP POP POP JUMP JUMPDEST PUSH1 0x0 SWAP1 JUMP JUMPDEST PUSH3 0x8DF PUSH3 0x8D0 JUMP JUMPDEST PUSH3 0x8EC DUP2 DUP5 DUP5 PUSH3 0x8A5 JUMP JUMPDEST POP POP POP JUMP JUMPDEST JUMPDEST DUP2 DUP2 LT ISZERO PUSH3 0x914 JUMPI PUSH3 0x908 PUSH1 0x0 DUP3 PUSH3 0x8D5 JUMP JUMPDEST PUSH1 0x1 DUP2 ADD SWAP1 POP PUSH3 0x8F2 JUMP JUMPDEST POP POP JUMP JUMPDEST PUSH1 0x1F DUP3 GT ISZERO PUSH3 0x963 JUMPI PUSH3 0x92D DUP2 PUSH3 0x7E1 JUMP JUMPDEST PUSH3 0x938 DUP5 PUSH3 0x7F6 JUMP JUMPDEST DUP2 ADD PUSH1 0x20 DUP6 LT ISZERO PUSH3 0x948 JUMPI DUP2 SWAP1 POP JUMPDEST PUSH3 0x960 PUSH3 0x957 DUP6 PUSH3 0x7F6 JUMP JUMPDEST DUP4 ADD DUP3 PUSH3 0x8F1 JUMP JUMPDEST POP POP JUMPDEST POP POP POP JUMP JUMPDEST PUSH1 0x0 DUP3 DUP3 SHR SWAP1 POP SWAP3 SWAP2 POP POP JUMP JUMPDEST PUSH1 0x0 PUSH3 0x988 PUSH1 0x0 NOT DUP5 PUSH1 0x8 MUL PUSH3 0x968 JUMP JUMPDEST NOT DUP1 DUP4 AND SWAP2 POP POP SWAP3 SWAP2 POP POP JUMP JUMPDEST PUSH1 0x0 PUSH3 0x9A3 DUP4 DUP4 PUSH3 0x975 JUMP JUMPDEST SWAP2 POP DUP3 PUSH1 0x2 MUL DUP3 OR SWAP1 POP SWAP3 SWAP2 POP POP JUMP JUMPDEST PUSH3 0x9BE DUP3 PUSH3 0x772 JUMP JUMPDEST PUSH8 0xFFFFFFFFFFFFFFFF DUP2 GT ISZERO PUSH3 0x9DA JUMPI PUSH3 0x9D9 PUSH3 0x57D JUMP JUMPDEST JUMPDEST PUSH3 0x9E6 DUP3 SLOAD PUSH3 0x7AC JUMP JUMPDEST PUSH3 0x9F3 DUP3 DUP3 DUP6 PUSH3 0x918 JUMP JUMPDEST PUSH1 0x0 PUSH1 0x20 SWAP1 POP PUSH1 0x1F DUP4 GT PUSH1 0x1 DUP2 EQ PUSH3 0xA2B JUMPI PUSH1 0x0 DUP5 ISZERO PUSH3 0xA16 JUMPI DUP3 DUP8 ADD MLOAD SWAP1 POP JUMPDEST PUSH3 0xA22 DUP6 DUP3 PUSH3 0x995 JUMP JUMPDEST DUP7 SSTORE POP PUSH3 0xA92 JUMP JUMPDEST PUSH1 0x1F NOT DUP5 AND PUSH3 0xA3B DUP7 PUSH3 0x7E1 JUMP JUMPDEST PUSH1 0x0 JUMPDEST DUP3 DUP2 LT ISZERO PUSH3 0xA65 JUMPI DUP5 DUP10 ADD MLOAD DUP3 SSTORE PUSH1 0x1 DUP3 ADD SWAP2 POP PUSH1 0x20 DUP6 ADD SWAP5 POP PUSH1 0x20 DUP2 ADD SWAP1 POP PUSH3 0xA3E JUMP JUMPDEST DUP7 DUP4 LT ISZERO PUSH3 0xA85 JUMPI DUP5 DUP10 ADD MLOAD PUSH3 0xA81 PUSH1 0x1F DUP10 AND DUP3 PUSH3 0x975 JUMP JUMPDEST DUP4 SSTORE POP JUMPDEST PUSH1 0x1 PUSH1 0x2 DUP9 MUL ADD DUP9 SSTORE POP POP POP JUMPDEST POP POP POP POP POP POP JUMP JUMPDEST PUSH1 0x0 DUP3 DUP3 MSTORE PUSH1 0x20 DUP3 ADD SWAP1 POP SWAP3 SWAP2 POP POP JUMP JUMPDEST PUSH32 0x43616E6E6F7420736574206F776E657220746F207A65726F0000000000000000 PUSH1 0x0 DUP3 ADD MSTORE POP JUMP JUMPDEST PUSH1 0x0 PUSH3 0xAE3 PUSH1 0x18 DUP4 PUSH3 0xA9A JUMP JUMPDEST SWAP2 POP PUSH3 0xAF0 DUP3 PUSH3 0xAAB JUMP JUMPDEST PUSH1 0x20 DUP3 ADD SWAP1 POP SWAP2 SWAP1 POP JUMP JUMPDEST PUSH1 0x0 PUSH1 0x20 DUP3 ADD SWAP1 POP DUP2 DUP2 SUB PUSH1 0x0 DUP4 ADD MSTORE PUSH3 0xB16 DUP2 PUSH3 0xAD4 JUMP JUMPDEST SWAP1 POP SWAP2 SWAP1 POP JUMP JUMPDEST PUSH32 0x43616E6E6F74207472616E7366657220746F2073656C66000000000000000000 PUSH1 0x0 DUP3 ADD MSTORE POP JUMP JUMPDEST PUSH1 0x0 PUSH3 0xB55 PUSH1 0x17 DUP4 PUSH3 0xA9A JUMP JUMPDEST SWAP2 POP PUSH3 0xB62 DUP3 PUSH3 0xB1D JUMP JUMPDEST PUSH1 0x20 DUP3 ADD SWAP1 POP SWAP2 SWAP1 POP JUMP JUMPDEST PUSH1 0x0 PUSH1 0x20 DUP3 ADD SWAP1 POP DUP2 DUP2 SUB PUSH1 0x0 DUP4 ADD MSTORE PUSH3 0xB88 DUP2 PUSH3 0xB46 JUMP JUMPDEST SWAP1 POP SWAP2 SWAP1 POP JUMP JUMPDEST PUSH1 0x80 MLOAD PUSH2 0x586D PUSH3 0xBC0 PUSH1 0x0 CODECOPY PUSH1 0x0 DUP2 DUP2 PUSH2 0xBF1 ADD MSTORE DUP2 DUP2 PUSH2 0xC65 ADD MSTORE DUP2 DUP2 PUSH2 0xD01 ADD MSTORE PUSH2 0x1428 ADD MSTORE PUSH2 0x586D PUSH1 0x0 RETURN INVALID PUSH1 0x80 PUSH1 0x40 MSTORE CALLVALUE DUP1 ISZERO PUSH2 0x10 JUMPI PUSH1 0x0 DUP1 REVERT JUMPDEST POP PUSH1 0x4 CALLDATASIZE LT PUSH2 0x269 JUMPI PUSH1 0x0 CALLDATALOAD PUSH1 0xE0 SHR DUP1 PUSH4 0x74E1EE41 GT PUSH2 0x151 JUMPI DUP1 PUSH4 0xA78F06B5 GT PUSH2 0xC3 JUMPI DUP1 PUSH4 0xE1B60F89 GT PUSH2 0x87 JUMPI DUP1 PUSH4 0xE1B60F89 EQ PUSH2 0x704 JUMPI DUP1 PUSH4 0xE985E9C5 EQ PUSH2 0x720 JUMPI DUP1 PUSH4 0xF2F2EF2B EQ PUSH2 0x750 JUMPI DUP1 PUSH4 0xF2FDE38B EQ PUSH2 0x76C JUMPI DUP1 PUSH4 0xF5A618B0 EQ PUSH2 0x788 JUMPI DUP1 PUSH4 0xFC831051 EQ PUSH2 0x7A6 JUMPI PUSH2 0x269 JUMP JUMPDEST DUP1 PUSH4 0xA78F06B5 EQ PUSH2 0x660 JUMPI DUP1 PUSH4 0xB05E9771 EQ PUSH2 0x67E JUMPI DUP1 PUSH4 0xB0FB162F EQ PUSH2 0x69A JUMPI DUP1 PUSH4 0xB88D4FDE EQ PUSH2 0x6B8 JUMPI DUP1 PUSH4 0xC87B56DD EQ PUSH2 0x6D4 JUMPI PUSH2 0x269 JUMP JUMPDEST DUP1 PUSH4 0x91B7F5ED GT PUSH2 0x115 JUMPI DUP1 PUSH4 0x91B7F5ED EQ PUSH2 0x5B2 JUMPI DUP1 PUSH4 0x94D008EF EQ PUSH2 0x5CE JUMPI DUP1 PUSH4 0x95D89B41 EQ PUSH2 0x5EA JUMPI DUP1 PUSH4 0x9ECCACF6 EQ PUSH2 0x608 JUMPI DUP1 PUSH4 0xA035B1FE EQ PUSH2 0x626 JUMPI DUP1 PUSH4 0xA22CB465 EQ PUSH2 0x644 JUMPI PUSH2 0x269 JUMP JUMPDEST DUP1 PUSH4 0x74E1EE41 EQ PUSH2 0x520 JUMPI DUP1 PUSH4 0x79BA5097 EQ PUSH2 0x550 JUMPI DUP1 PUSH4 0x7CCFD7FC EQ PUSH2 0x55A JUMPI DUP1 PUSH4 0x8DA5CB5B EQ PUSH2 0x578 JUMPI DUP1 PUSH4 0x8EA98117 EQ PUSH2 0x596 JUMPI PUSH2 0x269 JUMP JUMPDEST DUP1 PUSH4 0x24F74697 GT PUSH2 0x1EA JUMPI DUP1 PUSH4 0x51CFF8D9 GT PUSH2 0x1AE JUMPI DUP1 PUSH4 0x51CFF8D9 EQ PUSH2 0x44C JUMPI DUP1 PUSH4 0x55F804B3 EQ PUSH2 0x468 JUMPI DUP1 PUSH4 0x61728F39 EQ PUSH2 0x484 JUMPI DUP1 PUSH4 0x6352211E EQ PUSH2 0x4A2 JUMPI DUP1 PUSH4 0x66435C06 EQ PUSH2 0x4D2 JUMPI DUP1 PUSH4 0x70A08231 EQ PUSH2 0x4F0 JUMPI PUSH2 0x269 JUMP JUMPDEST DUP1 PUSH4 0x24F74697 EQ PUSH2 0x3B8 JUMPI DUP1 PUSH4 0x2D90ED6D EQ PUSH2 0x3D6 JUMPI DUP1 PUSH4 0x3013CE29 EQ PUSH2 0x3F4 JUMPI DUP1 PUSH4 0x3B2BCBF1 EQ PUSH2 0x412 JUMPI DUP1 PUSH4 0x42842E0E EQ PUSH2 0x430 JUMPI PUSH2 0x269 JUMP JUMPDEST DUP1 PUSH4 0x9C1BA2E GT PUSH2 0x231 JUMPI DUP1 PUSH4 0x9C1BA2E EQ PUSH2 0x326 JUMPI DUP1 PUSH4 0x18160DDD EQ PUSH2 0x344 JUMPI DUP1 PUSH4 0x1AC39BFD EQ PUSH2 0x362 JUMPI DUP1 PUSH4 0x1FE543E3 EQ PUSH2 0x380 JUMPI DUP1 PUSH4 0x23B872DD EQ PUSH2 0x39C JUMPI PUSH2 0x269 JUMP JUMPDEST DUP1 PUSH4 0x1FFC9A7 EQ PUSH2 0x26E JUMPI DUP1 PUSH4 0x6661ABD EQ PUSH2 0x29E JUMPI DUP1 PUSH4 0x6FDDE03 EQ PUSH2 0x2BC JUMPI DUP1 PUSH4 0x81812FC EQ PUSH2 0x2DA JUMPI DUP1 PUSH4 0x95EA7B3 EQ PUSH2 0x30A JUMPI JUMPDEST PUSH1 0x0 DUP1 REVERT JUMPDEST PUSH2 0x288 PUSH1 0x4 DUP1 CALLDATASIZE SUB DUP2 ADD SWAP1 PUSH2 0x283 SWAP2 SWAP1 PUSH2 0x36CB JUMP JUMPDEST PUSH2 0x7C2 JUMP JUMPDEST PUSH1 0x40 MLOAD PUSH2 0x295 SWAP2 SWAP1 PUSH2 0x3713 JUMP JUMPDEST PUSH1 0x40 MLOAD DUP1 SWAP2 SUB SWAP1 RETURN JUMPDEST PUSH2 0x2A6 PUSH2 0x8A4 JUMP JUMPDEST PUSH1 0x40 MLOAD PUSH2 0x2B3 SWAP2 SWAP1 PUSH2 0x3747 JUMP JUMPDEST PUSH1 0x40 MLOAD DUP1 SWAP2 SUB SWAP1 RETURN JUMPDEST PUSH2 0x2C4 PUSH2 0x8AE JUMP JUMPDEST PUSH1 0x40 MLOAD PUSH2 0x2D1 SWAP2 SWAP1 PUSH2 0x37F2 JUMP JUMPDEST PUSH1 0x40 MLOAD DUP1 SWAP2 SUB SWAP1 RETURN JUMPDEST PUSH2 0x2F4 PUSH1 0x4 DUP1 CALLDATASIZE SUB DUP2 ADD SWAP1 PUSH2 0x2EF SWAP2 SWAP1 PUSH2 0x3840 JUMP JUMPDEST PUSH2 0x940 JUMP JUMPDEST PUSH1 0x40 MLOAD PUSH2 0x301 SWAP2 SWAP1 PUSH2 0x38AE JUMP JUMPDEST PUSH1 0x40 MLOAD DUP1 SWAP2 SUB SWAP1 RETURN JUMPDEST PUSH2 0x324 PUSH1 0x4 DUP1 CALLDATASIZE SUB DUP2 ADD SWAP1 PUSH2 0x31F SWAP2 SWAP1 PUSH2 0x38F5 JUMP JUMPDEST PUSH2 0x986 JUMP JUMPDEST STOP JUMPDEST PUSH2 0x32E PUSH2 0xA9D JUMP JUMPDEST PUSH1 0x40 MLOAD PUSH2 0x33B SWAP2 SWAP1 PUSH2 0x3747 JUMP JUMPDEST PUSH1 0x40 MLOAD DUP1 SWAP2 SUB SWAP1 RETURN JUMPDEST PUSH2 0x34C PUSH2 0xAA3 JUMP JUMPDEST PUSH1 0x40 MLOAD PUSH2 0x359 SWAP2 SWAP1 PUSH2 0x3747 JUMP JUMPDEST PUSH1 0x40 MLOAD DUP1 SWAP2 SUB SWAP1 RETURN JUMPDEST PUSH2 0x36A PUSH2 0xAA9 JUMP JUMPDEST PUSH1 0x40 MLOAD PUSH2 0x377 SWAP2 SWAP1 PUSH2 0x3747 JUMP JUMPDEST PUSH1 0x40 MLOAD DUP1 SWAP2 SUB SWAP1 RETURN JUMPDEST PUSH2 0x39A PUSH1 0x4 DUP1 CALLDATASIZE SUB DUP2 ADD SWAP1 PUSH2 0x395 SWAP2 SWAP1 PUSH2 0x399A JUMP JUMPDEST PUSH2 0xAAE JUMP JUMPDEST STOP JUMPDEST PUSH2 0x3B6 PUSH1 0x4 DUP1 CALLDATASIZE SUB DUP2 ADD SWAP1 PUSH2 0x3B1 SWAP2 SWAP1 PUSH2 0x39FA JUMP JUMPDEST PUSH2 0xB74 JUMP JUMPDEST STOP JUMPDEST PUSH2 0x3C0 PUSH2 0xBD4 JUMP JUMPDEST PUSH1 0x40 MLOAD PUSH2 0x3CD SWAP2 SWAP1 PUSH2 0x3A6C JUMP JUMPDEST PUSH1 0x40 MLOAD DUP1 SWAP2 SUB SWAP1 RETURN JUMPDEST PUSH2 0x3DE PUSH2 0xBEA JUMP JUMPDEST PUSH1 0x40 MLOAD PUSH2 0x3EB SWAP2 SWAP1 PUSH2 0x3747 JUMP JUMPDEST PUSH1 0x40 MLOAD DUP1 SWAP2 SUB SWAP1 RETURN JUMPDEST PUSH2 0x3FC PUSH2 0xBEF JUMP JUMPDEST PUSH1 0x40 MLOAD PUSH2 0x409 SWAP2 SWAP1 PUSH2 0x3AE6 JUMP JUMPDEST PUSH1 0x40 MLOAD DUP1 SWAP2 SUB SWAP1 RETURN JUMPDEST PUSH2 0x41A PUSH2 0xC13 JUMP JUMPDEST PUSH1 0x40 MLOAD PUSH2 0x427 SWAP2 SWAP1 PUSH2 0x3B22 JUMP JUMPDEST PUSH1 0x40 MLOAD DUP1 SWAP2 SUB SWAP1 RETURN JUMPDEST PUSH2 0x44A PUSH1 0x4 DUP1 CALLDATASIZE SUB DUP2 ADD SWAP1 PUSH2 0x445 SWAP2 SWAP1 PUSH2 0x39FA JUMP JUMPDEST PUSH2 0xC39 JUMP JUMPDEST STOP JUMPDEST PUSH2 0x466 PUSH1 0x4 DUP1 CALLDATASIZE SUB DUP2 ADD SWAP1 PUSH2 0x461 SWAP2 SWAP1 PUSH2 0x3B3D JUMP JUMPDEST PUSH2 0xC59 JUMP JUMPDEST STOP JUMPDEST PUSH2 0x482 PUSH1 0x4 DUP1 CALLDATASIZE SUB DUP2 ADD SWAP1 PUSH2 0x47D SWAP2 SWAP1 PUSH2 0x3BC0 JUMP JUMPDEST PUSH2 0xDE0 JUMP JUMPDEST STOP JUMPDEST PUSH2 0x48C PUSH2 0xDFE JUMP JUMPDEST PUSH1 0x40 MLOAD PUSH2 0x499 SWAP2 SWAP1 PUSH2 0x3C26 JUMP JUMPDEST PUSH1 0x40 MLOAD DUP1 SWAP2 SUB SWAP1 RETURN JUMPDEST PUSH2 0x4BC PUSH1 0x4 DUP1 CALLDATASIZE SUB DUP2 ADD SWAP1 PUSH2 0x4B7 SWAP2 SWAP1 PUSH2 0x3840 JUMP JUMPDEST PUSH2 0xE04 JUMP JUMPDEST PUSH1 0x40 MLOAD PUSH2 0x4C9 SWAP2 SWAP1 PUSH2 0x38AE JUMP JUMPDEST PUSH1 0x40 MLOAD DUP1 SWAP2 SUB SWAP1 RETURN JUMPDEST PUSH2 0x4DA PUSH2 0xE8A JUMP JUMPDEST PUSH1 0x40 MLOAD PUSH2 0x4E7 SWAP2 SWAP1 PUSH2 0x3747 JUMP JUMPDEST PUSH1 0x40 MLOAD DUP1 SWAP2 SUB SWAP1 RETURN JUMPDEST PUSH2 0x50A PUSH1 0x4 DUP1 CALLDATASIZE SUB DUP2 ADD SWAP1 PUSH2 0x505 SWAP2 SWAP1 PUSH2 0x3B3D JUMP JUMPDEST PUSH2 0xE90 JUMP JUMPDEST PUSH1 0x40 MLOAD PUSH2 0x517 SWAP2 SWAP1 PUSH2 0x3747 JUMP JUMPDEST PUSH1 0x40 MLOAD DUP1 SWAP2 SUB SWAP1 RETURN JUMPDEST PUSH2 0x53A PUSH1 0x4 DUP1 CALLDATASIZE SUB DUP2 ADD SWAP1 PUSH2 0x535 SWAP2 SWAP1 PUSH2 0x3840 JUMP JUMPDEST PUSH2 0xF47 JUMP JUMPDEST PUSH1 0x40 MLOAD PUSH2 0x547 SWAP2 SWAP1 PUSH2 0x3747 JUMP JUMPDEST PUSH1 0x40 MLOAD DUP1 SWAP2 SUB SWAP1 RETURN JUMPDEST PUSH2 0x558 PUSH2 0xFAC JUMP JUMPDEST STOP JUMPDEST PUSH2 0x562 PUSH2 0x1143 JUMP JUMPDEST PUSH1 0x40 MLOAD PUSH2 0x56F SWAP2 SWAP1 PUSH2 0x3A6C JUMP JUMPDEST PUSH1 0x40 MLOAD DUP1 SWAP2 SUB SWAP1 RETURN JUMPDEST PUSH2 0x580 PUSH2 0x1159 JUMP JUMPDEST PUSH1 0x40 MLOAD PUSH2 0x58D SWAP2 SWAP1 PUSH2 0x38AE JUMP JUMPDEST PUSH1 0x40 MLOAD DUP1 SWAP2 SUB SWAP1 RETURN JUMPDEST PUSH2 0x5B0 PUSH1 0x4 DUP1 CALLDATASIZE SUB DUP2 ADD SWAP1 PUSH2 0x5AB SWAP2 SWAP1 PUSH2 0x3B3D JUMP JUMPDEST PUSH2 0x1183 JUMP JUMPDEST STOP JUMPDEST PUSH2 0x5CC PUSH1 0x4 DUP1 CALLDATASIZE SUB DUP2 ADD SWAP1 PUSH2 0x5C7 SWAP2 SWAP1 PUSH2 0x3840 JUMP JUMPDEST PUSH2 0x1364 JUMP JUMPDEST STOP JUMPDEST PUSH2 0x5E8 PUSH1 0x4 DUP1 CALLDATASIZE SUB DUP2 ADD SWAP1 PUSH2 0x5E3 SWAP2 SWAP1 PUSH2 0x3C97 JUMP JUMPDEST PUSH2 0x1376 JUMP JUMPDEST STOP JUMPDEST PUSH2 0x5F2 PUSH2 0x162C JUMP JUMPDEST PUSH1 0x40 MLOAD PUSH2 0x5FF SWAP2 SWAP1 PUSH2 0x37F2 JUMP JUMPDEST PUSH1 0x40 MLOAD DUP1 SWAP2 SUB SWAP1 RETURN JUMPDEST PUSH2 0x610 PUSH2 0x16BE JUMP JUMPDEST PUSH1 0x40 MLOAD PUSH2 0x61D SWAP2 SWAP1 PUSH2 0x3B22 JUMP JUMPDEST PUSH1 0x40 MLOAD DUP1 SWAP2 SUB SWAP1 RETURN JUMPDEST PUSH2 0x62E PUSH2 0x16E4 JUMP JUMPDEST PUSH1 0x40 MLOAD PUSH2 0x63B SWAP2 SWAP1 PUSH2 0x3747 JUMP JUMPDEST PUSH1 0x40 MLOAD DUP1 SWAP2 SUB SWAP1 RETURN JUMPDEST PUSH2 0x65E PUSH1 0x4 DUP1 CALLDATASIZE SUB DUP2 ADD SWAP1 PUSH2 0x659 SWAP2 SWAP1 PUSH2 0x3D37 JUMP JUMPDEST PUSH2 0x16EA JUMP JUMPDEST STOP JUMPDEST PUSH2 0x668 PUSH2 0x1700 JUMP JUMPDEST PUSH1 0x40 MLOAD PUSH2 0x675 SWAP2 SWAP1 PUSH2 0x3747 JUMP JUMPDEST PUSH1 0x40 MLOAD DUP1 SWAP2 SUB SWAP1 RETURN JUMPDEST PUSH2 0x698 PUSH1 0x4 DUP1 CALLDATASIZE SUB DUP2 ADD SWAP1 PUSH2 0x693 SWAP2 SWAP1 PUSH2 0x3E09 JUMP JUMPDEST PUSH2 0x1707 JUMP JUMPDEST STOP JUMPDEST PUSH2 0x6A2 PUSH2 0x17BF JUMP JUMPDEST PUSH1 0x40 MLOAD PUSH2 0x6AF SWAP2 SWAP1 PUSH2 0x3E93 JUMP JUMPDEST PUSH1 0x40 MLOAD DUP1 SWAP2 SUB SWAP1 RETURN JUMPDEST PUSH2 0x6D2 PUSH1 0x4 DUP1 CALLDATASIZE SUB DUP2 ADD SWAP1 PUSH2 0x6CD SWAP2 SWAP1 PUSH2 0x3FDE JUMP JUMPDEST PUSH2 0x17D3 JUMP JUMPDEST STOP JUMPDEST PUSH2 0x6EE PUSH1 0x4 DUP1 CALLDATASIZE SUB DUP2 ADD SWAP1 PUSH2 0x6E9 SWAP2 SWAP1 PUSH2 0x3840 JUMP JUMPDEST PUSH2 0x1835 JUMP JUMPDEST PUSH1 0x40 MLOAD PUSH2 0x6FB SWAP2 SWAP1 PUSH2 0x37F2 JUMP JUMPDEST PUSH1 0x40 MLOAD DUP1 SWAP2 SUB SWAP1 RETURN JUMPDEST PUSH2 0x71E PUSH1 0x4 DUP1 CALLDATASIZE SUB DUP2 ADD SWAP1 PUSH2 0x719 SWAP2 SWAP1 PUSH2 0x4083 JUMP JUMPDEST PUSH2 0x189D JUMP JUMPDEST STOP JUMPDEST PUSH2 0x73A PUSH1 0x4 DUP1 CALLDATASIZE SUB DUP2 ADD SWAP1 PUSH2 0x735 SWAP2 SWAP1 PUSH2 0x40D9 JUMP JUMPDEST PUSH2 0x1972 JUMP JUMPDEST PUSH1 0x40 MLOAD PUSH2 0x747 SWAP2 SWAP1 PUSH2 0x3713 JUMP JUMPDEST PUSH1 0x40 MLOAD DUP1 SWAP2 SUB SWAP1 RETURN JUMPDEST PUSH2 0x76A PUSH1 0x4 DUP1 CALLDATASIZE SUB DUP2 ADD SWAP1 PUSH2 0x765 SWAP2 SWAP1 PUSH2 0x413B JUMP JUMPDEST PUSH2 0x1A06 JUMP JUMPDEST STOP JUMPDEST PUSH2 0x786 PUSH1 0x4 DUP1 CALLDATASIZE SUB DUP2 ADD SWAP1 PUSH2 0x781 SWAP2 SWAP1 PUSH2 0x3B3D JUMP JUMPDEST PUSH2 0x1A77 JUMP JUMPDEST STOP JUMPDEST PUSH2 0x790 PUSH2 0x1A8B JUMP JUMPDEST PUSH1 0x40 MLOAD PUSH2 0x79D SWAP2 SWAP1 PUSH2 0x3747 JUMP JUMPDEST PUSH1 0x40 MLOAD DUP1 SWAP2 SUB SWAP1 RETURN JUMPDEST PUSH2 0x7C0 PUSH1 0x4 DUP1 CALLDATASIZE SUB DUP2 ADD SWAP1 PUSH2 0x7BB SWAP2 SWAP1 PUSH2 0x3840 JUMP JUMPDEST PUSH2 0x1A91 JUMP JUMPDEST STOP JUMPDEST PUSH1 0x0 PUSH32 0x80AC58CD00000000000000000000000000000000000000000000000000000000 PUSH28 0xFFFFFFFFFFFFFFFFFFFFFFFFFFFFFFFFFFFFFFFFFFFFFFFFFFFFFFFF NOT AND DUP3 PUSH28 0xFFFFFFFFFFFFFFFFFFFFFFFFFFFFFFFFFFFFFFFFFFFFFFFFFFFFFFFF NOT AND EQ DUP1 PUSH2 0x88D JUMPI POP PUSH32 0x5B5E139F00000000000000000000000000000000000000000000000000000000 PUSH28 0xFFFFFFFFFFFFFFFFFFFFFFFFFFFFFFFFFFFFFFFFFFFFFFFFFFFFFFFF NOT AND DUP3 PUSH28 0xFFFFFFFFFFFFFFFFFFFFFFFFFFFFFFFFFFFFFFFFFFFFFFFFFFFFFFFF NOT AND EQ JUMPDEST DUP1 PUSH2 0x89D JUMPI POP PUSH2 0x89C DUP3 PUSH2 0x1AE7 JUMP JUMPDEST JUMPDEST SWAP1 POP SWAP2 SWAP1 POP JUMP JUMPDEST PUSH1 0x0 PUSH1 0xB SLOAD SWAP1 POP SWAP1 JUMP JUMPDEST PUSH1 0x60 PUSH1 0x0 DUP1 SLOAD PUSH2 0x8BD SWAP1 PUSH2 0x41E1 JUMP JUMPDEST DUP1 PUSH1 0x1F ADD PUSH1 0x20 DUP1 SWAP2 DIV MUL PUSH1 0x20 ADD PUSH1 0x40 MLOAD SWAP1 DUP2 ADD PUSH1 0x40 MSTORE DUP1 SWAP3 SWAP2 SWAP1 DUP2 DUP2 MSTORE PUSH1 0x20 ADD DUP3 DUP1 SLOAD PUSH2 0x8E9 SWAP1 PUSH2 0x41E1 JUMP JUMPDEST DUP1 ISZERO PUSH2 0x936 JUMPI DUP1 PUSH1 0x1F LT PUSH2 0x90B JUMPI PUSH2 0x100 DUP1 DUP4 SLOAD DIV MUL DUP4 MSTORE SWAP2 PUSH1 0x20 ADD SWAP2 PUSH2 0x936 JUMP JUMPDEST DUP3 ADD SWAP2 SWAP1 PUSH1 0x0 MSTORE PUSH1 0x20 PUSH1 0x0 KECCAK256 SWAP1 JUMPDEST DUP2 SLOAD DUP2 MSTORE SWAP1 PUSH1 0x1 ADD SWAP1 PUSH1 0x20 ADD DUP1 DUP4 GT PUSH2 0x919 JUMPI DUP3 SWAP1 SUB PUSH1 0x1F AND DUP3 ADD SWAP2 JUMPDEST POP POP POP POP POP SWAP1 POP SWAP1 JUMP JUMPDEST PUSH1 0x0 PUSH2 0x94B DUP3 PUSH2 0x1B51 JUMP JUMPDEST PUSH1 0x4 PUSH1 0x0 DUP4 DUP2 MSTORE PUSH1 0x20 ADD SWAP1 DUP2 MSTORE PUSH1 0x20 ADD PUSH1 0x0 KECCAK256 PUSH1 0x0 SWAP1 SLOAD SWAP1 PUSH2 0x100 EXP SWAP1 DIV PUSH20 0xFFFFFFFFFFFFFFFFFFFFFFFFFFFFFFFFFFFFFFFF AND SWAP1 POP SWAP2 SWAP1 POP JUMP JUMPDEST PUSH1 0x0 PUSH2 0x991 DUP3 PUSH2 0xE04 JUMP JUMPDEST SWAP1 POP DUP1 PUSH20 0xFFFFFFFFFFFFFFFFFFFFFFFFFFFFFFFFFFFFFFFF AND DUP4 PUSH20 0xFFFFFFFFFFFFFFFFFFFFFFFFFFFFFFFFFFFFFFFF AND SUB PUSH2 0xA01 JUMPI PUSH1 0x40 MLOAD PUSH32 0x8C379A000000000000000000000000000000000000000000000000000000000 DUP2 MSTORE PUSH1 0x4 ADD PUSH2 0x9F8 SWAP1 PUSH2 0x4284 JUMP JUMPDEST PUSH1 0x40 MLOAD DUP1 SWAP2 SUB SWAP1 REVERT JUMPDEST DUP1 PUSH20 0xFFFFFFFFFFFFFFFFFFFFFFFFFFFFFFFFFFFFFFFF AND PUSH2 0xA20 PUSH2 0x1B9C JUMP JUMPDEST PUSH20 0xFFFFFFFFFFFFFFFFFFFFFFFFFFFFFFFFFFFFFFFF AND EQ DUP1 PUSH2 0xA4F JUMPI POP PUSH2 0xA4E DUP2 PUSH2 0xA49 PUSH2 0x1B9C JUMP JUMPDEST PUSH2 0x1972 JUMP JUMPDEST JUMPDEST PUSH2 0xA8E JUMPI PUSH1 0x40 MLOAD PUSH32 0x8C379A000000000000000000000000000000000000000000000000000000000 DUP2 MSTORE PUSH1 0x4 ADD PUSH2 0xA85 SWAP1 PUSH2 0x4316 JUMP JUMPDEST PUSH1 0x40 MLOAD DUP1 SWAP2 SUB SWAP1 REVERT JUMPDEST PUSH2 0xA98 DUP4 DUP4 PUSH2 0x1BA4 JUMP JUMPDEST POP POP POP JUMP JUMPDEST PUSH1 0x12 SLOAD DUP2 JUMP JUMPDEST PUSH1 0xB SLOAD DUP2 JUMP JUMPDEST PUSH1 0x14 DUP2 JUMP JUMPDEST PUSH1 0x9 PUSH1 0x0 SWAP1 SLOAD SWAP1 PUSH2 0x100 EXP SWAP1 DIV PUSH20 0xFFFFFFFFFFFFFFFFFFFFFFFFFFFFFFFFFFFFFFFF AND PUSH20 0xFFFFFFFFFFFFFFFFFFFFFFFFFFFFFFFFFFFFFFFF AND CALLER PUSH20 0xFFFFFFFFFFFFFFFFFFFFFFFFFFFFFFFFFFFFFFFF AND EQ PUSH2 0xB64 JUMPI CALLER PUSH1 0x9 PUSH1 0x0 SWAP1 SLOAD SWAP1 PUSH2 0x100 EXP SWAP1 DIV PUSH20 0xFFFFFFFFFFFFFFFFFFFFFFFFFFFFFFFFFFFFFFFF AND PUSH1 0x40 MLOAD PUSH32 0x1CF993F400000000000000000000000000000000000000000000000000000000 DUP2 MSTORE PUSH1 0x4 ADD PUSH2 0xB5B SWAP3 SWAP2 SWAP1 PUSH2 0x4336 JUMP JUMPDEST PUSH1 0x40 MLOAD DUP1 SWAP2 SUB SWAP1 REVERT JUMPDEST PUSH2 0xB6F DUP4 DUP4 DUP4 PUSH2 0x1C5D JUMP JUMPDEST POP POP POP JUMP JUMPDEST PUSH2 0xB85 PUSH2 0xB7F PUSH2 0x1B9C JUMP JUMPDEST DUP3 PUSH2 0x1DCF JUMP JUMPDEST PUSH2 0xBC4 JUMPI PUSH1 0x40 MLOAD PUSH32 0x8C379A000000000000000000000000000000000000000000000000000000000 DUP2 MSTORE PUSH1 0x4 ADD PUSH2 0xBBB SWAP1 PUSH2 0x43D1 JUMP JUMPDEST PUSH1 0x40 MLOAD DUP1 SWAP2 SUB SWAP1 REVERT JUMPDEST PUSH2 0xBCF DUP4 DUP4 DUP4 PUSH2 0x1E64 JUMP JUMPDEST POP POP POP JUMP JUMPDEST PUSH1 0x13 PUSH1 0x0 SWAP1 SLOAD SWAP1 PUSH2 0x100 EXP SWAP1 DIV PUSH4 0xFFFFFFFF AND DUP2 JUMP JUMPDEST PUSH1 0x14 DUP2 JUMP JUMPDEST PUSH32 0x0 DUP2 JUMP JUMPDEST PUSH1 0x10 PUSH1 0x0 SWAP1 SLOAD SWAP1 PUSH2 0x100 EXP SWAP1 DIV PUSH20 0xFFFFFFFFFFFFFFFFFFFFFFFFFFFFFFFFFFFFFFFF AND DUP2 JUMP JUMPDEST PUSH2 0xC54 DUP4 DUP4 DUP4 PUSH1 0x40 MLOAD DUP1 PUSH1 0x20 ADD PUSH1 0x40 MSTORE DUP1 PUSH1 0x0 DUP2 MSTORE POP PUSH2 0x17D3 JUMP JUMPDEST POP POP POP JUMP JUMPDEST PUSH2 0xC61 PUSH2 0x215D JUMP JUMPDEST PUSH1 0x0 PUSH32 0x0 PUSH20 0xFFFFFFFFFFFFFFFFFFFFFFFFFFFFFFFFFFFFFFFF AND PUSH4 0x70A08231 ADDRESS PUSH1 0x40 MLOAD DUP3 PUSH4 0xFFFFFFFF AND PUSH1 0xE0 SHL DUP2 MSTORE PUSH1 0x4 ADD PUSH2 0xCBC SWAP2 SWAP1 PUSH2 0x38AE JUMP JUMPDEST PUSH1 0x20 PUSH1 0x40 MLOAD DUP1 DUP4 SUB DUP2 DUP7 GAS STATICCALL ISZERO DUP1 ISZERO PUSH2 0xCD9 JUMPI RETURNDATASIZE PUSH1 0x0 DUP1 RETURNDATACOPY RETURNDATASIZE PUSH1 0x0 REVERT JUMPDEST POP POP POP POP PUSH1 0x40 MLOAD RETURNDATASIZE PUSH1 0x1F NOT PUSH1 0x1F DUP3 ADD AND DUP3 ADD DUP1 PUSH1 0x40 MSTORE POP DUP2 ADD SWAP1 PUSH2 0xCFD SWAP2 SWAP1 PUSH2 0x4406 JUMP JUMPDEST SWAP1 POP PUSH32 0x0 PUSH20 0xFFFFFFFFFFFFFFFFFFFFFFFFFFFFFFFFFFFFFFFF AND PUSH4 0xA9059CBB DUP4 DUP4 PUSH1 0x40 MLOAD DUP4 PUSH4 0xFFFFFFFF AND PUSH1 0xE0 SHL DUP2 MSTORE PUSH1 0x4 ADD PUSH2 0xD5A SWAP3 SWAP2 SWAP1 PUSH2 0x4433 JUMP JUMPDEST PUSH1 0x20 PUSH1 0x40 MLOAD DUP1 DUP4 SUB DUP2 PUSH1 0x0 DUP8 GAS CALL ISZERO DUP1 ISZERO PUSH2 0xD79 JUMPI RETURNDATASIZE PUSH1 0x0 DUP1 RETURNDATACOPY RETURNDATASIZE PUSH1 0x0 REVERT JUMPDEST POP POP POP POP PUSH1 0x40 MLOAD RETURNDATASIZE PUSH1 0x1F NOT PUSH1 0x1F DUP3 ADD AND DUP3 ADD DUP1 PUSH1 0x40 MSTORE POP DUP2 ADD SWAP1 PUSH2 0xD9D SWAP2 SWAP1 PUSH2 0x4471 JUMP JUMPDEST PUSH2 0xDDC JUMPI PUSH1 0x40 MLOAD PUSH32 0x8C379A000000000000000000000000000000000000000000000000000000000 DUP2 MSTORE PUSH1 0x4 ADD PUSH2 0xDD3 SWAP1 PUSH2 0x44EA JUMP JUMPDEST PUSH1 0x40 MLOAD DUP1 SWAP2 SUB SWAP1 REVERT JUMPDEST POP POP JUMP JUMPDEST PUSH2 0xDE8 PUSH2 0x215D JUMP JUMPDEST DUP2 DUP2 PUSH1 0xF SWAP2 DUP3 PUSH2 0xDF9 SWAP3 SWAP2 SWAP1 PUSH2 0x46B7 JUMP JUMPDEST POP POP POP JUMP JUMPDEST PUSH1 0x11 SLOAD DUP2 JUMP JUMPDEST PUSH1 0x0 DUP1 PUSH2 0xE10 DUP4 PUSH2 0x21EF JUMP JUMPDEST SWAP1 POP PUSH1 0x0 PUSH20 0xFFFFFFFFFFFFFFFFFFFFFFFFFFFFFFFFFFFFFFFF AND DUP2 PUSH20 0xFFFFFFFFFFFFFFFFFFFFFFFFFFFFFFFFFFFFFFFF AND SUB PUSH2 0xE81 JUMPI PUSH1 0x40 MLOAD PUSH32 0x8C379A000000000000000000000000000000000000000000000000000000000 DUP2 MSTORE PUSH1 0x4 ADD PUSH2 0xE78 SWAP1 PUSH2 0x47D3 JUMP JUMPDEST PUSH1 0x40 MLOAD DUP1 SWAP2 SUB SWAP1 REVERT JUMPDEST DUP1 SWAP2 POP POP SWAP2 SWAP1 POP JUMP JUMPDEST PUSH1 0xC SLOAD DUP2 JUMP JUMPDEST PUSH1 0x0 DUP1 PUSH20 0xFFFFFFFFFFFFFFFFFFFFFFFFFFFFFFFFFFFFFFFF AND DUP3 PUSH20 0xFFFFFFFFFFFFFFFFFFFFFFFFFFFFFFFFFFFFFFFF AND SUB PUSH2 0xF00 JUMPI PUSH1 0x40 MLOAD PUSH32 0x8C379A000000000000000000000000000000000000000000000000000000000 DUP2 MSTORE PUSH1 0x4 ADD PUSH2 0xEF7 SWAP1 PUSH2 0x4865 JUMP JUMPDEST PUSH1 0x40 MLOAD DUP1 SWAP2 SUB SWAP1 REVERT JUMPDEST PUSH1 0x3 PUSH1 0x0 DUP4 PUSH20 0xFFFFFFFFFFFFFFFFFFFFFFFFFFFFFFFFFFFFFFFF AND PUSH20 0xFFFFFFFFFFFFFFFFFFFFFFFFFFFFFFFFFFFFFFFF AND DUP2 MSTORE PUSH1 0x20 ADD SWAP1 DUP2 MSTORE PUSH1 0x20 ADD PUSH1 0x0 KECCAK256 SLOAD SWAP1 POP SWAP2 SWAP1 POP JUMP JUMPDEST PUSH1 0x0 PUSH2 0xF52 DUP3 PUSH2 0x222C JUMP JUMPDEST PUSH2 0xF91 JUMPI PUSH1 0x40 MLOAD PUSH32 0x8C379A000000000000000000000000000000000000000000000000000000000 DUP2 MSTORE PUSH1 0x4 ADD PUSH2 0xF88 SWAP1 PUSH2 0x48D1 JUMP JUMPDEST PUSH1 0x40 MLOAD DUP1 SWAP2 SUB SWAP1 REVERT JUMPDEST PUSH1 0xE PUSH1 0x0 DUP4 DUP2 MSTORE PUSH1 0x20 ADD SWAP1 DUP2 MSTORE PUSH1 0x20 ADD PUSH1 0x0 KECCAK256 SLOAD SWAP1 POP SWAP2 SWAP1 POP JUMP JUMPDEST PUSH1 0x8 PUSH1 0x0 SWAP1 SLOAD SWAP1 PUSH2 0x100 EXP SWAP1 DIV PUSH20 0xFFFFFFFFFFFFFFFFFFFFFFFFFFFFFFFFFFFFFFFF AND PUSH20 0xFFFFFFFFFFFFFFFFFFFFFFFFFFFFFFFFFFFFFFFF AND CALLER PUSH20 0xFFFFFFFFFFFFFFFFFFFFFFFFFFFFFFFFFFFFFFFF AND EQ PUSH2 0x103C JUMPI PUSH1 0x40 MLOAD PUSH32 0x8C379A000000000000000000000000000000000000000000000000000000000 DUP2 MSTORE PUSH1 0x4 ADD PUSH2 0x1033 SWAP1 PUSH2 0x493D JUMP JUMPDEST PUSH1 0x40 MLOAD DUP1 SWAP2 SUB SWAP1 REVERT JUMPDEST PUSH1 0x0 PUSH1 0x7 PUSH1 0x0 SWAP1 SLOAD SWAP1 PUSH2 0x100 EXP SWAP1 DIV PUSH20 0xFFFFFFFFFFFFFFFFFFFFFFFFFFFFFFFFFFFFFFFF AND SWAP1 POP CALLER PUSH1 0x7 PUSH1 0x0 PUSH2 0x100 EXP DUP2 SLOAD DUP2 PUSH20 0xFFFFFFFFFFFFFFFFFFFFFFFFFFFFFFFFFFFFFFFF MUL NOT AND SWAP1 DUP4 PUSH20 0xFFFFFFFFFFFFFFFFFFFFFFFFFFFFFFFFFFFFFFFF AND MUL OR SWAP1 SSTORE POP PUSH1 0x0 PUSH1 0x8 PUSH1 0x0 PUSH2 0x100 EXP DUP2 SLOAD DUP2 PUSH20 0xFFFFFFFFFFFFFFFFFFFFFFFFFFFFFFFFFFFFFFFF MUL NOT AND SWAP1 DUP4 PUSH20 0xFFFFFFFFFFFFFFFFFFFFFFFFFFFFFFFFFFFFFFFF AND MUL OR SWAP1 SSTORE POP CALLER PUSH20 0xFFFFFFFFFFFFFFFFFFFFFFFFFFFFFFFFFFFFFFFF AND DUP2 PUSH20 0xFFFFFFFFFFFFFFFFFFFFFFFFFFFFFFFFFFFFFFFF AND PUSH32 0x8BE0079C531659141344CD1FD0A4F28419497F9722A3DAAFE3B4186F6B6457E0 PUSH1 0x40 MLOAD PUSH1 0x40 MLOAD DUP1 SWAP2 SUB SWAP1 LOG3 POP JUMP JUMPDEST PUSH1 0x13 PUSH1 0x6 SWAP1 SLOAD SWAP1 PUSH2 0x100 EXP SWAP1 DIV PUSH4 0xFFFFFFFF AND DUP2 JUMP JUMPDEST PUSH1 0x0 PUSH1 0x7 PUSH1 0x0 SWAP1 SLOAD SWAP1 PUSH2 0x100 EXP SWAP1 DIV PUSH20 0xFFFFFFFFFFFFFFFFFFFFFFFFFFFFFFFFFFFFFFFF AND SWAP1 POP SWAP1 JUMP JUMPDEST PUSH2 0x118B PUSH2 0x1159 JUMP JUMPDEST PUSH20 0xFFFFFFFFFFFFFFFFFFFFFFFFFFFFFFFFFFFFFFFF AND CALLER PUSH20 0xFFFFFFFFFFFFFFFFFFFFFFFFFFFFFFFFFFFFFFFF AND EQ ISZERO DUP1 ISZERO PUSH2 0x1214 JUMPI POP PUSH1 0x9 PUSH1 0x0 SWAP1 SLOAD SWAP1 PUSH2 0x100 EXP SWAP1 DIV PUSH20 0xFFFFFFFFFFFFFFFFFFFFFFFFFFFFFFFFFFFFFFFF AND PUSH20 0xFFFFFFFFFFFFFFFFFFFFFFFFFFFFFFFFFFFFFFFF AND CALLER PUSH20 0xFFFFFFFFFFFFFFFFFFFFFFFFFFFFFFFFFFFFFFFF AND EQ ISZERO JUMPDEST ISZERO PUSH2 0x1283 JUMPI CALLER PUSH2 0x1222 PUSH2 0x1159 JUMP JUMPDEST PUSH1 0x9 PUSH1 0x0 SWAP1 SLOAD SWAP1 PUSH2 0x100 EXP SWAP1 DIV PUSH20 0xFFFFFFFFFFFFFFFFFFFFFFFFFFFFFFFFFFFFFFFF AND PUSH1 0x40 MLOAD PUSH32 0x61DB9C100000000000000000000000000000000000000000000000000000000 DUP2 MSTORE PUSH1 0x4 ADD PUSH2 0x127A SWAP4 SWAP3 SWAP2 SWAP1 PUSH2 0x495D JUMP JUMPDEST PUSH1 0x40 MLOAD DUP1 SWAP2 SUB SWAP1 REVERT JUMPDEST PUSH1 0x0 PUSH20 0xFFFFFFFFFFFFFFFFFFFFFFFFFFFFFFFFFFFFFFFF AND DUP2 PUSH20 0xFFFFFFFFFFFFFFFFFFFFFFFFFFFFFFFFFFFFFFFF AND SUB PUSH2 0x12E9 JUMPI PUSH1 0x40 MLOAD PUSH32 0xD92E233D00000000000000000000000000000000000000000000000000000000 DUP2 MSTORE PUSH1 0x4 ADD PUSH1 0x40 MLOAD DUP1 SWAP2 SUB SWAP1 REVERT JUMPDEST DUP1 PUSH1 0x9 PUSH1 0x0 PUSH2 0x100 EXP DUP2 SLOAD DUP2 PUSH20 0xFFFFFFFFFFFFFFFFFFFFFFFFFFFFFFFFFFFFFFFF MUL NOT AND SWAP1 DUP4 PUSH20 0xFFFFFFFFFFFFFFFFFFFFFFFFFFFFFFFFFFFFFFFF AND MUL OR SWAP1 SSTORE POP PUSH32 0xD1A6A14209A385A964D036E404CB5CFB71F4000CDB03C9366292430787261BE6 DUP2 PUSH1 0x40 MLOAD PUSH2 0x1359 SWAP2 SWAP1 PUSH2 0x38AE JUMP JUMPDEST PUSH1 0x40 MLOAD DUP1 SWAP2 SUB SWAP1 LOG1 POP JUMP JUMPDEST PUSH2 0x136C PUSH2 0x215D JUMP JUMPDEST DUP1 PUSH1 0xA DUP2 SWAP1 SSTORE POP POP JUMP JUMPDEST PUSH2 0x137E PUSH2 0x226D JUMP JUMPDEST PUSH1 0x0 DUP4 GT PUSH2 0x13C1 JUMPI PUSH1 0x40 MLOAD PUSH32 0x8C379A000000000000000000000000000000000000000000000000000000000 DUP2 MSTORE PUSH1 0x4 ADD PUSH2 0x13B8 SWAP1 PUSH2 0x49E0 JUMP JUMPDEST PUSH1 0x40 MLOAD DUP1 SWAP2 SUB SWAP1 REVERT JUMPDEST PUSH3 0x186A0 DUP4 PUSH1 0xC SLOAD PUSH2 0x13D3 SWAP2 SWAP1 PUSH2 0x4A2F JUMP JUMPDEST GT ISZERO PUSH2 0x1414 JUMPI PUSH1 0x40 MLOAD PUSH32 0x8C379A000000000000000000000000000000000000000000000000000000000 DUP2 MSTORE PUSH1 0x4 ADD PUSH2 0x140B SWAP1 PUSH2 0x4AAF JUMP JUMPDEST PUSH1 0x40 MLOAD DUP1 SWAP2 SUB SWAP1 REVERT JUMPDEST PUSH1 0x0 DUP4 PUSH1 0xA SLOAD PUSH2 0x1424 SWAP2 SWAP1 PUSH2 0x4ACF JUMP JUMPDEST SWAP1 POP PUSH32 0x0 PUSH20 0xFFFFFFFFFFFFFFFFFFFFFFFFFFFFFFFFFFFFFFFF AND PUSH4 0x23B872DD CALLER ADDRESS DUP5 PUSH1 0x40 MLOAD DUP5 PUSH4 0xFFFFFFFF AND PUSH1 0xE0 SHL DUP2 MSTORE PUSH1 0x4 ADD PUSH2 0x1483 SWAP4 SWAP3 SWAP2 SWAP1 PUSH2 0x4B11 JUMP JUMPDEST PUSH1 0x20 PUSH1 0x40 MLOAD DUP1 DUP4 SUB DUP2 PUSH1 0x0 DUP8 GAS CALL ISZERO DUP1 ISZERO PUSH2 0x14A2 JUMPI RETURNDATASIZE PUSH1 0x0 DUP1 RETURNDATACOPY RETURNDATASIZE PUSH1 0x0 REVERT JUMPDEST POP POP POP POP PUSH1 0x40 MLOAD RETURNDATASIZE PUSH1 0x1F NOT PUSH1 0x1F DUP3 ADD AND DUP3 ADD DUP1 PUSH1 0x40 MSTORE POP DUP2 ADD SWAP1 PUSH2 0x14C6 SWAP2 SWAP1 PUSH2 0x4471 JUMP JUMPDEST PUSH2 0x1505 JUMPI PUSH1 0x40 MLOAD PUSH32 0x8C379A000000000000000000000000000000000000000000000000000000000 DUP2 MSTORE PUSH1 0x4 ADD PUSH2 0x14FC SWAP1 PUSH2 0x4B94 JUMP JUMPDEST PUSH1 0x40 MLOAD DUP1 SWAP2 SUB SWAP1 REVERT JUMPDEST PUSH1 0x0 DUP5 PUSH8 0xFFFFFFFFFFFFFFFF DUP2 GT ISZERO PUSH2 0x1521 JUMPI PUSH2 0x1520 PUSH2 0x3EB3 JUMP JUMPDEST JUMPDEST PUSH1 0x40 MLOAD SWAP1 DUP1 DUP3 MSTORE DUP1 PUSH1 0x20 MUL PUSH1 0x20 ADD DUP3 ADD PUSH1 0x40 MSTORE DUP1 ISZERO PUSH2 0x154F JUMPI DUP2 PUSH1 0x20 ADD PUSH1 0x20 DUP3 MUL DUP1 CALLDATASIZE DUP4 CALLDATACOPY DUP1 DUP3 ADD SWAP2 POP POP SWAP1 POP JUMPDEST POP SWAP1 POP PUSH1 0x0 JUMPDEST DUP6 DUP2 LT ISZERO PUSH2 0x15CD JUMPI PUSH1 0x0 PUSH1 0xB PUSH1 0x0 DUP2 SLOAD PUSH2 0x156E SWAP1 PUSH2 0x4BB4 JUMP JUMPDEST SWAP2 SWAP1 POP DUP2 SWAP1 SSTORE SWAP1 POP PUSH2 0x1580 DUP9 DUP3 PUSH2 0x22BC JUMP JUMPDEST PUSH1 0x0 PUSH1 0xE PUSH1 0x0 DUP4 DUP2 MSTORE PUSH1 0x20 ADD SWAP1 DUP2 MSTORE PUSH1 0x20 ADD PUSH1 0x0 KECCAK256 DUP2 SWAP1 SSTORE POP DUP1 DUP4 DUP4 DUP2 MLOAD DUP2 LT PUSH2 0x15AD JUMPI PUSH2 0x15AC PUSH2 0x4BFC JUMP JUMPDEST JUMPDEST PUSH1 0x20 MUL PUSH1 0x20 ADD ADD DUP2 DUP2 MSTORE POP POP POP DUP1 DUP1 PUSH2 0x15C5 SWAP1 PUSH2 0x4BB4 JUMP JUMPDEST SWAP2 POP POP PUSH2 0x1555 JUMP JUMPDEST POP PUSH1 0x0 PUSH2 0x15D8 PUSH2 0x22DA JUMP JUMPDEST SWAP1 POP DUP2 PUSH1 0x14 PUSH1 0x0 DUP4 DUP2 MSTORE PUSH1 0x20 ADD SWAP1 DUP2 MSTORE PUSH1 0x20 ADD PUSH1 0x0 KECCAK256 SWAP1 DUP1 MLOAD SWAP1 PUSH1 0x20 ADD SWAP1 PUSH2 0x1601 SWAP3 SWAP2 SWAP1 PUSH2 0x35B1 JUMP JUMPDEST POP DUP6 PUSH1 0xC PUSH1 0x0 DUP3 DUP3 SLOAD PUSH2 0x1614 SWAP2 SWAP1 PUSH2 0x4A2F JUMP JUMPDEST SWAP3 POP POP DUP2 SWAP1 SSTORE POP POP POP POP PUSH2 0x1626 PUSH2 0x24C3 JUMP JUMPDEST POP POP POP POP JUMP JUMPDEST PUSH1 0x60 PUSH1 0x1 DUP1 SLOAD PUSH2 0x163B SWAP1 PUSH2 0x41E1 JUMP JUMPDEST DUP1 PUSH1 0x1F ADD PUSH1 0x20 DUP1 SWAP2 DIV MUL PUSH1 0x20 ADD PUSH1 0x40 MLOAD SWAP1 DUP2 ADD PUSH1 0x40 MSTORE DUP1 SWAP3 SWAP2 SWAP1 DUP2 DUP2 MSTORE PUSH1 0x20 ADD DUP3 DUP1 SLOAD PUSH2 0x1667 SWAP1 PUSH2 0x41E1 JUMP JUMPDEST DUP1 ISZERO PUSH2 0x16B4 JUMPI DUP1 PUSH1 0x1F LT PUSH2 0x1689 JUMPI PUSH2 0x100 DUP1 DUP4 SLOAD DIV MUL DUP4 MSTORE SWAP2 PUSH1 0x20 ADD SWAP2 PUSH2 0x16B4 JUMP JUMPDEST DUP3 ADD SWAP2 SWAP1 PUSH1 0x0 MSTORE PUSH1 0x20 PUSH1 0x0 KECCAK256 SWAP1 JUMPDEST DUP2 SLOAD DUP2 MSTORE SWAP1 PUSH1 0x1 ADD SWAP1 PUSH1 0x20 ADD DUP1 DUP4 GT PUSH2 0x1697 JUMPI DUP3 SWAP1 SUB PUSH1 0x1F AND DUP3 ADD SWAP2 JUMPDEST POP POP POP POP POP SWAP1 POP SWAP1 JUMP JUMPDEST PUSH1 0x9 PUSH1 0x0 SWAP1 SLOAD SWAP1 PUSH2 0x100 EXP SWAP1 DIV PUSH20 0xFFFFFFFFFFFFFFFFFFFFFFFFFFFFFFFFFFFFFFFF AND DUP2 JUMP JUMPDEST PUSH1 0xA SLOAD DUP2 JUMP JUMPDEST PUSH2 0x16FC PUSH2 0x16F5 PUSH2 0x1B9C JUMP JUMPDEST DUP4 DUP4 PUSH2 0x24CD JUMP JUMPDEST POP POP JUMP JUMPDEST PUSH3 0x186A0 DUP2 JUMP JUMPDEST PUSH2 0x170F PUSH2 0x215D JUMP JUMPDEST DUP5 PUSH1 0x10 PUSH1 0x0 PUSH2 0x100 EXP DUP2 SLOAD DUP2 PUSH20 0xFFFFFFFFFFFFFFFFFFFFFFFFFFFFFFFFFFFFFFFF MUL NOT AND SWAP1 DUP4 PUSH20 0xFFFFFFFFFFFFFFFFFFFFFFFFFFFFFFFFFFFFFFFF AND MUL OR SWAP1 SSTORE POP DUP4 PUSH1 0x11 DUP2 SWAP1 SSTORE POP DUP3 PUSH1 0x12 DUP2 SWAP1 SSTORE POP PUSH1 0x0 DUP3 PUSH4 0xFFFFFFFF AND EQ PUSH2 0x178E JUMPI DUP2 PUSH1 0x13 PUSH1 0x0 PUSH2 0x100 EXP DUP2 SLOAD DUP2 PUSH4 0xFFFFFFFF MUL NOT AND SWAP1 DUP4 PUSH4 0xFFFFFFFF AND MUL OR SWAP1 SSTORE POP JUMPDEST PUSH1 0x0 DUP2 PUSH2 0xFFFF AND EQ PUSH2 0x17B8 JUMPI DUP1 PUSH1 0x13 PUSH1 0x4 PUSH2 0x100 EXP DUP2 SLOAD DUP2 PUSH2 0xFFFF MUL NOT AND SWAP1 DUP4 PUSH2 0xFFFF AND MUL OR SWAP1 SSTORE POP JUMPDEST POP POP POP POP POP JUMP JUMPDEST PUSH1 0x13 PUSH1 0x4 SWAP1 SLOAD SWAP1 PUSH2 0x100 EXP SWAP1 DIV PUSH2 0xFFFF AND DUP2 JUMP JUMPDEST PUSH2 0x17E4 PUSH2 0x17DE PUSH2 0x1B9C JUMP JUMPDEST DUP4 PUSH2 0x1DCF JUMP JUMPDEST PUSH2 0x1823 JUMPI PUSH1 0x40 MLOAD PUSH32 0x8C379A000000000000000000000000000000000000000000000000000000000 DUP2 MSTORE PUSH1 0x4 ADD PUSH2 0x181A SWAP1 PUSH2 0x43D1 JUMP JUMPDEST PUSH1 0x40 MLOAD DUP1 SWAP2 SUB SWAP1 REVERT JUMPDEST PUSH2 0x182F DUP5 DUP5 DUP5 DUP5 PUSH2 0x2639 JUMP JUMPDEST POP POP POP POP JUMP JUMPDEST PUSH1 0x60 PUSH2 0x1840 DUP3 PUSH2 0x1B51 JUMP JUMPDEST PUSH1 0x0 PUSH2 0x184A PUSH2 0x2695 JUMP JUMPDEST SWAP1 POP PUSH1 0x0 DUP2 MLOAD GT PUSH2 0x186A JUMPI PUSH1 0x40 MLOAD DUP1 PUSH1 0x20 ADD PUSH1 0x40 MSTORE DUP1 PUSH1 0x0 DUP2 MSTORE POP PUSH2 0x1895 JUMP JUMPDEST DUP1 PUSH2 0x1874 DUP5 PUSH2 0x2727 JUMP JUMPDEST PUSH1 0x40 MLOAD PUSH1 0x20 ADD PUSH2 0x1885 SWAP3 SWAP2 SWAP1 PUSH2 0x4C67 JUMP JUMPDEST PUSH1 0x40 MLOAD PUSH1 0x20 DUP2 DUP4 SUB SUB DUP2 MSTORE SWAP1 PUSH1 0x40 MSTORE JUMPDEST SWAP2 POP POP SWAP2 SWAP1 POP JUMP JUMPDEST PUSH2 0x18A5 PUSH2 0x226D JUMP JUMPDEST PUSH1 0xD SLOAD PUSH3 0x186A0 PUSH1 0x64 PUSH1 0xC SLOAD PUSH2 0x18BB SWAP2 SWAP1 PUSH2 0x4ACF JUMP JUMPDEST PUSH2 0x18C5 SWAP2 SWAP1 PUSH2 0x4CBA JUMP JUMPDEST LT ISZERO PUSH2 0x1906 JUMPI PUSH1 0x40 MLOAD PUSH32 0x8C379A000000000000000000000000000000000000000000000000000000000 DUP2 MSTORE PUSH1 0x4 ADD PUSH2 0x18FD SWAP1 PUSH2 0x4D37 JUMP JUMPDEST PUSH1 0x40 MLOAD DUP1 SWAP2 SUB SWAP1 REVERT JUMPDEST PUSH2 0x1911 DUP4 PUSH1 0x1 PUSH2 0x27F5 JUMP JUMPDEST PUSH1 0x0 PUSH1 0xB PUSH1 0x0 DUP2 SLOAD PUSH2 0x1922 SWAP1 PUSH2 0x4BB4 JUMP JUMPDEST SWAP2 SWAP1 POP DUP2 SWAP1 SSTORE SWAP1 POP PUSH2 0x1934 DUP3 DUP3 PUSH2 0x22BC JUMP JUMPDEST PUSH1 0x1 PUSH1 0x14 DUP1 PUSH2 0x1943 SWAP2 SWAP1 PUSH2 0x4A2F JUMP JUMPDEST PUSH2 0x194D SWAP2 SWAP1 PUSH2 0x4A2F JUMP JUMPDEST PUSH1 0xE PUSH1 0x0 DUP4 DUP2 MSTORE PUSH1 0x20 ADD SWAP1 DUP2 MSTORE PUSH1 0x20 ADD PUSH1 0x0 KECCAK256 DUP2 SWAP1 SSTORE POP POP PUSH2 0x196D PUSH2 0x24C3 JUMP JUMPDEST POP POP POP JUMP JUMPDEST PUSH1 0x0 PUSH1 0x5 PUSH1 0x0 DUP5 PUSH20 0xFFFFFFFFFFFFFFFFFFFFFFFFFFFFFFFFFFFFFFFF AND PUSH20 0xFFFFFFFFFFFFFFFFFFFFFFFFFFFFFFFFFFFFFFFF AND DUP2 MSTORE PUSH1 0x20 ADD SWAP1 DUP2 MSTORE PUSH1 0x20 ADD PUSH1 0x0 KECCAK256 PUSH1 0x0 DUP4 PUSH20 0xFFFFFFFFFFFFFFFFFFFFFFFFFFFFFFFFFFFFFFFF AND PUSH20 0xFFFFFFFFFFFFFFFFFFFFFFFFFFFFFFFFFFFFFFFF AND DUP2 MSTORE PUSH1 0x20 ADD SWAP1 DUP2 MSTORE PUSH1 0x20 ADD PUSH1 0x0 KECCAK256 PUSH1 0x0 SWAP1 SLOAD SWAP1 PUSH2 0x100 EXP SWAP1 DIV PUSH1 0xFF AND SWAP1 POP SWAP3 SWAP2 POP POP JUMP JUMPDEST PUSH2 0x1A0E PUSH2 0x226D JUMP JUMPDEST PUSH2 0x1A19 DUP5 PUSH1 0x0 PUSH2 0x2A42 JUMP JUMPDEST PUSH1 0x0 PUSH1 0xB PUSH1 0x0 DUP2 SLOAD PUSH2 0x1A2A SWAP1 PUSH2 0x4BB4 JUMP JUMPDEST SWAP2 SWAP1 POP DUP2 SWAP1 SSTORE SWAP1 POP PUSH2 0x1A3C DUP5 DUP3 PUSH2 0x22BC JUMP JUMPDEST PUSH2 0x1A45 DUP6 PUSH2 0x2C79 JUMP JUMPDEST PUSH1 0x14 PUSH2 0x1A51 SWAP2 SWAP1 PUSH2 0x4A2F JUMP JUMPDEST PUSH1 0xE PUSH1 0x0 DUP4 DUP2 MSTORE PUSH1 0x20 ADD SWAP1 DUP2 MSTORE PUSH1 0x20 ADD PUSH1 0x0 KECCAK256 DUP2 SWAP1 SSTORE POP POP PUSH2 0x1A71 PUSH2 0x24C3 JUMP JUMPDEST POP POP POP POP JUMP JUMPDEST PUSH2 0x1A7F PUSH2 0x215D JUMP JUMPDEST PUSH2 0x1A88 DUP2 PUSH2 0x2CC9 JUMP JUMPDEST POP JUMP JUMPDEST PUSH1 0xD SLOAD DUP2 JUMP JUMPDEST PUSH2 0x1A99 PUSH2 0x215D JUMP JUMPDEST PUSH1 0x64 DUP2 GT ISZERO PUSH2 0x1ADD JUMPI PUSH1 0x40 MLOAD PUSH32 0x8C379A000000000000000000000000000000000000000000000000000000000 DUP2 MSTORE PUSH1 0x4 ADD PUSH2 0x1AD4 SWAP1 PUSH2 0x4DA3 JUMP JUMPDEST PUSH1 0x40 MLOAD DUP1 SWAP2 SUB SWAP1 REVERT JUMPDEST DUP1 PUSH1 0xD DUP2 SWAP1 SSTORE POP POP JUMP JUMPDEST PUSH1 0x0 PUSH32 0x1FFC9A700000000000000000000000000000000000000000000000000000000 PUSH28 0xFFFFFFFFFFFFFFFFFFFFFFFFFFFFFFFFFFFFFFFFFFFFFFFFFFFFFFFF NOT AND DUP3 PUSH28 0xFFFFFFFFFFFFFFFFFFFFFFFFFFFFFFFFFFFFFFFFFFFFFFFFFFFFFFFF NOT AND EQ SWAP1 POP SWAP2 SWAP1 POP JUMP JUMPDEST PUSH2 0x1B5A DUP2 PUSH2 0x222C JUMP JUMPDEST PUSH2 0x1B99 JUMPI PUSH1 0x40 MLOAD PUSH32 0x8C379A000000000000000000000000000000000000000000000000000000000 DUP2 MSTORE PUSH1 0x4 ADD PUSH2 0x1B90 SWAP1 PUSH2 0x47D3 JUMP JUMPDEST PUSH1 0x40 MLOAD DUP1 SWAP2 SUB SWAP1 REVERT JUMPDEST POP JUMP JUMPDEST PUSH1 0x0 CALLER SWAP1 POP SWAP1 JUMP JUMPDEST DUP2 PUSH1 0x4 PUSH1 0x0 DUP4 DUP2 MSTORE PUSH1 0x20 ADD SWAP1 DUP2 MSTORE PUSH1 0x20 ADD PUSH1 0x0 KECCAK256 PUSH1 0x0 PUSH2 0x100 EXP DUP2 SLOAD DUP2 PUSH20 0xFFFFFFFFFFFFFFFFFFFFFFFFFFFFFFFFFFFFFFFF MUL NOT AND SWAP1 DUP4 PUSH20 0xFFFFFFFFFFFFFFFFFFFFFFFFFFFFFFFFFFFFFFFF AND MUL OR SWAP1 SSTORE POP DUP1 DUP3 PUSH20 0xFFFFFFFFFFFFFFFFFFFFFFFFFFFFFFFFFFFFFFFF AND PUSH2 0x1C17 DUP4 PUSH2 0xE04 JUMP JUMPDEST PUSH20 0xFFFFFFFFFFFFFFFFFFFFFFFFFFFFFFFFFFFFFFFF AND PUSH32 0x8C5BE1E5EBEC7D5BD14F71427D1E84F3DD0314C0F7B2291E5B200AC8C7C3B925 PUSH1 0x40 MLOAD PUSH1 0x40 MLOAD DUP1 SWAP2 SUB SWAP1 LOG4 POP POP JUMP JUMPDEST PUSH1 0x0 DUP3 DUP3 PUSH1 0x0 DUP2 DUP2 LT PUSH2 0x1C73 JUMPI PUSH2 0x1C72 PUSH2 0x4BFC JUMP JUMPDEST JUMPDEST SWAP1 POP PUSH1 0x20 MUL ADD CALLDATALOAD SWAP1 POP PUSH1 0x0 PUSH1 0x14 PUSH1 0x0 DUP7 DUP2 MSTORE PUSH1 0x20 ADD SWAP1 DUP2 MSTORE PUSH1 0x20 ADD PUSH1 0x0 KECCAK256 DUP1 SLOAD DUP1 PUSH1 0x20 MUL PUSH1 0x20 ADD PUSH1 0x40 MLOAD SWAP1 DUP2 ADD PUSH1 0x40 MSTORE DUP1 SWAP3 SWAP2 SWAP1 DUP2 DUP2 MSTORE PUSH1 0x20 ADD DUP3 DUP1 SLOAD DUP1 ISZERO PUSH2 0x1CDB JUMPI PUSH1 0x20 MUL DUP3 ADD SWAP2 SWAP1 PUSH1 0x0 MSTORE PUSH1 0x20 PUSH1 0x0 KECCAK256 SWAP1 JUMPDEST DUP2 SLOAD DUP2 MSTORE PUSH1 0x20 ADD SWAP1 PUSH1 0x1 ADD SWAP1 DUP1 DUP4 GT PUSH2 0x1CC7 JUMPI JUMPDEST POP POP POP POP POP SWAP1 POP PUSH1 0x0 DUP2 MLOAD GT PUSH2 0x1D26 JUMPI PUSH1 0x40 MLOAD PUSH32 0x8C379A000000000000000000000000000000000000000000000000000000000 DUP2 MSTORE PUSH1 0x4 ADD PUSH2 0x1D1D SWAP1 PUSH2 0x4E0F JUMP JUMPDEST PUSH1 0x40 MLOAD DUP1 SWAP2 SUB SWAP1 REVERT JUMPDEST PUSH1 0x14 PUSH1 0x0 DUP7 DUP2 MSTORE PUSH1 0x20 ADD SWAP1 DUP2 MSTORE PUSH1 0x20 ADD PUSH1 0x0 KECCAK256 PUSH1 0x0 PUSH2 0x1D45 SWAP2 SWAP1 PUSH2 0x35FE JUMP JUMPDEST PUSH1 0x0 JUMPDEST DUP2 MLOAD DUP2 LT ISZERO PUSH2 0x1DC7 JUMPI PUSH1 0x0 DUP3 DUP3 DUP2 MLOAD DUP2 LT PUSH2 0x1D66 JUMPI PUSH2 0x1D65 PUSH2 0x4BFC JUMP JUMPDEST JUMPDEST PUSH1 0x20 MUL PUSH1 0x20 ADD ADD MLOAD SWAP1 POP PUSH1 0x0 PUSH1 0xE PUSH1 0x0 DUP4 DUP2 MSTORE PUSH1 0x20 ADD SWAP1 DUP2 MSTORE PUSH1 0x20 ADD PUSH1 0x0 KECCAK256 SLOAD SUB PUSH2 0x1DB3 JUMPI PUSH1 0x0 PUSH2 0x1D97 DUP6 DUP4 PUSH2 0x2DF7 JUMP JUMPDEST SWAP1 POP DUP1 PUSH1 0xE PUSH1 0x0 DUP5 DUP2 MSTORE PUSH1 0x20 ADD SWAP1 DUP2 MSTORE PUSH1 0x20 ADD PUSH1 0x0 KECCAK256 DUP2 SWAP1 SSTORE POP POP JUMPDEST POP DUP1 DUP1 PUSH2 0x1DBF SWAP1 PUSH2 0x4BB4 JUMP JUMPDEST SWAP2 POP POP PUSH2 0x1D48 JUMP JUMPDEST POP POP POP POP POP POP JUMP JUMPDEST PUSH1 0x0 DUP1 PUSH2 0x1DDB DUP4 PUSH2 0xE04 JUMP JUMPDEST SWAP1 POP DUP1 PUSH20 0xFFFFFFFFFFFFFFFFFFFFFFFFFFFFFFFFFFFFFFFF AND DUP5 PUSH20 0xFFFFFFFFFFFFFFFFFFFFFFFFFFFFFFFFFFFFFFFF AND EQ DUP1 PUSH2 0x1E1D JUMPI POP PUSH2 0x1E1C DUP2 DUP6 PUSH2 0x1972 JUMP JUMPDEST JUMPDEST DUP1 PUSH2 0x1E5B JUMPI POP DUP4 PUSH20 0xFFFFFFFFFFFFFFFFFFFFFFFFFFFFFFFFFFFFFFFF AND PUSH2 0x1E43 DUP5 PUSH2 0x940 JUMP JUMPDEST PUSH20 0xFFFFFFFFFFFFFFFFFFFFFFFFFFFFFFFFFFFFFFFF AND EQ JUMPDEST SWAP2 POP POP SWAP3 SWAP2 POP POP JUMP JUMPDEST DUP3 PUSH20 0xFFFFFFFFFFFFFFFFFFFFFFFFFFFFFFFFFFFFFFFF AND PUSH2 0x1E84 DUP3 PUSH2 0xE04 JUMP JUMPDEST PUSH20 0xFFFFFFFFFFFFFFFFFFFFFFFFFFFFFFFFFFFFFFFF AND EQ PUSH2 0x1EDA JUMPI PUSH1 0x40 MLOAD PUSH32 0x8C379A000000000000000000000000000000000000000000000000000000000 DUP2 MSTORE PUSH1 0x4 ADD PUSH2 0x1ED1 SWAP1 PUSH2 0x4EA1 JUMP JUMPDEST PUSH1 0x40 MLOAD DUP1 SWAP2 SUB SWAP1 REVERT JUMPDEST PUSH1 0x0 PUSH20 0xFFFFFFFFFFFFFFFFFFFFFFFFFFFFFFFFFFFFFFFF AND DUP3 PUSH20 0xFFFFFFFFFFFFFFFFFFFFFFFFFFFFFFFFFFFFFFFF AND SUB PUSH2 0x1F49 JUMPI PUSH1 0x40 MLOAD PUSH32 0x8C379A000000000000000000000000000000000000000000000000000000000 DUP2 MSTORE PUSH1 0x4 ADD PUSH2 0x1F40 SWAP1 PUSH2 0x4F33 JUMP JUMPDEST PUSH1 0x40 MLOAD DUP1 SWAP2 SUB SWAP1 REVERT JUMPDEST PUSH2 0x1F56 DUP4 DUP4 DUP4 PUSH1 0x1 PUSH2 0x2E4A JUMP JUMPDEST DUP3 PUSH20 0xFFFFFFFFFFFFFFFFFFFFFFFFFFFFFFFFFFFFFFFF AND PUSH2 0x1F76 DUP3 PUSH2 0xE04 JUMP JUMPDEST PUSH20 0xFFFFFFFFFFFFFFFFFFFFFFFFFFFFFFFFFFFFFFFF AND EQ PUSH2 0x1FCC JUMPI PUSH1 0x40 MLOAD PUSH32 0x8C379A000000000000000000000000000000000000000000000000000000000 DUP2 MSTORE PUSH1 0x4 ADD PUSH2 0x1FC3 SWAP1 PUSH2 0x4EA1 JUMP JUMPDEST PUSH1 0x40 MLOAD DUP1 SWAP2 SUB SWAP1 REVERT JUMPDEST PUSH1 0x4 PUSH1 0x0 DUP3 DUP2 MSTORE PUSH1 0x20 ADD SWAP1 DUP2 MSTORE PUSH1 0x20 ADD PUSH1 0x0 KECCAK256 PUSH1 0x0 PUSH2 0x100 EXP DUP2 SLOAD SWAP1 PUSH20 0xFFFFFFFFFFFFFFFFFFFFFFFFFFFFFFFFFFFFFFFF MUL NOT AND SWAP1 SSTORE PUSH1 0x1 PUSH1 0x3 PUSH1 0x0 DUP6 PUSH20 0xFFFFFFFFFFFFFFFFFFFFFFFFFFFFFFFFFFFFFFFF AND PUSH20 0xFFFFFFFFFFFFFFFFFFFFFFFFFFFFFFFFFFFFFFFF AND DUP2 MSTORE PUSH1 0x20 ADD SWAP1 DUP2 MSTORE PUSH1 0x20 ADD PUSH1 0x0 KECCAK256 PUSH1 0x0 DUP3 DUP3 SLOAD SUB SWAP3 POP POP DUP2 SWAP1 SSTORE POP PUSH1 0x1 PUSH1 0x3 PUSH1 0x0 DUP5 PUSH20 0xFFFFFFFFFFFFFFFFFFFFFFFFFFFFFFFFFFFFFFFF AND PUSH20 0xFFFFFFFFFFFFFFFFFFFFFFFFFFFFFFFFFFFFFFFF AND DUP2 MSTORE PUSH1 0x20 ADD SWAP1 DUP2 MSTORE PUSH1 0x20 ADD PUSH1 0x0 KECCAK256 PUSH1 0x0 DUP3 DUP3 SLOAD ADD SWAP3 POP POP DUP2 SWAP1 SSTORE POP DUP2 PUSH1 0x2 PUSH1 0x0 DUP4 DUP2 MSTORE PUSH1 0x20 ADD SWAP1 DUP2 MSTORE PUSH1 0x20 ADD PUSH1 0x0 KECCAK256 PUSH1 0x0 PUSH2 0x100 EXP DUP2 SLOAD DUP2 PUSH20 0xFFFFFFFFFFFFFFFFFFFFFFFFFFFFFFFFFFFFFFFF MUL NOT AND SWAP1 DUP4 PUSH20 0xFFFFFFFFFFFFFFFFFFFFFFFFFFFFFFFFFFFFFFFF AND MUL OR SWAP1 SSTORE POP DUP1 DUP3 PUSH20 0xFFFFFFFFFFFFFFFFFFFFFFFFFFFFFFFFFFFFFFFF AND DUP5 PUSH20 0xFFFFFFFFFFFFFFFFFFFFFFFFFFFFFFFFFFFFFFFF AND PUSH32 0xDDF252AD1BE2C89B69C2B068FC378DAA952BA7F163C4A11628F55A4DF523B3EF PUSH1 0x40 MLOAD PUSH1 0x40 MLOAD DUP1 SWAP2 SUB SWAP1 LOG4 PUSH2 0x2158 DUP4 DUP4 DUP4 PUSH1 0x1 PUSH2 0x2E50 JUMP JUMPDEST POP POP POP JUMP JUMPDEST PUSH1 0x7 PUSH1 0x0 SWAP1 SLOAD SWAP1 PUSH2 0x100 EXP SWAP1 DIV PUSH20 0xFFFFFFFFFFFFFFFFFFFFFFFFFFFFFFFFFFFFFFFF AND PUSH20 0xFFFFFFFFFFFFFFFFFFFFFFFFFFFFFFFFFFFFFFFF AND CALLER PUSH20 0xFFFFFFFFFFFFFFFFFFFFFFFFFFFFFFFFFFFFFFFF AND EQ PUSH2 0x21ED JUMPI PUSH1 0x40 MLOAD PUSH32 0x8C379A000000000000000000000000000000000000000000000000000000000 DUP2 MSTORE PUSH1 0x4 ADD PUSH2 0x21E4 SWAP1 PUSH2 0x4F9F JUMP JUMPDEST PUSH1 0x40 MLOAD DUP1 SWAP2 SUB SWAP1 REVERT JUMPDEST JUMP JUMPDEST PUSH1 0x0 PUSH1 0x2 PUSH1 0x0 DUP4 DUP2 MSTORE PUSH1 0x20 ADD SWAP1 DUP2 MSTORE PUSH1 0x20 ADD PUSH1 0x0 KECCAK256 PUSH1 0x0 SWAP1 SLOAD SWAP1 PUSH2 0x100 EXP SWAP1 DIV PUSH20 0xFFFFFFFFFFFFFFFFFFFFFFFFFFFFFFFFFFFFFFFF AND SWAP1 POP SWAP2 SWAP1 POP JUMP JUMPDEST PUSH1 0x0 DUP1 PUSH20 0xFFFFFFFFFFFFFFFFFFFFFFFFFFFFFFFFFFFFFFFF AND PUSH2 0x224E DUP4 PUSH2 0x21EF JUMP JUMPDEST PUSH20 0xFFFFFFFFFFFFFFFFFFFFFFFFFFFFFFFFFFFFFFFF AND EQ ISZERO SWAP1 POP SWAP2 SWAP1 POP JUMP JUMPDEST PUSH1 0x2 PUSH1 0x6 SLOAD SUB PUSH2 0x22B2 JUMPI PUSH1 0x40 MLOAD PUSH32 0x8C379A000000000000000000000000000000000000000000000000000000000 DUP2 MSTORE PUSH1 0x4 ADD PUSH2 0x22A9 SWAP1 PUSH2 0x500B JUMP JUMPDEST PUSH1 0x40 MLOAD DUP1 SWAP2 SUB SWAP1 REVERT JUMPDEST PUSH1 0x2 PUSH1 0x6 DUP2 SWAP1 SSTORE POP JUMP JUMPDEST PUSH2 0x22D6 DUP3 DUP3 PUSH1 0x40 MLOAD DUP1 PUSH1 0x20 ADD PUSH1 0x40 MSTORE DUP1 PUSH1 0x0 DUP2 MSTORE POP PUSH2 0x2E56 JUMP JUMPDEST POP POP JUMP JUMPDEST PUSH1 0x0 DUP1 PUSH20 0xFFFFFFFFFFFFFFFFFFFFFFFFFFFFFFFFFFFFFFFF AND PUSH1 0x10 PUSH1 0x0 SWAP1 SLOAD SWAP1 PUSH2 0x100 EXP SWAP1 DIV PUSH20 0xFFFFFFFFFFFFFFFFFFFFFFFFFFFFFFFFFFFFFFFF AND PUSH20 0xFFFFFFFFFFFFFFFFFFFFFFFFFFFFFFFFFFFFFFFF AND EQ ISZERO DUP1 ISZERO PUSH2 0x233D JUMPI POP PUSH1 0x0 PUSH1 0x12 SLOAD EQ ISZERO JUMPDEST DUP1 ISZERO PUSH2 0x234E JUMPI POP PUSH1 0x0 DUP1 SHL PUSH1 0x11 SLOAD EQ ISZERO JUMPDEST PUSH2 0x238D JUMPI PUSH1 0x40 MLOAD PUSH32 0x8C379A000000000000000000000000000000000000000000000000000000000 DUP2 MSTORE PUSH1 0x4 ADD PUSH2 0x2384 SWAP1 PUSH2 0x5077 JUMP JUMPDEST PUSH1 0x40 MLOAD DUP1 SWAP2 SUB SWAP1 REVERT JUMPDEST PUSH1 0x0 PUSH1 0x40 MLOAD DUP1 PUSH1 0xC0 ADD PUSH1 0x40 MSTORE DUP1 PUSH1 0x11 SLOAD DUP2 MSTORE PUSH1 0x20 ADD PUSH1 0x12 SLOAD DUP2 MSTORE PUSH1 0x20 ADD PUSH1 0x13 PUSH1 0x4 SWAP1 SLOAD SWAP1 PUSH2 0x100 EXP SWAP1 DIV PUSH2 0xFFFF AND PUSH2 0xFFFF AND DUP2 MSTORE PUSH1 0x20 ADD PUSH1 0x13 PUSH1 0x0 SWAP1 SLOAD SWAP1 PUSH2 0x100 EXP SWAP1 DIV PUSH4 0xFFFFFFFF AND PUSH4 0xFFFFFFFF AND DUP2 MSTORE PUSH1 0x20 ADD PUSH1 0x13 PUSH1 0x6 SWAP1 SLOAD SWAP1 PUSH2 0x100 EXP SWAP1 DIV PUSH4 0xFFFFFFFF AND PUSH4 0xFFFFFFFF AND DUP2 MSTORE PUSH1 0x20 ADD PUSH2 0x241A PUSH1 0x40 MLOAD DUP1 PUSH1 0x20 ADD PUSH1 0x40 MSTORE DUP1 PUSH1 0x0 ISZERO ISZERO DUP2 MSTORE POP PUSH2 0x2EB1 JUMP JUMPDEST DUP2 MSTORE POP SWAP1 POP PUSH1 0x10 PUSH1 0x0 SWAP1 SLOAD SWAP1 PUSH2 0x100 EXP SWAP1 DIV PUSH20 0xFFFFFFFFFFFFFFFFFFFFFFFFFFFFFFFFFFFFFFFF AND PUSH20 0xFFFFFFFFFFFFFFFFFFFFFFFFFFFFFFFFFFFFFFFF AND PUSH4 0x9B1C385E DUP3 PUSH1 0x40 MLOAD DUP3 PUSH4 0xFFFFFFFF AND PUSH1 0xE0 SHL DUP2 MSTORE PUSH1 0x4 ADD PUSH2 0x247A SWAP2 SWAP1 PUSH2 0x51B1 JUMP JUMPDEST PUSH1 0x20 PUSH1 0x40 MLOAD DUP1 DUP4 SUB DUP2 PUSH1 0x0 DUP8 GAS CALL ISZERO DUP1 ISZERO PUSH2 0x2499 JUMPI RETURNDATASIZE PUSH1 0x0 DUP1 RETURNDATACOPY RETURNDATASIZE PUSH1 0x0 REVERT JUMPDEST POP POP POP POP PUSH1 0x40 MLOAD RETURNDATASIZE PUSH1 0x1F NOT PUSH1 0x1F DUP3 ADD AND DUP3 ADD DUP1 PUSH1 0x40 MSTORE POP DUP2 ADD SWAP1 PUSH2 0x24BD SWAP2 SWAP1 PUSH2 0x4406 JUMP JUMPDEST SWAP2 POP POP SWAP1 JUMP JUMPDEST PUSH1 0x1 PUSH1 0x6 DUP2 SWAP1 SSTORE POP JUMP JUMPDEST DUP2 PUSH20 0xFFFFFFFFFFFFFFFFFFFFFFFFFFFFFFFFFFFFFFFF AND DUP4 PUSH20 0xFFFFFFFFFFFFFFFFFFFFFFFFFFFFFFFFFFFFFFFF AND SUB PUSH2 0x253B JUMPI PUSH1 0x40 MLOAD PUSH32 0x8C379A000000000000000000000000000000000000000000000000000000000 DUP2 MSTORE PUSH1 0x4 ADD PUSH2 0x2532 SWAP1 PUSH2 0x521F JUMP JUMPDEST PUSH1 0x40 MLOAD DUP1 SWAP2 SUB SWAP1 REVERT JUMPDEST DUP1 PUSH1 0x5 PUSH1 0x0 DUP6 PUSH20 0xFFFFFFFFFFFFFFFFFFFFFFFFFFFFFFFFFFFFFFFF AND PUSH20 0xFFFFFFFFFFFFFFFFFFFFFFFFFFFFFFFFFFFFFFFF AND DUP2 MSTORE PUSH1 0x20 ADD SWAP1 DUP2 MSTORE PUSH1 0x20 ADD PUSH1 0x0 KECCAK256 PUSH1 0x0 DUP5 PUSH20 0xFFFFFFFFFFFFFFFFFFFFFFFFFFFFFFFFFFFFFFFF AND PUSH20 0xFFFFFFFFFFFFFFFFFFFFFFFFFFFFFFFFFFFFFFFF AND DUP2 MSTORE PUSH1 0x20 ADD SWAP1 DUP2 MSTORE PUSH1 0x20 ADD PUSH1 0x0 KECCAK256 PUSH1 0x0 PUSH2 0x100 EXP DUP2 SLOAD DUP2 PUSH1 0xFF MUL NOT AND SWAP1 DUP4 ISZERO ISZERO MUL OR SWAP1 SSTORE POP DUP2 PUSH20 0xFFFFFFFFFFFFFFFFFFFFFFFFFFFFFFFFFFFFFFFF AND DUP4 PUSH20 0xFFFFFFFFFFFFFFFFFFFFFFFFFFFFFFFFFFFFFFFF AND PUSH32 0x17307EAB39AB6107E8899845AD3D59BD9653F200F220920489CA2B5937696C31 DUP4 PUSH1 0x40 MLOAD PUSH2 0x262C SWAP2 SWAP1 PUSH2 0x3713 JUMP JUMPDEST PUSH1 0x40 MLOAD DUP1 SWAP2 SUB SWAP1 LOG3 POP POP POP JUMP JUMPDEST PUSH2 0x2644 DUP5 DUP5 DUP5 PUSH2 0x1E64 JUMP JUMPDEST PUSH2 0x2650 DUP5 DUP5 DUP5 DUP5 PUSH2 0x2F49 JUMP JUMPDEST PUSH2 0x268F JUMPI PUSH1 0x40 MLOAD PUSH32 0x8C379A000000000000000000000000000000000000000000000000000000000 DUP2 MSTORE PUSH1 0x4 ADD PUSH2 0x2686 SWAP1 PUSH2 0x52B1 JUMP JUMPDEST PUSH1 0x40 MLOAD DUP1 SWAP2 SUB SWAP1 REVERT JUMPDEST POP POP POP POP JUMP JUMPDEST PUSH1 0x60 PUSH1 0xF DUP1 SLOAD PUSH2 0x26A4 SWAP1 PUSH2 0x41E1 JUMP JUMPDEST DUP1 PUSH1 0x1F ADD PUSH1 0x20 DUP1 SWAP2 DIV MUL PUSH1 0x20 ADD PUSH1 0x40 MLOAD SWAP1 DUP2 ADD PUSH1 0x40 MSTORE DUP1 SWAP3 SWAP2 SWAP1 DUP2 DUP2 MSTORE PUSH1 0x20 ADD DUP3 DUP1 SLOAD PUSH2 0x26D0 SWAP1 PUSH2 0x41E1 JUMP JUMPDEST DUP1 ISZERO PUSH2 0x271D JUMPI DUP1 PUSH1 0x1F LT PUSH2 0x26F2 JUMPI PUSH2 0x100 DUP1 DUP4 SLOAD DIV MUL DUP4 MSTORE SWAP2 PUSH1 0x20 ADD SWAP2 PUSH2 0x271D JUMP JUMPDEST DUP3 ADD SWAP2 SWAP1 PUSH1 0x0 MSTORE PUSH1 0x20 PUSH1 0x0 KECCAK256 SWAP1 JUMPDEST DUP2 SLOAD DUP2 MSTORE SWAP1 PUSH1 0x1 ADD SWAP1 PUSH1 0x20 ADD DUP1 DUP4 GT PUSH2 0x2700 JUMPI DUP3 SWAP1 SUB PUSH1 0x1F AND DUP3 ADD SWAP2 JUMPDEST POP POP POP POP POP SWAP1 POP SWAP1 JUMP JUMPDEST PUSH1 0x60 PUSH1 0x0 PUSH1 0x1 PUSH2 0x2736 DUP5 PUSH2 0x30D0 JUMP JUMPDEST ADD SWAP1 POP PUSH1 0x0 DUP2 PUSH8 0xFFFFFFFFFFFFFFFF DUP2 GT ISZERO PUSH2 0x2755 JUMPI PUSH2 0x2754 PUSH2 0x3EB3 JUMP JUMPDEST JUMPDEST PUSH1 0x40 MLOAD SWAP1 DUP1 DUP3 MSTORE DUP1 PUSH1 0x1F ADD PUSH1 0x1F NOT AND PUSH1 0x20 ADD DUP3 ADD PUSH1 0x40 MSTORE DUP1 ISZERO PUSH2 0x2787 JUMPI DUP2 PUSH1 0x20 ADD PUSH1 0x1 DUP3 MUL DUP1 CALLDATASIZE DUP4 CALLDATACOPY DUP1 DUP3 ADD SWAP2 POP POP SWAP1 POP JUMPDEST POP SWAP1 POP PUSH1 0x0 DUP3 PUSH1 0x20 ADD DUP3 ADD SWAP1 POP JUMPDEST PUSH1 0x1 ISZERO PUSH2 0x27EA JUMPI DUP1 DUP1 PUSH1 0x1 SWAP1 SUB SWAP2 POP POP PUSH32 0x3031323334353637383961626364656600000000000000000000000000000000 PUSH1 0xA DUP7 MOD BYTE DUP2 MSTORE8 PUSH1 0xA DUP6 DUP2 PUSH2 0x27DE JUMPI PUSH2 0x27DD PUSH2 0x4C8B JUMP JUMPDEST JUMPDEST DIV SWAP5 POP PUSH1 0x0 DUP6 SUB PUSH2 0x2795 JUMPI JUMPDEST DUP2 SWAP4 POP POP POP POP SWAP2 SWAP1 POP JUMP JUMPDEST PUSH1 0x0 DUP2 SWAP1 POP PUSH2 0x2802 PUSH2 0x361F JUMP JUMPDEST PUSH1 0x0 JUMPDEST PUSH1 0x14 DUP2 LT ISZERO PUSH2 0x2980 JUMPI PUSH1 0x0 PUSH2 0x2830 DUP7 DUP4 PUSH1 0x14 DUP2 LT PUSH2 0x2826 JUMPI PUSH2 0x2825 PUSH2 0x4BFC JUMP JUMPDEST JUMPDEST PUSH1 0x20 MUL ADD CALLDATALOAD PUSH2 0xE04 JUMP JUMPDEST SWAP1 POP CALLER PUSH20 0xFFFFFFFFFFFFFFFFFFFFFFFFFFFFFFFFFFFFFFFF AND DUP2 PUSH20 0xFFFFFFFFFFFFFFFFFFFFFFFFFFFFFFFFFFFFFFFF AND EQ PUSH2 0x28A0 JUMPI PUSH1 0x40 MLOAD PUSH32 0x8C379A000000000000000000000000000000000000000000000000000000000 DUP2 MSTORE PUSH1 0x4 ADD PUSH2 0x2897 SWAP1 PUSH2 0x531D JUMP JUMPDEST PUSH1 0x40 MLOAD DUP1 SWAP2 SUB SWAP1 REVERT JUMPDEST PUSH1 0x0 PUSH1 0xE PUSH1 0x0 DUP9 DUP6 PUSH1 0x14 DUP2 LT PUSH2 0x28B9 JUMPI PUSH2 0x28B8 PUSH2 0x4BFC JUMP JUMPDEST JUMPDEST PUSH1 0x20 MUL ADD CALLDATALOAD DUP2 MSTORE PUSH1 0x20 ADD SWAP1 DUP2 MSTORE PUSH1 0x20 ADD PUSH1 0x0 KECCAK256 SLOAD SWAP1 POP PUSH1 0x14 DUP2 GT DUP1 ISZERO PUSH2 0x28EB JUMPI POP PUSH1 0x14 DUP1 PUSH2 0x28E7 SWAP2 SWAP1 PUSH2 0x4A2F JUMP JUMPDEST DUP2 GT ISZERO JUMPDEST PUSH2 0x292A JUMPI PUSH1 0x40 MLOAD PUSH32 0x8C379A000000000000000000000000000000000000000000000000000000000 DUP2 MSTORE PUSH1 0x4 ADD PUSH2 0x2921 SWAP1 PUSH2 0x5389 JUMP JUMPDEST PUSH1 0x40 MLOAD DUP1 SWAP2 SUB SWAP1 REVERT JUMPDEST DUP4 PUSH1 0x1 PUSH1 0x14 DUP4 PUSH2 0x293A SWAP2 SWAP1 PUSH2 0x53A9 JUMP JUMPDEST PUSH2 0x2944 SWAP2 SWAP1 PUSH2 0x53A9 JUMP JUMPDEST PUSH1 0x14 DUP2 LT PUSH2 0x2955 JUMPI PUSH2 0x2954 PUSH2 0x4BFC JUMP JUMPDEST JUMPDEST PUSH1 0x20 MUL ADD DUP1 MLOAD DUP1 SWAP2 SWAP1 PUSH2 0x2967 SWAP1 PUSH2 0x4BB4 JUMP JUMPDEST DUP2 MSTORE POP POP POP POP DUP1 DUP1 PUSH2 0x2978 SWAP1 PUSH2 0x4BB4 JUMP JUMPDEST SWAP2 POP POP PUSH2 0x2805 JUMP JUMPDEST POP PUSH1 0x0 JUMPDEST PUSH1 0x14 DUP2 LT ISZERO PUSH2 0x29FB JUMPI PUSH1 0x1 DUP3 DUP3 PUSH1 0x14 DUP2 LT PUSH2 0x29A2 JUMPI PUSH2 0x29A1 PUSH2 0x4BFC JUMP JUMPDEST JUMPDEST PUSH1 0x20 MUL ADD MLOAD LT ISZERO PUSH2 0x29E8 JUMPI PUSH1 0x40 MLOAD PUSH32 0x8C379A000000000000000000000000000000000000000000000000000000000 DUP2 MSTORE PUSH1 0x4 ADD PUSH2 0x29DF SWAP1 PUSH2 0x5429 JUMP JUMPDEST PUSH1 0x40 MLOAD DUP1 SWAP2 SUB SWAP1 REVERT JUMPDEST DUP1 DUP1 PUSH2 0x29F3 SWAP1 PUSH2 0x4BB4 JUMP JUMPDEST SWAP2 POP POP PUSH2 0x2984 JUMP JUMPDEST POP PUSH1 0x0 JUMPDEST PUSH1 0x14 DUP2 LT ISZERO PUSH2 0x2A3B JUMPI PUSH2 0x2A28 DUP6 DUP3 PUSH1 0x14 DUP2 LT PUSH2 0x2A1E JUMPI PUSH2 0x2A1D PUSH2 0x4BFC JUMP JUMPDEST JUMPDEST PUSH1 0x20 MUL ADD CALLDATALOAD PUSH2 0x3223 JUMP JUMPDEST DUP1 DUP1 PUSH2 0x2A33 SWAP1 PUSH2 0x4BB4 JUMP JUMPDEST SWAP2 POP POP PUSH2 0x29FF JUMP JUMPDEST POP POP POP POP POP JUMP JUMPDEST PUSH1 0x0 DUP2 SWAP1 POP PUSH2 0x2A4F PUSH2 0x361F JUMP JUMPDEST PUSH1 0x0 JUMPDEST PUSH1 0x64 DUP2 LT ISZERO PUSH2 0x2BB7 JUMPI PUSH1 0x0 PUSH2 0x2A7D DUP7 DUP4 PUSH1 0x64 DUP2 LT PUSH2 0x2A73 JUMPI PUSH2 0x2A72 PUSH2 0x4BFC JUMP JUMPDEST JUMPDEST PUSH1 0x20 MUL ADD CALLDATALOAD PUSH2 0xE04 JUMP JUMPDEST SWAP1 POP CALLER PUSH20 0xFFFFFFFFFFFFFFFFFFFFFFFFFFFFFFFFFFFFFFFF AND DUP2 PUSH20 0xFFFFFFFFFFFFFFFFFFFFFFFFFFFFFFFFFFFFFFFF AND EQ PUSH2 0x2AED JUMPI PUSH1 0x40 MLOAD PUSH32 0x8C379A000000000000000000000000000000000000000000000000000000000 DUP2 MSTORE PUSH1 0x4 ADD PUSH2 0x2AE4 SWAP1 PUSH2 0x531D JUMP JUMPDEST PUSH1 0x40 MLOAD DUP1 SWAP2 SUB SWAP1 REVERT JUMPDEST PUSH1 0x0 PUSH1 0xE PUSH1 0x0 DUP9 DUP6 PUSH1 0x64 DUP2 LT PUSH2 0x2B06 JUMPI PUSH2 0x2B05 PUSH2 0x4BFC JUMP JUMPDEST JUMPDEST PUSH1 0x20 MUL ADD CALLDATALOAD DUP2 MSTORE PUSH1 0x20 ADD SWAP1 DUP2 MSTORE PUSH1 0x20 ADD PUSH1 0x0 KECCAK256 SLOAD SWAP1 POP PUSH1 0x1 DUP2 LT ISZERO DUP1 ISZERO PUSH2 0x2B2E JUMPI POP PUSH1 0x14 DUP2 GT ISZERO JUMPDEST PUSH2 0x2B6D JUMPI PUSH1 0x40 MLOAD PUSH32 0x8C379A000000000000000000000000000000000000000000000000000000000 DUP2 MSTORE PUSH1 0x4 ADD PUSH2 0x2B64 SWAP1 PUSH2 0x5495 JUMP JUMPDEST PUSH1 0x40 MLOAD DUP1 SWAP2 SUB SWAP1 REVERT JUMPDEST DUP4 PUSH1 0x1 DUP3 PUSH2 0x2B7B SWAP2 SWAP1 PUSH2 0x53A9 JUMP JUMPDEST PUSH1 0x14 DUP2 LT PUSH2 0x2B8C JUMPI PUSH2 0x2B8B PUSH2 0x4BFC JUMP JUMPDEST JUMPDEST PUSH1 0x20 MUL ADD DUP1 MLOAD DUP1 SWAP2 SWAP1 PUSH2 0x2B9E SWAP1 PUSH2 0x4BB4 JUMP JUMPDEST DUP2 MSTORE POP POP POP POP DUP1 DUP1 PUSH2 0x2BAF SWAP1 PUSH2 0x4BB4 JUMP JUMPDEST SWAP2 POP POP PUSH2 0x2A52 JUMP JUMPDEST POP PUSH1 0x0 JUMPDEST PUSH1 0x14 DUP2 LT ISZERO PUSH2 0x2C32 JUMPI PUSH1 0x5 DUP3 DUP3 PUSH1 0x14 DUP2 LT PUSH2 0x2BD9 JUMPI PUSH2 0x2BD8 PUSH2 0x4BFC JUMP JUMPDEST JUMPDEST PUSH1 0x20 MUL ADD MLOAD LT ISZERO PUSH2 0x2C1F JUMPI PUSH1 0x40 MLOAD PUSH32 0x8C379A000000000000000000000000000000000000000000000000000000000 DUP2 MSTORE PUSH1 0x4 ADD PUSH2 0x2C16 SWAP1 PUSH2 0x5501 JUMP JUMPDEST PUSH1 0x40 MLOAD DUP1 SWAP2 SUB SWAP1 REVERT JUMPDEST DUP1 DUP1 PUSH2 0x2C2A SWAP1 PUSH2 0x4BB4 JUMP JUMPDEST SWAP2 POP POP PUSH2 0x2BBB JUMP JUMPDEST POP PUSH1 0x0 JUMPDEST PUSH1 0x64 DUP2 LT ISZERO PUSH2 0x2C72 JUMPI PUSH2 0x2C5F DUP6 DUP3 PUSH1 0x64 DUP2 LT PUSH2 0x2C55 JUMPI PUSH2 0x2C54 PUSH2 0x4BFC JUMP JUMPDEST JUMPDEST PUSH1 0x20 MUL ADD CALLDATALOAD PUSH2 0x3223 JUMP JUMPDEST DUP1 DUP1 PUSH2 0x2C6A SWAP1 PUSH2 0x4BB4 JUMP JUMPDEST SWAP2 POP POP PUSH2 0x2C36 JUMP JUMPDEST POP POP POP POP POP JUMP JUMPDEST PUSH1 0x0 DUP1 DUP3 PUSH1 0x40 MLOAD PUSH1 0x20 ADD PUSH2 0x2C8D SWAP2 SWAP1 PUSH2 0x553B JUMP JUMPDEST PUSH1 0x40 MLOAD PUSH1 0x20 DUP2 DUP4 SUB SUB DUP2 MSTORE SWAP1 PUSH1 0x40 MSTORE DUP1 MLOAD SWAP1 PUSH1 0x20 ADD KECCAK256 SWAP1 POP PUSH1 0x1 PUSH1 0x14 DUP3 PUSH1 0x0 SHR PUSH2 0x2CB7 SWAP2 SWAP1 PUSH2 0x5557 JUMP JUMPDEST PUSH2 0x2CC1 SWAP2 SWAP1 PUSH2 0x4A2F JUMP JUMPDEST SWAP2 POP POP SWAP2 SWAP1 POP JUMP JUMPDEST CALLER PUSH20 0xFFFFFFFFFFFFFFFFFFFFFFFFFFFFFFFFFFFFFFFF AND DUP2 PUSH20 0xFFFFFFFFFFFFFFFFFFFFFFFFFFFFFFFFFFFFFFFF AND SUB PUSH2 0x2D37 JUMPI PUSH1 0x40 MLOAD PUSH32 0x8C379A000000000000000000000000000000000000000000000000000000000 DUP2 MSTORE PUSH1 0x4 ADD PUSH2 0x2D2E SWAP1 PUSH2 0x55D4 JUMP JUMPDEST PUSH1 0x40 MLOAD DUP1 SWAP2 SUB SWAP1 REVERT JUMPDEST DUP1 PUSH1 0x8 PUSH1 0x0 PUSH2 0x100 EXP DUP2 SLOAD DUP2 PUSH20 0xFFFFFFFFFFFFFFFFFFFFFFFFFFFFFFFFFFFFFFFF MUL NOT AND SWAP1 DUP4 PUSH20 0xFFFFFFFFFFFFFFFFFFFFFFFFFFFFFFFFFFFFFFFF AND MUL OR SWAP1 SSTORE POP DUP1 PUSH20 0xFFFFFFFFFFFFFFFFFFFFFFFFFFFFFFFFFFFFFFFF AND PUSH1 0x7 PUSH1 0x0 SWAP1 SLOAD SWAP1 PUSH2 0x100 EXP SWAP1 DIV PUSH20 0xFFFFFFFFFFFFFFFFFFFFFFFFFFFFFFFFFFFFFFFF AND PUSH20 0xFFFFFFFFFFFFFFFFFFFFFFFFFFFFFFFFFFFFFFFF AND PUSH32 0xED8889F560326EB138920D842192F0EB3DD22B4F139C87A2C57538E05BAE1278 PUSH1 0x40 MLOAD PUSH1 0x40 MLOAD DUP1 SWAP2 SUB SWAP1 LOG3 POP JUMP JUMPDEST PUSH1 0x0 DUP1 PUSH1 0x14 DUP5 DUP5 PUSH1 0x40 MLOAD PUSH1 0x20 ADD PUSH2 0x2E0F SWAP3 SWAP2 SWAP1 PUSH2 0x5615 JUMP JUMPDEST PUSH1 0x40 MLOAD PUSH1 0x20 DUP2 DUP4 SUB SUB DUP2 MSTORE SWAP1 PUSH1 0x40 MSTORE DUP1 MLOAD SWAP1 PUSH1 0x20 ADD KECCAK256 PUSH1 0x0 SHR PUSH2 0x2E32 SWAP2 SWAP1 PUSH2 0x5557 JUMP JUMPDEST SWAP1 POP PUSH1 0x1 DUP2 PUSH2 0x2E41 SWAP2 SWAP1 PUSH2 0x4A2F JUMP JUMPDEST SWAP2 POP POP SWAP3 SWAP2 POP POP JUMP JUMPDEST POP POP POP POP JUMP JUMPDEST POP POP POP POP JUMP JUMPDEST PUSH2 0x2E60 DUP4 DUP4 PUSH2 0x3371 JUMP JUMPDEST PUSH2 0x2E6D PUSH1 0x0 DUP5 DUP5 DUP5 PUSH2 0x2F49 JUMP JUMPDEST PUSH2 0x2EAC JUMPI PUSH1 0x40 MLOAD PUSH32 0x8C379A000000000000000000000000000000000000000000000000000000000 DUP2 MSTORE PUSH1 0x4 ADD PUSH2 0x2EA3 SWAP1 PUSH2 0x52B1 JUMP JUMPDEST PUSH1 0x40 MLOAD DUP1 SWAP2 SUB SWAP1 REVERT JUMPDEST POP POP POP JUMP JUMPDEST PUSH1 0x60 PUSH32 0x92FD13387C7FE7BEFBC38D303D6468778FB9731BC4583F17D92989C6FCFDEAAA DUP3 PUSH1 0x40 MLOAD PUSH1 0x24 ADD PUSH2 0x2EE5 SWAP2 SWAP1 PUSH2 0x566C JUMP JUMPDEST PUSH1 0x40 MLOAD PUSH1 0x20 DUP2 DUP4 SUB SUB DUP2 MSTORE SWAP1 PUSH1 0x40 MSTORE SWAP1 PUSH28 0xFFFFFFFFFFFFFFFFFFFFFFFFFFFFFFFFFFFFFFFFFFFFFFFFFFFFFFFF NOT AND PUSH1 0x20 DUP3 ADD DUP1 MLOAD PUSH28 0xFFFFFFFFFFFFFFFFFFFFFFFFFFFFFFFFFFFFFFFFFFFFFFFFFFFFFFFF DUP4 DUP2 DUP4 AND OR DUP4 MSTORE POP POP POP POP SWAP1 POP SWAP2 SWAP1 POP JUMP JUMPDEST PUSH1 0x0 PUSH2 0x2F6A DUP5 PUSH20 0xFFFFFFFFFFFFFFFFFFFFFFFFFFFFFFFFFFFFFFFF AND PUSH2 0x358E JUMP JUMPDEST ISZERO PUSH2 0x30C3 JUMPI DUP4 PUSH20 0xFFFFFFFFFFFFFFFFFFFFFFFFFFFFFFFFFFFFFFFF AND PUSH4 0x150B7A02 PUSH2 0x2F93 PUSH2 0x1B9C JUMP JUMPDEST DUP8 DUP7 DUP7 PUSH1 0x40 MLOAD DUP6 PUSH4 0xFFFFFFFF AND PUSH1 0xE0 SHL DUP2 MSTORE PUSH1 0x4 ADD PUSH2 0x2FB5 SWAP5 SWAP4 SWAP3 SWAP2 SWAP1 PUSH2 0x56D1 JUMP JUMPDEST PUSH1 0x20 PUSH1 0x40 MLOAD DUP1 DUP4 SUB DUP2 PUSH1 0x0 DUP8 GAS CALL SWAP3 POP POP POP DUP1 ISZERO PUSH2 0x2FF1 JUMPI POP PUSH1 0x40 MLOAD RETURNDATASIZE PUSH1 0x1F NOT PUSH1 0x1F DUP3 ADD AND DUP3 ADD DUP1 PUSH1 0x40 MSTORE POP DUP2 ADD SWAP1 PUSH2 0x2FEE SWAP2 SWAP1 PUSH2 0x5732 JUMP JUMPDEST PUSH1 0x1 JUMPDEST PUSH2 0x3073 JUMPI RETURNDATASIZE DUP1 PUSH1 0x0 DUP2 EQ PUSH2 0x3021 JUMPI PUSH1 0x40 MLOAD SWAP2 POP PUSH1 0x1F NOT PUSH1 0x3F RETURNDATASIZE ADD AND DUP3 ADD PUSH1 0x40 MSTORE RETURNDATASIZE DUP3 MSTORE RETURNDATASIZE PUSH1 0x0 PUSH1 0x20 DUP5 ADD RETURNDATACOPY PUSH2 0x3026 JUMP JUMPDEST PUSH1 0x60 SWAP2 POP JUMPDEST POP PUSH1 0x0 DUP2 MLOAD SUB PUSH2 0x306B JUMPI PUSH1 0x40 MLOAD PUSH32 0x8C379A000000000000000000000000000000000000000000000000000000000 DUP2 MSTORE PUSH1 0x4 ADD PUSH2 0x3062 SWAP1 PUSH2 0x52B1 JUMP JUMPDEST PUSH1 0x40 MLOAD DUP1 SWAP2 SUB SWAP1 REVERT JUMPDEST DUP1 MLOAD DUP2 PUSH1 0x20 ADD REVERT JUMPDEST PUSH4 0x150B7A02 PUSH1 0xE0 SHL PUSH28 0xFFFFFFFFFFFFFFFFFFFFFFFFFFFFFFFFFFFFFFFFFFFFFFFFFFFFFFFF NOT AND DUP2 PUSH28 0xFFFFFFFFFFFFFFFFFFFFFFFFFFFFFFFFFFFFFFFFFFFFFFFFFFFFFFFF NOT AND EQ SWAP2 POP POP PUSH2 0x30C8 JUMP JUMPDEST PUSH1 0x1 SWAP1 POP JUMPDEST SWAP5 SWAP4 POP POP POP POP JUMP JUMPDEST PUSH1 0x0 DUP1 PUSH1 0x0 SWAP1 POP PUSH27 0x184F03E93FF9F4DAA797ED6E38ED64BF6A1F010000000000000000 DUP4 LT PUSH2 0x312E JUMPI PUSH27 0x184F03E93FF9F4DAA797ED6E38ED64BF6A1F010000000000000000 DUP4 DUP2 PUSH2 0x3124 JUMPI PUSH2 0x3123 PUSH2 0x4C8B JUMP JUMPDEST JUMPDEST DIV SWAP3 POP PUSH1 0x40 DUP2 ADD SWAP1 POP JUMPDEST PUSH14 0x4EE2D6D415B85ACEF8100000000 DUP4 LT PUSH2 0x316B JUMPI PUSH14 0x4EE2D6D415B85ACEF8100000000 DUP4 DUP2 PUSH2 0x3161 JUMPI PUSH2 0x3160 PUSH2 0x4C8B JUMP JUMPDEST JUMPDEST DIV SWAP3 POP PUSH1 0x20 DUP2 ADD SWAP1 POP JUMPDEST PUSH7 0x2386F26FC10000 DUP4 LT PUSH2 0x319A JUMPI PUSH7 0x2386F26FC10000 DUP4 DUP2 PUSH2 0x3190 JUMPI PUSH2 0x318F PUSH2 0x4C8B JUMP JUMPDEST JUMPDEST DIV SWAP3 POP PUSH1 0x10 DUP2 ADD SWAP1 POP JUMPDEST PUSH4 0x5F5E100 DUP4 LT PUSH2 0x31C3 JUMPI PUSH4 0x5F5E100 DUP4 DUP2 PUSH2 0x31B9 JUMPI PUSH2 0x31B8 PUSH2 0x4C8B JUMP JUMPDEST JUMPDEST DIV SWAP3 POP PUSH1 0x8 DUP2 ADD SWAP1 POP JUMPDEST PUSH2 0x2710 DUP4 LT PUSH2 0x31E8 JUMPI PUSH2 0x2710 DUP4 DUP2 PUSH2 0x31DE JUMPI PUSH2 0x31DD PUSH2 0x4C8B JUMP JUMPDEST JUMPDEST DIV SWAP3 POP PUSH1 0x4 DUP2 ADD SWAP1 POP JUMPDEST PUSH1 0x64 DUP4 LT PUSH2 0x320B JUMPI PUSH1 0x64 DUP4 DUP2 PUSH2 0x3201 JUMPI PUSH2 0x3200 PUSH2 0x4C8B JUMP JUMPDEST JUMPDEST DIV SWAP3 POP PUSH1 0x2 DUP2 ADD SWAP1 POP JUMPDEST PUSH1 0xA DUP4 LT PUSH2 0x321A JUMPI PUSH1 0x1 DUP2 ADD SWAP1 POP JUMPDEST DUP1 SWAP2 POP POP SWAP2 SWAP1 POP JUMP JUMPDEST PUSH1 0x0 PUSH2 0x322E DUP3 PUSH2 0xE04 JUMP JUMPDEST SWAP1 POP PUSH2 0x323E DUP2 PUSH1 0x0 DUP5 PUSH1 0x1 PUSH2 0x2E4A JUMP JUMPDEST PUSH2 0x3247 DUP3 PUSH2 0xE04 JUMP JUMPDEST SWAP1 POP PUSH1 0x4 PUSH1 0x0 DUP4 DUP2 MSTORE PUSH1 0x20 ADD SWAP1 DUP2 MSTORE PUSH1 0x20 ADD PUSH1 0x0 KECCAK256 PUSH1 0x0 PUSH2 0x100 EXP DUP2 SLOAD SWAP1 PUSH20 0xFFFFFFFFFFFFFFFFFFFFFFFFFFFFFFFFFFFFFFFF MUL NOT AND SWAP1 SSTORE PUSH1 0x1 PUSH1 0x3 PUSH1 0x0 DUP4 PUSH20 0xFFFFFFFFFFFFFFFFFFFFFFFFFFFFFFFFFFFFFFFF AND PUSH20 0xFFFFFFFFFFFFFFFFFFFFFFFFFFFFFFFFFFFFFFFF AND DUP2 MSTORE PUSH1 0x20 ADD SWAP1 DUP2 MSTORE PUSH1 0x20 ADD PUSH1 0x0 KECCAK256 PUSH1 0x0 DUP3 DUP3 SLOAD SUB SWAP3 POP POP DUP2 SWAP1 SSTORE POP PUSH1 0x2 PUSH1 0x0 DUP4 DUP2 MSTORE PUSH1 0x20 ADD SWAP1 DUP2 MSTORE PUSH1 0x20 ADD PUSH1 0x0 KECCAK256 PUSH1 0x0 PUSH2 0x100 EXP DUP2 SLOAD SWAP1 PUSH20 0xFFFFFFFFFFFFFFFFFFFFFFFFFFFFFFFFFFFFFFFF MUL NOT AND SWAP1 SSTORE DUP2 PUSH1 0x0 PUSH20 0xFFFFFFFFFFFFFFFFFFFFFFFFFFFFFFFFFFFFFFFF AND DUP3 PUSH20 0xFFFFFFFFFFFFFFFFFFFFFFFFFFFFFFFFFFFFFFFF AND PUSH32 0xDDF252AD1BE2C89B69C2B068FC378DAA952BA7F163C4A11628F55A4DF523B3EF PUSH1 0x40 MLOAD PUSH1 0x40 MLOAD DUP1 SWAP2 SUB SWAP1 LOG4 PUSH2 0x336D DUP2 PUSH1 0x0 DUP5 PUSH1 0x1 PUSH2 0x2E50 JUMP JUMPDEST POP POP JUMP JUMPDEST PUSH1 0x0 PUSH20 0xFFFFFFFFFFFFFFFFFFFFFFFFFFFFFFFFFFFFFFFF AND DUP3 PUSH20 0xFFFFFFFFFFFFFFFFFFFFFFFFFFFFFFFFFFFFFFFF AND SUB PUSH2 0x33E0 JUMPI PUSH1 0x40 MLOAD PUSH32 0x8C379A000000000000000000000000000000000000000000000000000000000 DUP2 MSTORE PUSH1 0x4 ADD PUSH2 0x33D7 SWAP1 PUSH2 0x57AB JUMP JUMPDEST PUSH1 0x40 MLOAD DUP1 SWAP2 SUB SWAP1 REVERT JUMPDEST PUSH2 0x33E9 DUP2 PUSH2 0x222C JUMP JUMPDEST ISZERO PUSH2 0x3429 JUMPI PUSH1 0x40 MLOAD PUSH32 0x8C379A000000000000000000000000000000000000000000000000000000000 DUP2 MSTORE PUSH1 0x4 ADD PUSH2 0x3420 SWAP1 PUSH2 0x5817 JUMP JUMPDEST PUSH1 0x40 MLOAD DUP1 SWAP2 SUB SWAP1 REVERT JUMPDEST PUSH2 0x3437 PUSH1 0x0 DUP4 DUP4 PUSH1 0x1 PUSH2 0x2E4A JUMP JUMPDEST PUSH2 0x3440 DUP2 PUSH2 0x222C JUMP JUMPDEST ISZERO PUSH2 0x3480 JUMPI PUSH1 0x40 MLOAD PUSH32 0x8C379A000000000000000000000000000000000000000000000000000000000 DUP2 MSTORE PUSH1 0x4 ADD PUSH2 0x3477 SWAP1 PUSH2 0x5817 JUMP JUMPDEST PUSH1 0x40 MLOAD DUP1 SWAP2 SUB SWAP1 REVERT JUMPDEST PUSH1 0x1 PUSH1 0x3 PUSH1 0x0 DUP5 PUSH20 0xFFFFFFFFFFFFFFFFFFFFFFFFFFFFFFFFFFFFFFFF AND PUSH20 0xFFFFFFFFFFFFFFFFFFFFFFFFFFFFFFFFFFFFFFFF AND DUP2 MSTORE PUSH1 0x20 ADD SWAP1 DUP2 MSTORE PUSH1 0x20 ADD PUSH1 0x0 KECCAK256 PUSH1 0x0 DUP3 DUP3 SLOAD ADD SWAP3 POP POP DUP2 SWAP1 SSTORE POP DUP2 PUSH1 0x2 PUSH1 0x0 DUP4 DUP2 MSTORE PUSH1 0x20 ADD SWAP1 DUP2 MSTORE PUSH1 0x20 ADD PUSH1 0x0 KECCAK256 PUSH1 0x0 PUSH2 0x100 EXP DUP2 SLOAD DUP2 PUSH20 0xFFFFFFFFFFFFFFFFFFFFFFFFFFFFFFFFFFFFFFFF MUL NOT AND SWAP1 DUP4 PUSH20 0xFFFFFFFFFFFFFFFFFFFFFFFFFFFFFFFFFFFFFFFF AND MUL OR SWAP1 SSTORE POP DUP1 DUP3 PUSH20 0xFFFFFFFFFFFFFFFFFFFFFFFFFFFFFFFFFFFFFFFF AND PUSH1 0x0 PUSH20 0xFFFFFFFFFFFFFFFFFFFFFFFFFFFFFFFFFFFFFFFF AND PUSH32 0xDDF252AD1BE2C89B69C2B068FC378DAA952BA7F163C4A11628F55A4DF523B3EF PUSH1 0x40 MLOAD PUSH1 0x40 MLOAD DUP1 SWAP2 SUB SWAP1 LOG4 PUSH2 0x358A PUSH1 0x0 DUP4 DUP4 PUSH1 0x1 PUSH2 0x2E50 JUMP JUMPDEST POP POP JUMP JUMPDEST PUSH1 0x0 DUP1 DUP3 PUSH20 0xFFFFFFFFFFFFFFFFFFFFFFFFFFFFFFFFFFFFFFFF AND EXTCODESIZE GT SWAP1 POP SWAP2 SWAP1 POP JUMP JUMPDEST DUP3 DUP1 SLOAD DUP3 DUP3 SSTORE SWAP1 PUSH1 0x0 MSTORE PUSH1 0x20 PUSH1 0x0 KECCAK256 SWAP1 DUP2 ADD SWAP3 DUP3 ISZERO PUSH2 0x35ED JUMPI SWAP2 PUSH1 0x20 MUL DUP3 ADD JUMPDEST DUP3 DUP2 GT ISZERO PUSH2 0x35EC JUMPI DUP3 MLOAD DUP3 SSTORE SWAP2 PUSH1 0x20 ADD SWAP2 SWAP1 PUSH1 0x1 ADD SWAP1 PUSH2 0x35D1 JUMP JUMPDEST JUMPDEST POP SWAP1 POP PUSH2 0x35FA SWAP2 SWAP1 PUSH2 0x3642 JUMP JUMPDEST POP SWAP1 JUMP JUMPDEST POP DUP1 SLOAD PUSH1 0x0 DUP3 SSTORE SWAP1 PUSH1 0x0 MSTORE PUSH1 0x20 PUSH1 0x0 KECCAK256 SWAP1 DUP2 ADD SWAP1 PUSH2 0x361C SWAP2 SWAP1 PUSH2 0x3642 JUMP JUMPDEST POP JUMP JUMPDEST PUSH1 0x40 MLOAD DUP1 PUSH2 0x280 ADD PUSH1 0x40 MSTORE DUP1 PUSH1 0x14 SWAP1 PUSH1 0x20 DUP3 MUL DUP1 CALLDATASIZE DUP4 CALLDATACOPY DUP1 DUP3 ADD SWAP2 POP POP SWAP1 POP POP SWAP1 JUMP JUMPDEST JUMPDEST DUP1 DUP3 GT ISZERO PUSH2 0x365B JUMPI PUSH1 0x0 DUP2 PUSH1 0x0 SWAP1 SSTORE POP PUSH1 0x1 ADD PUSH2 0x3643 JUMP JUMPDEST POP SWAP1 JUMP JUMPDEST PUSH1 0x0 PUSH1 0x40 MLOAD SWAP1 POP SWAP1 JUMP JUMPDEST PUSH1 0x0 DUP1 REVERT JUMPDEST PUSH1 0x0 DUP1 REVERT JUMPDEST PUSH1 0x0 PUSH32 0xFFFFFFFF00000000000000000000000000000000000000000000000000000000 DUP3 AND SWAP1 POP SWAP2 SWAP1 POP JUMP JUMPDEST PUSH2 0x36A8 DUP2 PUSH2 0x3673 JUMP JUMPDEST DUP2 EQ PUSH2 0x36B3 JUMPI PUSH1 0x0 DUP1 REVERT JUMPDEST POP JUMP JUMPDEST PUSH1 0x0 DUP2 CALLDATALOAD SWAP1 POP PUSH2 0x36C5 DUP2 PUSH2 0x369F JUMP JUMPDEST SWAP3 SWAP2 POP POP JUMP JUMPDEST PUSH1 0x0 PUSH1 0x20 DUP3 DUP5 SUB SLT ISZERO PUSH2 0x36E1 JUMPI PUSH2 0x36E0 PUSH2 0x3669 JUMP JUMPDEST JUMPDEST PUSH1 0x0 PUSH2 0x36EF DUP5 DUP3 DUP6 ADD PUSH2 0x36B6 JUMP JUMPDEST SWAP2 POP POP SWAP3 SWAP2 POP POP JUMP JUMPDEST PUSH1 0x0 DUP2 ISZERO ISZERO SWAP1 POP SWAP2 SWAP1 POP JUMP JUMPDEST PUSH2 0x370D DUP2 PUSH2 0x36F8 JUMP JUMPDEST DUP3 MSTORE POP POP JUMP JUMPDEST PUSH1 0x0 PUSH1 0x20 DUP3 ADD SWAP1 POP PUSH2 0x3728 PUSH1 0x0 DUP4 ADD DUP5 PUSH2 0x3704 JUMP JUMPDEST SWAP3 SWAP2 POP POP JUMP JUMPDEST PUSH1 0x0 DUP2 SWAP1 POP SWAP2 SWAP1 POP JUMP JUMPDEST PUSH2 0x3741 DUP2 PUSH2 0x372E JUMP JUMPDEST DUP3 MSTORE POP POP JUMP JUMPDEST PUSH1 0x0 PUSH1 0x20 DUP3 ADD SWAP1 POP PUSH2 0x375C PUSH1 0x0 DUP4 ADD DUP5 PUSH2 0x3738 JUMP JUMPDEST SWAP3 SWAP2 POP POP JUMP JUMPDEST PUSH1 0x0 DUP2 MLOAD SWAP1 POP SWAP2 SWAP1 POP JUMP JUMPDEST PUSH1 0x0 DUP3 DUP3 MSTORE PUSH1 0x20 DUP3 ADD SWAP1 POP SWAP3 SWAP2 POP POP JUMP JUMPDEST PUSH1 0x0 JUMPDEST DUP4 DUP2 LT ISZERO PUSH2 0x379C JUMPI DUP1 DUP3 ADD MLOAD DUP2 DUP5 ADD MSTORE PUSH1 0x20 DUP2 ADD SWAP1 POP PUSH2 0x3781 JUMP JUMPDEST PUSH1 0x0 DUP5 DUP5 ADD MSTORE POP POP POP POP JUMP JUMPDEST PUSH1 0x0 PUSH1 0x1F NOT PUSH1 0x1F DUP4 ADD AND SWAP1 POP SWAP2 SWAP1 POP JUMP JUMPDEST PUSH1 0x0 PUSH2 0x37C4 DUP3 PUSH2 0x3762 JUMP JUMPDEST PUSH2 0x37CE DUP2 DUP6 PUSH2 0x376D JUMP JUMPDEST SWAP4 POP PUSH2 0x37DE DUP2 DUP6 PUSH1 0x20 DUP7 ADD PUSH2 0x377E JUMP JUMPDEST PUSH2 0x37E7 DUP2 PUSH2 0x37A8 JUMP JUMPDEST DUP5 ADD SWAP2 POP POP SWAP3 SWAP2 POP POP JUMP JUMPDEST PUSH1 0x0 PUSH1 0x20 DUP3 ADD SWAP1 POP DUP2 DUP2 SUB PUSH1 0x0 DUP4 ADD MSTORE PUSH2 0x380C DUP2 DUP5 PUSH2 0x37B9 JUMP JUMPDEST SWAP1 POP SWAP3 SWAP2 POP POP JUMP JUMPDEST PUSH2 0x381D DUP2 PUSH2 0x372E JUMP JUMPDEST DUP2 EQ PUSH2 0x3828 JUMPI PUSH1 0x0 DUP1 REVERT JUMPDEST POP JUMP JUMPDEST PUSH1 0x0 DUP2 CALLDATALOAD SWAP1 POP PUSH2 0x383A DUP2 PUSH2 0x3814 JUMP JUMPDEST SWAP3 SWAP2 POP POP JUMP JUMPDEST PUSH1 0x0 PUSH1 0x20 DUP3 DUP5 SUB SLT ISZERO PUSH2 0x3856 JUMPI PUSH2 0x3855 PUSH2 0x3669 JUMP JUMPDEST JUMPDEST PUSH1 0x0 PUSH2 0x3864 DUP5 DUP3 DUP6 ADD PUSH2 0x382B JUMP JUMPDEST SWAP2 POP POP SWAP3 SWAP2 POP POP JUMP JUMPDEST PUSH1 0x0 PUSH20 0xFFFFFFFFFFFFFFFFFFFFFFFFFFFFFFFFFFFFFFFF DUP3 AND SWAP1 POP SWAP2 SWAP1 POP JUMP JUMPDEST PUSH1 0x0 PUSH2 0x3898 DUP3 PUSH2 0x386D JUMP JUMPDEST SWAP1 POP SWAP2 SWAP1 POP JUMP JUMPDEST PUSH2 0x38A8 DUP2 PUSH2 0x388D JUMP JUMPDEST DUP3 MSTORE POP POP JUMP JUMPDEST PUSH1 0x0 PUSH1 0x20 DUP3 ADD SWAP1 POP PUSH2 0x38C3 PUSH1 0x0 DUP4 ADD DUP5 PUSH2 0x389F JUMP JUMPDEST SWAP3 SWAP2 POP POP JUMP JUMPDEST PUSH2 0x38D2 DUP2 PUSH2 0x388D JUMP JUMPDEST DUP2 EQ PUSH2 0x38DD JUMPI PUSH1 0x0 DUP1 REVERT JUMPDEST POP JUMP JUMPDEST PUSH1 0x0 DUP2 CALLDATALOAD SWAP1 POP PUSH2 0x38EF DUP2 PUSH2 0x38C9 JUMP JUMPDEST SWAP3 SWAP2 POP POP JUMP JUMPDEST PUSH1 0x0 DUP1 PUSH1 0x40 DUP4 DUP6 SUB SLT ISZERO PUSH2 0x390C JUMPI PUSH2 0x390B PUSH2 0x3669 JUMP JUMPDEST JUMPDEST PUSH1 0x0 PUSH2 0x391A DUP6 DUP3 DUP7 ADD PUSH2 0x38E0 JUMP JUMPDEST SWAP3 POP POP PUSH1 0x20 PUSH2 0x392B DUP6 DUP3 DUP7 ADD PUSH2 0x382B JUMP JUMPDEST SWAP2 POP POP SWAP3 POP SWAP3 SWAP1 POP JUMP JUMPDEST PUSH1 0x0 DUP1 REVERT JUMPDEST PUSH1 0x0 DUP1 REVERT JUMPDEST PUSH1 0x0 DUP1 REVERT JUMPDEST PUSH1 0x0 DUP1 DUP4 PUSH1 0x1F DUP5 ADD SLT PUSH2 0x395A JUMPI PUSH2 0x3959 PUSH2 0x3935 JUMP JUMPDEST JUMPDEST DUP3 CALLDATALOAD SWAP1 POP PUSH8 0xFFFFFFFFFFFFFFFF DUP2 GT ISZERO PUSH2 0x3977 JUMPI PUSH2 0x3976 PUSH2 0x393A JUMP JUMPDEST JUMPDEST PUSH1 0x20 DUP4 ADD SWAP2 POP DUP4 PUSH1 0x20 DUP3 MUL DUP4 ADD GT ISZERO PUSH2 0x3993 JUMPI PUSH2 0x3992 PUSH2 0x393F JUMP JUMPDEST JUMPDEST SWAP3 POP SWAP3 SWAP1 POP JUMP JUMPDEST PUSH1 0x0 DUP1 PUSH1 0x0 PUSH1 0x40 DUP5 DUP7 SUB SLT ISZERO PUSH2 0x39B3 JUMPI PUSH2 0x39B2 PUSH2 0x3669 JUMP JUMPDEST JUMPDEST PUSH1 0x0 PUSH2 0x39C1 DUP7 DUP3 DUP8 ADD PUSH2 0x382B JUMP JUMPDEST SWAP4 POP POP PUSH1 0x20 DUP5 ADD CALLDATALOAD PUSH8 0xFFFFFFFFFFFFFFFF DUP2 GT ISZERO PUSH2 0x39E2 JUMPI PUSH2 0x39E1 PUSH2 0x366E JUMP JUMPDEST JUMPDEST PUSH2 0x39EE DUP7 DUP3 DUP8 ADD PUSH2 0x3944 JUMP JUMPDEST SWAP3 POP SWAP3 POP POP SWAP3 POP SWAP3 POP SWAP3 JUMP JUMPDEST PUSH1 0x0 DUP1 PUSH1 0x0 PUSH1 0x60 DUP5 DUP7 SUB SLT ISZERO PUSH2 0x3A13 JUMPI PUSH2 0x3A12 PUSH2 0x3669 JUMP JUMPDEST JUMPDEST PUSH1 0x0 PUSH2 0x3A21 DUP7 DUP3 DUP8 ADD PUSH2 0x38E0 JUMP JUMPDEST SWAP4 POP POP PUSH1 0x20 PUSH2 0x3A32 DUP7 DUP3 DUP8 ADD PUSH2 0x38E0 JUMP JUMPDEST SWAP3 POP POP PUSH1 0x40 PUSH2 0x3A43 DUP7 DUP3 DUP8 ADD PUSH2 0x382B JUMP JUMPDEST SWAP2 POP POP SWAP3 POP SWAP3 POP SWAP3 JUMP JUMPDEST PUSH1 0x0 PUSH4 0xFFFFFFFF DUP3 AND SWAP1 POP SWAP2 SWAP1 POP JUMP JUMPDEST PUSH2 0x3A66 DUP2 PUSH2 0x3A4D JUMP JUMPDEST DUP3 MSTORE POP POP JUMP JUMPDEST PUSH1 0x0 PUSH1 0x20 DUP3 ADD SWAP1 POP PUSH2 0x3A81 PUSH1 0x0 DUP4 ADD DUP5 PUSH2 0x3A5D JUMP JUMPDEST SWAP3 SWAP2 POP POP JUMP JUMPDEST PUSH1 0x0 DUP2 SWAP1 POP SWAP2 SWAP1 POP JUMP JUMPDEST PUSH1 0x0 PUSH2 0x3AAC PUSH2 0x3AA7 PUSH2 0x3AA2 DUP5 PUSH2 0x386D JUMP JUMPDEST PUSH2 0x3A87 JUMP JUMPDEST PUSH2 0x386D JUMP JUMPDEST SWAP1 POP SWAP2 SWAP1 POP JUMP JUMPDEST PUSH1 0x0 PUSH2 0x3ABE DUP3 PUSH2 0x3A91 JUMP JUMPDEST SWAP1 POP SWAP2 SWAP1 POP JUMP JUMPDEST PUSH1 0x0 PUSH2 0x3AD0 DUP3 PUSH2 0x3AB3 JUMP JUMPDEST SWAP1 POP SWAP2 SWAP1 POP JUMP JUMPDEST PUSH2 0x3AE0 DUP2 PUSH2 0x3AC5 JUMP JUMPDEST DUP3 MSTORE POP POP JUMP JUMPDEST PUSH1 0x0 PUSH1 0x20 DUP3 ADD SWAP1 POP PUSH2 0x3AFB PUSH1 0x0 DUP4 ADD DUP5 PUSH2 0x3AD7 JUMP JUMPDEST SWAP3 SWAP2 POP POP JUMP JUMPDEST PUSH1 0x0 PUSH2 0x3B0C DUP3 PUSH2 0x3AB3 JUMP JUMPDEST SWAP1 POP SWAP2 SWAP1 POP JUMP JUMPDEST PUSH2 0x3B1C DUP2 PUSH2 0x3B01 JUMP JUMPDEST DUP3 MSTORE POP POP JUMP JUMPDEST PUSH1 0x0 PUSH1 0x20 DUP3 ADD SWAP1 POP PUSH2 0x3B37 PUSH1 0x0 DUP4 ADD DUP5 PUSH2 0x3B13 JUMP JUMPDEST SWAP3 SWAP2 POP POP JUMP JUMPDEST PUSH1 0x0 PUSH1 0x20 DUP3 DUP5 SUB SLT ISZERO PUSH2 0x3B53 JUMPI PUSH2 0x3B52 PUSH2 0x3669 JUMP JUMPDEST JUMPDEST PUSH1 0x0 PUSH2 0x3B61 DUP5 DUP3 DUP6 ADD PUSH2 0x38E0 JUMP JUMPDEST SWAP2 POP POP SWAP3 SWAP2 POP POP JUMP JUMPDEST PUSH1 0x0 DUP1 DUP4 PUSH1 0x1F DUP5 ADD SLT PUSH2 0x3B80 JUMPI PUSH2 0x3B7F PUSH2 0x3935 JUMP JUMPDEST JUMPDEST DUP3 CALLDATALOAD SWAP1 POP PUSH8 0xFFFFFFFFFFFFFFFF DUP2 GT ISZERO PUSH2 0x3B9D JUMPI PUSH2 0x3B9C PUSH2 0x393A JUMP JUMPDEST JUMPDEST PUSH1 0x20 DUP4 ADD SWAP2 POP DUP4 PUSH1 0x1 DUP3 MUL DUP4 ADD GT ISZERO PUSH2 0x3BB9 JUMPI PUSH2 0x3BB8 PUSH2 0x393F JUMP JUMPDEST JUMPDEST SWAP3 POP SWAP3 SWAP1 POP JUMP JUMPDEST PUSH1 0x0 DUP1 PUSH1 0x20 DUP4 DUP6 SUB SLT ISZERO PUSH2 0x3BD7 JUMPI PUSH2 0x3BD6 PUSH2 0x3669 JUMP JUMPDEST JUMPDEST PUSH1 0x0 DUP4 ADD CALLDATALOAD PUSH8 0xFFFFFFFFFFFFFFFF DUP2 GT ISZERO PUSH2 0x3BF5 JUMPI PUSH2 0x3BF4 PUSH2 0x366E JUMP JUMPDEST JUMPDEST PUSH2 0x3C01 DUP6 DUP3 DUP7 ADD PUSH2 0x3B6A JUMP JUMPDEST SWAP3 POP SWAP3 POP POP SWAP3 POP SWAP3 SWAP1 POP JUMP JUMPDEST PUSH1 0x0 DUP2 SWAP1 POP SWAP2 SWAP1 POP JUMP JUMPDEST PUSH2 0x3C20 DUP2 PUSH2 0x3C0D JUMP JUMPDEST DUP3 MSTORE POP POP JUMP JUMPDEST PUSH1 0x0 PUSH1 0x20 DUP3 ADD SWAP1 POP PUSH2 0x3C3B PUSH1 0x0 DUP4 ADD DUP5 PUSH2 0x3C17 JUMP JUMPDEST SWAP3 SWAP2 POP POP JUMP JUMPDEST PUSH1 0x0 DUP1 DUP4 PUSH1 0x1F DUP5 ADD SLT PUSH2 0x3C57 JUMPI PUSH2 0x3C56 PUSH2 0x3935 JUMP JUMPDEST JUMPDEST DUP3 CALLDATALOAD SWAP1 POP PUSH8 0xFFFFFFFFFFFFFFFF DUP2 GT ISZERO PUSH2 0x3C74 JUMPI PUSH2 0x3C73 PUSH2 0x393A JUMP JUMPDEST JUMPDEST PUSH1 0x20 DUP4 ADD SWAP2 POP DUP4 PUSH1 0x1 DUP3 MUL DUP4 ADD GT ISZERO PUSH2 0x3C90 JUMPI PUSH2 0x3C8F PUSH2 0x393F JUMP JUMPDEST JUMPDEST SWAP3 POP SWAP3 SWAP1 POP JUMP JUMPDEST PUSH1 0x0 DUP1 PUSH1 0x0 DUP1 PUSH1 0x60 DUP6 DUP8 SUB SLT ISZERO PUSH2 0x3CB1 JUMPI PUSH2 0x3CB0 PUSH2 0x3669 JUMP JUMPDEST JUMPDEST PUSH1 0x0 PUSH2 0x3CBF DUP8 DUP3 DUP9 ADD PUSH2 0x38E0 JUMP JUMPDEST SWAP5 POP POP PUSH1 0x20 PUSH2 0x3CD0 DUP8 DUP3 DUP9 ADD PUSH2 0x382B JUMP JUMPDEST SWAP4 POP POP PUSH1 0x40 DUP6 ADD CALLDATALOAD PUSH8 0xFFFFFFFFFFFFFFFF DUP2 GT ISZERO PUSH2 0x3CF1 JUMPI PUSH2 0x3CF0 PUSH2 0x366E JUMP JUMPDEST JUMPDEST PUSH2 0x3CFD DUP8 DUP3 DUP9 ADD PUSH2 0x3C41 JUMP JUMPDEST SWAP3 POP SWAP3 POP POP SWAP3 SWAP6 SWAP2 SWAP5 POP SWAP3 POP JUMP JUMPDEST PUSH2 0x3D14 DUP2 PUSH2 0x36F8 JUMP JUMPDEST DUP2 EQ PUSH2 0x3D1F JUMPI PUSH1 0x0 DUP1 REVERT JUMPDEST POP JUMP JUMPDEST PUSH1 0x0 DUP2 CALLDATALOAD SWAP1 POP PUSH2 0x3D31 DUP2 PUSH2 0x3D0B JUMP JUMPDEST SWAP3 SWAP2 POP POP JUMP JUMPDEST PUSH1 0x0 DUP1 PUSH1 0x40 DUP4 DUP6 SUB SLT ISZERO PUSH2 0x3D4E JUMPI PUSH2 0x3D4D PUSH2 0x3669 JUMP JUMPDEST JUMPDEST PUSH1 0x0 PUSH2 0x3D5C DUP6 DUP3 DUP7 ADD PUSH2 0x38E0 JUMP JUMPDEST SWAP3 POP POP PUSH1 0x20 PUSH2 0x3D6D DUP6 DUP3 DUP7 ADD PUSH2 0x3D22 JUMP JUMPDEST SWAP2 POP POP SWAP3 POP SWAP3 SWAP1 POP JUMP JUMPDEST PUSH2 0x3D80 DUP2 PUSH2 0x3C0D JUMP JUMPDEST DUP2 EQ PUSH2 0x3D8B JUMPI PUSH1 0x0 DUP1 REVERT JUMPDEST POP JUMP JUMPDEST PUSH1 0x0 DUP2 CALLDATALOAD SWAP1 POP PUSH2 0x3D9D DUP2 PUSH2 0x3D77 JUMP JUMPDEST SWAP3 SWAP2 POP POP JUMP JUMPDEST PUSH2 0x3DAC DUP2 PUSH2 0x3A4D JUMP JUMPDEST DUP2 EQ PUSH2 0x3DB7 JUMPI PUSH1 0x0 DUP1 REVERT JUMPDEST POP JUMP JUMPDEST PUSH1 0x0 DUP2 CALLDATALOAD SWAP1 POP PUSH2 0x3DC9 DUP2 PUSH2 0x3DA3 JUMP JUMPDEST SWAP3 SWAP2 POP POP JUMP JUMPDEST PUSH1 0x0 PUSH2 0xFFFF DUP3 AND SWAP1 POP SWAP2 SWAP1 POP JUMP JUMPDEST PUSH2 0x3DE6 DUP2 PUSH2 0x3DCF JUMP JUMPDEST DUP2 EQ PUSH2 0x3DF1 JUMPI PUSH1 0x0 DUP1 REVERT JUMPDEST POP JUMP JUMPDEST PUSH1 0x0 DUP2 CALLDATALOAD SWAP1 POP PUSH2 0x3E03 DUP2 PUSH2 0x3DDD JUMP JUMPDEST SWAP3 SWAP2 POP POP JUMP JUMPDEST PUSH1 0x0 DUP1 PUSH1 0x0 DUP1 PUSH1 0x0 PUSH1 0xA0 DUP7 DUP9 SUB SLT ISZERO PUSH2 0x3E25 JUMPI PUSH2 0x3E24 PUSH2 0x3669 JUMP JUMPDEST JUMPDEST PUSH1 0x0 PUSH2 0x3E33 DUP9 DUP3 DUP10 ADD PUSH2 0x38E0 JUMP JUMPDEST SWAP6 POP POP PUSH1 0x20 PUSH2 0x3E44 DUP9 DUP3 DUP10 ADD PUSH2 0x3D8E JUMP JUMPDEST SWAP5 POP POP PUSH1 0x40 PUSH2 0x3E55 DUP9 DUP3 DUP10 ADD PUSH2 0x382B JUMP JUMPDEST SWAP4 POP POP PUSH1 0x60 PUSH2 0x3E66 DUP9 DUP3 DUP10 ADD PUSH2 0x3DBA JUMP JUMPDEST SWAP3 POP POP PUSH1 0x80 PUSH2 0x3E77 DUP9 DUP3 DUP10 ADD PUSH2 0x3DF4 JUMP JUMPDEST SWAP2 POP POP SWAP3 SWAP6 POP SWAP3 SWAP6 SWAP1 SWAP4 POP JUMP JUMPDEST PUSH2 0x3E8D DUP2 PUSH2 0x3DCF JUMP JUMPDEST DUP3 MSTORE POP POP JUMP JUMPDEST PUSH1 0x0 PUSH1 0x20 DUP3 ADD SWAP1 POP PUSH2 0x3EA8 PUSH1 0x0 DUP4 ADD DUP5 PUSH2 0x3E84 JUMP JUMPDEST SWAP3 SWAP2 POP POP JUMP JUMPDEST PUSH1 0x0 DUP1 REVERT JUMPDEST PUSH32 0x4E487B7100000000000000000000000000000000000000000000000000000000 PUSH1 0x0 MSTORE PUSH1 0x41 PUSH1 0x4 MSTORE PUSH1 0x24 PUSH1 0x0 REVERT JUMPDEST PUSH2 0x3EEB DUP3 PUSH2 0x37A8 JUMP JUMPDEST DUP2 ADD DUP2 DUP2 LT PUSH8 0xFFFFFFFFFFFFFFFF DUP3 GT OR ISZERO PUSH2 0x3F0A JUMPI PUSH2 0x3F09 PUSH2 0x3EB3 JUMP JUMPDEST JUMPDEST DUP1 PUSH1 0x40 MSTORE POP POP POP JUMP JUMPDEST PUSH1 0x0 PUSH2 0x3F1D PUSH2 0x365F JUMP JUMPDEST SWAP1 POP PUSH2 0x3F29 DUP3 DUP3 PUSH2 0x3EE2 JUMP JUMPDEST SWAP2 SWAP1 POP JUMP JUMPDEST PUSH1 0x0 PUSH8 0xFFFFFFFFFFFFFFFF DUP3 GT ISZERO PUSH2 0x3F49 JUMPI PUSH2 0x3F48 PUSH2 0x3EB3 JUMP JUMPDEST JUMPDEST PUSH2 0x3F52 DUP3 PUSH2 0x37A8 JUMP JUMPDEST SWAP1 POP PUSH1 0x20 DUP2 ADD SWAP1 POP SWAP2 SWAP1 POP JUMP JUMPDEST DUP3 DUP2 DUP4 CALLDATACOPY PUSH1 0x0 DUP4 DUP4 ADD MSTORE POP POP POP JUMP JUMPDEST PUSH1 0x0 PUSH2 0x3F81 PUSH2 0x3F7C DUP5 PUSH2 0x3F2E JUMP JUMPDEST PUSH2 0x3F13 JUMP JUMPDEST SWAP1 POP DUP3 DUP2 MSTORE PUSH1 0x20 DUP2 ADD DUP5 DUP5 DUP5 ADD GT ISZERO PUSH2 0x3F9D JUMPI PUSH2 0x3F9C PUSH2 0x3EAE JUMP JUMPDEST JUMPDEST PUSH2 0x3FA8 DUP5 DUP3 DUP6 PUSH2 0x3F5F JUMP JUMPDEST POP SWAP4 SWAP3 POP POP POP JUMP JUMPDEST PUSH1 0x0 DUP3 PUSH1 0x1F DUP4 ADD SLT PUSH2 0x3FC5 JUMPI PUSH2 0x3FC4 PUSH2 0x3935 JUMP JUMPDEST JUMPDEST DUP2 CALLDATALOAD PUSH2 0x3FD5 DUP5 DUP3 PUSH1 0x20 DUP7 ADD PUSH2 0x3F6E JUMP JUMPDEST SWAP2 POP POP SWAP3 SWAP2 POP POP JUMP JUMPDEST PUSH1 0x0 DUP1 PUSH1 0x0 DUP1 PUSH1 0x80 DUP6 DUP8 SUB SLT ISZERO PUSH2 0x3FF8 JUMPI PUSH2 0x3FF7 PUSH2 0x3669 JUMP JUMPDEST JUMPDEST PUSH1 0x0 PUSH2 0x4006 DUP8 DUP3 DUP9 ADD PUSH2 0x38E0 JUMP JUMPDEST SWAP5 POP POP PUSH1 0x20 PUSH2 0x4017 DUP8 DUP3 DUP9 ADD PUSH2 0x38E0 JUMP JUMPDEST SWAP4 POP POP PUSH1 0x40 PUSH2 0x4028 DUP8 DUP3 DUP9 ADD PUSH2 0x382B JUMP JUMPDEST SWAP3 POP POP PUSH1 0x60 DUP6 ADD CALLDATALOAD PUSH8 0xFFFFFFFFFFFFFFFF DUP2 GT ISZERO PUSH2 0x4049 JUMPI PUSH2 0x4048 PUSH2 0x366E JUMP JUMPDEST JUMPDEST PUSH2 0x4055 DUP8 DUP3 DUP9 ADD PUSH2 0x3FB0 JUMP JUMPDEST SWAP2 POP POP SWAP3 SWAP6 SWAP2 SWAP5 POP SWAP3 POP JUMP JUMPDEST PUSH1 0x0 DUP2 SWAP1 POP DUP3 PUSH1 0x20 PUSH1 0x14 MUL DUP3 ADD GT ISZERO PUSH2 0x407D JUMPI PUSH2 0x407C PUSH2 0x393F JUMP JUMPDEST JUMPDEST SWAP3 SWAP2 POP POP JUMP JUMPDEST PUSH1 0x0 DUP1 PUSH1 0x0 PUSH2 0x2C0 DUP5 DUP7 SUB SLT ISZERO PUSH2 0x409D JUMPI PUSH2 0x409C PUSH2 0x3669 JUMP JUMPDEST JUMPDEST PUSH1 0x0 PUSH2 0x40AB DUP7 DUP3 DUP8 ADD PUSH2 0x4061 JUMP JUMPDEST SWAP4 POP POP PUSH2 0x280 PUSH2 0x40BD DUP7 DUP3 DUP8 ADD PUSH2 0x382B JUMP JUMPDEST SWAP3 POP POP PUSH2 0x2A0 PUSH2 0x40CF DUP7 DUP3 DUP8 ADD PUSH2 0x38E0 JUMP JUMPDEST SWAP2 POP POP SWAP3 POP SWAP3 POP SWAP3 JUMP JUMPDEST PUSH1 0x0 DUP1 PUSH1 0x40 DUP4 DUP6 SUB SLT ISZERO PUSH2 0x40F0 JUMPI PUSH2 0x40EF PUSH2 0x3669 JUMP JUMPDEST JUMPDEST PUSH1 0x0 PUSH2 0x40FE DUP6 DUP3 DUP7 ADD PUSH2 0x38E0 JUMP JUMPDEST SWAP3 POP POP PUSH1 0x20 PUSH2 0x410F DUP6 DUP3 DUP7 ADD PUSH2 0x38E0 JUMP JUMPDEST SWAP2 POP POP SWAP3 POP SWAP3 SWAP1 POP JUMP JUMPDEST PUSH1 0x0 DUP2 SWAP1 POP DUP3 PUSH1 0x20 PUSH1 0x64 MUL DUP3 ADD GT ISZERO PUSH2 0x4135 JUMPI PUSH2 0x4134 PUSH2 0x393F JUMP JUMPDEST JUMPDEST SWAP3 SWAP2 POP POP JUMP JUMPDEST PUSH1 0x0 DUP1 PUSH1 0x0 DUP1 PUSH2 0xCC0 DUP6 DUP8 SUB SLT ISZERO PUSH2 0x4156 JUMPI PUSH2 0x4155 PUSH2 0x3669 JUMP JUMPDEST JUMPDEST PUSH1 0x0 PUSH2 0x4164 DUP8 DUP3 DUP9 ADD PUSH2 0x4119 JUMP JUMPDEST SWAP5 POP POP PUSH2 0xC80 PUSH2 0x4176 DUP8 DUP3 DUP9 ADD PUSH2 0x38E0 JUMP JUMPDEST SWAP4 POP POP PUSH2 0xCA0 DUP6 ADD CALLDATALOAD PUSH8 0xFFFFFFFFFFFFFFFF DUP2 GT ISZERO PUSH2 0x4198 JUMPI PUSH2 0x4197 PUSH2 0x366E JUMP JUMPDEST JUMPDEST PUSH2 0x41A4 DUP8 DUP3 DUP9 ADD PUSH2 0x3C41 JUMP JUMPDEST SWAP3 POP SWAP3 POP POP SWAP3 SWAP6 SWAP2 SWAP5 POP SWAP3 POP JUMP JUMPDEST PUSH32 0x4E487B7100000000000000000000000000000000000000000000000000000000 PUSH1 0x0 MSTORE PUSH1 0x22 PUSH1 0x4 MSTORE PUSH1 0x24 PUSH1 0x0 REVERT JUMPDEST PUSH1 0x0 PUSH1 0x2 DUP3 DIV SWAP1 POP PUSH1 0x1 DUP3 AND DUP1 PUSH2 0x41F9 JUMPI PUSH1 0x7F DUP3 AND SWAP2 POP JUMPDEST PUSH1 0x20 DUP3 LT DUP2 SUB PUSH2 0x420C JUMPI PUSH2 0x420B PUSH2 0x41B2 JUMP JUMPDEST JUMPDEST POP SWAP2 SWAP1 POP JUMP JUMPDEST PUSH32 0x4552433732313A20617070726F76616C20746F2063757272656E74206F776E65 PUSH1 0x0 DUP3 ADD MSTORE PUSH32 0x7200000000000000000000000000000000000000000000000000000000000000 PUSH1 0x20 DUP3 ADD MSTORE POP JUMP JUMPDEST PUSH1 0x0 PUSH2 0x426E PUSH1 0x21 DUP4 PUSH2 0x376D JUMP JUMPDEST SWAP2 POP PUSH2 0x4279 DUP3 PUSH2 0x4212 JUMP JUMPDEST PUSH1 0x40 DUP3 ADD SWAP1 POP SWAP2 SWAP1 POP JUMP JUMPDEST PUSH1 0x0 PUSH1 0x20 DUP3 ADD SWAP1 POP DUP2 DUP2 SUB PUSH1 0x0 DUP4 ADD MSTORE PUSH2 0x429D DUP2 PUSH2 0x4261 JUMP JUMPDEST SWAP1 POP SWAP2 SWAP1 POP JUMP JUMPDEST PUSH32 0x4552433732313A20617070726F76652063616C6C6572206973206E6F7420746F PUSH1 0x0 DUP3 ADD MSTORE PUSH32 0x6B656E206F776E6572206F7220617070726F76656420666F7220616C6C000000 PUSH1 0x20 DUP3 ADD MSTORE POP JUMP JUMPDEST PUSH1 0x0 PUSH2 0x4300 PUSH1 0x3D DUP4 PUSH2 0x376D JUMP JUMPDEST SWAP2 POP PUSH2 0x430B DUP3 PUSH2 0x42A4 JUMP JUMPDEST PUSH1 0x40 DUP3 ADD SWAP1 POP SWAP2 SWAP1 POP JUMP JUMPDEST PUSH1 0x0 PUSH1 0x20 DUP3 ADD SWAP1 POP DUP2 DUP2 SUB PUSH1 0x0 DUP4 ADD MSTORE PUSH2 0x432F DUP2 PUSH2 0x42F3 JUMP JUMPDEST SWAP1 POP SWAP2 SWAP1 POP JUMP JUMPDEST PUSH1 0x0 PUSH1 0x40 DUP3 ADD SWAP1 POP PUSH2 0x434B PUSH1 0x0 DUP4 ADD DUP6 PUSH2 0x389F JUMP JUMPDEST PUSH2 0x4358 PUSH1 0x20 DUP4 ADD DUP5 PUSH2 0x389F JUMP JUMPDEST SWAP4 SWAP3 POP POP POP JUMP JUMPDEST PUSH32 0x4552433732313A2063616C6C6572206973206E6F7420746F6B656E206F776E65 PUSH1 0x0 DUP3 ADD MSTORE PUSH32 0x72206F7220617070726F76656400000000000000000000000000000000000000 PUSH1 0x20 DUP3 ADD MSTORE POP JUMP JUMPDEST PUSH1 0x0 PUSH2 0x43BB PUSH1 0x2D DUP4 PUSH2 0x376D JUMP JUMPDEST SWAP2 POP PUSH2 0x43C6 DUP3 PUSH2 0x435F JUMP JUMPDEST PUSH1 0x40 DUP3 ADD SWAP1 POP SWAP2 SWAP1 POP JUMP JUMPDEST PUSH1 0x0 PUSH1 0x20 DUP3 ADD SWAP1 POP DUP2 DUP2 SUB PUSH1 0x0 DUP4 ADD MSTORE PUSH2 0x43EA DUP2 PUSH2 0x43AE JUMP JUMPDEST SWAP1 POP SWAP2 SWAP1 POP JUMP JUMPDEST PUSH1 0x0 DUP2 MLOAD SWAP1 POP PUSH2 0x4400 DUP2 PUSH2 0x3814 JUMP JUMPDEST SWAP3 SWAP2 POP POP JUMP JUMPDEST PUSH1 0x0 PUSH1 0x20 DUP3 DUP5 SUB SLT ISZERO PUSH2 0x441C JUMPI PUSH2 0x441B PUSH2 0x3669 JUMP JUMPDEST JUMPDEST PUSH1 0x0 PUSH2 0x442A DUP5 DUP3 DUP6 ADD PUSH2 0x43F1 JUMP JUMPDEST SWAP2 POP POP SWAP3 SWAP2 POP POP JUMP JUMPDEST PUSH1 0x0 PUSH1 0x40 DUP3 ADD SWAP1 POP PUSH2 0x4448 PUSH1 0x0 DUP4 ADD DUP6 PUSH2 0x389F JUMP JUMPDEST PUSH2 0x4455 PUSH1 0x20 DUP4 ADD DUP5 PUSH2 0x3738 JUMP JUMPDEST SWAP4 SWAP3 POP POP POP JUMP JUMPDEST PUSH1 0x0 DUP2 MLOAD SWAP1 POP PUSH2 0x446B DUP2 PUSH2 0x3D0B JUMP JUMPDEST SWAP3 SWAP2 POP POP JUMP JUMPDEST PUSH1 0x0 PUSH1 0x20 DUP3 DUP5 SUB SLT ISZERO PUSH2 0x4487 JUMPI PUSH2 0x4486 PUSH2 0x3669 JUMP JUMPDEST JUMPDEST PUSH1 0x0 PUSH2 0x4495 DUP5 DUP3 DUP6 ADD PUSH2 0x445C JUMP JUMPDEST SWAP2 POP POP SWAP3 SWAP2 POP POP JUMP JUMPDEST PUSH32 0x7800000000000000000000000000000000000000000000000000000000000000 PUSH1 0x0 DUP3 ADD MSTORE POP JUMP JUMPDEST PUSH1 0x0 PUSH2 0x44D4 PUSH1 0x1 DUP4 PUSH2 0x376D JUMP JUMPDEST SWAP2 POP PUSH2 0x44DF DUP3 PUSH2 0x449E JUMP JUMPDEST PUSH1 0x20 DUP3 ADD SWAP1 POP SWAP2 SWAP1 POP JUMP JUMPDEST PUSH1 0x0 PUSH1 0x20 DUP3 ADD SWAP1 POP DUP2 DUP2 SUB PUSH1 0x0 DUP4 ADD MSTORE PUSH2 0x4503 DUP2 PUSH2 0x44C7 JUMP JUMPDEST SWAP1 POP SWAP2 SWAP1 POP JUMP JUMPDEST PUSH1 0x0 DUP3 SWAP1 POP SWAP3 SWAP2 POP POP JUMP JUMPDEST PUSH1 0x0 DUP2 SWAP1 POP DUP2 PUSH1 0x0 MSTORE PUSH1 0x20 PUSH1 0x0 KECCAK256 SWAP1 POP SWAP2 SWAP1 POP JUMP JUMPDEST PUSH1 0x0 PUSH1 0x20 PUSH1 0x1F DUP4 ADD DIV SWAP1 POP SWAP2 SWAP1 POP JUMP JUMPDEST PUSH1 0x0 DUP3 DUP3 SHL SWAP1 POP SWAP3 SWAP2 POP POP JUMP JUMPDEST PUSH1 0x0 PUSH1 0x8 DUP4 MUL PUSH2 0x4577 PUSH32 0xFFFFFFFFFFFFFFFFFFFFFFFFFFFFFFFFFFFFFFFFFFFFFFFFFFFFFFFFFFFFFFFF DUP3 PUSH2 0x453A JUMP JUMPDEST PUSH2 0x4581 DUP7 DUP4 PUSH2 0x453A JUMP JUMPDEST SWAP6 POP DUP1 NOT DUP5 AND SWAP4 POP DUP1 DUP7 AND DUP5 OR SWAP3 POP POP POP SWAP4 SWAP3 POP POP POP JUMP JUMPDEST PUSH1 0x0 PUSH2 0x45B4 PUSH2 0x45AF PUSH2 0x45AA DUP5 PUSH2 0x372E JUMP JUMPDEST PUSH2 0x3A87 JUMP JUMPDEST PUSH2 0x372E JUMP JUMPDEST SWAP1 POP SWAP2 SWAP1 POP JUMP JUMPDEST PUSH1 0x0 DUP2 SWAP1 POP SWAP2 SWAP1 POP JUMP JUMPDEST PUSH2 0x45CE DUP4 PUSH2 0x4599 JUMP JUMPDEST PUSH2 0x45E2 PUSH2 0x45DA DUP3 PUSH2 0x45BB JUMP JUMPDEST DUP5 DUP5 SLOAD PUSH2 0x4547 JUMP JUMPDEST DUP3 SSTORE POP POP POP POP JUMP JUMPDEST PUSH1 0x0 SWAP1 JUMP JUMPDEST PUSH2 0x45F7 PUSH2 0x45EA JUMP JUMPDEST PUSH2 0x4602 DUP2 DUP5 DUP5 PUSH2 0x45C5 JUMP JUMPDEST POP POP POP JUMP JUMPDEST JUMPDEST DUP2 DUP2 LT ISZERO PUSH2 0x4626 JUMPI PUSH2 0x461B PUSH1 0x0 DUP3 PUSH2 0x45EF JUMP JUMPDEST PUSH1 0x1 DUP2 ADD SWAP1 POP PUSH2 0x4608 JUMP JUMPDEST POP POP JUMP JUMPDEST PUSH1 0x1F DUP3 GT ISZERO PUSH2 0x466B JUMPI PUSH2 0x463C DUP2 PUSH2 0x4515 JUMP JUMPDEST PUSH2 0x4645 DUP5 PUSH2 0x452A JUMP JUMPDEST DUP2 ADD PUSH1 0x20 DUP6 LT ISZERO PUSH2 0x4654 JUMPI DUP2 SWAP1 POP JUMPDEST PUSH2 0x4668 PUSH2 0x4660 DUP6 PUSH2 0x452A JUMP JUMPDEST DUP4 ADD DUP3 PUSH2 0x4607 JUMP JUMPDEST POP POP JUMPDEST POP POP POP JUMP JUMPDEST PUSH1 0x0 DUP3 DUP3 SHR SWAP1 POP SWAP3 SWAP2 POP POP JUMP JUMPDEST PUSH1 0x0 PUSH2 0x468E PUSH1 0x0 NOT DUP5 PUSH1 0x8 MUL PUSH2 0x4670 JUMP JUMPDEST NOT DUP1 DUP4 AND SWAP2 POP POP SWAP3 SWAP2 POP POP JUMP JUMPDEST PUSH1 0x0 PUSH2 0x46A7 DUP4 DUP4 PUSH2 0x467D JUMP JUMPDEST SWAP2 POP DUP3 PUSH1 0x2 MUL DUP3 OR SWAP1 POP SWAP3 SWAP2 POP POP JUMP JUMPDEST PUSH2 0x46C1 DUP4 DUP4 PUSH2 0x450A JUMP JUMPDEST PUSH8 0xFFFFFFFFFFFFFFFF DUP2 GT ISZERO PUSH2 0x46DA JUMPI PUSH2 0x46D9 PUSH2 0x3EB3 JUMP JUMPDEST JUMPDEST PUSH2 0x46E4 DUP3 SLOAD PUSH2 0x41E1 JUMP JUMPDEST PUSH2 0x46EF DUP3 DUP3 DUP6 PUSH2 0x462A JUMP JUMPDEST PUSH1 0x0 PUSH1 0x1F DUP4 GT PUSH1 0x1 DUP2 EQ PUSH2 0x471E JUMPI PUSH1 0x0 DUP5 ISZERO PUSH2 0x470C JUMPI DUP3 DUP8 ADD CALLDATALOAD SWAP1 POP JUMPDEST PUSH2 0x4716 DUP6 DUP3 PUSH2 0x469B JUMP JUMPDEST DUP7 SSTORE POP PUSH2 0x477E JUMP JUMPDEST PUSH1 0x1F NOT DUP5 AND PUSH2 0x472C DUP7 PUSH2 0x4515 JUMP JUMPDEST PUSH1 0x0 JUMPDEST DUP3 DUP2 LT ISZERO PUSH2 0x4754 JUMPI DUP5 DUP10 ADD CALLDATALOAD DUP3 SSTORE PUSH1 0x1 DUP3 ADD SWAP2 POP PUSH1 0x20 DUP6 ADD SWAP5 POP PUSH1 0x20 DUP2 ADD SWAP1 POP PUSH2 0x472F JUMP JUMPDEST DUP7 DUP4 LT ISZERO PUSH2 0x4771 JUMPI DUP5 DUP10 ADD CALLDATALOAD PUSH2 0x476D PUSH1 0x1F DUP10 AND DUP3 PUSH2 0x467D JUMP JUMPDEST DUP4 SSTORE POP JUMPDEST PUSH1 0x1 PUSH1 0x2 DUP9 MUL ADD DUP9 SSTORE POP POP POP JUMPDEST POP POP POP POP POP POP POP JUMP JUMPDEST PUSH32 0x4552433732313A20696E76616C696420746F6B656E2049440000000000000000 PUSH1 0x0 DUP3 ADD MSTORE POP JUMP JUMPDEST PUSH1 0x0 PUSH2 0x47BD PUSH1 0x18 DUP4 PUSH2 0x376D JUMP JUMPDEST SWAP2 POP PUSH2 0x47C8 DUP3 PUSH2 0x4787 JUMP JUMPDEST PUSH1 0x20 DUP3 ADD SWAP1 POP SWAP2 SWAP1 POP JUMP JUMPDEST PUSH1 0x0 PUSH1 0x20 DUP3 ADD SWAP1 POP DUP2 DUP2 SUB PUSH1 0x0 DUP4 ADD MSTORE PUSH2 0x47EC DUP2 PUSH2 0x47B0 JUMP JUMPDEST SWAP1 POP SWAP2 SWAP1 POP JUMP JUMPDEST PUSH32 0x4552433732313A2061646472657373207A65726F206973206E6F742061207661 PUSH1 0x0 DUP3 ADD MSTORE PUSH32 0x6C6964206F776E65720000000000000000000000000000000000000000000000 PUSH1 0x20 DUP3 ADD MSTORE POP JUMP JUMPDEST PUSH1 0x0 PUSH2 0x484F PUSH1 0x29 DUP4 PUSH2 0x376D JUMP JUMPDEST SWAP2 POP PUSH2 0x485A DUP3 PUSH2 0x47F3 JUMP JUMPDEST PUSH1 0x40 DUP3 ADD SWAP1 POP SWAP2 SWAP1 POP JUMP JUMPDEST PUSH1 0x0 PUSH1 0x20 DUP3 ADD SWAP1 POP DUP2 DUP2 SUB PUSH1 0x0 DUP4 ADD MSTORE PUSH2 0x487E DUP2 PUSH2 0x4842 JUMP JUMPDEST SWAP1 POP SWAP2 SWAP1 POP JUMP JUMPDEST PUSH32 0x2165786973747300000000000000000000000000000000000000000000000000 PUSH1 0x0 DUP3 ADD MSTORE POP JUMP JUMPDEST PUSH1 0x0 PUSH2 0x48BB PUSH1 0x7 DUP4 PUSH2 0x376D JUMP JUMPDEST SWAP2 POP PUSH2 0x48C6 DUP3 PUSH2 0x4885 JUMP JUMPDEST PUSH1 0x20 DUP3 ADD SWAP1 POP SWAP2 SWAP1 POP JUMP JUMPDEST PUSH1 0x0 PUSH1 0x20 DUP3 ADD SWAP1 POP DUP2 DUP2 SUB PUSH1 0x0 DUP4 ADD MSTORE PUSH2 0x48EA DUP2 PUSH2 0x48AE JUMP JUMPDEST SWAP1 POP SWAP2 SWAP1 POP JUMP JUMPDEST PUSH32 0x4D7573742062652070726F706F736564206F776E657200000000000000000000 PUSH1 0x0 DUP3 ADD MSTORE POP JUMP JUMPDEST PUSH1 0x0 PUSH2 0x4927 PUSH1 0x16 DUP4 PUSH2 0x376D JUMP JUMPDEST SWAP2 POP PUSH2 0x4932 DUP3 PUSH2 0x48F1 JUMP JUMPDEST PUSH1 0x20 DUP3 ADD SWAP1 POP SWAP2 SWAP1 POP JUMP JUMPDEST PUSH1 0x0 PUSH1 0x20 DUP3 ADD SWAP1 POP DUP2 DUP2 SUB PUSH1 0x0 DUP4 ADD MSTORE PUSH2 0x4956 DUP2 PUSH2 0x491A JUMP JUMPDEST SWAP1 POP SWAP2 SWAP1 POP JUMP JUMPDEST PUSH1 0x0 PUSH1 0x60 DUP3 ADD SWAP1 POP PUSH2 0x4972 PUSH1 0x0 DUP4 ADD DUP7 PUSH2 0x389F JUMP JUMPDEST PUSH2 0x497F PUSH1 0x20 DUP4 ADD DUP6 PUSH2 0x389F JUMP JUMPDEST PUSH2 0x498C PUSH1 0x40 DUP4 ADD DUP5 PUSH2 0x389F JUMP JUMPDEST SWAP5 SWAP4 POP POP POP POP JUMP JUMPDEST PUSH32 0x7174790000000000000000000000000000000000000000000000000000000000 PUSH1 0x0 DUP3 ADD MSTORE POP JUMP JUMPDEST PUSH1 0x0 PUSH2 0x49CA PUSH1 0x3 DUP4 PUSH2 0x376D JUMP JUMPDEST SWAP2 POP PUSH2 0x49D5 DUP3 PUSH2 0x4994 JUMP JUMPDEST PUSH1 0x20 DUP3 ADD SWAP1 POP SWAP2 SWAP1 POP JUMP JUMPDEST PUSH1 0x0 PUSH1 0x20 DUP3 ADD SWAP1 POP DUP2 DUP2 SUB PUSH1 0x0 DUP4 ADD MSTORE PUSH2 0x49F9 DUP2 PUSH2 0x49BD JUMP JUMPDEST SWAP1 POP SWAP2 SWAP1 POP JUMP JUMPDEST PUSH32 0x4E487B7100000000000000000000000000000000000000000000000000000000 PUSH1 0x0 MSTORE PUSH1 0x11 PUSH1 0x4 MSTORE PUSH1 0x24 PUSH1 0x0 REVERT JUMPDEST PUSH1 0x0 PUSH2 0x4A3A DUP3 PUSH2 0x372E JUMP JUMPDEST SWAP2 POP PUSH2 0x4A45 DUP4 PUSH2 0x372E JUMP JUMPDEST SWAP3 POP DUP3 DUP3 ADD SWAP1 POP DUP1 DUP3 GT ISZERO PUSH2 0x4A5D JUMPI PUSH2 0x4A5C PUSH2 0x4A00 JUMP JUMPDEST JUMPDEST SWAP3 SWAP2 POP POP JUMP JUMPDEST PUSH32 0x6361700000000000000000000000000000000000000000000000000000000000 PUSH1 0x0 DUP3 ADD MSTORE POP JUMP JUMPDEST PUSH1 0x0 PUSH2 0x4A99 PUSH1 0x3 DUP4 PUSH2 0x376D JUMP JUMPDEST SWAP2 POP PUSH2 0x4AA4 DUP3 PUSH2 0x4A63 JUMP JUMPDEST PUSH1 0x20 DUP3 ADD SWAP1 POP SWAP2 SWAP1 POP JUMP JUMPDEST PUSH1 0x0 PUSH1 0x20 DUP3 ADD SWAP1 POP DUP2 DUP2 SUB PUSH1 0x0 DUP4 ADD MSTORE PUSH2 0x4AC8 DUP2 PUSH2 0x4A8C JUMP JUMPDEST SWAP1 POP SWAP2 SWAP1 POP JUMP JUMPDEST PUSH1 0x0 PUSH2 0x4ADA DUP3 PUSH2 0x372E JUMP JUMPDEST SWAP2 POP PUSH2 0x4AE5 DUP4 PUSH2 0x372E JUMP JUMPDEST SWAP3 POP DUP3 DUP3 MUL PUSH2 0x4AF3 DUP2 PUSH2 0x372E JUMP JUMPDEST SWAP2 POP DUP3 DUP3 DIV DUP5 EQ DUP4 ISZERO OR PUSH2 0x4B0A JUMPI PUSH2 0x4B09 PUSH2 0x4A00 JUMP JUMPDEST JUMPDEST POP SWAP3 SWAP2 POP POP JUMP JUMPDEST PUSH1 0x0 PUSH1 0x60 DUP3 ADD SWAP1 POP PUSH2 0x4B26 PUSH1 0x0 DUP4 ADD DUP7 PUSH2 0x389F JUMP JUMPDEST PUSH2 0x4B33 PUSH1 0x20 DUP4 ADD DUP6 PUSH2 0x389F JUMP JUMPDEST PUSH2 0x4B40 PUSH1 0x40 DUP4 ADD DUP5 PUSH2 0x3738 JUMP JUMPDEST SWAP5 SWAP4 POP POP POP POP JUMP JUMPDEST PUSH32 0x7061790000000000000000000000000000000000000000000000000000000000 PUSH1 0x0 DUP3 ADD MSTORE POP JUMP JUMPDEST PUSH1 0x0 PUSH2 0x4B7E PUSH1 0x3 DUP4 PUSH2 0x376D JUMP JUMPDEST SWAP2 POP PUSH2 0x4B89 DUP3 PUSH2 0x4B48 JUMP JUMPDEST PUSH1 0x20 DUP3 ADD SWAP1 POP SWAP2 SWAP1 POP JUMP JUMPDEST PUSH1 0x0 PUSH1 0x20 DUP3 ADD SWAP1 POP DUP2 DUP2 SUB PUSH1 0x0 DUP4 ADD MSTORE PUSH2 0x4BAD DUP2 PUSH2 0x4B71 JUMP JUMPDEST SWAP1 POP SWAP2 SWAP1 POP JUMP JUMPDEST PUSH1 0x0 PUSH2 0x4BBF DUP3 PUSH2 0x372E JUMP JUMPDEST SWAP2 POP PUSH32 0xFFFFFFFFFFFFFFFFFFFFFFFFFFFFFFFFFFFFFFFFFFFFFFFFFFFFFFFFFFFFFFFF DUP3 SUB PUSH2 0x4BF1 JUMPI PUSH2 0x4BF0 PUSH2 0x4A00 JUMP JUMPDEST JUMPDEST PUSH1 0x1 DUP3 ADD SWAP1 POP SWAP2 SWAP1 POP JUMP JUMPDEST PUSH32 0x4E487B7100000000000000000000000000000000000000000000000000000000 PUSH1 0x0 MSTORE PUSH1 0x32 PUSH1 0x4 MSTORE PUSH1 0x24 PUSH1 0x0 REVERT JUMPDEST PUSH1 0x0 DUP2 SWAP1 POP SWAP3 SWAP2 POP POP JUMP JUMPDEST PUSH1 0x0 PUSH2 0x4C41 DUP3 PUSH2 0x3762 JUMP JUMPDEST PUSH2 0x4C4B DUP2 DUP6 PUSH2 0x4C2B JUMP JUMPDEST SWAP4 POP PUSH2 0x4C5B DUP2 DUP6 PUSH1 0x20 DUP7 ADD PUSH2 0x377E JUMP JUMPDEST DUP1 DUP5 ADD SWAP2 POP POP SWAP3 SWAP2 POP POP JUMP JUMPDEST PUSH1 0x0 PUSH2 0x4C73 DUP3 DUP6 PUSH2 0x4C36 JUMP JUMPDEST SWAP2 POP PUSH2 0x4C7F DUP3 DUP5 PUSH2 0x4C36 JUMP JUMPDEST SWAP2 POP DUP2 SWAP1 POP SWAP4 SWAP3 POP POP POP JUMP JUMPDEST PUSH32 0x4E487B7100000000000000000000000000000000000000000000000000000000 PUSH1 0x0 MSTORE PUSH1 0x12 PUSH1 0x4 MSTORE PUSH1 0x24 PUSH1 0x0 REVERT JUMPDEST PUSH1 0x0 PUSH2 0x4CC5 DUP3 PUSH2 0x372E JUMP JUMPDEST SWAP2 POP PUSH2 0x4CD0 DUP4 PUSH2 0x372E JUMP JUMPDEST SWAP3 POP DUP3 PUSH2 0x4CE0 JUMPI PUSH2 0x4CDF PUSH2 0x4C8B JUMP JUMPDEST JUMPDEST DUP3 DUP3 DIV SWAP1 POP SWAP3 SWAP2 POP POP JUMP JUMPDEST PUSH32 0x6761746500000000000000000000000000000000000000000000000000000000 PUSH1 0x0 DUP3 ADD MSTORE POP JUMP JUMPDEST PUSH1 0x0 PUSH2 0x4D21 PUSH1 0x4 DUP4 PUSH2 0x376D JUMP JUMPDEST SWAP2 POP PUSH2 0x4D2C DUP3 PUSH2 0x4CEB JUMP JUMPDEST PUSH1 0x20 DUP3 ADD SWAP1 POP SWAP2 SWAP1 POP JUMP JUMPDEST PUSH1 0x0 PUSH1 0x20 DUP3 ADD SWAP1 POP DUP2 DUP2 SUB PUSH1 0x0 DUP4 ADD MSTORE PUSH2 0x4D50 DUP2 PUSH2 0x4D14 JUMP JUMPDEST SWAP1 POP SWAP2 SWAP1 POP JUMP JUMPDEST PUSH32 0x7063740000000000000000000000000000000000000000000000000000000000 PUSH1 0x0 DUP3 ADD MSTORE POP JUMP JUMPDEST PUSH1 0x0 PUSH2 0x4D8D PUSH1 0x3 DUP4 PUSH2 0x376D JUMP JUMPDEST SWAP2 POP PUSH2 0x4D98 DUP3 PUSH2 0x4D57 JUMP JUMPDEST PUSH1 0x20 DUP3 ADD SWAP1 POP SWAP2 SWAP1 POP JUMP JUMPDEST PUSH1 0x0 PUSH1 0x20 DUP3 ADD SWAP1 POP DUP2 DUP2 SUB PUSH1 0x0 DUP4 ADD MSTORE PUSH2 0x4DBC DUP2 PUSH2 0x4D80 JUMP JUMPDEST SWAP1 POP SWAP2 SWAP1 POP JUMP JUMPDEST PUSH32 0x6E6F2D6964730000000000000000000000000000000000000000000000000000 PUSH1 0x0 DUP3 ADD MSTORE POP JUMP JUMPDEST PUSH1 0x0 PUSH2 0x4DF9 PUSH1 0x6 DUP4 PUSH2 0x376D JUMP JUMPDEST SWAP2 POP PUSH2 0x4E04 DUP3 PUSH2 0x4DC3 JUMP JUMPDEST PUSH1 0x20 DUP3 ADD SWAP1 POP SWAP2 SWAP1 POP JUMP JUMPDEST PUSH1 0x0 PUSH1 0x20 DUP3 ADD SWAP1 POP DUP2 DUP2 SUB PUSH1 0x0 DUP4 ADD MSTORE PUSH2 0x4E28 DUP2 PUSH2 0x4DEC JUMP JUMPDEST SWAP1 POP SWAP2 SWAP1 POP JUMP JUMPDEST PUSH32 0x4552433732313A207472616E736665722066726F6D20696E636F727265637420 PUSH1 0x0 DUP3 ADD MSTORE PUSH32 0x6F776E6572000000000000000000000000000000000000000000000000000000 PUSH1 0x20 DUP3 ADD MSTORE POP JUMP JUMPDEST PUSH1 0x0 PUSH2 0x4E8B PUSH1 0x25 DUP4 PUSH2 0x376D JUMP JUMPDEST SWAP2 POP PUSH2 0x4E96 DUP3 PUSH2 0x4E2F JUMP JUMPDEST PUSH1 0x40 DUP3 ADD SWAP1 POP SWAP2 SWAP1 POP JUMP JUMPDEST PUSH1 0x0 PUSH1 0x20 DUP3 ADD SWAP1 POP DUP2 DUP2 SUB PUSH1 0x0 DUP4 ADD MSTORE PUSH2 0x4EBA DUP2 PUSH2 0x4E7E JUMP JUMPDEST SWAP1 POP SWAP2 SWAP1 POP JUMP JUMPDEST PUSH32 0x4552433732313A207472616E7366657220746F20746865207A65726F20616464 PUSH1 0x0 DUP3 ADD MSTORE PUSH32 0x7265737300000000000000000000000000000000000000000000000000000000 PUSH1 0x20 DUP3 ADD MSTORE POP JUMP JUMPDEST PUSH1 0x0 PUSH2 0x4F1D PUSH1 0x24 DUP4 PUSH2 0x376D JUMP JUMPDEST SWAP2 POP PUSH2 0x4F28 DUP3 PUSH2 0x4EC1 JUMP JUMPDEST PUSH1 0x40 DUP3 ADD SWAP1 POP SWAP2 SWAP1 POP JUMP JUMPDEST PUSH1 0x0 PUSH1 0x20 DUP3 ADD SWAP1 POP DUP2 DUP2 SUB PUSH1 0x0 DUP4 ADD MSTORE PUSH2 0x4F4C DUP2 PUSH2 0x4F10 JUMP JUMPDEST SWAP1 POP SWAP2 SWAP1 POP JUMP JUMPDEST PUSH32 0x4F6E6C792063616C6C61626C65206279206F776E657200000000000000000000 PUSH1 0x0 DUP3 ADD MSTORE POP JUMP JUMPDEST PUSH1 0x0 PUSH2 0x4F89 PUSH1 0x16 DUP4 PUSH2 0x376D JUMP JUMPDEST SWAP2 POP PUSH2 0x4F94 DUP3 PUSH2 0x4F53 JUMP JUMPDEST PUSH1 0x20 DUP3 ADD SWAP1 POP SWAP2 SWAP1 POP JUMP JUMPDEST PUSH1 0x0 PUSH1 0x20 DUP3 ADD SWAP1 POP DUP2 DUP2 SUB PUSH1 0x0 DUP4 ADD MSTORE PUSH2 0x4FB8 DUP2 PUSH2 0x4F7C JUMP JUMPDEST SWAP1 POP SWAP2 SWAP1 POP JUMP JUMPDEST PUSH32 0x5265656E7472616E637947756172643A207265656E7472616E742063616C6C00 PUSH1 0x0 DUP3 ADD MSTORE POP JUMP JUMPDEST PUSH1 0x0 PUSH2 0x4FF5 PUSH1 0x1F DUP4 PUSH2 0x376D JUMP JUMPDEST SWAP2 POP PUSH2 0x5000 DUP3 PUSH2 0x4FBF JUMP JUMPDEST PUSH1 0x20 DUP3 ADD SWAP1 POP SWAP2 SWAP1 POP JUMP JUMPDEST PUSH1 0x0 PUSH1 0x20 DUP3 ADD SWAP1 POP DUP2 DUP2 SUB PUSH1 0x0 DUP4 ADD MSTORE PUSH2 0x5024 DUP2 PUSH2 0x4FE8 JUMP JUMPDEST SWAP1 POP SWAP2 SWAP1 POP JUMP JUMPDEST PUSH32 0x7672660000000000000000000000000000000000000000000000000000000000 PUSH1 0x0 DUP3 ADD MSTORE POP JUMP JUMPDEST PUSH1 0x0 PUSH2 0x5061 PUSH1 0x3 DUP4 PUSH2 0x376D JUMP JUMPDEST SWAP2 POP PUSH2 0x506C DUP3 PUSH2 0x502B JUMP JUMPDEST PUSH1 0x20 DUP3 ADD SWAP1 POP SWAP2 SWAP1 POP JUMP JUMPDEST PUSH1 0x0 PUSH1 0x20 DUP3 ADD SWAP1 POP DUP2 DUP2 SUB PUSH1 0x0 DUP4 ADD MSTORE PUSH2 0x5090 DUP2 PUSH2 0x5054 JUMP JUMPDEST SWAP1 POP SWAP2 SWAP1 POP JUMP JUMPDEST PUSH2 0x50A0 DUP2 PUSH2 0x3C0D JUMP JUMPDEST DUP3 MSTORE POP POP JUMP JUMPDEST PUSH2 0x50AF DUP2 PUSH2 0x372E JUMP JUMPDEST DUP3 MSTORE POP POP JUMP JUMPDEST PUSH2 0x50BE DUP2 PUSH2 0x3DCF JUMP JUMPDEST DUP3 MSTORE POP POP JUMP JUMPDEST PUSH2 0x50CD DUP2 PUSH2 0x3A4D JUMP JUMPDEST DUP3 MSTORE POP POP JUMP JUMPDEST PUSH1 0x0 DUP2 MLOAD SWAP1 POP SWAP2 SWAP1 POP JUMP JUMPDEST PUSH1 0x0 DUP3 DUP3 MSTORE PUSH1 0x20 DUP3 ADD SWAP1 POP SWAP3 SWAP2 POP POP JUMP JUMPDEST PUSH1 0x0 PUSH2 0x50FA DUP3 PUSH2 0x50D3 JUMP JUMPDEST PUSH2 0x5104 DUP2 DUP6 PUSH2 0x50DE JUMP JUMPDEST SWAP4 POP PUSH2 0x5114 DUP2 DUP6 PUSH1 0x20 DUP7 ADD PUSH2 0x377E JUMP JUMPDEST PUSH2 0x511D DUP2 PUSH2 0x37A8 JUMP JUMPDEST DUP5 ADD SWAP2 POP POP SWAP3 SWAP2 POP POP JUMP JUMPDEST PUSH1 0x0 PUSH1 0xC0 DUP4 ADD PUSH1 0x0 DUP4 ADD MLOAD PUSH2 0x5140 PUSH1 0x0 DUP7 ADD DUP3 PUSH2 0x5097 JUMP JUMPDEST POP PUSH1 0x20 DUP4 ADD MLOAD PUSH2 0x5153 PUSH1 0x20 DUP7 ADD DUP3 PUSH2 0x50A6 JUMP JUMPDEST POP PUSH1 0x40 DUP4 ADD MLOAD PUSH2 0x5166 PUSH1 0x40 DUP7 ADD DUP3 PUSH2 0x50B5 JUMP JUMPDEST POP PUSH1 0x60 DUP4 ADD MLOAD PUSH2 0x5179 PUSH1 0x60 DUP7 ADD DUP3 PUSH2 0x50C4 JUMP JUMPDEST POP PUSH1 0x80 DUP4 ADD MLOAD PUSH2 0x518C PUSH1 0x80 DUP7 ADD DUP3 PUSH2 0x50C4 JUMP JUMPDEST POP PUSH1 0xA0 DUP4 ADD MLOAD DUP5 DUP3 SUB PUSH1 0xA0 DUP7 ADD MSTORE PUSH2 0x51A4 DUP3 DUP3 PUSH2 0x50EF JUMP JUMPDEST SWAP2 POP POP DUP1 SWAP2 POP POP SWAP3 SWAP2 POP POP JUMP JUMPDEST PUSH1 0x0 PUSH1 0x20 DUP3 ADD SWAP1 POP DUP2 DUP2 SUB PUSH1 0x0 DUP4 ADD MSTORE PUSH2 0x51CB DUP2 DUP5 PUSH2 0x5128 JUMP JUMPDEST SWAP1 POP SWAP3 SWAP2 POP POP JUMP JUMPDEST PUSH32 0x4552433732313A20617070726F766520746F2063616C6C657200000000000000 PUSH1 0x0 DUP3 ADD MSTORE POP JUMP JUMPDEST PUSH1 0x0 PUSH2 0x5209 PUSH1 0x19 DUP4 PUSH2 0x376D JUMP JUMPDEST SWAP2 POP PUSH2 0x5214 DUP3 PUSH2 0x51D3 JUMP JUMPDEST PUSH1 0x20 DUP3 ADD SWAP1 POP SWAP2 SWAP1 POP JUMP JUMPDEST PUSH1 0x0 PUSH1 0x20 DUP3 ADD SWAP1 POP DUP2 DUP2 SUB PUSH1 0x0 DUP4 ADD MSTORE PUSH2 0x5238 DUP2 PUSH2 0x51FC JUMP JUMPDEST SWAP1 POP SWAP2 SWAP1 POP JUMP JUMPDEST PUSH32 0x4552433732313A207472616E7366657220746F206E6F6E204552433732315265 PUSH1 0x0 DUP3 ADD MSTORE PUSH32 0x63656976657220696D706C656D656E7465720000000000000000000000000000 PUSH1 0x20 DUP3 ADD MSTORE POP JUMP JUMPDEST PUSH1 0x0 PUSH2 0x529B PUSH1 0x32 DUP4 PUSH2 0x376D JUMP JUMPDEST SWAP2 POP PUSH2 0x52A6 DUP3 PUSH2 0x523F JUMP JUMPDEST PUSH1 0x40 DUP3 ADD SWAP1 POP SWAP2 SWAP1 POP JUMP JUMPDEST PUSH1 0x0 PUSH1 0x20 DUP3 ADD SWAP1 POP DUP2 DUP2 SUB PUSH1 0x0 DUP4 ADD MSTORE PUSH2 0x52CA DUP2 PUSH2 0x528E JUMP JUMPDEST SWAP1 POP SWAP2 SWAP1 POP JUMP JUMPDEST PUSH32 0x6F776E6572000000000000000000000000000000000000000000000000000000 PUSH1 0x0 DUP3 ADD MSTORE POP JUMP JUMPDEST PUSH1 0x0 PUSH2 0x5307 PUSH1 0x5 DUP4 PUSH2 0x376D JUMP JUMPDEST SWAP2 POP PUSH2 0x5312 DUP3 PUSH2 0x52D1 JUMP JUMPDEST PUSH1 0x20 DUP3 ADD SWAP1 POP SWAP2 SWAP1 POP JUMP JUMPDEST PUSH1 0x0 PUSH1 0x20 DUP3 ADD SWAP1 POP DUP2 DUP2 SUB PUSH1 0x0 DUP4 ADD MSTORE PUSH2 0x5336 DUP2 PUSH2 0x52FA JUMP JUMPDEST SWAP1 POP SWAP2 SWAP1 POP JUMP JUMPDEST PUSH32 0x6C6567656E646172790000000000000000000000000000000000000000000000 PUSH1 0x0 DUP3 ADD MSTORE POP JUMP JUMPDEST PUSH1 0x0 PUSH2 0x5373 PUSH1 0x9 DUP4 PUSH2 0x376D JUMP JUMPDEST SWAP2 POP PUSH2 0x537E DUP3 PUSH2 0x533D JUMP JUMPDEST PUSH1 0x20 DUP3 ADD SWAP1 POP SWAP2 SWAP1 POP JUMP JUMPDEST PUSH1 0x0 PUSH1 0x20 DUP3 ADD SWAP1 POP DUP2 DUP2 SUB PUSH1 0x0 DUP4 ADD MSTORE PUSH2 0x53A2 DUP2 PUSH2 0x5366 JUMP JUMPDEST SWAP1 POP SWAP2 SWAP1 POP JUMP JUMPDEST PUSH1 0x0 PUSH2 0x53B4 DUP3 PUSH2 0x372E JUMP JUMPDEST SWAP2 POP PUSH2 0x53BF DUP4 PUSH2 0x372E JUMP JUMPDEST SWAP3 POP DUP3 DUP3 SUB SWAP1 POP DUP2 DUP2 GT ISZERO PUSH2 0x53D7 JUMPI PUSH2 0x53D6 PUSH2 0x4A00 JUMP JUMPDEST JUMPDEST SWAP3 SWAP2 POP POP JUMP JUMPDEST PUSH32 0x6E65656431000000000000000000000000000000000000000000000000000000 PUSH1 0x0 DUP3 ADD MSTORE POP JUMP JUMPDEST PUSH1 0x0 PUSH2 0x5413 PUSH1 0x5 DUP4 PUSH2 0x376D JUMP JUMPDEST SWAP2 POP PUSH2 0x541E DUP3 PUSH2 0x53DD JUMP JUMPDEST PUSH1 0x20 DUP3 ADD SWAP1 POP SWAP2 SWAP1 POP JUMP JUMPDEST PUSH1 0x0 PUSH1 0x20 DUP3 ADD SWAP1 POP DUP2 DUP2 SUB PUSH1 0x0 DUP4 ADD MSTORE PUSH2 0x5442 DUP2 PUSH2 0x5406 JUMP JUMPDEST SWAP1 POP SWAP2 SWAP1 POP JUMP JUMPDEST PUSH32 0x636F6D6D6F6E0000000000000000000000000000000000000000000000000000 PUSH1 0x0 DUP3 ADD MSTORE POP JUMP JUMPDEST PUSH1 0x0 PUSH2 0x547F PUSH1 0x6 DUP4 PUSH2 0x376D JUMP JUMPDEST SWAP2 POP PUSH2 0x548A DUP3 PUSH2 0x5449 JUMP JUMPDEST PUSH1 0x20 DUP3 ADD SWAP1 POP SWAP2 SWAP1 POP JUMP JUMPDEST PUSH1 0x0 PUSH1 0x20 DUP3 ADD SWAP1 POP DUP2 DUP2 SUB PUSH1 0x0 DUP4 ADD MSTORE PUSH2 0x54AE DUP2 PUSH2 0x5472 JUMP JUMPDEST SWAP1 POP SWAP2 SWAP1 POP JUMP JUMPDEST PUSH32 0x6E65656435000000000000000000000000000000000000000000000000000000 PUSH1 0x0 DUP3 ADD MSTORE POP JUMP JUMPDEST PUSH1 0x0 PUSH2 0x54EB PUSH1 0x5 DUP4 PUSH2 0x376D JUMP JUMPDEST SWAP2 POP PUSH2 0x54F6 DUP3 PUSH2 0x54B5 JUMP JUMPDEST PUSH1 0x20 DUP3 ADD SWAP1 POP SWAP2 SWAP1 POP JUMP JUMPDEST PUSH1 0x0 PUSH1 0x20 DUP3 ADD SWAP1 POP DUP2 DUP2 SUB PUSH1 0x0 DUP4 ADD MSTORE PUSH2 0x551A DUP2 PUSH2 0x54DE JUMP JUMPDEST SWAP1 POP SWAP2 SWAP1 POP JUMP JUMPDEST DUP3 DUP2 DUP4 CALLDATACOPY POP POP POP JUMP JUMPDEST PUSH2 0x5537 PUSH2 0xC80 DUP4 DUP4 PUSH2 0x5521 JUMP JUMPDEST POP POP JUMP JUMPDEST PUSH1 0x0 PUSH2 0x5547 DUP3 DUP5 PUSH2 0x552A JUMP JUMPDEST PUSH2 0xC80 DUP3 ADD SWAP2 POP DUP2 SWAP1 POP SWAP3 SWAP2 POP POP JUMP JUMPDEST PUSH1 0x0 PUSH2 0x5562 DUP3 PUSH2 0x372E JUMP JUMPDEST SWAP2 POP PUSH2 0x556D DUP4 PUSH2 0x372E JUMP JUMPDEST SWAP3 POP DUP3 PUSH2 0x557D JUMPI PUSH2 0x557C PUSH2 0x4C8B JUMP JUMPDEST JUMPDEST DUP3 DUP3 MOD SWAP1 POP SWAP3 SWAP2 POP POP JUMP JUMPDEST PUSH32 0x43616E6E6F74207472616E7366657220746F2073656C66000000000000000000 PUSH1 0x0 DUP3 ADD MSTORE POP JUMP JUMPDEST PUSH1 0x0 PUSH2 0x55BE PUSH1 0x17 DUP4 PUSH2 0x376D JUMP JUMPDEST SWAP2 POP PUSH2 0x55C9 DUP3 PUSH2 0x5588 JUMP JUMPDEST PUSH1 0x20 DUP3 ADD SWAP1 POP SWAP2 SWAP1 POP JUMP JUMPDEST PUSH1 0x0 PUSH1 0x20 DUP3 ADD SWAP1 POP DUP2 DUP2 SUB PUSH1 0x0 DUP4 ADD MSTORE PUSH2 0x55ED DUP2 PUSH2 0x55B1 JUMP JUMPDEST SWAP1 POP SWAP2 SWAP1 POP JUMP JUMPDEST PUSH1 0x0 DUP2 SWAP1 POP SWAP2 SWAP1 POP JUMP JUMPDEST PUSH2 0x560F PUSH2 0x560A DUP3 PUSH2 0x372E JUMP JUMPDEST PUSH2 0x55F4 JUMP JUMPDEST DUP3 MSTORE POP POP JUMP JUMPDEST PUSH1 0x0 PUSH2 0x5621 DUP3 DUP6 PUSH2 0x55FE JUMP JUMPDEST PUSH1 0x20 DUP3 ADD SWAP2 POP PUSH2 0x5631 DUP3 DUP5 PUSH2 0x55FE JUMP JUMPDEST PUSH1 0x20 DUP3 ADD SWAP2 POP DUP2 SWAP1 POP SWAP4 SWAP3 POP POP POP JUMP JUMPDEST PUSH2 0x564A DUP2 PUSH2 0x36F8 JUMP JUMPDEST DUP3 MSTORE POP POP JUMP JUMPDEST PUSH1 0x20 DUP3 ADD PUSH1 0x0 DUP3 ADD MLOAD PUSH2 0x5666 PUSH1 0x0 DUP6 ADD DUP3 PUSH2 0x5641 JUMP JUMPDEST POP POP POP POP JUMP JUMPDEST PUSH1 0x0 PUSH1 0x20 DUP3 ADD SWAP1 POP PUSH2 0x5681 PUSH1 0x0 DUP4 ADD DUP5 PUSH2 0x5650 JUMP JUMPDEST SWAP3 SWAP2 POP POP JUMP JUMPDEST PUSH1 0x0 DUP3 DUP3 MSTORE PUSH1 0x20 DUP3 ADD SWAP1 POP SWAP3 SWAP2 POP POP JUMP JUMPDEST PUSH1 0x0 PUSH2 0x56A3 DUP3 PUSH2 0x50D3 JUMP JUMPDEST PUSH2 0x56AD DUP2 DUP6 PUSH2 0x5687 JUMP JUMPDEST SWAP4 POP PUSH2 0x56BD DUP2 DUP6 PUSH1 0x20 DUP7 ADD PUSH2 0x377E JUMP JUMPDEST PUSH2 0x56C6 DUP2 PUSH2 0x37A8 JUMP JUMPDEST DUP5 ADD SWAP2 POP POP SWAP3 SWAP2 POP POP JUMP JUMPDEST PUSH1 0x0 PUSH1 0x80 DUP3 ADD SWAP1 POP PUSH2 0x56E6 PUSH1 0x0 DUP4 ADD DUP8 PUSH2 0x389F JUMP JUMPDEST PUSH2 0x56F3 PUSH1 0x20 DUP4 ADD DUP7 PUSH2 0x389F JUMP JUMPDEST PUSH2 0x5700 PUSH1 0x40 DUP4 ADD DUP6 PUSH2 0x3738 JUMP JUMPDEST DUP2 DUP2 SUB PUSH1 0x60 DUP4 ADD MSTORE PUSH2 0x5712 DUP2 DUP5 PUSH2 0x5698 JUMP JUMPDEST SWAP1 POP SWAP6 SWAP5 POP POP POP POP POP JUMP JUMPDEST PUSH1 0x0 DUP2 MLOAD SWAP1 POP PUSH2 0x572C DUP2 PUSH2 0x369F JUMP JUMPDEST SWAP3 SWAP2 POP POP JUMP JUMPDEST PUSH1 0x0 PUSH1 0x20 DUP3 DUP5 SUB SLT ISZERO PUSH2 0x5748 JUMPI PUSH2 0x5747 PUSH2 0x3669 JUMP JUMPDEST JUMPDEST PUSH1 0x0 PUSH2 0x5756 DUP5 DUP3 DUP6 ADD PUSH2 0x571D JUMP JUMPDEST SWAP2 POP POP SWAP3 SWAP2 POP POP JUMP JUMPDEST PUSH32 0x4552433732313A206D696E7420746F20746865207A65726F2061646472657373 PUSH1 0x0 DUP3 ADD MSTORE POP JUMP JUMPDEST PUSH1 0x0 PUSH2 0x5795 PUSH1 0x20 DUP4 PUSH2 0x376D JUMP JUMPDEST SWAP2 POP PUSH2 0x57A0 DUP3 PUSH2 0x575F JUMP JUMPDEST PUSH1 0x20 DUP3 ADD SWAP1 POP SWAP2 SWAP1 POP JUMP JUMPDEST PUSH1 0x0 PUSH1 0x20 DUP3 ADD SWAP1 POP DUP2 DUP2 SUB PUSH1 0x0 DUP4 ADD MSTORE PUSH2 0x57C4 DUP2 PUSH2 0x5788 JUMP JUMPDEST SWAP1 POP SWAP2 SWAP1 POP JUMP JUMPDEST PUSH32 0x4552433732313A20746F6B656E20616C7265616479206D696E74656400000000 PUSH1 0x0 DUP3 ADD MSTORE POP JUMP JUMPDEST PUSH1 0x0 PUSH2 0x5801 PUSH1 0x1C DUP4 PUSH2 0x376D JUMP JUMPDEST SWAP2 POP PUSH2 0x580C DUP3 PUSH2 0x57CB JUMP JUMPDEST PUSH1 0x20 DUP3 ADD SWAP1 POP SWAP2 SWAP1 POP JUMP JUMPDEST PUSH1 0x0 PUSH1 0x20 DUP3 ADD SWAP1 POP DUP2 DUP2 SUB PUSH1 0x0 DUP4 ADD MSTORE PUSH2 0x5830 DUP2 PUSH2 0x57F4 JUMP JUMPDEST SWAP1 POP SWAP2 SWAP1 POP JUMP INVALID LOG2 PUSH5 0x6970667358 0x22 SLT KECCAK256 0xCD PUSH9 0xFBB0CAB620F80FD1A PUSH32 0x6ED77621CCCF8768FE820438DA42D0087F2320DD64736F6C6343000814003300 "},"methodIdentifiers":{"COMMON_VARIANTS()":"1ac39bfd","COORDINATOR()":"3b2bcbf1","LEGENDARY_OFFSET()":"2d90ed6d","MAX_COMMON_SUPPLY()":"a78f06b5","acceptOwnership()":"79ba5097","approve(address,uint256)":"095ea7b3","balanceOf(address)":"70a08231","burnCollection1(uint256[100],address,bytes)":"f2f2ef2b","burnCollection2(uint256[20],uint256,address)":"e1b60f89","callbackGasLimit()":"24f74697","commonMinted()":"66435c06","count()":"06661abd","getApproved(uint256)":"081812fc","getVariant(uint256)":"74e1ee41","isApprovedForAll(address,address)":"e985e9c5","jackpotMintPercent()":"f5a618b0","keyHash()":"61728f39","mint(address,uint256,bytes)":"94d008ef","name()":"06fdde03","numWords()":"7ccfd7fc","owner()":"8da5cb5b","ownerOf(uint256)":"6352211e","paymentToken()":"3013ce29","price()":"a035b1fe","rawFulfillRandomWords(uint256,uint256[])":"1fe543e3","requestConfirmations()":"b0fb162f","s_vrfCoordinator()":"9eccacf6","safeTransferFrom(address,address,uint256)":"42842e0e","safeTransferFrom(address,address,uint256,bytes)":"b88d4fde","setApprovalForAll(address,bool)":"a22cb465","setBaseURI(string)":"55f804b3","setCoordinator(address)":"8ea98117","setJackpotMintPercent(uint256)":"fc831051","setPrice(uint256)":"91b7f5ed","setVRFConfigV25(address,bytes32,uint256,uint32,uint16)":"b05e9771","subscriptionId()":"09c1ba2e","supportsInterface(bytes4)":"01ffc9a7","symbol()":"95d89b41","tokenURI(uint256)":"c87b56dd","totalSupply()":"18160ddd","transferFrom(address,address,uint256)":"23b872dd","transferOwnership(address)":"f2fde38b","withdraw(address)":"51cff8d9"}}}}}