{
  "_format": "hh-sol-artifact-1",
  "contractName": "GashaponV2",
  "sourceName": "contracts/GashaponV2.sol",
  "abi": [
    {
      "inputs": [
        {
          "internalType": "address",
          "name": "paymentToken_",
          "type": "address"
        },
        {
          "internalType": "uint256",
          "name": "price_",
          "type": "uint256"
        },
        {
          "internalType": "string",
          "name": "baseURI_",
          "type": "string"
        },
        {
          "internalType": "address",
          "name": "coordinator_",
          "type": "address"
        }
      ],
      "stateMutability": "nonpayable",
      "type": "constructor"
    },
    {
      "inputs": [
        {
          "internalType": "address",
          "name": "have",
          "type": "address"
        },
        {
          "internalType": "address",
          "name": "want",
          "type": "address"
        }
      ],
      "name": "OnlyCoordinatorCanFulfill",
      "type": "error"
    },
    {
      "inputs": [
        {
          "internalType": "address",
          "name": "have",
          "type": "address"
        },
        {
          "internalType": "address",
          "name": "owner",
          "type": "address"
        },
        {
          "internalType": "address",
          "name": "coordinator",
          "type": "address"
        }
      ],
      "name": "OnlyOwnerOrCoordinator",
      "type": "error"
    },
    {
      "inputs": [],
      "name": "ZeroAddress",
      "type": "error"
    },
    {
      "anonymous": false,
      "inputs": [
        {
          "indexed": true,
          "internalType": "address",
          "name": "owner",
          "type": "address"
        },
        {
          "indexed": true,
          "internalType": "address",
          "name": "approved",
          "type": "address"
        },
        {
          "indexed": true,
          "internalType": "uint256",
          "name": "tokenId",
          "type": "uint256"
        }
      ],
      "name": "Approval",
      "type": "event"
    },
    {
      "anonymous": false,
      "inputs": [
        {
          "indexed": true,
          "internalType": "address",
          "name": "owner",
          "type": "address"
        },
        {
          "indexed": true,
          "internalType": "address",
          "name": "operator",
          "type": "address"
        },
        {
          "indexed": false,
          "internalType": "bool",
          "name": "approved",
          "type": "bool"
        }
      ],
      "name": "ApprovalForAll",
      "type": "event"
    },
    {
      "anonymous": false,
      "inputs": [
        {
          "indexed": false,
          "internalType": "address",
          "name": "vrfCoordinator",
          "type": "address"
        }
      ],
      "name": "CoordinatorSet",
      "type": "event"
    },
    {
      "anonymous": false,
      "inputs": [
        {
          "indexed": true,
          "internalType": "address",
          "name": "from",
          "type": "address"
        },
        {
          "indexed": true,
          "internalType": "address",
          "name": "to",
          "type": "address"
        }
      ],
      "name": "OwnershipTransferRequested",
      "type": "event"
    },
    {
      "anonymous": false,
      "inputs": [
        {
          "indexed": true,
          "internalType": "address",
          "name": "from",
          "type": "address"
        },
        {
          "indexed": true,
          "internalType": "address",
          "name": "to",
          "type": "address"
        }
      ],
      "name": "OwnershipTransferred",
      "type": "event"
    },
    {
      "anonymous": false,
      "inputs": [
        {
          "indexed": true,
          "internalType": "address",
          "name": "from",
          "type": "address"
        },
        {
          "indexed": true,
          "internalType": "address",
          "name": "to",
          "type": "address"
        },
        {
          "indexed": true,
          "internalType": "uint256",
          "name": "tokenId",
          "type": "uint256"
        }
      ],
      "name": "Transfer",
      "type": "event"
    },
    {
      "inputs": [],
      "name": "COMMON_VARIANTS",
      "outputs": [
        {
          "internalType": "uint256",
          "name": "",
          "type": "uint256"
        }
      ],
      "stateMutability": "view",
      "type": "function"
    },
    {
      "inputs": [],
      "name": "COORDINATOR",
      "outputs": [
        {
          "internalType": "contract IVRFCoordinatorV2Plus",
          "name": "",
          "type": "address"
        }
      ],
      "stateMutability": "view",
      "type": "function"
    },
    {
      "inputs": [],
      "name": "LEGENDARY_OFFSET",
      "outputs": [
        {
          "internalType": "uint256",
          "name": "",
          "type": "uint256"
        }
      ],
      "stateMutability": "view",
      "type": "function"
    },
    {
      "inputs": [],
      "name": "MAX_COMMON_SUPPLY",
      "outputs": [
        {
          "internalType": "uint256",
          "name": "",
          "type": "uint256"
        }
      ],
      "stateMutability": "view",
      "type": "function"
    },
    {
      "inputs": [],
      "name": "acceptOwnership",
      "outputs": [],
      "stateMutability": "nonpayable",
      "type": "function"
    },
    {
      "inputs": [
        {
          "internalType": "address",
          "name": "to",
          "type": "address"
        },
        {
          "internalType": "uint256",
          "name": "tokenId",
          "type": "uint256"
        }
      ],
      "name": "approve",
      "outputs": [],
      "stateMutability": "nonpayable",
      "type": "function"
    },
    {
      "inputs": [
        {
          "internalType": "address",
          "name": "owner",
          "type": "address"
        }
      ],
      "name": "balanceOf",
      "outputs": [
        {
          "internalType": "uint256",
          "name": "",
          "type": "uint256"
        }
      ],
      "stateMutability": "view",
      "type": "function"
    },
    {
      "inputs": [
        {
          "internalType": "uint256[100]",
          "name": "tokens",
          "type": "uint256[100]"
        },
        {
          "internalType": "address",
          "name": "rewardsReceiver",
          "type": "address"
        },
        {
          "internalType": "bytes",
          "name": "",
          "type": "bytes"
        }
      ],
      "name": "burnCollection1",
      "outputs": [],
      "stateMutability": "nonpayable",
      "type": "function"
    },
    {
      "inputs": [
        {
          "internalType": "uint256[20]",
          "name": "tokens",
          "type": "uint256[20]"
        },
        {
          "internalType": "uint256",
          "name": "",
          "type": "uint256"
        },
        {
          "internalType": "address",
          "name": "rewardsReceiver",
          "type": "address"
        }
      ],
      "name": "burnCollection2",
      "outputs": [],
      "stateMutability": "nonpayable",
      "type": "function"
    },
    {
      "inputs": [],
      "name": "callbackGasLimit",
      "outputs": [
        {
          "internalType": "uint32",
          "name": "",
          "type": "uint32"
        }
      ],
      "stateMutability": "view",
      "type": "function"
    },
    {
      "inputs": [],
      "name": "commonMinted",
      "outputs": [
        {
          "internalType": "uint256",
          "name": "",
          "type": "uint256"
        }
      ],
      "stateMutability": "view",
      "type": "function"
    },
    {
      "inputs": [],
      "name": "count",
      "outputs": [
        {
          "internalType": "uint256",
          "name": "",
          "type": "uint256"
        }
      ],
      "stateMutability": "view",
      "type": "function"
    },
    {
      "inputs": [
        {
          "internalType": "uint256",
          "name": "tokenId",
          "type": "uint256"
        }
      ],
      "name": "getApproved",
      "outputs": [
        {
          "internalType": "address",
          "name": "",
          "type": "address"
        }
      ],
      "stateMutability": "view",
      "type": "function"
    },
    {
      "inputs": [
        {
          "internalType": "uint256",
          "name": "tokenId",
          "type": "uint256"
        }
      ],
      "name": "getVariant",
      "outputs": [
        {
          "internalType": "uint256",
          "name": "",
          "type": "uint256"
        }
      ],
      "stateMutability": "view",
      "type": "function"
    },
    {
      "inputs": [
        {
          "internalType": "address",
          "name": "owner",
          "type": "address"
        },
        {
          "internalType": "address",
          "name": "operator",
          "type": "address"
        }
      ],
      "name": "isApprovedForAll",
      "outputs": [
        {
          "internalType": "bool",
          "name": "",
          "type": "bool"
        }
      ],
      "stateMutability": "view",
      "type": "function"
    },
    {
      "inputs": [],
      "name": "jackpotMintPercent",
      "outputs": [
        {
          "internalType": "uint256",
          "name": "",
          "type": "uint256"
        }
      ],
      "stateMutability": "view",
      "type": "function"
    },
    {
      "inputs": [],
      "name": "keyHash",
      "outputs": [
        {
          "internalType": "bytes32",
          "name": "",
          "type": "bytes32"
        }
      ],
      "stateMutability": "view",
      "type": "function"
    },
    {
      "inputs": [
        {
          "internalType": "address",
          "name": "receiver",
          "type": "address"
        },
        {
          "internalType": "uint256",
          "name": "quantity",
          "type": "uint256"
        },
        {
          "internalType": "bytes",
          "name": "",
          "type": "bytes"
        }
      ],
      "name": "mint",
      "outputs": [],
      "stateMutability": "nonpayable",
      "type": "function"
    },
    {
      "inputs": [],
      "name": "name",
      "outputs": [
        {
          "internalType": "string",
          "name": "",
          "type": "string"
        }
      ],
      "stateMutability": "view",
      "type": "function"
    },
    {
      "inputs": [],
      "name": "numWords",
      "outputs": [
        {
          "internalType": "uint32",
          "name": "",
          "type": "uint32"
        }
      ],
      "stateMutability": "view",
      "type": "function"
    },
    {
      "inputs": [],
      "name": "owner",
      "outputs": [
        {
          "internalType": "address",
          "name": "",
          "type": "address"
        }
      ],
      "stateMutability": "view",
      "type": "function"
    },
    {
      "inputs": [
        {
          "internalType": "uint256",
          "name": "tokenId",
          "type": "uint256"
        }
      ],
      "name": "ownerOf",
      "outputs": [
        {
          "internalType": "address",
          "name": "",
          "type": "address"
        }
      ],
      "stateMutability": "view",
      "type": "function"
    },
    {
      "inputs": [],
      "name": "paymentToken",
      "outputs": [
        {
          "internalType": "contract IERC20",
          "name": "",
          "type": "address"
        }
      ],
      "stateMutability": "view",
      "type": "function"
    },
    {
      "inputs": [],
      "name": "price",
      "outputs": [
        {
          "internalType": "uint256",
          "name": "",
          "type": "uint256"
        }
      ],
      "stateMutability": "view",
      "type": "function"
    },
    {
      "inputs": [
        {
          "internalType": "uint256",
          "name": "requestId",
          "type": "uint256"
        },
        {
          "internalType": "uint256[]",
          "name": "randomWords",
          "type": "uint256[]"
        }
      ],
      "name": "rawFulfillRandomWords",
      "outputs": [],
      "stateMutability": "nonpayable",
      "type": "function"
    },
    {
      "inputs": [],
      "name": "requestConfirmations",
      "outputs": [
        {
          "internalType": "uint16",
          "name": "",
          "type": "uint16"
        }
      ],
      "stateMutability": "view",
      "type": "function"
    },
    {
      "inputs": [],
      "name": "s_vrfCoordinator",
      "outputs": [
        {
          "internalType": "contract IVRFCoordinatorV2Plus",
          "name": "",
          "type": "address"
        }
      ],
      "stateMutability": "view",
      "type": "function"
    },
    {
      "inputs": [
        {
          "internalType": "address",
          "name": "from",
          "type": "address"
        },
        {
          "internalType": "address",
          "name": "to",
          "type": "address"
        },
        {
          "internalType": "uint256",
          "name": "tokenId",
          "type": "uint256"
        }
      ],
      "name": "safeTransferFrom",
      "outputs": [],
      "stateMutability": "nonpayable",
      "type": "function"
    },
    {
      "inputs": [
        {
          "internalType": "address",
          "name": "from",
          "type": "address"
        },
        {
          "internalType": "address",
          "name": "to",
          "type": "address"
        },
        {
          "internalType": "uint256",
          "name": "tokenId",
          "type": "uint256"
        },
        {
          "internalType": "bytes",
          "name": "data",
          "type": "bytes"
        }
      ],
      "name": "safeTransferFrom",
      "outputs": [],
      "stateMutability": "nonpayable",
      "type": "function"
    },
    {
      "inputs": [
        {
          "internalType": "address",
          "name": "operator",
          "type": "address"
        },
        {
          "internalType": "bool",
          "name": "approved",
          "type": "bool"
        }
      ],
      "name": "setApprovalForAll",
      "outputs": [],
      "stateMutability": "nonpayable",
      "type": "function"
    },
    {
      "inputs": [
        {
          "internalType": "string",
          "name": "newBase",
          "type": "string"
        }
      ],
      "name": "setBaseURI",
      "outputs": [],
      "stateMutability": "nonpayable",
      "type": "function"
    },
    {
      "inputs": [
        {
          "internalType": "address",
          "name": "_vrfCoordinator",
          "type": "address"
        }
      ],
      "name": "setCoordinator",
      "outputs": [],
      "stateMutability": "nonpayable",
      "type": "function"
    },
    {
      "inputs": [
        {
          "internalType": "uint256",
          "name": "p",
          "type": "uint256"
        }
      ],
      "name": "setJackpotMintPercent",
      "outputs": [],
      "stateMutability": "nonpayable",
      "type": "function"
    },
    {
      "inputs": [
        {
          "internalType": "uint256",
          "name": "newPrice",
          "type": "uint256"
        }
      ],
      "name": "setPrice",
      "outputs": [],
      "stateMutability": "nonpayable",
      "type": "function"
    },
    {
      "inputs": [
        {
          "internalType": "address",
          "name": "coordinator_",
          "type": "address"
        },
        {
          "internalType": "bytes32",
          "name": "keyHash_",
          "type": "bytes32"
        },
        {
          "internalType": "uint256",
          "name": "subscriptionId_",
          "type": "uint256"
        },
        {
          "internalType": "uint32",
          "name": "callbackGasLimit_",
          "type": "uint32"
        },
        {
          "internalType": "uint16",
          "name": "requestConfirmations_",
          "type": "uint16"
        }
      ],
      "name": "setVRFConfigV25",
      "outputs": [],
      "stateMutability": "nonpayable",
      "type": "function"
    },
    {
      "inputs": [],
      "name": "subscriptionId",
      "outputs": [
        {
          "internalType": "uint256",
          "name": "",
          "type": "uint256"
        }
      ],
      "stateMutability": "view",
      "type": "function"
    },
    {
      "inputs": [
        {
          "internalType": "bytes4",
          "name": "interfaceId",
          "type": "bytes4"
        }
      ],
      "name": "supportsInterface",
      "outputs": [
        {
          "internalType": "bool",
          "name": "",
          "type": "bool"
        }
      ],
      "stateMutability": "view",
      "type": "function"
    },
    {
      "inputs": [],
      "name": "symbol",
      "outputs": [
        {
          "internalType": "string",
          "name": "",
          "type": "string"
        }
      ],
      "stateMutability": "view",
      "type": "function"
    },
    {
      "inputs": [
        {
          "internalType": "uint256",
          "name": "tokenId",
          "type": "uint256"
        }
      ],
      "name": "tokenURI",
      "outputs": [
        {
          "internalType": "string",
          "name": "",
          "type": "string"
        }
      ],
      "stateMutability": "view",
      "type": "function"
    },
    {
      "inputs": [],
      "name": "totalSupply",
      "outputs": [
        {
          "internalType": "uint256",
          "name": "",
          "type": "uint256"
        }
      ],
      "stateMutability": "view",
      "type": "function"
    },
    {
      "inputs": [
        {
          "internalType": "address",
          "name": "from",
          "type": "address"
        },
        {
          "internalType": "address",
          "name": "to",
          "type": "address"
        },
        {
          "internalType": "uint256",
          "name": "tokenId",
          "type": "uint256"
        }
      ],
      "name": "transferFrom",
      "outputs": [],
      "stateMutability": "nonpayable",
      "type": "function"
    },
    {
      "inputs": [
        {
          "internalType": "address",
          "name": "to",
          "type": "address"
        }
      ],
      "name": "transferOwnership",
      "outputs": [],
      "stateMutability": "nonpayable",
      "type": "function"
    }
  ],
  "bytecode": "0x60a0604052603c600d556203d090601360006101000a81548163ffffffff021916908363ffffffff1602179055506003601360046101000a81548161ffff021916908361ffff1602179055506001601360066101000a81548163ffffffff021916908363ffffffff1602179055503480156200007a57600080fd5b5060405162006390380380620063908339818101604052810190620000a09190620006e1565b80338060006040518060400160405280600881526020017f4761736861706f6e0000000000000000000000000000000000000000000000008152506040518060400160405280600481526020017f47415348000000000000000000000000000000000000000000000000000000008152508160009081620001229190620009b3565b508060019081620001349190620009b3565b5050506001600681905550600073ffffffffffffffffffffffffffffffffffffffff168273ffffffffffffffffffffffffffffffffffffffff1603620001b1576040517f08c379a0000000000000000000000000000000000000000000000000000000008152600401620001a89062000afb565b60405180910390fd5b81600760006101000a81548173ffffffffffffffffffffffffffffffffffffffff021916908373ffffffffffffffffffffffffffffffffffffffff160217905550600073ffffffffffffffffffffffffffffffffffffffff168173ffffffffffffffffffffffffffffffffffffffff1614620002395762000238816200037d60201b60201c565b5b505050600073ffffffffffffffffffffffffffffffffffffffff168173ffffffffffffffffffffffffffffffffffffffff1603620002a3576040517fd92e233d00000000000000000000000000000000000000000000000000000000815260040160405180910390fd5b80600960006101000a81548173ffffffffffffffffffffffffffffffffffffffff021916908373ffffffffffffffffffffffffffffffffffffffff160217905550508373ffffffffffffffffffffffffffffffffffffffff1660808173ffffffffffffffffffffffffffffffffffffffff168152505082600a8190555081600f9081620003319190620009b3565b5080601060006101000a81548173ffffffffffffffffffffffffffffffffffffffff021916908373ffffffffffffffffffffffffffffffffffffffff1602179055505050505062000b8f565b3373ffffffffffffffffffffffffffffffffffffffff168173ffffffffffffffffffffffffffffffffffffffff1603620003ee576040517f08c379a0000000000000000000000000000000000000000000000000000000008152600401620003e59062000b6d565b60405180910390fd5b80600860006101000a81548173ffffffffffffffffffffffffffffffffffffffff021916908373ffffffffffffffffffffffffffffffffffffffff1602179055508073ffffffffffffffffffffffffffffffffffffffff16600760009054906101000a900473ffffffffffffffffffffffffffffffffffffffff1673ffffffffffffffffffffffffffffffffffffffff167fed8889f560326eb138920d842192f0eb3dd22b4f139c87a2c57538e05bae127860405160405180910390a350565b6000604051905090565b600080fd5b600080fd5b600073ffffffffffffffffffffffffffffffffffffffff82169050919050565b6000620004ef82620004c2565b9050919050565b6200050181620004e2565b81146200050d57600080fd5b50565b6000815190506200052181620004f6565b92915050565b6000819050919050565b6200053c8162000527565b81146200054857600080fd5b50565b6000815190506200055c8162000531565b92915050565b600080fd5b600080fd5b6000601f19601f8301169050919050565b7f4e487b7100000000000000000000000000000000000000000000000000000000600052604160045260246000fd5b620005b7826200056c565b810181811067ffffffffffffffff82111715620005d957620005d86200057d565b5b80604052505050565b6000620005ee620004ae565b9050620005fc8282620005ac565b919050565b600067ffffffffffffffff8211156200061f576200061e6200057d565b5b6200062a826200056c565b9050602081019050919050565b60005b83811015620006575780820151818401526020810190506200063a565b60008484015250505050565b60006200067a620006748462000601565b620005e2565b90508281526020810184848401111562000699576200069862000567565b5b620006a684828562000637565b509392505050565b600082601f830112620006c657620006c562000562565b5b8151620006d884826020860162000663565b91505092915050565b60008060008060808587031215620006fe57620006fd620004b8565b5b60006200070e8782880162000510565b945050602062000721878288016200054b565b935050604085015167ffffffffffffffff811115620007455762000744620004bd565b5b6200075387828801620006ae565b9250506060620007668782880162000510565b91505092959194509250565b600081519050919050565b7f4e487b7100000000000000000000000000000000000000000000000000000000600052602260045260246000fd5b60006002820490506001821680620007c557607f821691505b602082108103620007db57620007da6200077d565b5b50919050565b60008190508160005260206000209050919050565b60006020601f8301049050919050565b600082821b905092915050565b600060088302620008457fffffffffffffffffffffffffffffffffffffffffffffffffffffffffffffffff8262000806565b62000851868362000806565b95508019841693508086168417925050509392505050565b6000819050919050565b6000620008946200088e620008888462000527565b62000869565b62000527565b9050919050565b6000819050919050565b620008b08362000873565b620008c8620008bf826200089b565b84845462000813565b825550505050565b600090565b620008df620008d0565b620008ec818484620008a5565b505050565b5b81811015620009145762000908600082620008d5565b600181019050620008f2565b5050565b601f82111562000963576200092d81620007e1565b6200093884620007f6565b8101602085101562000948578190505b620009606200095785620007f6565b830182620008f1565b50505b505050565b600082821c905092915050565b6000620009886000198460080262000968565b1980831691505092915050565b6000620009a3838362000975565b9150826002028217905092915050565b620009be8262000772565b67ffffffffffffffff811115620009da57620009d96200057d565b5b620009e68254620007ac565b620009f382828562000918565b600060209050601f83116001811462000a2b576000841562000a16578287015190505b62000a22858262000995565b86555062000a92565b601f19841662000a3b86620007e1565b60005b8281101562000a655784890151825560018201915060208501945060208101905062000a3e565b8683101562000a85578489015162000a81601f89168262000975565b8355505b6001600288020188555050505b505050505050565b600082825260208201905092915050565b7f43616e6e6f7420736574206f776e657220746f207a65726f0000000000000000600082015250565b600062000ae360188362000a9a565b915062000af08262000aab565b602082019050919050565b6000602082019050818103600083015262000b168162000ad4565b9050919050565b7f43616e6e6f74207472616e7366657220746f2073656c66000000000000000000600082015250565b600062000b5560178362000a9a565b915062000b628262000b1d565b602082019050919050565b6000602082019050818103600083015262000b888162000b46565b9050919050565b6080516157de62000bb260003960008181610bca015261128301526157de6000f3fe608060405234801561001057600080fd5b506004361061025e5760003560e01c806379ba509711610146578063a78f06b5116100c3578063e1b60f8911610087578063e1b60f89146106dd578063e985e9c5146106f9578063f2f2ef2b14610729578063f2fde38b14610745578063f5a618b014610761578063fc8310511461077f5761025e565b8063a78f06b514610639578063b05e977114610657578063b0fb162f14610673578063b88d4fde14610691578063c87b56dd146106ad5761025e565b806394d008ef1161010a57806394d008ef146105a757806395d89b41146105c35780639eccacf6146105e1578063a035b1fe146105ff578063a22cb4651461061d5761025e565b806379ba5097146105295780637ccfd7fc146105335780638da5cb5b146105515780638ea981171461056f57806391b7f5ed1461058b5761025e565b806324f74697116101df57806355f804b3116101a357806355f804b31461044157806361728f391461045d5780636352211e1461047b57806366435c06146104ab57806370a08231146104c957806374e1ee41146104f95761025e565b806324f74697146103ad5780632d90ed6d146103cb5780633013ce29146103e95780633b2bcbf11461040757806342842e0e146104255761025e565b806309c1ba2e1161022657806309c1ba2e1461031b57806318160ddd146103395780631ac39bfd146103575780631fe543e31461037557806323b872dd146103915761025e565b806301ffc9a71461026357806306661abd1461029357806306fdde03146102b1578063081812fc146102cf578063095ea7b3146102ff575b600080fd5b61027d600480360381019061027891906135f4565b61079b565b60405161028a919061363c565b60405180910390f35b61029b61087d565b6040516102a89190613670565b60405180910390f35b6102b9610887565b6040516102c6919061371b565b60405180910390f35b6102e960048036038101906102e49190613769565b610919565b6040516102f691906137d7565b60405180910390f35b6103196004803603810190610314919061381e565b61095f565b005b610323610a76565b6040516103309190613670565b60405180910390f35b610341610a7c565b60405161034e9190613670565b60405180910390f35b61035f610a82565b60405161036c9190613670565b60405180910390f35b61038f600480360381019061038a91906138c3565b610a87565b005b6103ab60048036038101906103a69190613923565b610b4d565b005b6103b5610bad565b6040516103c29190613995565b60405180910390f35b6103d3610bc3565b6040516103e09190613670565b60405180910390f35b6103f1610bc8565b6040516103fe9190613a0f565b60405180910390f35b61040f610bec565b60405161041c9190613a4b565b60405180910390f35b61043f600480360381019061043a9190613923565b610c12565b005b61045b60048036038101906104569190613abc565b610c32565b005b610465610c50565b6040516104729190613b22565b60405180910390f35b61049560048036038101906104909190613769565b610c56565b6040516104a291906137d7565b60405180910390f35b6104b3610cdc565b6040516104c09190613670565b60405180910390f35b6104e360048036038101906104de9190613b3d565b610ce2565b6040516104f09190613670565b60405180910390f35b610513600480360381019061050e9190613769565b610d99565b6040516105209190613670565b60405180910390f35b610531610dfe565b005b61053b610f95565b6040516105489190613995565b60405180910390f35b610559610fab565b60405161056691906137d7565b60405180910390f35b61058960048036038101906105849190613b3d565b610fd5565b005b6105a560048036038101906105a09190613769565b6111b6565b005b6105c160048036038101906105bc9190613bc0565b6111c8565b005b6105cb6115ae565b6040516105d8919061371b565b60405180910390f35b6105e9611640565b6040516105f69190613a4b565b60405180910390f35b610607611666565b6040516106149190613670565b60405180910390f35b61063760048036038101906106329190613c60565b61166c565b005b610641611682565b60405161064e9190613670565b60405180910390f35b610671600480360381019061066c9190613d32565b611689565b005b61067b611725565b6040516106889190613dbc565b60405180910390f35b6106ab60048036038101906106a69190613f07565b611739565b005b6106c760048036038101906106c29190613769565b61179b565b6040516106d4919061371b565b60405180910390f35b6106f760048036038101906106f29190613fac565b611803565b005b610713600480360381019061070e9190614002565b6118d6565b604051610720919061363c565b60405180910390f35b610743600480360381019061073e9190614064565b61196a565b005b61075f600480360381019061075a9190613b3d565b6119db565b005b6107696119ef565b6040516107769190613670565b60405180910390f35b61079960048036038101906107949190613769565b6119f5565b005b60007f80ac58cd000000000000000000000000000000000000000000000000000000007bffffffffffffffffffffffffffffffffffffffffffffffffffffffff1916827bffffffffffffffffffffffffffffffffffffffffffffffffffffffff1916148061086657507f5b5e139f000000000000000000000000000000000000000000000000000000007bffffffffffffffffffffffffffffffffffffffffffffffffffffffff1916827bffffffffffffffffffffffffffffffffffffffffffffffffffffffff1916145b80610876575061087582611a4b565b5b9050919050565b6000600b54905090565b6060600080546108969061410a565b80601f01602080910402602001604051908101604052809291908181526020018280546108c29061410a565b801561090f5780601f106108e45761010080835404028352916020019161090f565b820191906000526020600020905b8154815290600101906020018083116108f257829003601f168201915b5050505050905090565b600061092482611ab5565b6004600083815260200190815260200160002060009054906101000a900473ffffffffffffffffffffffffffffffffffffffff169050919050565b600061096a82610c56565b90508073ffffffffffffffffffffffffffffffffffffffff168373ffffffffffffffffffffffffffffffffffffffff16036109da576040517f08c379a00000000000000000000000000000000000000000000000000000000081526004016109d1906141ad565b60405180910390fd5b8073ffffffffffffffffffffffffffffffffffffffff166109f9611b00565b73ffffffffffffffffffffffffffffffffffffffff161480610a285750610a2781610a22611b00565b6118d6565b5b610a67576040517f08c379a0000000000000000000000000000000000000000000000000000000008152600401610a5e9061423f565b60405180910390fd5b610a718383611b08565b505050565b60125481565b600b5481565b601481565b600960009054906101000a900473ffffffffffffffffffffffffffffffffffffffff1673ffffffffffffffffffffffffffffffffffffffff163373ffffffffffffffffffffffffffffffffffffffff1614610b3d5733600960009054906101000a900473ffffffffffffffffffffffffffffffffffffffff166040517f1cf993f4000000000000000000000000000000000000000000000000000000008152600401610b3492919061425f565b60405180910390fd5b610b48838383611bc1565b505050565b610b5e610b58611b00565b82611d33565b610b9d576040517f08c379a0000000000000000000000000000000000000000000000000000000008152600401610b94906142fa565b60405180910390fd5b610ba8838383611dc8565b505050565b601360009054906101000a900463ffffffff1681565b601481565b7f000000000000000000000000000000000000000000000000000000000000000081565b601060009054906101000a900473ffffffffffffffffffffffffffffffffffffffff1681565b610c2d83838360405180602001604052806000815250611739565b505050565b610c3a6120c1565b8181600f9182610c4b9291906144c7565b505050565b60115481565b600080610c6283612153565b9050600073ffffffffffffffffffffffffffffffffffffffff168173ffffffffffffffffffffffffffffffffffffffff1603610cd3576040517f08c379a0000000000000000000000000000000000000000000000000000000008152600401610cca906145e3565b60405180910390fd5b80915050919050565b600c5481565b60008073ffffffffffffffffffffffffffffffffffffffff168273ffffffffffffffffffffffffffffffffffffffff1603610d52576040517f08c379a0000000000000000000000000000000000000000000000000000000008152600401610d4990614675565b60405180910390fd5b600360008373ffffffffffffffffffffffffffffffffffffffff1673ffffffffffffffffffffffffffffffffffffffff168152602001908152602001600020549050919050565b6000610da482612190565b610de3576040517f08c379a0000000000000000000000000000000000000000000000000000000008152600401610dda906146e1565b60405180910390fd5b600e6000838152602001908152602001600020549050919050565b600860009054906101000a900473ffffffffffffffffffffffffffffffffffffffff1673ffffffffffffffffffffffffffffffffffffffff163373ffffffffffffffffffffffffffffffffffffffff1614610e8e576040517f08c379a0000000000000000000000000000000000000000000000000000000008152600401610e859061474d565b60405180910390fd5b6000600760009054906101000a900473ffffffffffffffffffffffffffffffffffffffff16905033600760006101000a81548173ffffffffffffffffffffffffffffffffffffffff021916908373ffffffffffffffffffffffffffffffffffffffff1602179055506000600860006101000a81548173ffffffffffffffffffffffffffffffffffffffff021916908373ffffffffffffffffffffffffffffffffffffffff1602179055503373ffffffffffffffffffffffffffffffffffffffff168173ffffffffffffffffffffffffffffffffffffffff167f8be0079c531659141344cd1fd0a4f28419497f9722a3daafe3b4186f6b6457e060405160405180910390a350565b601360069054906101000a900463ffffffff1681565b6000600760009054906101000a900473ffffffffffffffffffffffffffffffffffffffff16905090565b610fdd610fab565b73ffffffffffffffffffffffffffffffffffffffff163373ffffffffffffffffffffffffffffffffffffffff16141580156110665750600960009054906101000a900473ffffffffffffffffffffffffffffffffffffffff1673ffffffffffffffffffffffffffffffffffffffff163373ffffffffffffffffffffffffffffffffffffffff1614155b156110d55733611074610fab565b600960009054906101000a900473ffffffffffffffffffffffffffffffffffffffff166040517f061db9c10000000000000000000000000000000000000000000000000000000081526004016110cc9392919061476d565b60405180910390fd5b600073ffffffffffffffffffffffffffffffffffffffff168173ffffffffffffffffffffffffffffffffffffffff160361113b576040517fd92e233d00000000000000000000000000000000000000000000000000000000815260040160405180910390fd5b80600960006101000a81548173ffffffffffffffffffffffffffffffffffffffff021916908373ffffffffffffffffffffffffffffffffffffffff1602179055507fd1a6a14209a385a964d036e404cb5cfb71f4000cdb03c9366292430787261be6816040516111ab91906137d7565b60405180910390a150565b6111be6120c1565b80600a8190555050565b6111d06121d1565b60008311611213576040517f08c379a000000000000000000000000000000000000000000000000000000000815260040161120a906147f0565b60405180910390fd5b620186a083600c54611225919061483f565b1115611266576040517f08c379a000000000000000000000000000000000000000000000000000000000815260040161125d906148bf565b60405180910390fd5b600083600a5461127691906148df565b90506000811115611361577f000000000000000000000000000000000000000000000000000000000000000073ffffffffffffffffffffffffffffffffffffffff166323b872dd3330846040518463ffffffff1660e01b81526004016112de93929190614921565b6020604051808303816000875af11580156112fd573d6000803e3d6000fd5b505050506040513d601f19601f82011682018060405250810190611321919061496d565b611360576040517f08c379a0000000000000000000000000000000000000000000000000000000008152600401611357906149e6565b60405180910390fd5b5b60008073ffffffffffffffffffffffffffffffffffffffff16601060009054906101000a900473ffffffffffffffffffffffffffffffffffffffff1673ffffffffffffffffffffffffffffffffffffffff16141580156113c45750600060125414155b80156113d557506000801b60115414155b905080156114e15760008567ffffffffffffffff8111156113f9576113f8613ddc565b5b6040519080825280602002602001820160405280156114275781602001602082028036833780820191505090505b50905060005b868110156114a5576000600b6000815461144690614a06565b91905081905590506114588982612220565b6000600e6000838152602001908152602001600020819055508083838151811061148557611484614a4e565b5b60200260200101818152505050808061149d90614a06565b91505061142d565b5060006114b061223e565b9050816014600083815260200190815260200160002090805190602001906114d99291906134da565b505050611585565b6000444232600b54896040516020016114fe959493929190614ae6565b6040516020818303038152906040528051906020012060001c905060005b86811015611582576000600b6000815461153590614a06565b91905081905590506115478982612220565b60006115538483612427565b905080600e6000848152602001908152602001600020819055505050808061157a90614a06565b91505061151c565b50505b84600c6000828254611597919061483f565b9250508190555050506115a861247a565b50505050565b6060600180546115bd9061410a565b80601f01602080910402602001604051908101604052809291908181526020018280546115e99061410a565b80156116365780601f1061160b57610100808354040283529160200191611636565b820191906000526020600020905b81548152906001019060200180831161161957829003601f168201915b5050505050905090565b600960009054906101000a900473ffffffffffffffffffffffffffffffffffffffff1681565b600a5481565b61167e611677611b00565b8383612484565b5050565b620186a081565b6116916120c1565b84601060006101000a81548173ffffffffffffffffffffffffffffffffffffffff021916908373ffffffffffffffffffffffffffffffffffffffff160217905550836011819055508260128190555081601360006101000a81548163ffffffff021916908363ffffffff16021790555080601360046101000a81548161ffff021916908361ffff1602179055505050505050565b601360049054906101000a900461ffff1681565b61174a611744611b00565b83611d33565b611789576040517f08c379a0000000000000000000000000000000000000000000000000000000008152600401611780906142fa565b60405180910390fd5b611795848484846125f0565b50505050565b60606117a682611ab5565b60006117b061264c565b905060008151116117d057604051806020016040528060008152506117fb565b806117da846126de565b6040516020016117eb929190614b81565b6040516020818303038152906040525b915050919050565b61180b6121d1565b600d54620186a06064600c5461182191906148df565b61182b9190614bd4565b101561186c576040517f08c379a000000000000000000000000000000000000000000000000000000000815260040161186390614c51565b60405180910390fd5b611875836127ac565b6000600b6000815461188690614a06565b91905081905590506118988282612220565b60016014806118a7919061483f565b6118b1919061483f565b600e600083815260200190815260200160002081905550506118d161247a565b505050565b6000600560008473ffffffffffffffffffffffffffffffffffffffff1673ffffffffffffffffffffffffffffffffffffffff16815260200190815260200160002060008373ffffffffffffffffffffffffffffffffffffffff1673ffffffffffffffffffffffffffffffffffffffff16815260200190815260200160002060009054906101000a900460ff16905092915050565b6119726121d1565b61197d846000612a27565b6000600b6000815461198e90614a06565b91905081905590506119a08482612220565b6119a985612c3a565b60146119b5919061483f565b600e600083815260200190815260200160002081905550506119d561247a565b50505050565b6119e36120c1565b6119ec81612c45565b50565b600d5481565b6119fd6120c1565b6064811115611a41576040517f08c379a0000000000000000000000000000000000000000000000000000000008152600401611a3890614cbd565b60405180910390fd5b80600d8190555050565b60007f01ffc9a7000000000000000000000000000000000000000000000000000000007bffffffffffffffffffffffffffffffffffffffffffffffffffffffff1916827bffffffffffffffffffffffffffffffffffffffffffffffffffffffff1916149050919050565b611abe81612190565b611afd576040517f08c379a0000000000000000000000000000000000000000000000000000000008152600401611af4906145e3565b60405180910390fd5b50565b600033905090565b816004600083815260200190815260200160002060006101000a81548173ffffffffffffffffffffffffffffffffffffffff021916908373ffffffffffffffffffffffffffffffffffffffff160217905550808273ffffffffffffffffffffffffffffffffffffffff16611b7b83610c56565b73ffffffffffffffffffffffffffffffffffffffff167f8c5be1e5ebec7d5bd14f71427d1e84f3dd0314c0f7b2291e5b200ac8c7c3b92560405160405180910390a45050565b600082826000818110611bd757611bd6614a4e565b5b905060200201359050600060146000868152602001908152602001600020805480602002602001604051908101604052809291908181526020018280548015611c3f57602002820191906000526020600020905b815481526020019060010190808311611c2b575b505050505090506000815111611c8a576040517f08c379a0000000000000000000000000000000000000000000000000000000008152600401611c8190614d29565b60405180910390fd5b601460008681526020019081526020016000206000611ca99190613527565b60005b8151811015611d2b576000828281518110611cca57611cc9614a4e565b5b602002602001015190506000600e60008381526020019081526020016000205403611d17576000611cfb8583612427565b905080600e600084815260200190815260200160002081905550505b508080611d2390614a06565b915050611cac565b505050505050565b600080611d3f83610c56565b90508073ffffffffffffffffffffffffffffffffffffffff168473ffffffffffffffffffffffffffffffffffffffff161480611d815750611d8081856118d6565b5b80611dbf57508373ffffffffffffffffffffffffffffffffffffffff16611da784610919565b73ffffffffffffffffffffffffffffffffffffffff16145b91505092915050565b8273ffffffffffffffffffffffffffffffffffffffff16611de882610c56565b73ffffffffffffffffffffffffffffffffffffffff1614611e3e576040517f08c379a0000000000000000000000000000000000000000000000000000000008152600401611e3590614dbb565b60405180910390fd5b600073ffffffffffffffffffffffffffffffffffffffff168273ffffffffffffffffffffffffffffffffffffffff1603611ead576040517f08c379a0000000000000000000000000000000000000000000000000000000008152600401611ea490614e4d565b60405180910390fd5b611eba8383836001612d73565b8273ffffffffffffffffffffffffffffffffffffffff16611eda82610c56565b73ffffffffffffffffffffffffffffffffffffffff1614611f30576040517f08c379a0000000000000000000000000000000000000000000000000000000008152600401611f2790614dbb565b60405180910390fd5b6004600082815260200190815260200160002060006101000a81549073ffffffffffffffffffffffffffffffffffffffff02191690556001600360008573ffffffffffffffffffffffffffffffffffffffff1673ffffffffffffffffffffffffffffffffffffffff168152602001908152602001600020600082825403925050819055506001600360008473ffffffffffffffffffffffffffffffffffffffff1673ffffffffffffffffffffffffffffffffffffffff16815260200190815260200160002060008282540192505081905550816002600083815260200190815260200160002060006101000a81548173ffffffffffffffffffffffffffffffffffffffff021916908373ffffffffffffffffffffffffffffffffffffffff160217905550808273ffffffffffffffffffffffffffffffffffffffff168473ffffffffffffffffffffffffffffffffffffffff167fddf252ad1be2c89b69c2b068fc378daa952ba7f163c4a11628f55a4df523b3ef60405160405180910390a46120bc8383836001612d79565b505050565b600760009054906101000a900473ffffffffffffffffffffffffffffffffffffffff1673ffffffffffffffffffffffffffffffffffffffff163373ffffffffffffffffffffffffffffffffffffffff1614612151576040517f08c379a000000000000000000000000000000000000000000000000000000000815260040161214890614eb9565b60405180910390fd5b565b60006002600083815260200190815260200160002060009054906101000a900473ffffffffffffffffffffffffffffffffffffffff169050919050565b60008073ffffffffffffffffffffffffffffffffffffffff166121b283612153565b73ffffffffffffffffffffffffffffffffffffffff1614159050919050565b600260065403612216576040517f08c379a000000000000000000000000000000000000000000000000000000000815260040161220d90614f25565b60405180910390fd5b6002600681905550565b61223a828260405180602001604052806000815250612d7f565b5050565b60008073ffffffffffffffffffffffffffffffffffffffff16601060009054906101000a900473ffffffffffffffffffffffffffffffffffffffff1673ffffffffffffffffffffffffffffffffffffffff16141580156122a15750600060125414155b80156122b257506000801b60115414155b6122f1576040517f08c379a00000000000000000000000000000000000000000000000000000000081526004016122e890614f91565b60405180910390fd5b60006040518060c0016040528060115481526020016012548152602001601360049054906101000a900461ffff1661ffff168152602001601360009054906101000a900463ffffffff1663ffffffff168152602001601360069054906101000a900463ffffffff1663ffffffff16815260200161237e604051806020016040528060001515815250612dda565b8152509050601060009054906101000a900473ffffffffffffffffffffffffffffffffffffffff1673ffffffffffffffffffffffffffffffffffffffff16639b1c385e826040518263ffffffff1660e01b81526004016123de91906150cb565b6020604051808303816000875af11580156123fd573d6000803e3d6000fd5b505050506040513d601f19601f820116820180604052508101906124219190615102565b91505090565b6000806014848460405160200161243f92919061512f565b6040516020818303038152906040528051906020012060001c612462919061515b565b9050600181612471919061483f565b91505092915050565b6001600681905550565b8173ffffffffffffffffffffffffffffffffffffffff168373ffffffffffffffffffffffffffffffffffffffff16036124f2576040517f08c379a00000000000000000000000000000000000000000000000000000000081526004016124e9906151d8565b60405180910390fd5b80600560008573ffffffffffffffffffffffffffffffffffffffff1673ffffffffffffffffffffffffffffffffffffffff16815260200190815260200160002060008473ffffffffffffffffffffffffffffffffffffffff1673ffffffffffffffffffffffffffffffffffffffff16815260200190815260200160002060006101000a81548160ff0219169083151502179055508173ffffffffffffffffffffffffffffffffffffffff168373ffffffffffffffffffffffffffffffffffffffff167f17307eab39ab6107e8899845ad3d59bd9653f200f220920489ca2b5937696c31836040516125e3919061363c565b60405180910390a3505050565b6125fb848484611dc8565b61260784848484612e72565b612646576040517f08c379a000000000000000000000000000000000000000000000000000000000815260040161263d9061526a565b60405180910390fd5b50505050565b6060600f805461265b9061410a565b80601f01602080910402602001604051908101604052809291908181526020018280546126879061410a565b80156126d45780601f106126a9576101008083540402835291602001916126d4565b820191906000526020600020905b8154815290600101906020018083116126b757829003601f168201915b5050505050905090565b6060600060016126ed84612ff9565b01905060008167ffffffffffffffff81111561270c5761270b613ddc565b5b6040519080825280601f01601f19166020018201604052801561273e5781602001600182028036833780820191505090505b509050600082602001820190505b6001156127a1578080600190039150507f3031323334353637383961626364656600000000000000000000000000000000600a86061a8153600a858161279557612794614ba5565b5b0494506000850361274c575b819350505050919050565b6000601467ffffffffffffffff8111156127c9576127c8613ddc565b5b6040519080825280602002602001820160405280156127f75781602001602082028036833780820191505090505b50905060005b6014811015612a2257600061282884836014811061281e5761281d614a4e565b5b6020020135610c56565b90503373ffffffffffffffffffffffffffffffffffffffff168173ffffffffffffffffffffffffffffffffffffffff1614612898576040517f08c379a000000000000000000000000000000000000000000000000000000000815260040161288f906152d6565b60405180910390fd5b6000600e60008685601481106128b1576128b0614a4e565b5b602002013581526020019081526020016000205490506014811161290a576040517f08c379a000000000000000000000000000000000000000000000000000000000815260040161290190615342565b60405180910390fd5b60006001601461291a919061483f565b826129259190615362565b90506014811061296a576040517f08c379a0000000000000000000000000000000000000000000000000000000008152600401612961906153e2565b60405180910390fd5b84818151811061297d5761297c614a4e565b5b6020026020010151156129c5576040517f08c379a00000000000000000000000000000000000000000000000000000000081526004016129bc9061544e565b60405180910390fd5b60018582815181106129da576129d9614a4e565b5b602002602001019015159081151581525050612a0c868560148110612a0257612a01614a4e565b5b602002013561314c565b5050508080612a1a90614a06565b9150506127fd565b505050565b612a2f613548565b60005b6064811015612bba576000612a5d858360648110612a5357612a52614a4e565b5b6020020135610c56565b90503373ffffffffffffffffffffffffffffffffffffffff168173ffffffffffffffffffffffffffffffffffffffff1614612acd576040517f08c379a0000000000000000000000000000000000000000000000000000000008152600401612ac4906152d6565b60405180910390fd5b6000600e6000878560648110612ae657612ae5614a4e565b5b60200201358152602001908152602001600020549050600081118015612b0d575060148111155b612b4c576040517f08c379a0000000000000000000000000000000000000000000000000000000008152600401612b43906154ba565b60405180910390fd5b600184600183612b5c9190615362565b60148110612b6d57612b6c614a4e565b5b60200201818151612b7e919061483f565b91508181525050612ba5868460648110612b9b57612b9a614a4e565b5b602002013561314c565b50508080612bb290614a06565b915050612a32565b5060005b6014811015612c34576005828260148110612bdc57612bdb614a4e565b5b602002015114612c21576040517f08c379a0000000000000000000000000000000000000000000000000000000008152600401612c1890615526565b60405180910390fd5b8080612c2c90614a06565b915050612bbe565b50505050565b600060019050919050565b3373ffffffffffffffffffffffffffffffffffffffff168173ffffffffffffffffffffffffffffffffffffffff1603612cb3576040517f08c379a0000000000000000000000000000000000000000000000000000000008152600401612caa90615592565b60405180910390fd5b80600860006101000a81548173ffffffffffffffffffffffffffffffffffffffff021916908373ffffffffffffffffffffffffffffffffffffffff1602179055508073ffffffffffffffffffffffffffffffffffffffff16600760009054906101000a900473ffffffffffffffffffffffffffffffffffffffff1673ffffffffffffffffffffffffffffffffffffffff167fed8889f560326eb138920d842192f0eb3dd22b4f139c87a2c57538e05bae127860405160405180910390a350565b50505050565b50505050565b612d89838361329a565b612d966000848484612e72565b612dd5576040517f08c379a0000000000000000000000000000000000000000000000000000000008152600401612dcc9061526a565b60405180910390fd5b505050565b60607f92fd13387c7fe7befbc38d303d6468778fb9731bc4583f17d92989c6fcfdeaaa82604051602401612e0e91906155dd565b604051602081830303815290604052907bffffffffffffffffffffffffffffffffffffffffffffffffffffffff19166020820180517bffffffffffffffffffffffffffffffffffffffffffffffffffffffff83818316178352505050509050919050565b6000612e938473ffffffffffffffffffffffffffffffffffffffff166134b7565b15612fec578373ffffffffffffffffffffffffffffffffffffffff1663150b7a02612ebc611b00565b8786866040518563ffffffff1660e01b8152600401612ede9493929190615642565b6020604051808303816000875af1925050508015612f1a57506040513d601f19601f82011682018060405250810190612f1791906156a3565b60015b612f9c573d8060008114612f4a576040519150601f19603f3d011682016040523d82523d6000602084013e612f4f565b606091505b506000815103612f94576040517f08c379a0000000000000000000000000000000000000000000000000000000008152600401612f8b9061526a565b60405180910390fd5b805181602001fd5b63150b7a0260e01b7bffffffffffffffffffffffffffffffffffffffffffffffffffffffff1916817bffffffffffffffffffffffffffffffffffffffffffffffffffffffff191614915050612ff1565b600190505b949350505050565b600080600090507a184f03e93ff9f4daa797ed6e38ed64bf6a1f0100000000000000008310613057577a184f03e93ff9f4daa797ed6e38ed64bf6a1f010000000000000000838161304d5761304c614ba5565b5b0492506040810190505b6d04ee2d6d415b85acef81000000008310613094576d04ee2d6d415b85acef8100000000838161308a57613089614ba5565b5b0492506020810190505b662386f26fc1000083106130c357662386f26fc1000083816130b9576130b8614ba5565b5b0492506010810190505b6305f5e10083106130ec576305f5e10083816130e2576130e1614ba5565b5b0492506008810190505b612710831061311157612710838161310757613106614ba5565b5b0492506004810190505b60648310613134576064838161312a57613129614ba5565b5b0492506002810190505b600a8310613143576001810190505b80915050919050565b600061315782610c56565b9050613167816000846001612d73565b61317082610c56565b90506004600083815260200190815260200160002060006101000a81549073ffffffffffffffffffffffffffffffffffffffff02191690556001600360008373ffffffffffffffffffffffffffffffffffffffff1673ffffffffffffffffffffffffffffffffffffffff168152602001908152602001600020600082825403925050819055506002600083815260200190815260200160002060006101000a81549073ffffffffffffffffffffffffffffffffffffffff021916905581600073ffffffffffffffffffffffffffffffffffffffff168273ffffffffffffffffffffffffffffffffffffffff167fddf252ad1be2c89b69c2b068fc378daa952ba7f163c4a11628f55a4df523b3ef60405160405180910390a4613296816000846001612d79565b5050565b600073ffffffffffffffffffffffffffffffffffffffff168273ffffffffffffffffffffffffffffffffffffffff1603613309576040517f08c379a00000000000000000000000000000000000000000000000000000000081526004016133009061571c565b60405180910390fd5b61331281612190565b15613352576040517f08c379a000000000000000000000000000000000000000000000000000000000815260040161334990615788565b60405180910390fd5b613360600083836001612d73565b61336981612190565b156133a9576040517f08c379a00000000000000000000000000000000000000000000000000000000081526004016133a090615788565b60405180910390fd5b6001600360008473ffffffffffffffffffffffffffffffffffffffff1673ffffffffffffffffffffffffffffffffffffffff16815260200190815260200160002060008282540192505081905550816002600083815260200190815260200160002060006101000a81548173ffffffffffffffffffffffffffffffffffffffff021916908373ffffffffffffffffffffffffffffffffffffffff160217905550808273ffffffffffffffffffffffffffffffffffffffff16600073ffffffffffffffffffffffffffffffffffffffff167fddf252ad1be2c89b69c2b068fc378daa952ba7f163c4a11628f55a4df523b3ef60405160405180910390a46134b3600083836001612d79565b5050565b6000808273ffffffffffffffffffffffffffffffffffffffff163b119050919050565b828054828255906000526020600020908101928215613516579160200282015b828111156135155782518255916020019190600101906134fa565b5b509050613523919061356b565b5090565b5080546000825590600052602060002090810190613545919061356b565b50565b604051806102800160405280601490602082028036833780820191505090505090565b5b8082111561358457600081600090555060010161356c565b5090565b6000604051905090565b600080fd5b600080fd5b60007fffffffff0000000000000000000000000000000000000000000000000000000082169050919050565b6135d18161359c565b81146135dc57600080fd5b50565b6000813590506135ee816135c8565b92915050565b60006020828403121561360a57613609613592565b5b6000613618848285016135df565b91505092915050565b60008115159050919050565b61363681613621565b82525050565b6000602082019050613651600083018461362d565b92915050565b6000819050919050565b61366a81613657565b82525050565b60006020820190506136856000830184613661565b92915050565b600081519050919050565b600082825260208201905092915050565b60005b838110156136c55780820151818401526020810190506136aa565b60008484015250505050565b6000601f19601f8301169050919050565b60006136ed8261368b565b6136f78185613696565b93506137078185602086016136a7565b613710816136d1565b840191505092915050565b6000602082019050818103600083015261373581846136e2565b905092915050565b61374681613657565b811461375157600080fd5b50565b6000813590506137638161373d565b92915050565b60006020828403121561377f5761377e613592565b5b600061378d84828501613754565b91505092915050565b600073ffffffffffffffffffffffffffffffffffffffff82169050919050565b60006137c182613796565b9050919050565b6137d1816137b6565b82525050565b60006020820190506137ec60008301846137c8565b92915050565b6137fb816137b6565b811461380657600080fd5b50565b600081359050613818816137f2565b92915050565b6000806040838503121561383557613834613592565b5b600061384385828601613809565b925050602061385485828601613754565b9150509250929050565b600080fd5b600080fd5b600080fd5b60008083601f8401126138835761388261385e565b5b8235905067ffffffffffffffff8111156138a05761389f613863565b5b6020830191508360208202830111156138bc576138bb613868565b5b9250929050565b6000806000604084860312156138dc576138db613592565b5b60006138ea86828701613754565b935050602084013567ffffffffffffffff81111561390b5761390a613597565b5b6139178682870161386d565b92509250509250925092565b60008060006060848603121561393c5761393b613592565b5b600061394a86828701613809565b935050602061395b86828701613809565b925050604061396c86828701613754565b9150509250925092565b600063ffffffff82169050919050565b61398f81613976565b82525050565b60006020820190506139aa6000830184613986565b92915050565b6000819050919050565b60006139d56139d06139cb84613796565b6139b0565b613796565b9050919050565b60006139e7826139ba565b9050919050565b60006139f9826139dc565b9050919050565b613a09816139ee565b82525050565b6000602082019050613a246000830184613a00565b92915050565b6000613a35826139dc565b9050919050565b613a4581613a2a565b82525050565b6000602082019050613a606000830184613a3c565b92915050565b60008083601f840112613a7c57613a7b61385e565b5b8235905067ffffffffffffffff811115613a9957613a98613863565b5b602083019150836001820283011115613ab557613ab4613868565b5b9250929050565b60008060208385031215613ad357613ad2613592565b5b600083013567ffffffffffffffff811115613af157613af0613597565b5b613afd85828601613a66565b92509250509250929050565b6000819050919050565b613b1c81613b09565b82525050565b6000602082019050613b376000830184613b13565b92915050565b600060208284031215613b5357613b52613592565b5b6000613b6184828501613809565b91505092915050565b60008083601f840112613b8057613b7f61385e565b5b8235905067ffffffffffffffff811115613b9d57613b9c613863565b5b602083019150836001820283011115613bb957613bb8613868565b5b9250929050565b60008060008060608587031215613bda57613bd9613592565b5b6000613be887828801613809565b9450506020613bf987828801613754565b935050604085013567ffffffffffffffff811115613c1a57613c19613597565b5b613c2687828801613b6a565b925092505092959194509250565b613c3d81613621565b8114613c4857600080fd5b50565b600081359050613c5a81613c34565b92915050565b60008060408385031215613c7757613c76613592565b5b6000613c8585828601613809565b9250506020613c9685828601613c4b565b9150509250929050565b613ca981613b09565b8114613cb457600080fd5b50565b600081359050613cc681613ca0565b92915050565b613cd581613976565b8114613ce057600080fd5b50565b600081359050613cf281613ccc565b92915050565b600061ffff82169050919050565b613d0f81613cf8565b8114613d1a57600080fd5b50565b600081359050613d2c81613d06565b92915050565b600080600080600060a08688031215613d4e57613d4d613592565b5b6000613d5c88828901613809565b9550506020613d6d88828901613cb7565b9450506040613d7e88828901613754565b9350506060613d8f88828901613ce3565b9250506080613da088828901613d1d565b9150509295509295909350565b613db681613cf8565b82525050565b6000602082019050613dd16000830184613dad565b92915050565b600080fd5b7f4e487b7100000000000000000000000000000000000000000000000000000000600052604160045260246000fd5b613e14826136d1565b810181811067ffffffffffffffff82111715613e3357613e32613ddc565b5b80604052505050565b6000613e46613588565b9050613e528282613e0b565b919050565b600067ffffffffffffffff821115613e7257613e71613ddc565b5b613e7b826136d1565b9050602081019050919050565b82818337600083830152505050565b6000613eaa613ea584613e57565b613e3c565b905082815260208101848484011115613ec657613ec5613dd7565b5b613ed1848285613e88565b509392505050565b600082601f830112613eee57613eed61385e565b5b8135613efe848260208601613e97565b91505092915050565b60008060008060808587031215613f2157613f20613592565b5b6000613f2f87828801613809565b9450506020613f4087828801613809565b9350506040613f5187828801613754565b925050606085013567ffffffffffffffff811115613f7257613f71613597565b5b613f7e87828801613ed9565b91505092959194509250565b600081905082602060140282011115613fa657613fa5613868565b5b92915050565b60008060006102c08486031215613fc657613fc5613592565b5b6000613fd486828701613f8a565b935050610280613fe686828701613754565b9250506102a0613ff886828701613809565b9150509250925092565b6000806040838503121561401957614018613592565b5b600061402785828601613809565b925050602061403885828601613809565b9150509250929050565b60008190508260206064028201111561405e5761405d613868565b5b92915050565b600080600080610cc0858703121561407f5761407e613592565b5b600061408d87828801614042565b945050610c8061409f87828801613809565b935050610ca085013567ffffffffffffffff8111156140c1576140c0613597565b5b6140cd87828801613b6a565b925092505092959194509250565b7f4e487b7100000000000000000000000000000000000000000000000000000000600052602260045260246000fd5b6000600282049050600182168061412257607f821691505b602082108103614135576141346140db565b5b50919050565b7f4552433732313a20617070726f76616c20746f2063757272656e74206f776e6560008201527f7200000000000000000000000000000000000000000000000000000000000000602082015250565b6000614197602183613696565b91506141a28261413b565b604082019050919050565b600060208201905081810360008301526141c68161418a565b9050919050565b7f4552433732313a20617070726f76652063616c6c6572206973206e6f7420746f60008201527f6b656e206f776e6572206f7220617070726f76656420666f7220616c6c000000602082015250565b6000614229603d83613696565b9150614234826141cd565b604082019050919050565b600060208201905081810360008301526142588161421c565b9050919050565b600060408201905061427460008301856137c8565b61428160208301846137c8565b9392505050565b7f4552433732313a2063616c6c6572206973206e6f7420746f6b656e206f776e6560008201527f72206f7220617070726f76656400000000000000000000000000000000000000602082015250565b60006142e4602d83613696565b91506142ef82614288565b604082019050919050565b60006020820190508181036000830152614313816142d7565b9050919050565b600082905092915050565b60008190508160005260206000209050919050565b60006020601f8301049050919050565b600082821b905092915050565b6000600883026143877fffffffffffffffffffffffffffffffffffffffffffffffffffffffffffffffff8261434a565b614391868361434a565b95508019841693508086168417925050509392505050565b60006143c46143bf6143ba84613657565b6139b0565b613657565b9050919050565b6000819050919050565b6143de836143a9565b6143f26143ea826143cb565b848454614357565b825550505050565b600090565b6144076143fa565b6144128184846143d5565b505050565b5b818110156144365761442b6000826143ff565b600181019050614418565b5050565b601f82111561447b5761444c81614325565b6144558461433a565b81016020851015614464578190505b6144786144708561433a565b830182614417565b50505b505050565b600082821c905092915050565b600061449e60001984600802614480565b1980831691505092915050565b60006144b7838361448d565b9150826002028217905092915050565b6144d1838361431a565b67ffffffffffffffff8111156144ea576144e9613ddc565b5b6144f4825461410a565b6144ff82828561443a565b6000601f83116001811461452e576000841561451c578287013590505b61452685826144ab565b86555061458e565b601f19841661453c86614325565b60005b828110156145645784890135825560018201915060208501945060208101905061453f565b86831015614581578489013561457d601f89168261448d565b8355505b6001600288020188555050505b50505050505050565b7f4552433732313a20696e76616c696420746f6b656e2049440000000000000000600082015250565b60006145cd601883613696565b91506145d882614597565b602082019050919050565b600060208201905081810360008301526145fc816145c0565b9050919050565b7f4552433732313a2061646472657373207a65726f206973206e6f74206120766160008201527f6c6964206f776e65720000000000000000000000000000000000000000000000602082015250565b600061465f602983613696565b915061466a82614603565b604082019050919050565b6000602082019050818103600083015261468e81614652565b9050919050565b7f2165786973747300000000000000000000000000000000000000000000000000600082015250565b60006146cb600783613696565b91506146d682614695565b602082019050919050565b600060208201905081810360008301526146fa816146be565b9050919050565b7f4d7573742062652070726f706f736564206f776e657200000000000000000000600082015250565b6000614737601683613696565b915061474282614701565b602082019050919050565b600060208201905081810360008301526147668161472a565b9050919050565b600060608201905061478260008301866137c8565b61478f60208301856137c8565b61479c60408301846137c8565b949350505050565b7f7174790000000000000000000000000000000000000000000000000000000000600082015250565b60006147da600383613696565b91506147e5826147a4565b602082019050919050565b60006020820190508181036000830152614809816147cd565b9050919050565b7f4e487b7100000000000000000000000000000000000000000000000000000000600052601160045260246000fd5b600061484a82613657565b915061485583613657565b925082820190508082111561486d5761486c614810565b5b92915050565b7f6361700000000000000000000000000000000000000000000000000000000000600082015250565b60006148a9600383613696565b91506148b482614873565b602082019050919050565b600060208201905081810360008301526148d88161489c565b9050919050565b60006148ea82613657565b91506148f583613657565b925082820261490381613657565b9150828204841483151761491a57614919614810565b5b5092915050565b600060608201905061493660008301866137c8565b61494360208301856137c8565b6149506040830184613661565b949350505050565b60008151905061496781613c34565b92915050565b60006020828403121561498357614982613592565b5b600061499184828501614958565b91505092915050565b7f7061790000000000000000000000000000000000000000000000000000000000600082015250565b60006149d0600383613696565b91506149db8261499a565b602082019050919050565b600060208201905081810360008301526149ff816149c3565b9050919050565b6000614a1182613657565b91507fffffffffffffffffffffffffffffffffffffffffffffffffffffffffffffffff8203614a4357614a42614810565b5b600182019050919050565b7f4e487b7100000000000000000000000000000000000000000000000000000000600052603260045260246000fd5b6000819050919050565b614a98614a9382613657565b614a7d565b82525050565b60008160601b9050919050565b6000614ab682614a9e565b9050919050565b6000614ac882614aab565b9050919050565b614ae0614adb826137b6565b614abd565b82525050565b6000614af28288614a87565b602082019150614b028287614a87565b602082019150614b128286614acf565b601482019150614b228285614a87565b602082019150614b328284614a87565b6020820191508190509695505050505050565b600081905092915050565b6000614b5b8261368b565b614b658185614b45565b9350614b758185602086016136a7565b80840191505092915050565b6000614b8d8285614b50565b9150614b998284614b50565b91508190509392505050565b7f4e487b7100000000000000000000000000000000000000000000000000000000600052601260045260246000fd5b6000614bdf82613657565b9150614bea83613657565b925082614bfa57614bf9614ba5565b5b828204905092915050565b7f6761746500000000000000000000000000000000000000000000000000000000600082015250565b6000614c3b600483613696565b9150614c4682614c05565b602082019050919050565b60006020820190508181036000830152614c6a81614c2e565b9050919050565b7f72616e6765000000000000000000000000000000000000000000000000000000600082015250565b6000614ca7600583613696565b9150614cb282614c71565b602082019050919050565b60006020820190508181036000830152614cd681614c9a565b9050919050565b7f6e6f2d6964730000000000000000000000000000000000000000000000000000600082015250565b6000614d13600683613696565b9150614d1e82614cdd565b602082019050919050565b60006020820190508181036000830152614d4281614d06565b9050919050565b7f4552433732313a207472616e736665722066726f6d20696e636f72726563742060008201527f6f776e6572000000000000000000000000000000000000000000000000000000602082015250565b6000614da5602583613696565b9150614db082614d49565b604082019050919050565b60006020820190508181036000830152614dd481614d98565b9050919050565b7f4552433732313a207472616e7366657220746f20746865207a65726f2061646460008201527f7265737300000000000000000000000000000000000000000000000000000000602082015250565b6000614e37602483613696565b9150614e4282614ddb565b604082019050919050565b60006020820190508181036000830152614e6681614e2a565b9050919050565b7f4f6e6c792063616c6c61626c65206279206f776e657200000000000000000000600082015250565b6000614ea3601683613696565b9150614eae82614e6d565b602082019050919050565b60006020820190508181036000830152614ed281614e96565b9050919050565b7f5265656e7472616e637947756172643a207265656e7472616e742063616c6c00600082015250565b6000614f0f601f83613696565b9150614f1a82614ed9565b602082019050919050565b60006020820190508181036000830152614f3e81614f02565b9050919050565b7f7672660000000000000000000000000000000000000000000000000000000000600082015250565b6000614f7b600383613696565b9150614f8682614f45565b602082019050919050565b60006020820190508181036000830152614faa81614f6e565b9050919050565b614fba81613b09565b82525050565b614fc981613657565b82525050565b614fd881613cf8565b82525050565b614fe781613976565b82525050565b600081519050919050565b600082825260208201905092915050565b600061501482614fed565b61501e8185614ff8565b935061502e8185602086016136a7565b615037816136d1565b840191505092915050565b600060c08301600083015161505a6000860182614fb1565b50602083015161506d6020860182614fc0565b5060408301516150806040860182614fcf565b5060608301516150936060860182614fde565b5060808301516150a66080860182614fde565b5060a083015184820360a08601526150be8282615009565b9150508091505092915050565b600060208201905081810360008301526150e58184615042565b905092915050565b6000815190506150fc8161373d565b92915050565b60006020828403121561511857615117613592565b5b6000615126848285016150ed565b91505092915050565b600061513b8285614a87565b60208201915061514b8284614a87565b6020820191508190509392505050565b600061516682613657565b915061517183613657565b92508261518157615180614ba5565b5b828206905092915050565b7f4552433732313a20617070726f766520746f2063616c6c657200000000000000600082015250565b60006151c2601983613696565b91506151cd8261518c565b602082019050919050565b600060208201905081810360008301526151f1816151b5565b9050919050565b7f4552433732313a207472616e7366657220746f206e6f6e20455243373231526560008201527f63656976657220696d706c656d656e7465720000000000000000000000000000602082015250565b6000615254603283613696565b915061525f826151f8565b604082019050919050565b6000602082019050818103600083015261528381615247565b9050919050565b7f6f776e6572000000000000000000000000000000000000000000000000000000600082015250565b60006152c0600583613696565b91506152cb8261528a565b602082019050919050565b600060208201905081810360008301526152ef816152b3565b9050919050565b7f6e6565642d6c6567656e64617279000000000000000000000000000000000000600082015250565b600061532c600e83613696565b9150615337826152f6565b602082019050919050565b6000602082019050818103600083015261535b8161531f565b9050919050565b600061536d82613657565b915061537883613657565b92508282039050818111156153905761538f614810565b5b92915050565b7f6c6567656e642d72616e67650000000000000000000000000000000000000000600082015250565b60006153cc600c83613696565b91506153d782615396565b602082019050919050565b600060208201905081810360008301526153fb816153bf565b9050919050565b7f6475700000000000000000000000000000000000000000000000000000000000600082015250565b6000615438600383613696565b915061544382615402565b602082019050919050565b600060208201905081810360008301526154678161542b565b9050919050565b7f7661720000000000000000000000000000000000000000000000000000000000600082015250565b60006154a4600383613696565b91506154af8261546e565b602082019050919050565b600060208201905081810360008301526154d381615497565b9050919050565b7f6e6565642d352d65616368000000000000000000000000000000000000000000600082015250565b6000615510600b83613696565b915061551b826154da565b602082019050919050565b6000602082019050818103600083015261553f81615503565b9050919050565b7f43616e6e6f74207472616e7366657220746f2073656c66000000000000000000600082015250565b600061557c601783613696565b915061558782615546565b602082019050919050565b600060208201905081810360008301526155ab8161556f565b9050919050565b6155bb81613621565b82525050565b6020820160008201516155d760008501826155b2565b50505050565b60006020820190506155f260008301846155c1565b92915050565b600082825260208201905092915050565b600061561482614fed565b61561e81856155f8565b935061562e8185602086016136a7565b615637816136d1565b840191505092915050565b600060808201905061565760008301876137c8565b61566460208301866137c8565b6156716040830185613661565b81810360608301526156838184615609565b905095945050505050565b60008151905061569d816135c8565b92915050565b6000602082840312156156b9576156b8613592565b5b60006156c78482850161568e565b91505092915050565b7f4552433732313a206d696e7420746f20746865207a65726f2061646472657373600082015250565b6000615706602083613696565b9150615711826156d0565b602082019050919050565b60006020820190508181036000830152615735816156f9565b9050919050565b7f4552433732313a20746f6b656e20616c7265616479206d696e74656400000000600082015250565b6000615772601c83613696565b915061577d8261573c565b602082019050919050565b600060208201905081810360008301526157a181615765565b905091905056fea264697066735822122070c1bf02275fbc08868a084954cf72c6678692c2548ac7ef3e28c34a9ed172ae64736f6c63430008140033",
  "linkReferences": {},
  "deployedLinkReferences": {}
}